{"abi":[{"type":"constructor","inputs":[{"name":"_stablecoin","type":"address","internalType":"address"},{"name":"_userRegistry","type":"address","internalType":"address"},{"name":"_aiOracle","type":"address","internalType":"address"}],"stateMutability":"nonpayable"},{"type":"function","name":"aiOracle","inputs":[],"outputs":[{"name":"","type":"address","internalType":"contract AIOracle"}],"stateMutability":"view"},{"type":"function","name":"approve","inputs":[{"name":"to","type":"address","internalType":"address"},{"name":"tokenId","type":"uint256","internalType":"uint256"}],"outputs":[],"stateMutability":"nonpayable"},{"type":"function","name":"badgeCounter","inputs":[],"outputs":[{"name":"","type":"uint256","internalType":"uint256"}],"stateMutability":"view"},{"type":"function","name":"badgeToSubmissionId","inputs":[{"name":"","type":"uint256","internalType":"uint256"}],"outputs":[{"name":"","type":"uint256","internalType":"uint256"}],"stateMutability":"view"},{"type":"function","name":"balanceOf","inputs":[{"name":"owner","type":"address","internalType":"address"}],"outputs":[{"name":"","type":"uint256","internalType":"uint256"}],"stateMutability":"view"},{"type":"function","name":"createTest","inputs":[{"name":"title","type":"string","internalType":"string"},{"name":"description","type":"string","internalType":"string"},{"name":"ipfsHash","type":"string","internalType":"string"},{"name":"fee","type":"uint256","internalType":"uint256"}],"outputs":[],"stateMutability":"nonpayable"},{"type":"function","name":"freelancerBadges","inputs":[{"name":"","type":"address","internalType":"address"},{"name":"","type":"uint256","internalType":"uint256"}],"outputs":[{"name":"","type":"uint256","internalType":"uint256"}],"stateMutability":"view"},{"type":"function","name":"getApproved","inputs":[{"name":"tokenId","type":"uint256","internalType":"uint256"}],"outputs":[{"name":"","type":"address","internalType":"address"}],"stateMutability":"view"},{"type":"function","name":"getFreelancerBadges","inputs":[{"name":"user","type":"address","internalType":"address"}],"outputs":[{"name":"","type":"uint256[]","internalType":"uint256[]"}],"stateMutability":"view"},{"type":"function","name":"getSubmission","inputs":[{"name":"submissionId","type":"uint256","internalType":"uint256"}],"outputs":[{"name":"","type":"tuple","internalType":"struct SkillTrial.Submission","components":[{"name":"testId","type":"uint256","internalType":"uint256"},{"name":"applicant","type":"address","internalType":"address"},{"name":"submissionHash","type":"string","internalType":"string"},{"name":"status","type":"uint8","internalType":"enum SkillTrial.SubmissionStatus"},{"name":"submittedAt","type":"uint256","internalType":"uint256"},{"name":"score","type":"uint8","internalType":"uint8"},{"name":"report","type":"string","internalType":"string"}]}],"stateMutability":"view"},{"type":"function","name":"getTest","inputs":[{"name":"testId","type":"uint256","internalType":"uint256"}],"outputs":[{"name":"","type":"tuple","internalType":"struct SkillTrial.SkillTest","components":[{"name":"title","type":"string","internalType":"string"},{"name":"description","type":"string","internalType":"string"},{"name":"ipfsHash","type":"string","internalType":"string"},{"name":"fee","type":"uint256","internalType":"uint256"},{"name":"isActive","type":"bool","internalType":"bool"},{"name":"submissionCount","type":"uint256","internalType":"uint256"}]}],"stateMutability":"view"},{"type":"function","name":"isApprovedForAll","inputs":[{"name":"owner","type":"address","internalType":"address"},{"name":"operator","type":"address","internalType":"address"}],"outputs":[{"name":"","type":"bool","internalType":"bool"}],"stateMutability":"view"},{"type":"function","name":"mint","inputs":[{"name":"user","type":"address","internalType":"address"},{"name":"submissionId","type":"uint256","internalType":"uint256"},{"name":"score","type":"uint8","internalType":"uint8"},{"name":"report","type":"string","internalType":"string"}],"outputs":[],"stateMutability":"nonpayable"},{"type":"function","name":"name","inputs":[],"outputs":[{"name":"","type":"string","internalType":"string"}],"stateMutability":"view"},{"type":"function","name":"owner","inputs":[],"outputs":[{"name":"","type":"address","internalType":"address"}],"stateMutability":"view"},{"type":"function","name":"ownerOf","inputs":[{"name":"tokenId","type":"uint256","internalType":"uint256"}],"outputs":[{"name":"","type":"address","internalType":"address"}],"stateMutability":"view"},{"type":"function","name":"renounceOwnership","inputs":[],"outputs":[],"stateMutability":"nonpayable"},{"type":"function","name":"safeTransferFrom","inputs":[{"name":"from","type":"address","internalType":"address"},{"name":"to","type":"address","internalType":"address"},{"name":"tokenId","type":"uint256","internalType":"uint256"}],"outputs":[],"stateMutability":"nonpayable"},{"type":"function","name":"safeTransferFrom","inputs":[{"name":"from","type":"address","internalType":"address"},{"name":"to","type":"address","internalType":"address"},{"name":"tokenId","type":"uint256","internalType":"uint256"},{"name":"data","type":"bytes","internalType":"bytes"}],"outputs":[],"stateMutability":"nonpayable"},{"type":"function","name":"setAiOracle","inputs":[{"name":"_aiOracle","type":"address","internalType":"address"}],"outputs":[],"stateMutability":"nonpayable"},{"type":"function","name":"setApprovalForAll","inputs":[{"name":"operator","type":"address","internalType":"address"},{"name":"approved","type":"bool","internalType":"bool"}],"outputs":[],"stateMutability":"nonpayable"},{"type":"function","name":"skillTests","inputs":[{"name":"","type":"uint256","internalType":"uint256"}],"outputs":[{"name":"title","type":"string","internalType":"string"},{"name":"description","type":"string","internalType":"string"},{"name":"ipfsHash","type":"string","internalType":"string"},{"name":"fee","type":"uint256","internalType":"uint256"},{"name":"isActive","type":"bool","internalType":"bool"},{"name":"submissionCount","type":"uint256","internalType":"uint256"}],"stateMutability":"view"},{"type":"function","name":"stablecoin","inputs":[],"outputs":[{"name":"","type":"address","internalType":"contract IERC20"}],"stateMutability":"view"},{"type":"function","name":"submissions","inputs":[{"name":"","type":"uint256","internalType":"uint256"}],"outputs":[{"name":"testId","type":"uint256","internalType":"uint256"},{"name":"applicant","type":"address","internalType":"address"},{"name":"submissionHash","type":"string","internalType":"string"},{"name":"status","type":"uint8","internalType":"enum SkillTrial.SubmissionStatus"},{"name":"submittedAt","type":"uint256","internalType":"uint256"},{"name":"score","type":"uint8","internalType":"uint8"},{"name":"report","type":"string","internalType":"string"}],"stateMutability":"view"},{"type":"function","name":"submitTrial","inputs":[{"name":"testId","type":"uint256","internalType":"uint256"},{"name":"submissionHash","type":"string","internalType":"string"}],"outputs":[{"name":"","type":"uint256","internalType":"uint256"}],"stateMutability":"nonpayable"},{"type":"function","name":"supportsInterface","inputs":[{"name":"interfaceId","type":"bytes4","internalType":"bytes4"}],"outputs":[{"name":"","type":"bool","internalType":"bool"}],"stateMutability":"view"},{"type":"function","name":"symbol","inputs":[],"outputs":[{"name":"","type":"string","internalType":"string"}],"stateMutability":"view"},{"type":"function","name":"tokenURI","inputs":[{"name":"tokenId","type":"uint256","internalType":"uint256"}],"outputs":[{"name":"","type":"string","internalType":"string"}],"stateMutability":"view"},{"type":"function","name":"transferFrom","inputs":[{"name":"from","type":"address","internalType":"address"},{"name":"to","type":"address","internalType":"address"},{"name":"tokenId","type":"uint256","internalType":"uint256"}],"outputs":[],"stateMutability":"nonpayable"},{"type":"function","name":"transferOwnership","inputs":[{"name":"newOwner","type":"address","internalType":"address"}],"outputs":[],"stateMutability":"nonpayable"},{"type":"function","name":"userRegistry","inputs":[],"outputs":[{"name":"","type":"address","internalType":"contract UserRegistry"}],"stateMutability":"view"},{"type":"event","name":"Approval","inputs":[{"name":"owner","type":"address","indexed":true,"internalType":"address"},{"name":"approved","type":"address","indexed":true,"internalType":"address"},{"name":"tokenId","type":"uint256","indexed":true,"internalType":"uint256"}],"anonymous":false},{"type":"event","name":"ApprovalForAll","inputs":[{"name":"owner","type":"address","indexed":true,"internalType":"address"},{"name":"operator","type":"address","indexed":true,"internalType":"address"},{"name":"approved","type":"bool","indexed":false,"internalType":"bool"}],"anonymous":false},{"type":"event","name":"OwnershipTransferred","inputs":[{"name":"previousOwner","type":"address","indexed":true,"internalType":"address"},{"name":"newOwner","type":"address","indexed":true,"internalType":"address"}],"anonymous":false},{"type":"event","name":"TestCreated","inputs":[{"name":"testId","type":"uint256","indexed":true,"internalType":"uint256"},{"name":"title","type":"string","indexed":false,"internalType":"string"},{"name":"fee","type":"uint256","indexed":false,"internalType":"uint256"}],"anonymous":false},{"type":"event","name":"Transfer","inputs":[{"name":"from","type":"address","indexed":true,"internalType":"address"},{"name":"to","type":"address","indexed":true,"internalType":"address"},{"name":"tokenId","type":"uint256","indexed":true,"internalType":"uint256"}],"anonymous":false},{"type":"event","name":"TrialGraded","inputs":[{"name":"submissionId","type":"uint256","indexed":true,"internalType":"uint256"},{"name":"score","type":"uint8","indexed":false,"internalType":"uint8"},{"name":"badgeId","type":"uint256","indexed":true,"internalType":"uint256"}],"anonymous":false},{"type":"event","name":"TrialSubmitted","inputs":[{"name":"submissionId","type":"uint256","indexed":true,"internalType":"uint256"},{"name":"testId","type":"uint256","indexed":true,"internalType":"uint256"},{"name":"applicant","type":"address","indexed":true,"internalType":"address"}],"anonymous":false},{"type":"error","name":"AlreadySubmitted","inputs":[]},{"type":"error","name":"ERC721IncorrectOwner","inputs":[{"name":"sender","type":"address","internalType":"address"},{"name":"tokenId","type":"uint256","internalType":"uint256"},{"name":"owner","type":"address","internalType":"address"}]},{"type":"error","name":"ERC721InsufficientApproval","inputs":[{"name":"operator","type":"address","internalType":"address"},{"name":"tokenId","type":"uint256","internalType":"uint256"}]},{"type":"error","name":"ERC721InvalidApprover","inputs":[{"name":"approver","type":"address","internalType":"address"}]},{"type":"error","name":"ERC721InvalidOperator","inputs":[{"name":"operator","type":"address","internalType":"address"}]},{"type":"error","name":"ERC721InvalidOwner","inputs":[{"name":"owner","type":"address","internalType":"address"}]},{"type":"error","name":"ERC721InvalidReceiver","inputs":[{"name":"receiver","type":"address","internalType":"address"}]},{"type":"error","name":"ERC721InvalidSender","inputs":[{"name":"sender","type":"address","internalType":"address"}]},{"type":"error","name":"ERC721NonexistentToken","inputs":[{"name":"tokenId","type":"uint256","internalType":"uint256"}]},{"type":"error","name":"InsufficientFee","inputs":[]},{"type":"error","name":"OnlyBackend","inputs":[]},{"type":"error","name":"OnlyOracle","inputs":[]},{"type":"error","name":"OwnableInvalidOwner","inputs":[{"name":"owner","type":"address","internalType":"address"}]},{"type":"error","name":"OwnableUnauthorizedAccount","inputs":[{"name":"account","type":"address","internalType":"address"}]},{"type":"error","name":"ReentrancyGuardReentrantCall","inputs":[]},{"type":"error","name":"TestNotActive","inputs":[]}],"bytecode":{"object":"0x60c0346200042a57601f196001600160401b03601f62002c20388190038281018516860191908483118784101762000414578087926060946040528339810103126200042a5762000050846200044f565b936020926200006f6040620000678685016200044f565b93016200044f565b926200007a6200042f565b94601586527f48756d616e576f726b20536b696c6c204261646765000000000000000000000081870152620000ae6200042f565b9060078252661215d4d2d2531360ca1b8183015286519784891162000414576000988954986001998a81811c9116801562000409575b85821014620003f557908187849311620003a2575b50849087831160011462000341578c9262000335575b5050600019600383901b1c191690891b1789555b8251948511620003215787548881811c9116801562000316575b838210146200030257908185879695949311620002a9575b508193851160011462000244575050879262000238575b5050600019600383901b1c191690841b1783555b33156200021f57600680546001600160a01b0319808216339081179093556040519790966001600160a01b03968795948694919290918516907f8be0079c531659141344cd1fd0a4f28419497f9722a3daafe3b4186f6b6457e09080a3600755166080521660a052169060085416176008556127bb90816200046582396080518181816106aa0152610932015260a0518181816118130152611c1b0152f35b604051631e4fbdf760e01b815260048101859052602490fd5b0151905038806200016c565b88959392919316858a52838a20938a905b8282106200028f575050841162000275575b505050811b01835562000180565b015160001960f88460031b161c1916905538808062000267565b8484015186558a9790950194938401939081019062000255565b909192939450888a52828a208580880160051c820192858910620002f8575b9188978c9297969594930160051c01915b828110620002e957505062000155565b8c81558897508b9101620002d9565b92508192620002c8565b634e487b7160e01b8a52602260045260248afd5b90607f16906200013d565b634e487b7160e01b89526041600452602489fd5b0151905038806200010f565b908c91858d9516838052878420935b888282106200038b575050841162000371575b505050811b01895562000123565b015160001960f88460031b161c1916905538808062000363565b8385015186558f9790950194938401930162000350565b9091508b8052848c208780850160051c820192878610620003eb575b918d91869594930160051c01915b828110620003dc575050620000f9565b8e81558594508d9101620003cc565b92508192620003be565b634e487b7160e01b8c52602260045260248cfd5b90607f1690620000e4565b634e487b7160e01b600052604160045260246000fd5b600080fd5b60408051919082016001600160401b038111838210176200041457604052565b51906001600160a01b03821682036200042a5756fe608080604052600436101561001357600080fd5b60009060e08235811c91826301ffc9a7146120515750816306fdde0314611f82578163081812fc14611f45578163095ea7b314611e6257816323b872dd14611e4a57816331b221cd14611e215781633e8686cc14611cce57816342842e0e14611ca05781635b9d73d714611c4a5781635c7460d614611c055781636352211e14611bd4578163644acc6014611603578163674c05831461155357816370a08231146114fb578163715018a61461149d57816386fc79c8146113ef5781638da5cb5b146113c6578163939b27ee14610ec957816395d89b4114610dea578163a22cb46514610d38578163a8744d5e14610d0e578163ad73349e14610c58578163b88d4fde14610be6578163c87b56dd146109d3578163e5ed9884146109b5578163e985e9c514610961578163e9cbd8221461091c578163edef019d1461080457508063f2fde38b14610779578063f9e5dbaa146101ba5763fda1fd831461017857600080fd5b346101b75760203660031901126101b757610191612106565b61019961240b565b60018060a01b03166001600160601b0360a01b600854161760085580f35b80fd5b50346101b75760403660031901126101b7576024356001600160401b038111610471576101eb903690600401612297565b906101f4612762565b6101ff6004356122b5565b509160ff6004840154161561076757600383015480610680575b50600a54906040519361022b856121bd565b60043585523360208601528160408601528360608601524260808601528360a086015260405161025a81612209565b84815260c0860152600160401b83101561066c5760018301600a5561027e836123d0565b95909561065857805186556001860160018060a01b036020830151166001600160601b0360a01b82541617905560408101518051906001600160401b0382116106445781906102d060028a01546122f0565b601f81116105f3575b50602090601f8311600114610584578892610579575b50508160011b916000199060031b1c19161760028701555b6060810151600387016002821015610565579060c0929160ff199160ff83835416911617905560808201516004890155600588019060ff60a0840151169082541617905501519485516001600160401b0381116105515761036b60068301546122f0565b96601f881161050c575b86809850959650602090601f831160011461049257926006836005946104059794602099978b92610487575b50508160011b916000199060031b1c1916179101555b016103c2815461273d565b9055600854604051637258268d60e11b815260048101879052336024820152606060448201529485936001600160a01b03909216928492839160648301906120e1565b03925af1801561047c5761044d575b6040516020908333600435827f5ca58d4762c93ced4f122a84bb22fc4fea796adc287af3fc35f2e5e8210099058980a460016007558152f35b602090813d8311610475575b6104638183612224565b810103126104715738610414565b5080fd5b503d610459565b6040513d85823e3d90fd5b0151905038806103a1565b906006840187526020872091875b601f19851681106104f1575060018461040597946020999794600694600598601f198116106104d8575b505050811b019101556103b7565b015160001960f88460031b161c191690553880806104ca565b8183015184558a9850600190930192602092830192016104a0565b60068301875260208720601f830160051c81016020841061054a575b601f8a0160051c8201811061053e575050610375565b60008155600101610528565b5080610528565b634e487b7160e01b86526041600452602486fd5b634e487b7160e01b87526021600452602487fd5b0151905038806102ef565b9250600289018852602088209088935b601f19841685106105d8576001945083601f198116106105bf575b505050811b016002870155610307565b015160001960f88460031b161c191690553880806105af565b81810151835560209485019460019093019290910190610594565b90915060028901885260208820601f840160051c81016020851061063d575b90849392915b601f830160051c8201811061062e5750506102d9565b60008155859450600101610618565b5080610612565b634e487b7160e01b87526041600452602487fd5b634e487b7160e01b85526004859052602485fd5b634e487b7160e01b84526041600452602484fd5b6040516323b872dd60e01b81523360048201523060248201526044810191909152602081606481867f00000000000000000000000000000000000000000000000000000000000000006001600160a01b03165af190811561047c578391610729575b50156106ee5738610219565b60405162461bcd60e51b8152602060048201526013602482015272119959481d1c985b9cd9995c8819985a5b1959606a1b6044820152606490fd5b90506020813d821161075f575b8161074360209383612224565b8101031261075b5751801515810361075b57386106e2565b8280fd5b3d9150610736565b60405163c17b352960e01b8152600490fd5b50346101b75760203660031901126101b757610793612106565b61079b61240b565b6001600160a01b039081169081156107eb57600654826001600160601b0360a01b821617600655167f8be0079c531659141344cd1fd0a4f28419497f9722a3daafe3b4186f6b6457e0600080a380f35b604051631e4fbdf760e01b815260048101849052602490fd5b82346101b75760203660031901126101b75760405190610823826121ee565b60a06060928381528360208201528360408201528284820152826080820152015261084f6004356122b5565b506040519161085d836121ee565b6108668261232a565b83526108746001830161232a565b916020840192835261090361088b6002830161232a565b60408601908152600383015494848701958652600560ff6004860154169460808901951515865201549460a088019586526108f36108dd6040519a8b9a60208c52519060c060208d01528b01906120e1565b925192601f1993848b83030160408c01526120e1565b92519188840301908801526120e1565b9251608085015251151560a08401525160c08301520390f35b82346101b757806003193601126101b7576040517f00000000000000000000000000000000000000000000000000000000000000006001600160a01b03168152602090f35b82346101b75760403660031901126101b75761097b612106565b6040610985612121565b9260018060a01b0380931681526005602052209116600052602052602060ff604060002054166040519015158152f35b82346101b757806003193601126101b7576020600d54604051908152f35b82346101b757602090816003193601126101b75781600435916109f5836125d6565b5060405192610a0384612209565b8184528115610bcc578190807a184f03e93ff9f4daa797ed6e38ed64bf6a1f0100000000000000008181811015610bbe575b5050846d04ee2d6d415b85acef810000000080841015610bb0575b5050662386f26fc1000080831015610ba1575b506305f5e10080831015610b92575b5061271080831015610b83575b506064821015610b73575b600a80921015610b69575b60019081602181860195610ac1610aab88612245565b97610ab9604051998a612224565b808952612245565b878a019890601f1901368a3750860101905b610b33575b5050505092610b199291610b0d946040519583610afe88955180928880890191016120be565b840191518093868401906120be565b01038084520182612224565b905b610b2f6040519282849384528301906120e1565b0390f35b600019019083906f181899199a1a9b1b9c1cb0b131b232b360811b8282061a835304918215610b6457919082610ad3565b610ad8565b9160010191610a95565b9190606460029104910191610a8a565b60049193920491019187610a7f565b60089193920491019187610a72565b60109193920491019187610a63565b930192909104908488610a50565b604094500491508780610a35565b50505050604051610bdc81612209565b6000815290610b1b565b82346101b75760803660031901126101b757610c00612106565b610c08612121565b90604435606435926001600160401b038411610c545736602385011215610c5457610c40610c51943690602481600401359101612260565b92610c4c838383612437565b612611565b80f35b8480fd5b82346101b75760203660031901126101b75760043590600a548210156101b75750610c82906123d0565b50805460018201546001600160a01b0316929091610b2f91610ca66002830161232a565b9160ff60038201541692610cf7610cec600484015492610cd0600660ff600588015416960161232a565b956040519a8b9a8b5260208b01528060408b01528901906120e1565b94606088019061216c565b608086015260a085015283820360c08501526120e1565b82346101b75760203660031901126101b75760406020916004358152600c83522054604051908152f35b82346101b75760403660031901126101b757610d52612106565b6024359081151590818303610de6576001600160a01b0316918215610dcd57610d9e903385526005602052604085208460005260205260406000209060ff801983541691151516179055565b6040519081527f17307eab39ab6107e8899845ad3d59bd9653f200f220920489ca2b5937696c3160203392a380f35b604051630b61174360e31b815260048101849052602490fd5b8380fd5b82346101b757806003193601126101b75760405160006001805490610e0e826122f0565b80855291818116908115610ea25750600114610e49575b610b2f84610e3581860382612224565b6040519182916020835260208301906120e1565b600081815292507fb10e2d527612073b26eecdfd717e6a320cf44b4afac2b0732d9fcbe2b7fa0cf65b828410610e8a575050508101602001610e3582610e25565b80546020858701810191909152909301928101610e72565b60ff191660208087019190915292151560051b85019092019250610e359150839050610e25565b82346101b75760803660031901126101b7576004356001600160401b03811161047157610efa903690600401612297565b60249081356001600160401b038111610de657610f1b903690600401612297565b6044356001600160401b038111610c5457610f3a903690600401612297565b610f4261240b565b60405191610f4f836121ee565b838352602083015260408201526064356060820152600160808201528360a0820152600954600160401b8110156113b357806001610f9092016009556122b5565b9190916113a05780518051906001600160401b038211611200578190610fb685546122f0565b601f8111611352575b50602090601f83116001146112e95788926112de575b50508160011b916000199060031b1c19161782555b60208101518051906001600160401b03821161120057819061100f60018601546122f0565b601f811161128d575b50602090601f831160011461121e578892611213575b50508160011b916000199060031b1c19161760018301555b60408101518051906001600160401b0382116112005761106960028501546122f0565b601f81116111bb575b50602090601f831160011461114c5791806005949260a0948a92611141575b50508160011b916000199060031b1c19161760028501555b606081015160038501556110d260808201511515600486019060ff801983541691151516179055565b015191015560095460001981019290831161112f57506111217f812f46015ecceb58bd8c000c4b31e2eac9d57e2bfadbbaa557dd3408067d47df916040519182916040835260408301906120e1565b60643560208301520390a280f35b634e487b7160e01b8452601160045283fd5b015190508980611091565b600285018852602088209190601f198416895b8181106111a3575092600192859260a096600598961061118a575b505050811b0160028501556110a9565b015160001960f88460031b161c1916905589808061117a565b9293602060018192878601518155019501930161115f565b60028501885260208820601f840160051c8101602085106111f9575b601f830160051c820181106111ed575050611072565b600081556001016111d7565b50806111d7565b634e487b7160e01b875260416004528587fd5b01519050878061102e565b9250600185018852602088209088935b601f1984168510611272576001945083601f19811610611259575b505050811b016001830155611046565b015160001960f88460031b161c19169055878080611249565b8181015183556020948501946001909301929091019061122e565b90915060018501885260208820601f840160051c8101602085106112d7575b90849392915b601f830160051c820181106112c8575050611018565b600081558594506001016112b2565b50806112ac565b015190508780610fd5565b9250848852602088209088935b601f1984168510611337576001945083601f1981161061131e575b505050811b018255610fea565b015160001960f88460031b161c19169055878080611311565b818101518355602094850194600190930192909101906112f6565b90915084885260208820601f840160051c810160208510611399575b90849392915b601f830160051c8201811061138a575050610fbf565b60008155859450600101611374565b508061136e565b634e487b7160e01b855260048590528385fd5b634e487b7160e01b855260416004528385fd5b82346101b757806003193601126101b7576006546040516001600160a01b039091168152602090f35b82346101b757602080600319360112610471576001600160a01b03611412612106565b168252600b81526040822060405192838383549182815201908193835284832090835b818110611489575050508461144b910385612224565b60405193838594850191818652518092526040850193925b82811061147257505050500390f35b835185528695509381019392810192600101611463565b825484529286019260019283019201611435565b82346101b757806003193601126101b7576114b661240b565b600680546001600160a01b031981169091556000906001600160a01b03167f8be0079c531659141344cd1fd0a4f28419497f9722a3daafe3b4186f6b6457e08280a380f35b82346101b75760203660031901126101b7576001600160a01b0361151d612106565b16801561153a578160409160209352600383522054604051908152f35b6040516322718ad960e21b815260048101839052602490fd5b82346101b75760203660031901126101b757600435906009548210156101b7576115d161157f836122b5565b506115898161232a565b906115966001820161232a565b6115a26002830161232a565b916115ed6003820154936115df600560ff6004860154169401549460405198899860c08a5260c08a01906120e1565b9088820360208a01526120e1565b9086820360408801526120e1565b9260608501521515608084015260a08301520390f35b82346101b75760803660031901126101b75761161d612106565b60443560ff8116810361075b576064356001600160401b038111610de657611649903690600401612297565b6008546001600160a01b03163303611bc257611663612762565b61166e6024356123d0565b50906003820180549060ff82166002811015611bae57611b705760ff19918216600117905560058301805490911660ff85161790558051906001600160401b038211610551576116c160068401546122f0565b601f8111611b28575b50602090601f8311600114611abc5760069291879183611ab1575b50508160011b916000199060031b1c1916179101555b605060ff821610611a7557600d54906117138261273d565b600d5560405161172281612209565b8481526001600160a01b038416938415611a5c57838652600260205260408620546001600160a01b0316801515908590879083611a27575b818a52600360205260408a2060018154019055828a52600260205260408a20826001600160601b0360a01b8254161790557fddf252ad1be2c89b69c2b068fc378daa952ba7f163c4a11628f55a4df523b3ef8a80a4611a0e573b6118eb575b509091808452600b60205260408420805490600160401b82101561055157816117e991600188959401815561218f565b815460001960039290921b91821b19169086901b179055838252600c6020526040822060243590557f00000000000000000000000000000000000000000000000000000000000000006001600160a01b0316803b1561075b57606483926040519485938492636b33531160e01b845260048401528160248401528860448401525af180156118e0576118b1575b5060ff604051911681527fb3911870883d2d1dfe50a5fad33cba6bc87bb4faf524a41187e0aa5e5e3a72b7602060243592a35b600160075580f35b6001600160401b0381949294116118cc576040529183611876565b634e487b7160e01b82526041600452602482fd5b6040513d86823e3d90fd5b60405160208180611924630a85bd0160e11b958683523360048401528a60248401528860448401526080606484015260848301906120e1565b038189895af18691816119c6575b506119935785853d1561198a573d61194981612245565b906119576040519283612224565b8152809260203d92013e5b8151918261198357604051633250574960e11b815260048101839052602490fd5b9050602001fd5b60609150611962565b929391926001600160e01b031916036119ae579190846117b9565b60249060405190633250574960e11b82526004820152fd5b9091506020813d8211611a06575b816119e160209383612224565b81010312611a0257516001600160e01b031981168103611a02579087611932565b8680fd5b3d91506119d4565b6040516339e3563760e11b815260048101879052602490fd5b600083815260046020526040902080546001600160a01b0319169055808a52600360205260408a20805460001901905561175a565b604051633250574960e11b815260048101879052602490fd5b905060ff60405191168152600019907fb3911870883d2d1dfe50a5fad33cba6bc87bb4faf524a41187e0aa5e5e3a72b7602060243592a36118a9565b0151905087806116e5565b9060068401875280872091875b601f1985168110611b105750918391600193600695601f19811610611af7575b505050811b019101556116fb565b015160001960f88460031b161c19169055878080611ae9565b91926020600181928685015181550194019201611ac9565b60068401875260208720601f840160051c81019160208510611b66575b601f0160051c01905b818110611b5b57506116ca565b878155600101611b4e565b9091508190611b45565b60405162461bcd60e51b81526020600482015260166024820152755375626d697373696f6e206e6f742070656e64696e6760501b6044820152606490fd5b634e487b7160e01b88526021600452602488fd5b6040516380fee10560e01b8152600490fd5b82346101b75760203660031901126101b7576020611bf36004356125d6565b6040516001600160a01b039091168152f35b82346101b757806003193601126101b7576040517f00000000000000000000000000000000000000000000000000000000000000006001600160a01b03168152602090f35b82346101b75760403660031901126101b757611c64612106565b6001600160a01b03168152600b60205260408120805460243592908310156101b7576020611c92848461218f565b90546040519160031b1c8152f35b82346101b757610c51611cb236612137565b9060405192611cc084612209565b858452610c4c838383612437565b90503461047157602036600319011261047157606060c0604051611cf1816121bd565b84815284602082015282604082015284838201528460808201528460a08201520152611d1e6004356123d0565b509060405191611d2d836121bd565b8054835260018101546001600160a01b03908116602085019081529190611d566002830161232a565b906040860191825260ff60038401541660608701976002821015611e0d5750610b2f9593611dee611de28a979560ff958b9560209d52611db260066004870154966080890197885260a08a60058301541699019889520161232a565b9760c08d019889526040518e819f9e829f835251910152511660408c0152518760608c01526101008b01906120e1565b965160808a019061216c565b5160a0880152511660c08601525190601f1985840301908501526120e1565b634e487b7160e01b81526021600452602490fd5b82346101b757806003193601126101b7576008546040516001600160a01b039091168152602090f35b82346101b757610c51611e5c36612137565b91612437565b82346101b75760403660031901126101b757611e7c612106565b602435611e88816125d6565b33151580611f32575b80611f07575b611eef576001600160a01b039283169282918491167f8c5be1e5ebec7d5bd14f71427d1e84f3dd0314c0f7b2291e5b200ac8c7c3b9258680a4825260046020526040822080546001600160a01b031916909117905580f35b60405163a9fbf51f60e01b8152336004820152602490fd5b506001600160a01b038116845260056020908152604080862033875290915284205460ff1615611e97565b506001600160a01b038116331415611e91565b82346101b75760203660031901126101b757602090600435611f66816125d6565b50815260048252604060018060a01b0391205416604051908152f35b82346101b757806003193601126101b75760405190808054611fa3816122f0565b808552916001918083169081156120275750600114611fcd575b610b2f85610e3581870382612224565b80809450527f290decd9548b62a8d60345a988386fc84ba6bc95484008f6362f93160ef3e5635b82841061200f575050508101602001610e3582610b2f611fbd565b80546020858701810191909152909301928101611ff4565b869550610b2f96935060209250610e3594915060ff191682840152151560051b8201019293611fbd565b8390346104715760203660031901126104715760043563ffffffff60e01b811680910361075b57602092506380ac58cd60e01b81149081156120ad575b811561209c575b5015158152f35b6301ffc9a760e01b14905083612095565b635b5e139f60e01b8114915061208e565b60005b8381106120d15750506000910152565b81810151838201526020016120c1565b906020916120fa815180928185528580860191016120be565b601f01601f1916010190565b600435906001600160a01b038216820361211c57565b600080fd5b602435906001600160a01b038216820361211c57565b606090600319011261211c576001600160a01b0390600435828116810361211c5791602435908116810361211c579060443590565b9060028210156121795752565b634e487b7160e01b600052602160045260246000fd5b80548210156121a75760005260206000200190600090565b634e487b7160e01b600052603260045260246000fd5b60e081019081106001600160401b038211176121d857604052565b634e487b7160e01b600052604160045260246000fd5b60c081019081106001600160401b038211176121d857604052565b602081019081106001600160401b038211176121d857604052565b90601f801991011681019081106001600160401b038211176121d857604052565b6001600160401b0381116121d857601f01601f191660200190565b92919261226c82612245565b9161227a6040519384612224565b82948184528183011161211c578281602093846000960137010152565b9080601f8301121561211c578160206122b293359101612260565b90565b6009548110156121a7576006906009600052027f6e1540171b6c0c960b71a7020d9f60077f6af931a8bbf590da0223dacf75c7af0190600090565b90600182811c92168015612320575b602083101461230a57565b634e487b7160e01b600052602260045260246000fd5b91607f16916122ff565b906040519182600082549261233e846122f0565b9081845260019485811690816000146123ad575060011461236a575b505061236892500383612224565b565b9093915060005260209081600020936000915b8183106123955750506123689350820101388061235a565b8554888401850152948501948794509183019161237d565b91505061236894506020925060ff191682840152151560051b820101388061235a565b600a548110156121a757600790600a600052027fc65a7bb8d6351c1cf70c95a316cc6a92839c986682d98bc35f958f4883f9d2a80190600090565b6006546001600160a01b0316330361241f57565b60405163118cdaa760e01b8152336004820152602490fd5b6001600160a01b0391821692909183156125bd57600092828452826020956002875260409684888820541696879133151580612527575b509060027fddf252ad1be2c89b69c2b068fc378daa952ba7f163c4a11628f55a4df523b3ef92846124f4575b858352600381528b8320805460010190558683525289812080546001600160a01b0319168517905580a416928383036124d35750505050565b6064945051926364283d7b60e01b8452600484015260248301526044820152fd5b600087815260046020526040902080546001600160a01b0319169055848352600381528b8320805460001901905561249a565b9193945091508061257c575b156125435785929187913861246e565b878688612560576024915190637e27328960e01b82526004820152fd5b604491519063177e802f60e01b82523360048301526024820152fd5b5033871480156125a1575b806125335750858252600481523385898420541614612533565b5086825260058152878220338352815260ff8883205416612587565b604051633250574960e11b815260006004820152602490fd5b6000818152600260205260409020546001600160a01b03169081156125f9575090565b60249060405190637e27328960e01b82526004820152fd5b813b61261e575b50505050565b604051630a85bd0160e11b8082523360048301526001600160a01b0392831660248301526044820194909452608060648201526020959290911693909290839061266c9060848301906120e1565b039285816000958187895af18491816126fd575b506126e0575050503d6000146126d8573d61269a81612245565b906126a86040519283612224565b81528091843d92013e5b805192836126d357604051633250574960e11b815260048101849052602490fd5b019050fd5b5060606126b2565b919450915063ffffffff60e01b16036119ae575038808080612618565b9091508681813d8311612736575b6127158183612224565b81010312610c5457516001600160e01b031981168103610c54579038612680565b503d61270b565b600019811461274c5760010190565b634e487b7160e01b600052601160045260246000fd5b600260075414612773576002600755565b604051633ee5aeb560e01b8152600490fdfea2646970667358221220288bb1e40637ebd6749987632be797cc07a09529c5638827ffbcae5f95e40d7064736f6c63430008140033","linkReferences":{}},"methodIdentifiers":{"aiOracle()":"31b221cd","approve(address,uint256)":"095ea7b3","badgeCounter()":"e5ed9884","badgeToSubmissionId(uint256)":"a8744d5e","balanceOf(address)":"70a08231","createTest(string,string,string,uint256)":"939b27ee","freelancerBadges(address,uint256)":"5b9d73d7","getApproved(uint256)":"081812fc","getFreelancerBadges(address)":"86fc79c8","getSubmission(uint256)":"3e8686cc","getTest(uint256)":"edef019d","isApprovedForAll(address,address)":"e985e9c5","mint(address,uint256,uint8,string)":"644acc60","name()":"06fdde03","owner()":"8da5cb5b","ownerOf(uint256)":"6352211e","renounceOwnership()":"715018a6","safeTransferFrom(address,address,uint256)":"42842e0e","safeTransferFrom(address,address,uint256,bytes)":"b88d4fde","setAiOracle(address)":"fda1fd83","setApprovalForAll(address,bool)":"a22cb465","skillTests(uint256)":"674c0583","stablecoin()":"e9cbd822","submissions(uint256)":"ad73349e","submitTrial(uint256,string)":"f9e5dbaa","supportsInterface(bytes4)":"01ffc9a7","symbol()":"95d89b41","tokenURI(uint256)":"c87b56dd","transferFrom(address,address,uint256)":"23b872dd","transferOwnership(address)":"f2fde38b","userRegistry()":"5c7460d6"},"id":42}