{"abi":[{"type":"constructor","inputs":[{"name":"_stablecoin","type":"address","internalType":"address"},{"name":"_oracle","type":"address","internalType":"address"}],"stateMutability":"nonpayable"},{"type":"function","name":"approve","inputs":[{"name":"to","type":"address","internalType":"address"},{"name":"tokenId","type":"uint256","internalType":"uint256"}],"outputs":[],"stateMutability":"nonpayable"},{"type":"function","name":"badgeCounter","inputs":[],"outputs":[{"name":"","type":"uint256","internalType":"uint256"}],"stateMutability":"view"},{"type":"function","name":"badges","inputs":[{"name":"","type":"uint256","internalType":"uint256"}],"outputs":[{"name":"skillCategory","type":"string","internalType":"string"},{"name":"score","type":"uint256","internalType":"uint256"},{"name":"earnedAt","type":"uint256","internalType":"uint256"}],"stateMutability":"view"},{"type":"function","name":"balanceOf","inputs":[{"name":"owner","type":"address","internalType":"address"}],"outputs":[{"name":"","type":"uint256","internalType":"uint256"}],"stateMutability":"view"},{"type":"function","name":"createTrial","inputs":[{"name":"freelancer","type":"address","internalType":"address"},{"name":"skillCategory","type":"string","internalType":"string"},{"name":"taskDescription","type":"string","internalType":"string"},{"name":"reward","type":"uint256","internalType":"uint256"}],"outputs":[{"name":"","type":"uint256","internalType":"uint256"}],"stateMutability":"nonpayable"},{"type":"function","name":"freelancerBadges","inputs":[{"name":"","type":"address","internalType":"address"},{"name":"","type":"uint256","internalType":"uint256"}],"outputs":[{"name":"","type":"uint256","internalType":"uint256"}],"stateMutability":"view"},{"type":"function","name":"fulfillAIScoring","inputs":[{"name":"trialId","type":"uint256","internalType":"uint256"},{"name":"score","type":"uint256","internalType":"uint256"}],"outputs":[],"stateMutability":"nonpayable"},{"type":"function","name":"getApproved","inputs":[{"name":"tokenId","type":"uint256","internalType":"uint256"}],"outputs":[{"name":"","type":"address","internalType":"address"}],"stateMutability":"view"},{"type":"function","name":"getBadge","inputs":[{"name":"badgeId","type":"uint256","internalType":"uint256"}],"outputs":[{"name":"skillCategory","type":"string","internalType":"string"},{"name":"score","type":"uint256","internalType":"uint256"},{"name":"earnedAt","type":"uint256","internalType":"uint256"}],"stateMutability":"view"},{"type":"function","name":"getFreelancerBadges","inputs":[{"name":"freelancer","type":"address","internalType":"address"}],"outputs":[{"name":"","type":"uint256[]","internalType":"uint256[]"}],"stateMutability":"view"},{"type":"function","name":"getTrial","inputs":[{"name":"trialId","type":"uint256","internalType":"uint256"}],"outputs":[{"name":"client","type":"address","internalType":"address"},{"name":"freelancer","type":"address","internalType":"address"},{"name":"skillCategory","type":"string","internalType":"string"},{"name":"reward","type":"uint256","internalType":"uint256"},{"name":"status","type":"uint8","internalType":"enum SkillTrial.TrialStatus"},{"name":"aiScore","type":"uint256","internalType":"uint256"}],"stateMutability":"view"},{"type":"function","name":"isApprovedForAll","inputs":[{"name":"owner","type":"address","internalType":"address"},{"name":"operator","type":"address","internalType":"address"}],"outputs":[{"name":"","type":"bool","internalType":"bool"}],"stateMutability":"view"},{"type":"function","name":"name","inputs":[],"outputs":[{"name":"","type":"string","internalType":"string"}],"stateMutability":"view"},{"type":"function","name":"oracleAddress","inputs":[],"outputs":[{"name":"","type":"address","internalType":"address"}],"stateMutability":"view"},{"type":"function","name":"owner","inputs":[],"outputs":[{"name":"","type":"address","internalType":"address"}],"stateMutability":"view"},{"type":"function","name":"ownerOf","inputs":[{"name":"tokenId","type":"uint256","internalType":"uint256"}],"outputs":[{"name":"","type":"address","internalType":"address"}],"stateMutability":"view"},{"type":"function","name":"renounceOwnership","inputs":[],"outputs":[],"stateMutability":"nonpayable"},{"type":"function","name":"safeTransferFrom","inputs":[{"name":"from","type":"address","internalType":"address"},{"name":"to","type":"address","internalType":"address"},{"name":"tokenId","type":"uint256","internalType":"uint256"}],"outputs":[],"stateMutability":"nonpayable"},{"type":"function","name":"safeTransferFrom","inputs":[{"name":"from","type":"address","internalType":"address"},{"name":"to","type":"address","internalType":"address"},{"name":"tokenId","type":"uint256","internalType":"uint256"},{"name":"data","type":"bytes","internalType":"bytes"}],"outputs":[],"stateMutability":"nonpayable"},{"type":"function","name":"setApprovalForAll","inputs":[{"name":"operator","type":"address","internalType":"address"},{"name":"approved","type":"bool","internalType":"bool"}],"outputs":[],"stateMutability":"nonpayable"},{"type":"function","name":"stablecoin","inputs":[],"outputs":[{"name":"","type":"address","internalType":"contract IERC20"}],"stateMutability":"view"},{"type":"function","name":"submitTrial","inputs":[{"name":"trialId","type":"uint256","internalType":"uint256"}],"outputs":[],"stateMutability":"nonpayable"},{"type":"function","name":"supportsInterface","inputs":[{"name":"interfaceId","type":"bytes4","internalType":"bytes4"}],"outputs":[{"name":"","type":"bool","internalType":"bool"}],"stateMutability":"view"},{"type":"function","name":"symbol","inputs":[],"outputs":[{"name":"","type":"string","internalType":"string"}],"stateMutability":"view"},{"type":"function","name":"tokenURI","inputs":[{"name":"tokenId","type":"uint256","internalType":"uint256"}],"outputs":[{"name":"","type":"string","internalType":"string"}],"stateMutability":"view"},{"type":"function","name":"transferFrom","inputs":[{"name":"from","type":"address","internalType":"address"},{"name":"to","type":"address","internalType":"address"},{"name":"tokenId","type":"uint256","internalType":"uint256"}],"outputs":[],"stateMutability":"nonpayable"},{"type":"function","name":"transferOwnership","inputs":[{"name":"newOwner","type":"address","internalType":"address"}],"outputs":[],"stateMutability":"nonpayable"},{"type":"function","name":"trialCounter","inputs":[],"outputs":[{"name":"","type":"uint256","internalType":"uint256"}],"stateMutability":"view"},{"type":"function","name":"trials","inputs":[{"name":"","type":"uint256","internalType":"uint256"}],"outputs":[{"name":"client","type":"address","internalType":"address"},{"name":"freelancer","type":"address","internalType":"address"},{"name":"skillCategory","type":"string","internalType":"string"},{"name":"taskDescription","type":"string","internalType":"string"},{"name":"reward","type":"uint256","internalType":"uint256"},{"name":"status","type":"uint8","internalType":"enum SkillTrial.TrialStatus"},{"name":"aiScore","type":"uint256","internalType":"uint256"},{"name":"createdAt","type":"uint256","internalType":"uint256"},{"name":"submittedAt","type":"uint256","internalType":"uint256"}],"stateMutability":"view"},{"type":"function","name":"updateOracle","inputs":[{"name":"_newOracle","type":"address","internalType":"address"}],"outputs":[],"stateMutability":"nonpayable"},{"type":"event","name":"Approval","inputs":[{"name":"owner","type":"address","indexed":true,"internalType":"address"},{"name":"approved","type":"address","indexed":true,"internalType":"address"},{"name":"tokenId","type":"uint256","indexed":true,"internalType":"uint256"}],"anonymous":false},{"type":"event","name":"ApprovalForAll","inputs":[{"name":"owner","type":"address","indexed":true,"internalType":"address"},{"name":"operator","type":"address","indexed":true,"internalType":"address"},{"name":"approved","type":"bool","indexed":false,"internalType":"bool"}],"anonymous":false},{"type":"event","name":"BadgeMinted","inputs":[{"name":"badgeId","type":"uint256","indexed":true,"internalType":"uint256"},{"name":"freelancer","type":"address","indexed":true,"internalType":"address"},{"name":"skillCategory","type":"string","indexed":false,"internalType":"string"},{"name":"score","type":"uint256","indexed":false,"internalType":"uint256"}],"anonymous":false},{"type":"event","name":"OwnershipTransferred","inputs":[{"name":"previousOwner","type":"address","indexed":true,"internalType":"address"},{"name":"newOwner","type":"address","indexed":true,"internalType":"address"}],"anonymous":false},{"type":"event","name":"Transfer","inputs":[{"name":"from","type":"address","indexed":true,"internalType":"address"},{"name":"to","type":"address","indexed":true,"internalType":"address"},{"name":"tokenId","type":"uint256","indexed":true,"internalType":"uint256"}],"anonymous":false},{"type":"event","name":"TrialCreated","inputs":[{"name":"trialId","type":"uint256","indexed":true,"internalType":"uint256"},{"name":"client","type":"address","indexed":true,"internalType":"address"},{"name":"freelancer","type":"address","indexed":true,"internalType":"address"},{"name":"skillCategory","type":"string","indexed":false,"internalType":"string"},{"name":"reward","type":"uint256","indexed":false,"internalType":"uint256"}],"anonymous":false},{"type":"event","name":"TrialPaid","inputs":[{"name":"trialId","type":"uint256","indexed":true,"internalType":"uint256"},{"name":"amount","type":"uint256","indexed":false,"internalType":"uint256"}],"anonymous":false},{"type":"event","name":"TrialScored","inputs":[{"name":"trialId","type":"uint256","indexed":true,"internalType":"uint256"},{"name":"score","type":"uint256","indexed":false,"internalType":"uint256"}],"anonymous":false},{"type":"event","name":"TrialSubmitted","inputs":[{"name":"trialId","type":"uint256","indexed":true,"internalType":"uint256"},{"name":"submittedAt","type":"uint256","indexed":false,"internalType":"uint256"}],"anonymous":false},{"type":"error","name":"ERC721IncorrectOwner","inputs":[{"name":"sender","type":"address","internalType":"address"},{"name":"tokenId","type":"uint256","internalType":"uint256"},{"name":"owner","type":"address","internalType":"address"}]},{"type":"error","name":"ERC721InsufficientApproval","inputs":[{"name":"operator","type":"address","internalType":"address"},{"name":"tokenId","type":"uint256","internalType":"uint256"}]},{"type":"error","name":"ERC721InvalidApprover","inputs":[{"name":"approver","type":"address","internalType":"address"}]},{"type":"error","name":"ERC721InvalidOperator","inputs":[{"name":"operator","type":"address","internalType":"address"}]},{"type":"error","name":"ERC721InvalidOwner","inputs":[{"name":"owner","type":"address","internalType":"address"}]},{"type":"error","name":"ERC721InvalidReceiver","inputs":[{"name":"receiver","type":"address","internalType":"address"}]},{"type":"error","name":"ERC721InvalidSender","inputs":[{"name":"sender","type":"address","internalType":"address"}]},{"type":"error","name":"ERC721NonexistentToken","inputs":[{"name":"tokenId","type":"uint256","internalType":"uint256"}]},{"type":"error","name":"InvalidReward","inputs":[]},{"type":"error","name":"InvalidStatus","inputs":[]},{"type":"error","name":"OnlyOracle","inputs":[]},{"type":"error","name":"OwnableInvalidOwner","inputs":[{"name":"owner","type":"address","internalType":"address"}]},{"type":"error","name":"OwnableUnauthorizedAccount","inputs":[{"name":"account","type":"address","internalType":"address"}]},{"type":"error","name":"ReentrancyGuardReentrantCall","inputs":[]},{"type":"error","name":"ScoreTooLow","inputs":[]},{"type":"error","name":"UnauthorizedAccess","inputs":[]}],"bytecode":{"object":"0x60a03462000411576001600160401b03601f19601f620024e63881900382810184168601919085831187841017620003fd57808792604094855283398101031262000411576200004f8462000435565b926200005f602080960162000435565b916200006a62000415565b95601587527f48756d616e576f726b20536b696c6c2042616467650000000000000000000000818801526200009e62000415565b9060078252661215d4d2d2531360ca1b81830152875195848711620003fd575f9687549960019a8b81811c91168015620003f2575b85821014620003de579081878493116200038b575b50849087831160011462000322578a9262000316575b50505f19600383901b1c1916908a1b1787555b8251948511620003025788548981811c91168015620002f7575b83821014620002e3579081858796959493116200028a575b50819385116001146200022657505085926200021a575b50505f19600383901b1c191690851b1784555b33156200020157600680546001600160a01b0319808216339081179093556040519690956001600160a01b0395869491938516907f8be0079c531659141344cd1fd0a4f28419497f9722a3daafe3b4186f6b6457e09080a3600755166080521690600854161760085561209b90816200044b823960805181818161020601528181610c150152818161119b01526113c70152f35b604051631e4fbdf760e01b815260048101839052602490fd5b015190505f806200015a565b899593929193168588528388209388905b82821062000270575050841162000257575b505050811b0184556200016d565b01515f1960f88460031b161c191690555f808062000249565b8484015186558b9790950194938401939081019062000237565b9091929394508988528288208580880160051c820192858910620002d9575b9188978d9297969594930160051c01915b828110620002ca57505062000143565b8a81558897508c9101620002ba565b92508192620002a9565b634e487b7160e01b88526022600452602488fd5b90607f16906200012b565b634e487b7160e01b87526041600452602487fd5b015190505f80620000fe565b90848d9416918b8052868c20928c5b888282106200036b575050841162000352575b505050811b01875562000111565b01515f1960f88460031b161c191690555f808062000344565b91929395968291958786015181550195019301908e959493929162000331565b909150898052848a208780850160051c820192878610620003d4575b918e91869594930160051c01915b828110620003c5575050620000e8565b8c81558594508e9101620003b5565b92508192620003a7565b634e487b7160e01b8a52602260045260248afd5b90607f1690620000d3565b634e487b7160e01b5f52604160045260245ffd5b5f80fd5b60408051919082016001600160401b03811183821017620003fd57604052565b51906001600160a01b0382168203620004115756fe6080806040526004361015610012575f80fd5b5f3560e01c90816301ffc9a7146119fe5750806306fdde031461195e578063081812fc14611922578063095ea7b314611841578063105e40eb146113305780631a7f3c33146112985780631cb44dfc1461125557806323b872dd1461123e5780633f59b56f14610b2d57806342842e0e14610b00578063493f678414610a405780635b9d73d7146109e95780636352211e146109b957806370a0823114610963578063715018a61461090857806386fc79c81461085a5780638d8386221461080e5780638da5cb5b146107e657806395d89b411461070a57806398e36d8b146106c1578063a22cb46514610620578063a89ae4ba146105f8578063b88d4fde1461058b578063c11262491461056e578063c87b56dd14610385578063cf36002d146102a4578063e5ed988414610287578063e985e9c514610235578063e9cbd822146101f15763f2fde38b14610166575f80fd5b346101ed5760203660031901126101ed5761017f611aaf565b610187611cef565b6001600160a01b039081169081156101d557600654826001600160601b0360a01b821617600655167f8be0079c531659141344cd1fd0a4f28419497f9722a3daafe3b4186f6b6457e05f80a3005b604051631e4fbdf760e01b81525f6004820152602490fd5b5f80fd5b346101ed575f3660031901126101ed576040517f00000000000000000000000000000000000000000000000000000000000000006001600160a01b03168152602090f35b346101ed5760403660031901126101ed5761024e611aaf565b610256611ac5565b9060018060a01b038091165f52600560205260405f2091165f52602052602060ff60405f2054166040519015158152f35b346101ed575f3660031901126101ed576020600a54604051908152f35b346101ed5760203660031901126101ed576004355f52600b60205260405f2060018060a01b038082541690600183015416916040516102f1816102ea8160028601611bce565b0382611c7b565b6040519161030d836103068160038501611bce565b0384611c7b565b60048101549261037160ff60058401541661036160068501549361035360086007880154970154976040519b8c9b8c5260208c01526101208060408d01528b0190611a8a565b9089820360608b0152611a8a565b95608088015260a0870190611b09565b60c085015260e08401526101008301520390f35b346101ed576020806003193601126101ed57600435906103a482611ea1565b505f828152600c825291807a184f03e93ff9f4daa797ed6e38ed64bf6a1f0100000000000000008181811015610560575b5050826d04ee2d6d415b85acef810000000080831015610554575b5050662386f26fc1000080821015610547575b506305f5e1008082101561053a575b506127108082101561052d575b50606481101561051f575b600a80911015610515575b60018085019281602161046061044a87611c9d565b966104586040519889611c7b565b808852611c9d565b8688019890601f1901368a37860101905b6104e0575b6104b8866104c8603f888b6040519586927f68747470733a2f2f6170692e68756d616e776f726b2e696f2f62616467652f008785015251809285850190611a69565b810103601f810185520183611c7b565b6104dc604051928284938452830190611a8a565b0390f35b5f19019083906f181899199a1a9b1b9c1cb0b131b232b360811b8282061a83530491821561051057919082610471565b610476565b9260010192610435565b60646002910493019261042a565b600491049301928461041f565b6008910493019284610412565b6010910493019284610403565b940193900482856103f0565b6040955004905084806103d5565b346101ed575f3660031901126101ed576020600954604051908152f35b346101ed5760803660031901126101ed576105a4611aaf565b6105ac611ac5565b906044356064359267ffffffffffffffff84116101ed57366023850112156101ed576105e56105f6943690602481600401359101611cb9565b926105f1838383611d1b565b611edb565b005b346101ed575f3660031901126101ed576008546040516001600160a01b039091168152602090f35b346101ed5760403660031901126101ed57610639611aaf565b602435908115158092036101ed576001600160a01b03169081156106a857335f52600560205260405f20825f5260205260405f2060ff1981541660ff83161790556040519081527f17307eab39ab6107e8899845ad3d59bd9653f200f220920489ca2b5937696c3160203392a3005b604051630b61174360e31b815260048101839052602490fd5b346101ed5760203660031901126101ed576004355f52600c60205260405f206040516106f1816102ea8185611bce565b6104dc6002600184015493015460405193849384611b74565b346101ed575f3660031901126101ed576040515f600180549061072c82611b96565b808552918181169081156107bf5750600114610767575b6104dc8461075381860382611c7b565b604051918291602083526020830190611a8a565b5f81815292507fb10e2d527612073b26eecdfd717e6a320cf44b4afac2b0732d9fcbe2b7fa0cf65b8284106107a757505050810160200161075382610743565b8054602085870181019190915290930192810161078f565b60ff191660208087019190915292151560051b850190920192506107539150839050610743565b346101ed575f3660031901126101ed576006546040516001600160a01b039091168152602090f35b346101ed5760203660031901126101ed576004355f52600c60205260405f206103066104dc60018301549261084e60028201549160405194858092611bce565b60405193849384611b74565b346101ed576020806003193601126101ed576001600160a01b0361087c611aaf565b165f52600d815260405f20604051908183825491828152019081925f52845f20905f5b868282106108f45786866108b582880383611c7b565b60405192839281840190828552518091526040840192915f5b8281106108dd57505050500390f35b8351855286955093810193928101926001016108ce565b83548552909301926001928301920161089f565b346101ed575f3660031901126101ed57610920611cef565b600680546001600160a01b031981169091555f906001600160a01b03167f8be0079c531659141344cd1fd0a4f28419497f9722a3daafe3b4186f6b6457e08280a3005b346101ed5760203660031901126101ed576001600160a01b03610984611aaf565b1680156109a1575f526003602052602060405f2054604051908152f35b6040516322718ad960e21b81525f6004820152602490fd5b346101ed5760203660031901126101ed5760206109d7600435611ea1565b6040516001600160a01b039091168152f35b346101ed5760403660031901126101ed57610a02611aaf565b6001600160a01b03165f908152600d60205260409020805460243591908210156101ed57602091610a3291611b4b565b90546040519160031b1c8152f35b346101ed5760203660031901126101ed576004355f818152600b6020526040902060018101546001600160a01b03163303610aee5760058101805460ff81166005811015610ada57610ac85760019060ff19161790556008429101557f9b637f1f8d1f42159a40ed09dc3d3793c271290378f5121ca8bf5929a86fafe56020604051428152a2005b6040516307a92f1960e51b8152600490fd5b634e487b7160e01b5f52602160045260245ffd5b604051631a27eac360e11b8152600490fd5b346101ed576105f6610b1136611b16565b9060405192610b1f84611c5f565b5f84526105f1838383611d1b565b346101ed5760403660031901126101ed57600435610b49612042565b6008546001600160a01b0316330361122c57805f52600b60205260405f209060058201805460ff81166005811015610ada57600103610ac857602435600685015560ff19809116600281178355837f28f9e00434b0fdc966dad33b8b5f77ce2cb5f37967a4d0276f1b8890b23fbdc960206040516024358152a260466024351061115a5750815416600317905560018201546004808401805460405163a9059cbb60e01b81526001600160a01b0394851693810193909352602483015291602090829060449082905f907f0000000000000000000000000000000000000000000000000000000000000000165af190811561114f575f91611120575b50156110ea5760207f34047a6e504b2e2d9279432f9643d6811f59c3d420df4cfab94c22b30109aedb9154604051908152a2600a5490610c8482612020565b600a5560018060a01b0360018201541691604051610ca181611c5f565b5f815283156110d2575f828152600260205260409020546001600160a01b031680151590839086908361109f575b815f52600360205260405f2060018154019055825f52600260205260405f20826001600160601b0360a01b8254161790557fddf252ad1be2c89b69c2b068fc378daa952ba7f163c4a11628f55a4df523b3ef5f80a461108757833b610f68575b509091506040516060810181811067ffffffffffffffff821117610e9d5780604052610d6d605f1983610d658460028901611bce565b030182611c7b565b81526024356020820152426040820152815f52600c60205260405f2090805180519067ffffffffffffffff8211610e9d57610da88454611b96565b601f8111610f27575b50602090601f8311600114610ebc579180600294926040945f92610eb1575b50508160011b915f199060031b1c19161784555b60208101516001850155015191015560018060a01b036001830154165f52600d60205260405f20805468010000000000000000811015610e9d57610e2d91600182018155611b4b565b81549060031b9083821b915f19901b19161790557f3b6c69e97993b0d5b822b4d79ba5e10459e13005a530122a474abc189b9d7977610e8a60018060a01b0360018501541693604051918291604083526002604084019101611bce565b60243560208301520390a35b6001600755005b634e487b7160e01b5f52604160045260245ffd5b015190508880610dd0565b90845f5260205f20915f5b601f1985168110610f0f5750926002949260019260409583601f19811610610ef7575b505050811b018455610de4565b01515f1960f88460031b161c19169055888080610eea565b91926020600181928685015181550194019201610ec7565b845f5260205f20601f840160051c810160208510610f61575b601f830160051c82018110610f56575050610db1565b5f8155600101610f40565b5080610f40565b60405160208180610fa1630a85bd0160e11b958683523360048401525f6024840152876044840152608060648401526084830190611a8a565b03815f895af15f9181611042575b5061100e57843d15611006573d90610fc682611c9d565b91610fd46040519384611c7b565b82523d5f602084013e5b81519182610fff57604051633250574960e11b815260048101839052602490fd5b9050602001fd5b606090610fde565b929391926001600160e01b0319160361102a5750819083610d2f565b60249060405190633250574960e11b82526004820152fd5b9091506020813d60201161107f575b8161105e60209383611c7b565b810103126101ed57516001600160e01b0319811681036101ed579086610faf565b3d9150611051565b6040516339e3563760e11b81525f6004820152602490fd5b5f83815260046020526040902080546001600160a01b0319169055805f52600360205260405f205f198154019055610ccf565b604051633250574960e11b81525f6004820152602490fd5b60405162461bcd60e51b815260206004820152600e60248201526d14185e5b595b9d0819985a5b195960921b6044820152606490fd5b611142915060203d602011611148575b61113a8183611c7b565b810190612008565b84610c45565b503d611130565b6040513d5f823e3d90fd5b60049081179092555082549281015460405163a9059cbb60e01b81526001600160a01b0390941691840191909152602483015250602081806044810103815f7f00000000000000000000000000000000000000000000000000000000000000006001600160a01b03165af190811561114f575f9161120d575b50610e965760405162461bcd60e51b815260206004820152600d60248201526c1499599d5b990819985a5b1959609a1b6044820152606490fd5b611226915060203d6020116111485761113a8183611c7b565b816111d3565b6040516380fee10560e01b8152600490fd5b346101ed576105f661124f36611b16565b91611d1b565b346101ed5760203660031901126101ed5761126e611aaf565b611276611cef565b600880546001600160a01b0319166001600160a01b0392909216919091179055005b346101ed5760203660031901126101ed576004355f52600b60205260405f2060018060a01b0380825416906001830154169160048101549061132760ff60058301541661131760026112f96006860154956102ea6040518094819301611bce565b6040519788978852602088015260c0604088015260c0870190611a8a565b9360608601526080850190611b09565b60a08301520390f35b346101ed5760803660031901126101ed57611349611aaf565b60243567ffffffffffffffff81116101ed57611369903690600401611adb565b9060443567ffffffffffffffff81116101ed5761138a903690600401611adb565b9290611394612042565b6064351561182f576040516323b872dd60e01b81523360048201523060248201526064803560448301526020908290815f7f00000000000000000000000000000000000000000000000000000000000000006001600160a01b03165af190811561114f575f91611810575b50156117d9576009549361141285612020565b6009556040519161012083019183831067ffffffffffffffff841117610e9d576040929092523383526001600160a01b038716602084015261146591611459368688611cb9565b60408501523691611cb9565b606082015260643560808201525f60a08201525f60c08201524260e08201525f610100820152835f52600b60205260405f209060018060a01b038151166001600160601b0360a01b8354161782556001820160018060a01b036020830151166001600160601b0360a01b825416179055604081015180519067ffffffffffffffff8211610e9d5781906114fb6002860154611b96565b601f8111611789575b50602090601f831160011461171b575f92611710575b50508160011b915f199060031b1c19161760028301555b606081015180519067ffffffffffffffff8211610e9d5781906115576003860154611b96565b601f81116116c0575b50602090601f8311600114611652575f92611647575b50508160011b915f199060031b1c19161760038301555b60808101516004830155600582019560a0820151926005841015610ada5760086101007f98e1335c496bf30d8812f05c3a5e6ac56f4e95bb6db793bb52d7759362bdcffb9460209a8a9760ff8019835416911617905560c0810151600685015560e08101516007850155015191015583604051956040875281604088015260608701375f606085870101526064358786015260018060a01b0316936060813395601f80199101168101030190a46001600755604051908152f35b015190508880611576565b9250600385015f5260205f20905f935b601f19841685106116a5576001945083601f1981161061168d575b505050811b01600383015561158d565b01515f1960f88460031b161c1916905588808061167d565b81810151835560209485019460019093019290910190611662565b909150600385015f5260205f20601f840160051c810160208510611709575b90849392915b601f830160051c820181106116fb575050611560565b5f81558594506001016116e5565b50806116df565b01519050888061151a565b9250600285015f5260205f20905f935b601f198416851061176e576001945083601f19811610611756575b505050811b016002830155611531565b01515f1960f88460031b161c19169055888080611746565b8181015183556020948501946001909301929091019061172b565b909150600285015f5260205f20601f840160051c8101602085106117d2575b90849392915b601f830160051c820181106117c4575050611504565b5f81558594506001016117ae565b50806117a8565b60405162461bcd60e51b815260206004820152600f60248201526e151c985b9cd9995c8819985a5b1959608a1b6044820152606490fd5b611829915060203d6020116111485761113a8183611c7b565b866113ff565b6040516314414f4160e11b8152600490fd5b346101ed5760403660031901126101ed5761185a611aaf565b60243561186681611ea1565b3315158061190f575b806118e6575b6118ce576001600160a01b039283169282918491167f8c5be1e5ebec7d5bd14f71427d1e84f3dd0314c0f7b2291e5b200ac8c7c3b9255f80a45f90815260046020526040902080546001600160a01b0319169091179055005b60405163a9fbf51f60e01b8152336004820152602490fd5b5060018060a01b0381165f52600560205260405f20335f5260205260ff60405f20541615611875565b506001600160a01b03811633141561186f565b346101ed5760203660031901126101ed5760043561193f81611ea1565b505f526004602052602060018060a01b0360405f205416604051908152f35b346101ed575f3660031901126101ed576040515f805461197d81611b96565b808452906001908181169081156107bf57506001146119a6576104dc8461075381860382611c7b565b5f80805292507f290decd9548b62a8d60345a988386fc84ba6bc95484008f6362f93160ef3e5635b8284106119e657505050810160200161075382610743565b805460208587018101919091529093019281016119ce565b346101ed5760203660031901126101ed576004359063ffffffff60e01b82168092036101ed576020916380ac58cd60e01b8114908115611a58575b8115611a47575b5015158152f35b6301ffc9a760e01b14905083611a40565b635b5e139f60e01b81149150611a39565b5f5b838110611a7a5750505f910152565b8181015183820152602001611a6b565b90602091611aa381518092818552858086019101611a69565b601f01601f1916010190565b600435906001600160a01b03821682036101ed57565b602435906001600160a01b03821682036101ed57565b9181601f840112156101ed5782359167ffffffffffffffff83116101ed57602083818601950101116101ed57565b906005821015610ada5752565b60609060031901126101ed576001600160a01b039060043582811681036101ed579160243590811681036101ed579060443590565b8054821015611b60575f5260205f2001905f90565b634e487b7160e01b5f52603260045260245ffd5b611b8c60409295949395606083526060830190611a8a565b9460208201520152565b90600182811c92168015611bc4575b6020831014611bb057565b634e487b7160e01b5f52602260045260245ffd5b91607f1691611ba5565b905f9291805491611bde83611b96565b9182825260019384811690815f14611c3c5750600114611bff575b50505050565b90919394505f52602092835f2092845f945b838610611c2857505050500101905f808080611bf9565b805485870183015294019385908201611c11565b9294505050602093945060ff191683830152151560051b0101905f808080611bf9565b6020810190811067ffffffffffffffff821117610e9d57604052565b90601f8019910116810190811067ffffffffffffffff821117610e9d57604052565b67ffffffffffffffff8111610e9d57601f01601f191660200190565b929192611cc582611c9d565b91611cd36040519384611c7b565b8294818452818301116101ed578281602093845f960137010152565b6006546001600160a01b03163303611d0357565b60405163118cdaa760e01b8152336004820152602490fd5b6001600160a01b0391821692909183156110d2575f92828452826020956002875260409684888820541696879133151580611e08575b509060027fddf252ad1be2c89b69c2b068fc378daa952ba7f163c4a11628f55a4df523b3ef9284611dd7575b858352600381528b8320805460010190558683525289812080546001600160a01b0319168517905580a41692838303611db65750505050565b6064945051926364283d7b60e01b8452600484015260248301526044820152fd5b5f87815260046020526040902080546001600160a01b0319169055848352600381528b832080545f19019055611d7d565b91939450915080611e60575b15611e245785929187915f611d51565b878688611e41576024915190637e27328960e01b82526004820152fd5b905163177e802f60e01b81523360048201526024810191909152604490fd5b503387148015611e85575b80611e145750858252600481523385898420541614611e14565b5086825260058152878220338352815260ff8883205416611e6b565b5f818152600260205260409020546001600160a01b0316908115611ec3575090565b60249060405190637e27328960e01b82526004820152fd5b813b611ee75750505050565b604051630a85bd0160e11b8082523360048301526001600160a01b03928316602483015260448201949094526080606482015260209592909116939092908390611f35906084830190611a8a565b039285815f958187895af1849181611fc4575b50611fa7575050503d5f14611f9f573d611f6181611c9d565b90611f6f6040519283611c7b565b81528091843d92013e5b80519283611f9a57604051633250574960e11b815260048101849052602490fd5b019050fd5b506060611f79565b919450915063ffffffff60e01b160361102a57505f808080611bf9565b9091508681813d8311612001575b611fdc8183611c7b565b81010312611ffd57516001600160e01b031981168103611ffd57905f611f48565b8480fd5b503d611fd2565b908160209103126101ed575180151581036101ed5790565b5f19811461202e5760010190565b634e487b7160e01b5f52601160045260245ffd5b600260075414612053576002600755565b604051633ee5aeb560e01b8152600490fdfea264697066735822122016a68c41f5101040e49824482937854c5cc15abfb81bbcd6fbf098aee5fd3bdc64736f6c63430008140033","linkReferences":{}},"methodIdentifiers":{"approve(address,uint256)":"095ea7b3","badgeCounter()":"e5ed9884","badges(uint256)":"98e36d8b","balanceOf(address)":"70a08231","createTrial(address,string,string,uint256)":"105e40eb","freelancerBadges(address,uint256)":"5b9d73d7","fulfillAIScoring(uint256,uint256)":"3f59b56f","getApproved(uint256)":"081812fc","getBadge(uint256)":"8d838622","getFreelancerBadges(address)":"86fc79c8","getTrial(uint256)":"1a7f3c33","isApprovedForAll(address,address)":"e985e9c5","name()":"06fdde03","oracleAddress()":"a89ae4ba","owner()":"8da5cb5b","ownerOf(uint256)":"6352211e","renounceOwnership()":"715018a6","safeTransferFrom(address,address,uint256)":"42842e0e","safeTransferFrom(address,address,uint256,bytes)":"b88d4fde","setApprovalForAll(address,bool)":"a22cb465","stablecoin()":"e9cbd822","submitTrial(uint256)":"493f6784","supportsInterface(bytes4)":"01ffc9a7","symbol()":"95d89b41","tokenURI(uint256)":"c87b56dd","transferFrom(address,address,uint256)":"23b872dd","transferOwnership(address)":"f2fde38b","trialCounter()":"c1126249","trials(uint256)":"cf36002d","updateOracle(address)":"1cb44dfc"},"id":42}