{"abi":[{"type":"constructor","inputs":[{"name":"_stablecoin","type":"address","internalType":"address"},{"name":"_userRegistry","type":"address","internalType":"address"},{"name":"_aiOracle","type":"address","internalType":"address"}],"stateMutability":"nonpayable"},{"type":"function","name":"aiOracle","inputs":[],"outputs":[{"name":"","type":"address","internalType":"contract AIOracle"}],"stateMutability":"view"},{"type":"function","name":"approve","inputs":[{"name":"to","type":"address","internalType":"address"},{"name":"tokenId","type":"uint256","internalType":"uint256"}],"outputs":[],"stateMutability":"nonpayable"},{"type":"function","name":"badgeCounter","inputs":[],"outputs":[{"name":"","type":"uint256","internalType":"uint256"}],"stateMutability":"view"},{"type":"function","name":"badgeToSubmissionId","inputs":[{"name":"","type":"uint256","internalType":"uint256"}],"outputs":[{"name":"","type":"uint256","internalType":"uint256"}],"stateMutability":"view"},{"type":"function","name":"balanceOf","inputs":[{"name":"owner","type":"address","internalType":"address"}],"outputs":[{"name":"","type":"uint256","internalType":"uint256"}],"stateMutability":"view"},{"type":"function","name":"createTest","inputs":[{"name":"title","type":"string","internalType":"string"},{"name":"description","type":"string","internalType":"string"},{"name":"ipfsHash","type":"string","internalType":"string"},{"name":"fee","type":"uint256","internalType":"uint256"}],"outputs":[],"stateMutability":"nonpayable"},{"type":"function","name":"freelancerBadges","inputs":[{"name":"","type":"address","internalType":"address"},{"name":"","type":"uint256","internalType":"uint256"}],"outputs":[{"name":"","type":"uint256","internalType":"uint256"}],"stateMutability":"view"},{"type":"function","name":"getApproved","inputs":[{"name":"tokenId","type":"uint256","internalType":"uint256"}],"outputs":[{"name":"","type":"address","internalType":"address"}],"stateMutability":"view"},{"type":"function","name":"getFreelancerBadges","inputs":[{"name":"user","type":"address","internalType":"address"}],"outputs":[{"name":"","type":"uint256[]","internalType":"uint256[]"}],"stateMutability":"view"},{"type":"function","name":"getSubmission","inputs":[{"name":"submissionId","type":"uint256","internalType":"uint256"}],"outputs":[{"name":"","type":"tuple","internalType":"struct SkillTrial.Submission","components":[{"name":"testId","type":"uint256","internalType":"uint256"},{"name":"applicant","type":"address","internalType":"address"},{"name":"submissionHash","type":"string","internalType":"string"},{"name":"status","type":"uint8","internalType":"enum SkillTrial.SubmissionStatus"},{"name":"submittedAt","type":"uint256","internalType":"uint256"},{"name":"score","type":"uint8","internalType":"uint8"},{"name":"report","type":"string","internalType":"string"}]}],"stateMutability":"view"},{"type":"function","name":"getTest","inputs":[{"name":"testId","type":"uint256","internalType":"uint256"}],"outputs":[{"name":"","type":"tuple","internalType":"struct SkillTrial.SkillTest","components":[{"name":"title","type":"string","internalType":"string"},{"name":"description","type":"string","internalType":"string"},{"name":"ipfsHash","type":"string","internalType":"string"},{"name":"fee","type":"uint256","internalType":"uint256"},{"name":"isActive","type":"bool","internalType":"bool"},{"name":"submissionCount","type":"uint256","internalType":"uint256"}]}],"stateMutability":"view"},{"type":"function","name":"isApprovedForAll","inputs":[{"name":"owner","type":"address","internalType":"address"},{"name":"operator","type":"address","internalType":"address"}],"outputs":[{"name":"","type":"bool","internalType":"bool"}],"stateMutability":"view"},{"type":"function","name":"mint","inputs":[{"name":"user","type":"address","internalType":"address"},{"name":"submissionId","type":"uint256","internalType":"uint256"},{"name":"score","type":"uint8","internalType":"uint8"},{"name":"report","type":"string","internalType":"string"}],"outputs":[],"stateMutability":"nonpayable"},{"type":"function","name":"name","inputs":[],"outputs":[{"name":"","type":"string","internalType":"string"}],"stateMutability":"view"},{"type":"function","name":"owner","inputs":[],"outputs":[{"name":"","type":"address","internalType":"address"}],"stateMutability":"view"},{"type":"function","name":"ownerOf","inputs":[{"name":"tokenId","type":"uint256","internalType":"uint256"}],"outputs":[{"name":"","type":"address","internalType":"address"}],"stateMutability":"view"},{"type":"function","name":"renounceOwnership","inputs":[],"outputs":[],"stateMutability":"nonpayable"},{"type":"function","name":"safeTransferFrom","inputs":[{"name":"from","type":"address","internalType":"address"},{"name":"to","type":"address","internalType":"address"},{"name":"tokenId","type":"uint256","internalType":"uint256"}],"outputs":[],"stateMutability":"nonpayable"},{"type":"function","name":"safeTransferFrom","inputs":[{"name":"from","type":"address","internalType":"address"},{"name":"to","type":"address","internalType":"address"},{"name":"tokenId","type":"uint256","internalType":"uint256"},{"name":"data","type":"bytes","internalType":"bytes"}],"outputs":[],"stateMutability":"nonpayable"},{"type":"function","name":"setAIOracle","inputs":[{"name":"_aiOracle","type":"address","internalType":"address"}],"outputs":[],"stateMutability":"nonpayable"},{"type":"function","name":"setApprovalForAll","inputs":[{"name":"operator","type":"address","internalType":"address"},{"name":"approved","type":"bool","internalType":"bool"}],"outputs":[],"stateMutability":"nonpayable"},{"type":"function","name":"skillTests","inputs":[{"name":"","type":"uint256","internalType":"uint256"}],"outputs":[{"name":"title","type":"string","internalType":"string"},{"name":"description","type":"string","internalType":"string"},{"name":"ipfsHash","type":"string","internalType":"string"},{"name":"fee","type":"uint256","internalType":"uint256"},{"name":"isActive","type":"bool","internalType":"bool"},{"name":"submissionCount","type":"uint256","internalType":"uint256"}],"stateMutability":"view"},{"type":"function","name":"stablecoin","inputs":[],"outputs":[{"name":"","type":"address","internalType":"contract IERC20"}],"stateMutability":"view"},{"type":"function","name":"submissions","inputs":[{"name":"","type":"uint256","internalType":"uint256"}],"outputs":[{"name":"testId","type":"uint256","internalType":"uint256"},{"name":"applicant","type":"address","internalType":"address"},{"name":"submissionHash","type":"string","internalType":"string"},{"name":"status","type":"uint8","internalType":"enum SkillTrial.SubmissionStatus"},{"name":"submittedAt","type":"uint256","internalType":"uint256"},{"name":"score","type":"uint8","internalType":"uint8"},{"name":"report","type":"string","internalType":"string"}],"stateMutability":"view"},{"type":"function","name":"submitTrial","inputs":[{"name":"testId","type":"uint256","internalType":"uint256"},{"name":"submissionHash","type":"string","internalType":"string"}],"outputs":[{"name":"","type":"uint256","internalType":"uint256"}],"stateMutability":"nonpayable"},{"type":"function","name":"supportsInterface","inputs":[{"name":"interfaceId","type":"bytes4","internalType":"bytes4"}],"outputs":[{"name":"","type":"bool","internalType":"bool"}],"stateMutability":"view"},{"type":"function","name":"symbol","inputs":[],"outputs":[{"name":"","type":"string","internalType":"string"}],"stateMutability":"view"},{"type":"function","name":"tokenURI","inputs":[{"name":"tokenId","type":"uint256","internalType":"uint256"}],"outputs":[{"name":"","type":"string","internalType":"string"}],"stateMutability":"view"},{"type":"function","name":"transferFrom","inputs":[{"name":"from","type":"address","internalType":"address"},{"name":"to","type":"address","internalType":"address"},{"name":"tokenId","type":"uint256","internalType":"uint256"}],"outputs":[],"stateMutability":"nonpayable"},{"type":"function","name":"transferOwnership","inputs":[{"name":"newOwner","type":"address","internalType":"address"}],"outputs":[],"stateMutability":"nonpayable"},{"type":"function","name":"userRegistry","inputs":[],"outputs":[{"name":"","type":"address","internalType":"contract UserRegistry"}],"stateMutability":"view"},{"type":"event","name":"Approval","inputs":[{"name":"owner","type":"address","indexed":true,"internalType":"address"},{"name":"approved","type":"address","indexed":true,"internalType":"address"},{"name":"tokenId","type":"uint256","indexed":true,"internalType":"uint256"}],"anonymous":false},{"type":"event","name":"ApprovalForAll","inputs":[{"name":"owner","type":"address","indexed":true,"internalType":"address"},{"name":"operator","type":"address","indexed":true,"internalType":"address"},{"name":"approved","type":"bool","indexed":false,"internalType":"bool"}],"anonymous":false},{"type":"event","name":"OwnershipTransferred","inputs":[{"name":"previousOwner","type":"address","indexed":true,"internalType":"address"},{"name":"newOwner","type":"address","indexed":true,"internalType":"address"}],"anonymous":false},{"type":"event","name":"TestCreated","inputs":[{"name":"testId","type":"uint256","indexed":true,"internalType":"uint256"},{"name":"title","type":"string","indexed":false,"internalType":"string"},{"name":"fee","type":"uint256","indexed":false,"internalType":"uint256"}],"anonymous":false},{"type":"event","name":"Transfer","inputs":[{"name":"from","type":"address","indexed":true,"internalType":"address"},{"name":"to","type":"address","indexed":true,"internalType":"address"},{"name":"tokenId","type":"uint256","indexed":true,"internalType":"uint256"}],"anonymous":false},{"type":"event","name":"TrialGraded","inputs":[{"name":"submissionId","type":"uint256","indexed":true,"internalType":"uint256"},{"name":"score","type":"uint8","indexed":false,"internalType":"uint8"},{"name":"badgeId","type":"uint256","indexed":true,"internalType":"uint256"}],"anonymous":false},{"type":"event","name":"TrialSubmitted","inputs":[{"name":"submissionId","type":"uint256","indexed":true,"internalType":"uint256"},{"name":"testId","type":"uint256","indexed":true,"internalType":"uint256"},{"name":"applicant","type":"address","indexed":true,"internalType":"address"}],"anonymous":false},{"type":"error","name":"AlreadySubmitted","inputs":[]},{"type":"error","name":"ERC721IncorrectOwner","inputs":[{"name":"sender","type":"address","internalType":"address"},{"name":"tokenId","type":"uint256","internalType":"uint256"},{"name":"owner","type":"address","internalType":"address"}]},{"type":"error","name":"ERC721InsufficientApproval","inputs":[{"name":"operator","type":"address","internalType":"address"},{"name":"tokenId","type":"uint256","internalType":"uint256"}]},{"type":"error","name":"ERC721InvalidApprover","inputs":[{"name":"approver","type":"address","internalType":"address"}]},{"type":"error","name":"ERC721InvalidOperator","inputs":[{"name":"operator","type":"address","internalType":"address"}]},{"type":"error","name":"ERC721InvalidOwner","inputs":[{"name":"owner","type":"address","internalType":"address"}]},{"type":"error","name":"ERC721InvalidReceiver","inputs":[{"name":"receiver","type":"address","internalType":"address"}]},{"type":"error","name":"ERC721InvalidSender","inputs":[{"name":"sender","type":"address","internalType":"address"}]},{"type":"error","name":"ERC721NonexistentToken","inputs":[{"name":"tokenId","type":"uint256","internalType":"uint256"}]},{"type":"error","name":"InsufficientFee","inputs":[]},{"type":"error","name":"OnlyBackend","inputs":[]},{"type":"error","name":"OnlyOracle","inputs":[]},{"type":"error","name":"OwnableInvalidOwner","inputs":[{"name":"owner","type":"address","internalType":"address"}]},{"type":"error","name":"OwnableUnauthorizedAccount","inputs":[{"name":"account","type":"address","internalType":"address"}]},{"type":"error","name":"ReentrancyGuardReentrantCall","inputs":[]},{"type":"error","name":"TestNotActive","inputs":[]}],"bytecode":{"object":"0x60c0346200042357601f196001600160401b03601f62002bd338819003828101851686019190848311878410176200040f578087926060946040528339810103126200042357620000508462000447565b936020926200006f60406200006786850162000447565b930162000447565b926200007a62000427565b94601586527f48756d616e576f726b20536b696c6c204261646765000000000000000000000081870152620000ae62000427565b9060078252661215d4d2d2531360ca1b818301528651978489116200040f575f988954986001998a81811c9116801562000404575b85821014620003f0579081878493116200039d575b5084908783116001146200033d578c9262000331575b50505f19600383901b1c191690891b1789555b82519485116200031d5787548881811c9116801562000312575b83821014620002fe57908185879695949311620002a5575b508193851160011462000241575050879262000235575b50505f19600383901b1c191690841b1783555b33156200021c57600680546001600160a01b0319808216339081179093556040519790966001600160a01b03968795948694919290918516907f8be0079c531659141344cd1fd0a4f28419497f9722a3daafe3b4186f6b6457e09080a3600755166080521660a0521690600854161760085561277690816200045d823960805181818161065e01526108e8015260a0518181816117b40152611bb80152f35b604051631e4fbdf760e01b815260048101859052602490fd5b015190505f806200016a565b88959392919316858a52838a20938a905b8282106200028b575050841162000272575b505050811b0183556200017d565b01515f1960f88460031b161c191690555f808062000264565b8484015186558a9790950194938401939081019062000252565b909192939450888a52828a208580880160051c820192858910620002f4575b9188978c9297969594930160051c01915b828110620002e557505062000153565b8c81558897508b9101620002d5565b92508192620002c4565b634e487b7160e01b8a52602260045260248afd5b90607f16906200013b565b634e487b7160e01b89526041600452602489fd5b015190505f806200010e565b908c91858d9516838052878420935b888282106200038657505084116200036d575b505050811b01895562000121565b01515f1960f88460031b161c191690555f80806200035f565b8385015186558f979095019493840193016200034c565b9091508b8052848c208780850160051c820192878610620003e6575b918d91869594930160051c01915b828110620003d7575050620000f8565b8e81558594508d9101620003c7565b92508192620003b9565b634e487b7160e01b8c52602260045260248cfd5b90607f1690620000e3565b634e487b7160e01b5f52604160045260245ffd5b5f80fd5b60408051919082016001600160401b038111838210176200040f57604052565b51906001600160a01b0382168203620004235756fe6080806040526004361015610012575f80fd5b5f9060e08235811c91826301ffc9a71461202e5750816306fdde0314611f5f578163081812fc14611f22578163095ea7b314611e3f5781631aa632b314611dff57816323b872dd14611de757816331b221cd14611dbe5781633e8686cc14611c6b57816342842e0e14611c3d5781635b9d73d714611be75781635c7460d614611ba25781636352211e14611b71578163644acc60146115a6578163674c0583146114f657816370a082311461149e578163715018a61461144157816386fc79c8146113935781638da5cb5b1461136a578163939b27ee14610e7757816395d89b4114610d9a578163a22cb46514610cea578163a8744d5e14610cc0578163ad73349e14610c0a578163b88d4fde14610b98578163c87b56dd14610987578163e5ed988414610969578163e985e9c514610917578163e9cbd822146108d2578163edef019d146107ba57508063f2fde38b146107305763f9e5dbaa14610175575f80fd5b3461072d57604036600319011261072d576024356001600160401b038111610429576101a5903690600401612267565b906101ae61271d565b6101b9600435612285565b509160ff6004840154161561071b57600383015480610634575b50600a5490604051936101e585612190565b60043585523360208601528160408601528360608601524260808601528360a0860152604051610214816121da565b84815260c0860152600160401b8310156106205760018301600a5561023883612397565b95909561060c57805186556001860160018060a01b036020830151166001600160601b0360a01b82541617905560408101518051906001600160401b0382116105f857819061028a60028a01546122be565b601f81116105a8575b50602090601f831160011461053a57889261052f575b50508160011b915f199060031b1c19161760028701555b606081015160038701600282101561051b579060c0929160ff199160ff83835416911617905560808201516004890155600588019060ff60a0840151169082541617905501519485516001600160401b0381116105075761032460068301546122be565b96601f88116104c3575b86809850959650602090601f831160011461044a57926006836005946103bd9794602099978b9261043f575b50508160011b915f199060031b1c1916179101555b0161037a81546126fb565b9055600854604051637258268d60e11b815260048101879052336024820152606060448201529485936001600160a01b03909216928492839160648301906120bc565b03925af1801561043457610405575b6040516020908333600435827f5ca58d4762c93ced4f122a84bb22fc4fea796adc287af3fc35f2e5e8210099058980a460016007558152f35b602090813d831161042d575b61041b81836121f5565b81010312610429575f6103cc565b5080fd5b503d610411565b6040513d85823e3d90fd5b015190505f8061035a565b906006840187526020872091875b601f19851681106104a857506001846103bd97946020999794600694600598601f19811610610490575b505050811b0191015561036f565b01515f1960f88460031b161c191690555f8080610482565b8183015184558a985060019093019260209283019201610458565b60068301875260208720601f830160051c810160208410610500575b601f8a0160051c820181106104f557505061032e565b5f81556001016104df565b50806104df565b634e487b7160e01b86526041600452602486fd5b634e487b7160e01b87526021600452602487fd5b015190505f806102a9565b9250600289018852602088209088935b601f198416851061058d576001945083601f19811610610575575b505050811b0160028701556102c0565b01515f1960f88460031b161c191690555f8080610565565b8181015183556020948501946001909301929091019061054a565b90915060028901885260208820601f840160051c8101602085106105f1575b90849392915b601f830160051c820181106105e3575050610293565b5f81558594506001016105cd565b50806105c7565b634e487b7160e01b87526041600452602487fd5b634e487b7160e01b85526004859052602485fd5b634e487b7160e01b84526041600452602484fd5b6040516323b872dd60e01b81523360048201523060248201526044810191909152602081606481867f00000000000000000000000000000000000000000000000000000000000000006001600160a01b03165af19081156104345783916106dd575b50156106a2575f6101d3565b60405162461bcd60e51b8152602060048201526013602482015272119959481d1c985b9cd9995c8819985a5b1959606a1b6044820152606490fd5b90506020813d8211610713575b816106f7602093836121f5565b8101031261070f5751801515810361070f575f610696565b8280fd5b3d91506106ea565b60405163c17b352960e01b8152600490fd5b80fd5b503461072d57602036600319011261072d5761074a6120e1565b6107526123d0565b6001600160a01b039081169081156107a157600654826001600160601b0360a01b821617600655167f8be0079c531659141344cd1fd0a4f28419497f9722a3daafe3b4186f6b6457e05f80a380f35b604051631e4fbdf760e01b815260048101849052602490fd5b823461072d57602036600319011261072d57604051906107d9826121bf565b60a060609283815283602082015283604082015282848201528260808201520152610805600435612285565b5060405191610813836121bf565b61081c826122f6565b835261082a600183016122f6565b91602084019283526108b9610841600283016122f6565b60408601908152600383015494848701958652600560ff6004860154169460808901951515865201549460a088019586526108a96108936040519a8b9a60208c52519060c060208d01528b01906120bc565b925192601f1993848b83030160408c01526120bc565b92519188840301908801526120bc565b9251608085015251151560a08401525160c08301520390f35b823461072d578060031936011261072d576040517f00000000000000000000000000000000000000000000000000000000000000006001600160a01b03168152602090f35b823461072d57604036600319011261072d576109316120e1565b604061093b6120fb565b9260018060a01b03809316815260056020522091165f52602052602060ff60405f2054166040519015158152f35b823461072d578060031936011261072d576020600d54604051908152f35b823461072d576020908160031936011261072d5781600435916109a983612597565b50604051926109b7846121da565b8184528115610b7f578190807a184f03e93ff9f4daa797ed6e38ed64bf6a1f0100000000000000008181811015610b71575b5050846d04ee2d6d415b85acef810000000080841015610b63575b5050662386f26fc1000080831015610b54575b506305f5e10080831015610b45575b5061271080831015610b36575b506064821015610b26575b600a80921015610b1c575b60019081602181860195610a75610a5f88612216565b97610a6d604051998a6121f5565b808952612216565b878a019890601f1901368a3750860101905b610ae7575b5050505092610acd9291610ac1946040519583610ab2889551809288808901910161209b565b8401915180938684019061209b565b010380845201826121f5565b905b610ae36040519282849384528301906120bc565b0390f35b5f19019083906f181899199a1a9b1b9c1cb0b131b232b360811b8282061a835304918215610b1757919082610a87565b610a8c565b9160010191610a49565b9190606460029104910191610a3e565b60049193920491019187610a33565b60089193920491019187610a26565b60109193920491019187610a17565b930192909104908488610a04565b6040945004915087806109e9565b50505050604051610b8f816121da565b5f815290610acf565b823461072d57608036600319011261072d57610bb26120e1565b610bba6120fb565b90604435606435926001600160401b038411610c065736602385011215610c0657610bf2610c03943690602481600401359101612231565b92610bfe8383836123fc565b6125d1565b80f35b8480fd5b823461072d57602036600319011261072d5760043590600a5482101561072d5750610c3490612397565b50805460018201546001600160a01b0316929091610ae391610c58600283016122f6565b9160ff60038201541692610ca9610c9e600484015492610c82600660ff60058801541696016122f6565b956040519a8b9a8b5260208b01528060408b01528901906120bc565b946060880190612146565b608086015260a085015283820360c08501526120bc565b823461072d57602036600319011261072d5760406020916004358152600c83522054604051908152f35b823461072d57604036600319011261072d57610d046120e1565b6024359081151590818303610d96576001600160a01b0316918215610d7d57610d4e90338552600560205260408520845f5260205260405f209060ff801983541691151516179055565b6040519081527f17307eab39ab6107e8899845ad3d59bd9653f200f220920489ca2b5937696c3160203392a380f35b604051630b61174360e31b815260048101849052602490fd5b8380fd5b823461072d578060031936011261072d576040515f6001805490610dbd826122be565b80855291818116908115610e505750600114610df8575b610ae384610de4818603826121f5565b6040519182916020835260208301906120bc565b5f81815292507fb10e2d527612073b26eecdfd717e6a320cf44b4afac2b0732d9fcbe2b7fa0cf65b828410610e38575050508101602001610de482610dd4565b80546020858701810191909152909301928101610e20565b60ff191660208087019190915292151560051b85019092019250610de49150839050610dd4565b823461072d57608036600319011261072d576004356001600160401b03811161042957610ea8903690600401612267565b60249081356001600160401b038111610d9657610ec9903690600401612267565b6044356001600160401b038111610c0657610ee8903690600401612267565b610ef06123d0565b60405191610efd836121bf565b838352602083015260408201526064356060820152600160808201528360a0820152600954600160401b81101561135757806001610f3e9201600955612285565b9190916113445780518051906001600160401b0382116111a8578190610f6485546122be565b601f81116112f7575b50602090601f831160011461128f578892611284575b50508160011b915f199060031b1c19161782555b60208101518051906001600160401b0382116111a8578190610fbc60018601546122be565b601f8111611234575b50602090601f83116001146111c65788926111bb575b50508160011b915f199060031b1c19161760018301555b60408101518051906001600160401b0382116111a85761101560028501546122be565b601f8111611164575b50602090601f83116001146110f65791806005949260a0948a926110eb575b50508160011b915f199060031b1c19161760028501555b6060810151600385015561107d60808201511515600486019060ff801983541691151516179055565b01519101556009545f198101929083116110d957506110cb7f812f46015ecceb58bd8c000c4b31e2eac9d57e2bfadbbaa557dd3408067d47df916040519182916040835260408301906120bc565b60643560208301520390a280f35b634e487b7160e01b8452601160045283fd5b01519050898061103d565b600285018852602088209190601f198416895b81811061114c575092600192859260a0966005989610611134575b505050811b016002850155611054565b01515f1960f88460031b161c19169055898080611124565b92936020600181928786015181550195019301611109565b60028501885260208820601f840160051c8101602085106111a1575b601f830160051c8201811061119657505061101e565b5f8155600101611180565b5080611180565b634e487b7160e01b875260416004528587fd5b015190508780610fdb565b9250600185018852602088209088935b601f1984168510611219576001945083601f19811610611201575b505050811b016001830155610ff2565b01515f1960f88460031b161c191690558780806111f1565b818101518355602094850194600190930192909101906111d6565b90915060018501885260208820601f840160051c81016020851061127d575b90849392915b601f830160051c8201811061126f575050610fc5565b5f8155859450600101611259565b5080611253565b015190508780610f83565b9250848852602088209088935b601f19841685106112dc576001945083601f198116106112c4575b505050811b018255610f97565b01515f1960f88460031b161c191690558780806112b7565b8181015183556020948501946001909301929091019061129c565b90915084885260208820601f840160051c81016020851061133d575b90849392915b601f830160051c8201811061132f575050610f6d565b5f8155859450600101611319565b5080611313565b634e487b7160e01b855260048590528385fd5b634e487b7160e01b855260416004528385fd5b823461072d578060031936011261072d576006546040516001600160a01b039091168152602090f35b823461072d57602080600319360112610429576001600160a01b036113b66120e1565b168252600b81526040822060405192838383549182815201908193835284832090835b81811061142d57505050846113ef9103856121f5565b60405193838594850191818652518092526040850193925b82811061141657505050500390f35b835185528695509381019392810192600101611407565b8254845292860192600192830192016113d9565b823461072d578060031936011261072d5761145a6123d0565b600680546001600160a01b031981169091555f906001600160a01b03167f8be0079c531659141344cd1fd0a4f28419497f9722a3daafe3b4186f6b6457e08280a380f35b823461072d57602036600319011261072d576001600160a01b036114c06120e1565b1680156114dd578160409160209352600383522054604051908152f35b6040516322718ad960e21b815260048101839052602490fd5b823461072d57602036600319011261072d576004359060095482101561072d5761157461152283612285565b5061152c816122f6565b90611539600182016122f6565b611545600283016122f6565b91611590600382015493611582600560ff6004860154169401549460405198899860c08a5260c08a01906120bc565b9088820360208a01526120bc565b9086820360408801526120bc565b9260608501521515608084015260a08301520390f35b823461072d57608036600319011261072d576115c06120e1565b60443560ff8116810361070f576064356001600160401b038111610d96576115ec903690600401612267565b6008546001600160a01b03163303611b5f5761160661271d565b611611602435612397565b50906003820180549060ff82166002811015611b4b57611b0d5760ff19918216600117905560058301805490911660ff85161790558051906001600160401b0382116105075761166460068401546122be565b601f8111611ac5575b50602090601f8311600114611a5a5760069291879183611a4f575b50508160011b915f199060031b1c1916179101555b605060ff821610611a1457600d54906116b5826126fb565b600d556040516116c4816121da565b8481526001600160a01b0384169384156119fb57838652600260205260408620546001600160a01b03168015159085908790836119c8575b818a52600360205260408a2060018154019055828a52600260205260408a20826001600160601b0360a01b8254161790557fddf252ad1be2c89b69c2b068fc378daa952ba7f163c4a11628f55a4df523b3ef8a80a46119af573b61188c575b509091808452600b60205260408420805490600160401b821015610507578161178b916001889594018155612167565b81545f1960039290921b91821b19169086901b179055838252600c6020526040822060243590557f00000000000000000000000000000000000000000000000000000000000000006001600160a01b0316803b1561070f57606483926040519485938492636b33531160e01b845260048401528160248401528860448401525af1801561188157611852575b5060ff604051911681527fb3911870883d2d1dfe50a5fad33cba6bc87bb4faf524a41187e0aa5e5e3a72b7602060243592a35b600160075580f35b6001600160401b03819492941161186d576040529183611817565b634e487b7160e01b82526041600452602482fd5b6040513d86823e3d90fd5b604051602081806118c5630a85bd0160e11b958683523360048401528a60248401528860448401526080606484015260848301906120bc565b038189895af1869181611967575b506119345785853d1561192b573d6118ea81612216565b906118f860405192836121f5565b8152809260203d92013e5b8151918261192457604051633250574960e11b815260048101839052602490fd5b9050602001fd5b60609150611903565b929391926001600160e01b0319160361194f5791908461175b565b60249060405190633250574960e11b82526004820152fd5b9091506020813d82116119a7575b81611982602093836121f5565b810103126119a357516001600160e01b0319811681036119a35790876118d3565b8680fd5b3d9150611975565b6040516339e3563760e11b815260048101879052602490fd5b5f83815260046020526040902080546001600160a01b0319169055808a52600360205260408a2080545f190190556116fc565b604051633250574960e11b815260048101879052602490fd5b905060ff604051911681525f19907fb3911870883d2d1dfe50a5fad33cba6bc87bb4faf524a41187e0aa5e5e3a72b7602060243592a361184a565b015190508780611688565b9060068401875280872091875b601f1985168110611aad5750918391600193600695601f19811610611a95575b505050811b0191015561169d565b01515f1960f88460031b161c19169055878080611a87565b91926020600181928685015181550194019201611a67565b60068401875260208720601f840160051c81019160208510611b03575b601f0160051c01905b818110611af8575061166d565b878155600101611aeb565b9091508190611ae2565b60405162461bcd60e51b81526020600482015260166024820152755375626d697373696f6e206e6f742070656e64696e6760501b6044820152606490fd5b634e487b7160e01b88526021600452602488fd5b6040516380fee10560e01b8152600490fd5b823461072d57602036600319011261072d576020611b90600435612597565b6040516001600160a01b039091168152f35b823461072d578060031936011261072d576040517f00000000000000000000000000000000000000000000000000000000000000006001600160a01b03168152602090f35b823461072d57604036600319011261072d57611c016120e1565b6001600160a01b03168152600b602052604081208054602435929083101561072d576020611c2f8484612167565b90546040519160031b1c8152f35b823461072d57610c03611c4f36612111565b9060405192611c5d846121da565b858452610bfe8383836123fc565b90503461042957602036600319011261042957606060c0604051611c8e81612190565b84815284602082015282604082015284838201528460808201528460a08201520152611cbb600435612397565b509060405191611cca83612190565b8054835260018101546001600160a01b03908116602085019081529190611cf3600283016122f6565b906040860191825260ff60038401541660608701976002821015611daa5750610ae39593611d8b611d7f8a979560ff958b9560209d52611d4f60066004870154966080890197885260a08a6005830154169901988952016122f6565b9760c08d019889526040518e819f9e829f835251910152511660408c0152518760608c01526101008b01906120bc565b965160808a0190612146565b5160a0880152511660c08601525190601f1985840301908501526120bc565b634e487b7160e01b81526021600452602490fd5b823461072d578060031936011261072d576008546040516001600160a01b039091168152602090f35b823461072d57610c03611df936612111565b916123fc565b823461072d57602036600319011261072d57611e196120e1565b611e216123d0565b60018060a01b03166001600160601b0360a01b600854161760085580f35b823461072d57604036600319011261072d57611e596120e1565b602435611e6581612597565b33151580611f0f575b80611ee4575b611ecc576001600160a01b039283169282918491167f8c5be1e5ebec7d5bd14f71427d1e84f3dd0314c0f7b2291e5b200ac8c7c3b9258680a4825260046020526040822080546001600160a01b031916909117905580f35b60405163a9fbf51f60e01b8152336004820152602490fd5b506001600160a01b038116845260056020908152604080862033875290915284205460ff1615611e74565b506001600160a01b038116331415611e6e565b823461072d57602036600319011261072d57602090600435611f4381612597565b50815260048252604060018060a01b0391205416604051908152f35b823461072d578060031936011261072d5760405190808054611f80816122be565b808552916001918083169081156120045750600114611faa575b610ae385610de4818703826121f5565b80809450527f290decd9548b62a8d60345a988386fc84ba6bc95484008f6362f93160ef3e5635b828410611fec575050508101602001610de482610ae3611f9a565b80546020858701810191909152909301928101611fd1565b869550610ae396935060209250610de494915060ff191682840152151560051b8201019293611f9a565b8390346104295760203660031901126104295760043563ffffffff60e01b811680910361070f57602092506380ac58cd60e01b811490811561208a575b8115612079575b5015158152f35b6301ffc9a760e01b14905083612072565b635b5e139f60e01b8114915061206b565b5f5b8381106120ac5750505f910152565b818101518382015260200161209d565b906020916120d58151809281855285808601910161209b565b601f01601f1916010190565b600435906001600160a01b03821682036120f757565b5f80fd5b602435906001600160a01b03821682036120f757565b60609060031901126120f7576001600160a01b039060043582811681036120f7579160243590811681036120f7579060443590565b9060028210156121535752565b634e487b7160e01b5f52602160045260245ffd5b805482101561217c575f5260205f2001905f90565b634e487b7160e01b5f52603260045260245ffd5b60e081019081106001600160401b038211176121ab57604052565b634e487b7160e01b5f52604160045260245ffd5b60c081019081106001600160401b038211176121ab57604052565b602081019081106001600160401b038211176121ab57604052565b90601f801991011681019081106001600160401b038211176121ab57604052565b6001600160401b0381116121ab57601f01601f191660200190565b92919261223d82612216565b9161224b60405193846121f5565b8294818452818301116120f7578281602093845f960137010152565b9080601f830112156120f75781602061228293359101612231565b90565b60095481101561217c5760069060095f52027f6e1540171b6c0c960b71a7020d9f60077f6af931a8bbf590da0223dacf75c7af01905f90565b90600182811c921680156122ec575b60208310146122d857565b634e487b7160e01b5f52602260045260245ffd5b91607f16916122cd565b9060405191825f825492612309846122be565b9081845260019485811690815f146123745750600114612334575b5050612332925003836121f5565b565b909391505f52602090815f20935f915b81831061235c57505061233293508201015f80612324565b85548884018501529485019487945091830191612344565b91505061233294506020925060ff191682840152151560051b8201015f80612324565b600a5481101561217c57600790600a5f52027fc65a7bb8d6351c1cf70c95a316cc6a92839c986682d98bc35f958f4883f9d2a801905f90565b6006546001600160a01b031633036123e457565b60405163118cdaa760e01b8152336004820152602490fd5b6001600160a01b03918216929091831561257f575f928284528260209560028752604096848888205416968791331515806124e9575b509060027fddf252ad1be2c89b69c2b068fc378daa952ba7f163c4a11628f55a4df523b3ef92846124b8575b858352600381528b8320805460010190558683525289812080546001600160a01b0319168517905580a416928383036124975750505050565b6064945051926364283d7b60e01b8452600484015260248301526044820152fd5b5f87815260046020526040902080546001600160a01b0319169055848352600381528b832080545f1901905561245e565b9193945091508061253e575b156125055785929187915f612432565b878688612522576024915190637e27328960e01b82526004820152fd5b604491519063177e802f60e01b82523360048301526024820152fd5b503387148015612563575b806124f557508582526004815233858984205416146124f5565b5086825260058152878220338352815260ff8883205416612549565b604051633250574960e11b81525f6004820152602490fd5b5f818152600260205260409020546001600160a01b03169081156125b9575090565b60249060405190637e27328960e01b82526004820152fd5b813b6125de575b50505050565b604051630a85bd0160e11b8082523360048301526001600160a01b0392831660248301526044820194909452608060648201526020959290911693909290839061262c9060848301906120bc565b039285815f958187895af18491816126bb575b5061269e575050503d5f14612696573d61265881612216565b9061266660405192836121f5565b81528091843d92013e5b8051928361269157604051633250574960e11b815260048101849052602490fd5b019050fd5b506060612670565b919450915063ffffffff60e01b160361194f57505f8080806125d8565b9091508681813d83116126f4575b6126d381836121f5565b81010312610c0657516001600160e01b031981168103610c0657905f61263f565b503d6126c9565b5f1981146127095760010190565b634e487b7160e01b5f52601160045260245ffd5b60026007541461272e576002600755565b604051633ee5aeb560e01b8152600490fdfea26469706673582212204bd05ecf6b7357825e199ca63e4a7dd07cc94d2b4410af37aa63ddecc703c9f764736f6c63430008140033","linkReferences":{}},"methodIdentifiers":{"aiOracle()":"31b221cd","approve(address,uint256)":"095ea7b3","badgeCounter()":"e5ed9884","badgeToSubmissionId(uint256)":"a8744d5e","balanceOf(address)":"70a08231","createTest(string,string,string,uint256)":"939b27ee","freelancerBadges(address,uint256)":"5b9d73d7","getApproved(uint256)":"081812fc","getFreelancerBadges(address)":"86fc79c8","getSubmission(uint256)":"3e8686cc","getTest(uint256)":"edef019d","isApprovedForAll(address,address)":"e985e9c5","mint(address,uint256,uint8,string)":"644acc60","name()":"06fdde03","owner()":"8da5cb5b","ownerOf(uint256)":"6352211e","renounceOwnership()":"715018a6","safeTransferFrom(address,address,uint256)":"42842e0e","safeTransferFrom(address,address,uint256,bytes)":"b88d4fde","setAIOracle(address)":"1aa632b3","setApprovalForAll(address,bool)":"a22cb465","skillTests(uint256)":"674c0583","stablecoin()":"e9cbd822","submissions(uint256)":"ad73349e","submitTrial(uint256,string)":"f9e5dbaa","supportsInterface(bytes4)":"01ffc9a7","symbol()":"95d89b41","tokenURI(uint256)":"c87b56dd","transferFrom(address,address,uint256)":"23b872dd","transferOwnership(address)":"f2fde38b","userRegistry()":"5c7460d6"},"id":42}