{"abi":[{"type":"constructor","inputs":[{"name":"_zkVerifier","type":"address","internalType":"address"},{"name":"_stablecoin","type":"address","internalType":"address"},{"name":"_gasSponsor","type":"address","internalType":"address"}],"stateMutability":"nonpayable"},{"type":"function","name":"DEPOSIT_AMOUNT","inputs":[],"outputs":[{"name":"","type":"uint256","internalType":"uint256"}],"stateMutability":"view"},{"type":"function","name":"addAttestation","inputs":[{"name":"user","type":"address","internalType":"address"},{"name":"attestationType","type":"uint8","internalType":"enum UserRegistry.AttestationType"},{"name":"referenceId","type":"uint256","internalType":"uint256"}],"outputs":[],"stateMutability":"nonpayable"},{"type":"function","name":"addAttestationWithMetadata","inputs":[{"name":"user","type":"address","internalType":"address"},{"name":"attestationType","type":"uint8","internalType":"enum UserRegistry.AttestationType"},{"name":"referenceId","type":"uint256","internalType":"uint256"},{"name":"metadata","type":"string","internalType":"string"},{"name":"isPositive","type":"bool","internalType":"bool"}],"outputs":[],"stateMutability":"nonpayable"},{"type":"function","name":"attestationCounter","inputs":[],"outputs":[{"name":"","type":"uint256","internalType":"uint256"}],"stateMutability":"view"},{"type":"function","name":"attestations","inputs":[{"name":"","type":"address","internalType":"address"},{"name":"","type":"uint256","internalType":"uint256"}],"outputs":[{"name":"attestationId","type":"uint256","internalType":"uint256"},{"name":"attestationType","type":"uint8","internalType":"enum UserRegistry.AttestationType"},{"name":"referenceId","type":"uint256","internalType":"uint256"},{"name":"timestamp","type":"uint256","internalType":"uint256"},{"name":"issuer","type":"address","internalType":"address"},{"name":"metadata","type":"string","internalType":"string"},{"name":"isPositive","type":"bool","internalType":"bool"}],"stateMutability":"view"},{"type":"function","name":"authorizedCallers","inputs":[{"name":"","type":"address","internalType":"address"}],"outputs":[{"name":"","type":"bool","internalType":"bool"}],"stateMutability":"view"},{"type":"function","name":"ensToAddress","inputs":[{"name":"","type":"string","internalType":"string"}],"outputs":[{"name":"","type":"address","internalType":"address"}],"stateMutability":"view"},{"type":"function","name":"gasSponsorAddress","inputs":[],"outputs":[{"name":"","type":"address","internalType":"address"}],"stateMutability":"view"},{"type":"function","name":"getAttestationCount","inputs":[{"name":"user","type":"address","internalType":"address"}],"outputs":[{"name":"","type":"uint256","internalType":"uint256"}],"stateMutability":"view"},{"type":"function","name":"getAttestations","inputs":[{"name":"user","type":"address","internalType":"address"}],"outputs":[{"name":"","type":"tuple[]","internalType":"struct UserRegistry.Attestation[]","components":[{"name":"attestationId","type":"uint256","internalType":"uint256"},{"name":"attestationType","type":"uint8","internalType":"enum UserRegistry.AttestationType"},{"name":"referenceId","type":"uint256","internalType":"uint256"},{"name":"timestamp","type":"uint256","internalType":"uint256"},{"name":"issuer","type":"address","internalType":"address"},{"name":"metadata","type":"string","internalType":"string"},{"name":"isPositive","type":"bool","internalType":"bool"}]}],"stateMutability":"view"},{"type":"function","name":"getPositiveAttestationCount","inputs":[{"name":"user","type":"address","internalType":"address"}],"outputs":[{"name":"","type":"uint256","internalType":"uint256"}],"stateMutability":"view"},{"type":"function","name":"getUserLevel","inputs":[{"name":"user","type":"address","internalType":"address"}],"outputs":[{"name":"","type":"uint8","internalType":"enum UserRegistry.LegitimacyLevel"}],"stateMutability":"view"},{"type":"function","name":"getUserProfile","inputs":[{"name":"user","type":"address","internalType":"address"}],"outputs":[{"name":"level","type":"uint8","internalType":"enum UserRegistry.LegitimacyLevel"},{"name":"ensName","type":"string","internalType":"string"},{"name":"hasDeposited","type":"bool","internalType":"bool"},{"name":"registrationTime","type":"uint256","internalType":"uint256"}],"stateMutability":"view"},{"type":"function","name":"isVerifiedHuman","inputs":[{"name":"user","type":"address","internalType":"address"}],"outputs":[{"name":"","type":"bool","internalType":"bool"}],"stateMutability":"view"},{"type":"function","name":"linkEns","inputs":[{"name":"ensName","type":"string","internalType":"string"}],"outputs":[],"stateMutability":"nonpayable"},{"type":"function","name":"makeDeposit","inputs":[],"outputs":[],"stateMutability":"nonpayable"},{"type":"function","name":"owner","inputs":[],"outputs":[{"name":"","type":"address","internalType":"address"}],"stateMutability":"view"},{"type":"function","name":"registerBasic","inputs":[],"outputs":[],"stateMutability":"nonpayable"},{"type":"function","name":"renounceOwnership","inputs":[],"outputs":[],"stateMutability":"nonpayable"},{"type":"function","name":"setAuthorizedCaller","inputs":[{"name":"caller","type":"address","internalType":"address"},{"name":"status","type":"bool","internalType":"bool"}],"outputs":[],"stateMutability":"nonpayable"},{"type":"function","name":"stablecoin","inputs":[],"outputs":[{"name":"","type":"address","internalType":"contract IERC20"}],"stateMutability":"view"},{"type":"function","name":"transferOwnership","inputs":[{"name":"newOwner","type":"address","internalType":"address"}],"outputs":[],"stateMutability":"nonpayable"},{"type":"function","name":"updateGasSponsor","inputs":[{"name":"_newGasSponsor","type":"address","internalType":"address"}],"outputs":[],"stateMutability":"nonpayable"},{"type":"function","name":"updateZkVerifier","inputs":[{"name":"_newVerifier","type":"address","internalType":"address"}],"outputs":[],"stateMutability":"nonpayable"},{"type":"function","name":"usedProofs","inputs":[{"name":"","type":"bytes32","internalType":"bytes32"}],"outputs":[{"name":"","type":"bool","internalType":"bool"}],"stateMutability":"view"},{"type":"function","name":"users","inputs":[{"name":"","type":"address","internalType":"address"}],"outputs":[{"name":"level","type":"uint8","internalType":"enum UserRegistry.LegitimacyLevel"},{"name":"ensName","type":"string","internalType":"string"},{"name":"hasDeposited","type":"bool","internalType":"bool"},{"name":"registrationTime","type":"uint256","internalType":"uint256"},{"name":"zkProofHash","type":"bytes32","internalType":"bytes32"}],"stateMutability":"view"},{"type":"function","name":"verifyHuman","inputs":[{"name":"zkProof","type":"bytes","internalType":"bytes"},{"name":"publicSignals","type":"uint256[]","internalType":"uint256[]"}],"outputs":[],"stateMutability":"nonpayable"},{"type":"function","name":"zkVerifier","inputs":[],"outputs":[{"name":"","type":"address","internalType":"contract IZKVerifier"}],"stateMutability":"view"},{"type":"event","name":"AttestationAdded","inputs":[{"name":"user","type":"address","indexed":true,"internalType":"address"},{"name":"attestationId","type":"uint256","indexed":false,"internalType":"uint256"},{"name":"attestationType","type":"uint8","indexed":false,"internalType":"enum UserRegistry.AttestationType"},{"name":"referenceId","type":"uint256","indexed":false,"internalType":"uint256"},{"name":"issuer","type":"address","indexed":false,"internalType":"address"},{"name":"isPositive","type":"bool","indexed":false,"internalType":"bool"}],"anonymous":false},{"type":"event","name":"AuthorizedCallerUpdated","inputs":[{"name":"caller","type":"address","indexed":true,"internalType":"address"},{"name":"status","type":"bool","indexed":false,"internalType":"bool"}],"anonymous":false},{"type":"event","name":"DepositMade","inputs":[{"name":"user","type":"address","indexed":true,"internalType":"address"},{"name":"amount","type":"uint256","indexed":false,"internalType":"uint256"}],"anonymous":false},{"type":"event","name":"ENSLinked","inputs":[{"name":"user","type":"address","indexed":true,"internalType":"address"},{"name":"ensName","type":"string","indexed":false,"internalType":"string"}],"anonymous":false},{"type":"event","name":"HumanVerified","inputs":[{"name":"user","type":"address","indexed":true,"internalType":"address"},{"name":"proofHash","type":"bytes32","indexed":false,"internalType":"bytes32"}],"anonymous":false},{"type":"event","name":"OwnershipTransferred","inputs":[{"name":"previousOwner","type":"address","indexed":true,"internalType":"address"},{"name":"newOwner","type":"address","indexed":true,"internalType":"address"}],"anonymous":false},{"type":"event","name":"UserRegistered","inputs":[{"name":"user","type":"address","indexed":true,"internalType":"address"},{"name":"level","type":"uint8","indexed":false,"internalType":"enum UserRegistry.LegitimacyLevel"}],"anonymous":false},{"type":"error","name":"AlreadyRegistered","inputs":[]},{"type":"error","name":"DepositAlreadyMade","inputs":[]},{"type":"error","name":"ENSAlreadyLinked","inputs":[]},{"type":"error","name":"InsufficientAllowance","inputs":[]},{"type":"error","name":"InvalidProof","inputs":[]},{"type":"error","name":"NotBasicUser","inputs":[]},{"type":"error","name":"OwnableInvalidOwner","inputs":[{"name":"owner","type":"address","internalType":"address"}]},{"type":"error","name":"OwnableUnauthorizedAccount","inputs":[{"name":"account","type":"address","internalType":"address"}]},{"type":"error","name":"ProofAlreadyUsed","inputs":[]},{"type":"error","name":"Unauthorized","inputs":[]}],"bytecode":{"object":"0x6080346200010957601f62001e2b38819003918201601f19168301916001600160401b038311848410176200010e5780849260609460405283398101031262000109576200004d8162000124565b620000696040620000616020850162000124565b930162000124565b903315620000f057600080546001600160a01b03198082163390811784556040519691956001600160a01b039590948694859391908416907f8be0079c531659141344cd1fd0a4f28419497f9722a3daafe3b4186f6b6457e09080a3168560015416176001551683600254161760025516906003541617600355611cf190816200013a8239f35b604051631e4fbdf760e01b815260006004820152602490fd5b600080fd5b634e487b7160e01b600052604160045260246000fd5b51906001600160a01b0382168203620001095756fe6040608081526004908136101561001557600080fd5b60009160e0908335821c91826263fa271461194a5782630148606c1461190a57826321923bde146118c45782632c996e03146118a557826333097df61461183b57826340732c891461168d5782634266c0331461164d578263454bbd29146115c75782635005305d14611362578263536fff6c14611323578263633c0bbc146112ea57826368b96b4614610ff25782636b33531114610ced578263715018a614610c935782638da5cb5b14610c6a578263987ee15614610ba1578263a87430ba14610b13578263aba6466c14610973578263c30a0f2514610945578263c657c6a51461088757508163d021600114610757578163d44ab80c146104be578163d6df096d14610495578163e1c6f44214610256578163e9cbd8221461022d578163ec6925a71461020f578163f2fde38b14610184575063f38fad131461015957600080fd5b3461018057816003193601126101805760035490516001600160a01b039091168152602090f35b5080fd5b90503461020b57602036600319011261020b5761019f611994565b906101a8611c32565b6001600160a01b039182169283156101f557505082546001600160a01b0319811683178455167f8be0079c531659141344cd1fd0a4f28419497f9722a3daafe3b4186f6b6457e08380a380f35b51631e4fbdf760e01b8152908101849052602490fd5b8280fd5b50503461018057816003193601126101805760209051629896808152f35b50503461018057816003193601126101805760025490516001600160a01b039091168152602090f35b83833461018057816003193601126101805733825260206005815260ff8284205416610281816119af565b61048557815191610291836119cf565b6001928381528151956102a387611a1d565b8587528382019687528282018681526060830142815260808401918883523389526005875285892094516102d6816119af565b6102df816119af565b60ff801987541691161785558785019951998a5167ffffffffffffffff81116104725761030c8254611b20565b601f811161042c575b50889b601f82116001146103a15790808c9d6103829594937f8e18574f8a7333e6a87112742a55853a643e2f0550f4e1a3a2c3f1bb2994441d9d9e92610396575b5050600019600383901b1c1916908c1b1790555b511515600286019060ff801983541691151516179055565b51600384015551910155519283523392a280f35b015190508e80610356565b828c52898c209c90601f1983168d5b81811061041457509d8c9d9e9284926103829796957f8e18574f8a7333e6a87112742a55853a643e2f0550f4e1a3a2c3f1bb2994441d9f95106103fb575b505050811b01905561036a565b015160001960f88460031b161c191690558e80806103ee565b9e8c8e81928686015181550194019f019e929e6103b0565b828c52898c20601f830160051c8101918b8410610468575b601f0160051c01908b905b82811061045d575050610315565b8d8155018b9061044f565b9091508190610444565b634e487b7160e01b8b526041865260248bfd5b8151630ea075bf60e21b81528490fd5b50503461018057816003193601126101805760015490516001600160a01b039091168152602090f35b838334610180576020908160031936011261020b5767ffffffffffffffff908435828111610753576104f39036908701611aa2565b913385526005845260ff828620541661050b816119af565b1561074357338552600584526001610527818488200154611b20565b6107335782519184519286860193610540818387611ac0565b600790820190815281900387019020546001600160a01b0316610723573387526005865281848820019185519182116107105790829161058288959454611b20565b601f81116106bd575b508489601f84116001146106305792808061061f9997946105f297947f413df153bebb8673717c75df0c9bd35401ad0caf0a04db4db145d544f181cb1b9c9a9793610625575b501b916000199060031b1c19161790555b8351809381928751928391611ac0565b81016007815203019020336001600160601b0360a01b825416179055519182918583523395830190611afb565b0390a280f35b8a015192508e6105d1565b50838a52858a2091929190601f1983168b5b8181106106a75750926105f295927f413df153bebb8673717c75df0c9bd35401ad0caf0a04db4db145d544f181cb1b9a9895928261061f9b99961061068e575b5050811b0190556105e2565b89015160001960f88460031b161c191690558c80610682565b8a83015184558b98938601939283019201610642565b909192809495508952878920601f840160051c810191898510610706575b90601f8a9796959493920160051c01905b8181106106f9575061058b565b8a815589965082016106ec565b90915081906106db565b634e487b7160e01b885260418952602488fd5b835163c982c49960e01b81528890fd5b825163c982c49960e01b81528790fd5b8151630cbf50dd60e01b81528690fd5b8480fd5b828434610884576020928360031936011261018057610774611994565b6001600160a01b039081168352600885528383208054849290919061079883611ae3565b946107a588519687611a39565b838652888601928552888520918986945b86861061080c57505050505050505b81518110156108035760c0858260051b8401015101516107ee575b6107e990611c76565b6107c5565b916107fb6107e991611c76565b9290506107e0565b50509051908152f35b6001916007918c5161081d81611a01565b875481528d60ff9081878b015416610834816119af565b8584015260028a0154908301526003890154606083015286888a015416608083015261086260058a01611b5a565b60a0830152600689015416151560c08201528152019401940193928a906107b6565b80fd5b8385913461020b578160031936011261020b576108a2611994565b6001600160a01b03908116845260086020528284208054919460243592831015610884575061093992916108d591611c00565b509081549460ff60018401541696600284015491600385015491850154169160ff600661090460058801611b5a565b96015416968051998a998a52610919816119af565b60208a0152880152606087015260808601528060a0860152840190611afb565b90151560c08301520390f35b5090503461020b57602036600319011261020b578160209360ff923581526006855220541690519015158152f35b92915034610b0f57602080600319360112610753576001600160a01b03939185918561099d611994565b168352600881528483209384546109b381611ae3565b936109c088519586611a39565b81855283850190819787528487209087925b8b858510610a8c57505050505050855195828701938388525180945280870191818560051b8901019695985b858a10610a0b5788880389f35b909192939495968580600192603f198c82030188528a51908151815282820151610a34816119af565b83820152878201518882015260608083015190820152608086818401511690820152610a6d60a088818501519184015288830190611afb565b9160c080910151151591015299019501990198929190959493956109fe565b876001926007928e999e9c9a9b9c5190610aa582611a01565b8754825260ff9081878a015416610abb816119af565b8584015260028901548c8401526003890154606084015287890154166080830152610ae860058901611b5a565b60a0830152600688015416151560c0820152815201930193019291999499979695976109d2565b8380fd5b508284346108845760203660031901126108845781906001600160a01b03610b39611994565b1681526005602052209160ff83541691610b5560018501611b5a565b9360ff60028201541692600382015491015491610b8c81519686610b7989986119af565b875260a0602088015260a0870190611afb565b93151590850152606084015260808301520390f35b508284346108845760203660031901126108845781906001600160a01b03610bc7611994565b16815260056020522090805191610bdd836119cf565b60ff815416610beb816119af565b8352610bf960018201611b5a565b926020810193845260ff60028301541694838201951515865260038301549260608301938452015460808201525192610c31846119af565b5193511515905190610c5d83519585610c4a88976119af565b8652608060208701526080860190611afb565b9284015260608301520390f35b50505034610180578160031936011261018057905490516001600160a01b039091168152602090f35b8434610884578060031936011261088457610cac611c32565b80546001600160a01b03198116825581906001600160a01b03167f8be0079c531659141344cd1fd0a4f28419497f9722a3daafe3b4186f6b6457e08280a380f35b5090503461020b57606036600319011261020b57610d09611994565b9160243590600382101561075357604435903386526020926009845260ff828820541615610fe357815193610d3d85611a1d565b878552855495610d4c87611c76565b815560018060a01b0380981697888a5260088352848a2096855192610d7084611a01565b89845284840192610d80876119af565b8684528785019089825260608601428152608087019233845260a0880195865260c088019660019d8e8952805490600160401b821015610fcc578f82018155610dc99190611c00565b999099610fb7575189558d89019051610de1816119af565b610dea816119af565b60ff801983541691161790555160028801555160038701558286019151166001600160601b0360a01b82541617905560058401915180519167ffffffffffffffff8311610fa457508c86610e3e8554611b20565b91601f8311610f5c575b9150505085908d601f8411600114610edc579383600080516020611c9c8339815191529d9b99979460069460a09e9c9a9894610eae9892610ed1575b5050600019600383901b1c1916908b1b1790555b51151591019060ff801983541691151516179055565b8251958652610ebc826119af565b8501528301523360608301526080820152a280f35b015190503880610e84565b9190601f198416858452888420935b818110610f4757509b84600694600080516020611c9c8339815191529f9d9b99969460a09f94849e9c9a96610eae9a9610610f2e575b505050811b019055610e98565b015160001960f88460031b161c19169055388080610f21565b828401518555938d0193928901928901610eeb565b85815220601f840160051c810191888510610f9a575b601f0160051c01908b908f5b838210610f8f579050889150610e48565b8155018b908f610f7e565b9091508190610f72565b634e487b7160e01b8e526041905260248dfd5b50505060248f8086634e487b7160e01b825252fd5b5050505060248f604186634e487b7160e01b835252fd5b81516282b42960e81b81528590fd5b8482853461020b5760a036600319011261020b5761100e611994565b6024359160038310156107535767ffffffffffffffff926064358481116112e65761103c9036908701611aa2565b608435938415158095036112e2573388526020916009835260ff858a205416156112d357859088549761106e89611c76565b8a5560018060a01b03809416998a8c5260088652878c209088519561109287611a01565b8b8752878701906110a28a6119af565b8982528a88016044358152606089019042825260808a019333855260a08b0198895260c08b01998a528654600160401b8110156112bc576110ea906001988982018155611c00565b9b909b6112a657518b55868b019051611102816119af565b61110b816119af565b60ff801983541691161790555160028a01555160038901558288019151166001600160601b0360a01b825416179055600586019351908151938411610fa457508c876111578654611b20565b91601f831161125e575b9150505086908d601f85116001146111f857938080600695600080516020611c9c8339815191529f9d9b999560a09f9d9b98956111c69a96946111ed575b50501b916000199060031b1c191617905551151591019060ff801983541691151516179055565b82519485526111d4826119af565b840152604435908301523360608301526080820152a280f35b01519250388061119f565b9190601f949394198416868452898420935b818110611249575093600080516020611c9c8339815191529d9b9997936111c6979360a09e9c9a97938360069810610f2e57505050811b019055610e98565b82840151855593860193928a01928a0161120a565b86815220601f850160051c81019189861061129c575b601f0160051c019083908f5b838210611291579050899150611161565b81550183908f611280565b9091508190611274565b5050505060248f8085634e487b7160e01b825252fd5b5050505060248f604185634e487b7160e01b835252fd5b84516282b42960e81b81528890fd5b8780fd5b8680fd5b505050346101805760203660031901126101805760209181906001600160a01b03611313611994565b1681526008845220549051908152f35b505050346101805760203660031901126101805760209160ff9082906001600160a01b0361134f611994565b1681526009855220541690519015158152f35b508383346101805760031990808236011261020b5767ffffffffffffffff9184358381116107535736602382011215610753576113a89036906024818901359101611a5b565b60243593841161075357366023850112156107535783860135916113cb83611ae3565b906113d885519283611a39565b8382526020958683016024819660051b830101913683116115c3576024899101915b8383106115b357505050503387526005865260ff85882054169361141d856119af565b60018095036115a35784548651631e8e1e1360e01b81528a810188905293889385936001600160a01b039093169291859061145b604487018a611afb565b9286840301602487015251918281520191908b5b8982821061158c575050505082809103915afa908115611582578691611555575b501561154557838151910120908185526006845260ff83862054166115355784958291827f8e18574f8a7333e6a87112742a55853a643e2f0550f4e1a3a2c3f1bb2994441d9697526006875284882060ff19918282541617905533885260058752600285892091825416178155015581519081527fac2560685f85ea52eb1017414fed5bfa085fed52bd335577b12681ed51670f3e843392a25191600283523392a280f35b825163c9838a6560e01b81528690fd5b82516309bde33960e01b81528690fd5b6115759150853d871161157b575b61156d8183611a39565b810190611c5e565b87611490565b503d611563565b84513d88823e3d90fd5b835185528c9789975094850194909301920161146f565b8551630cbf50dd60e01b81528990fd5b82358152918101918991016113fa565b8980fd5b505050346101805780600319360112610180576115e2611994565b9060243591821515808403610753577fad857fa38c9319cb80848f1ef2f924383b90297eb5d71755738ff037d100faa192611645602093611621611c32565b60018060a01b031695868852600985528288209060ff801983541691151516179055565b51908152a280f35b843461088457602036600319011261088457611667611994565b61166f611c32565b60018060a01b03166001600160601b0360a01b600354161760035580f35b8482853461020b578260031936011261020b573383526020906005825260ff600282862001541661182c576002548151636eb1769f60e11b8152338186015230602482015293906001600160a01b03908116908486604481855afa9586156118225787966117f3575b50629896808096106117e35786916064869260035416865194859384926323b872dd60e01b8452338985015260248401528a60448401525af19081156117d95786916117bc575b50156117895750907fd15c9547ea5c06670c0010ce19bc32d54682a4b3801ece7f3ab0c3f17106b4bb9133855260058252600281862001600160ff19825416179055519283523392a280f35b82606492519162461bcd60e51b8352820152600f60248201526e151c985b9cd9995c8819985a5b1959608a1b6044820152fd5b6117d39150843d861161157b5761156d8183611a39565b8661173d565b83513d88823e3d90fd5b83516313be252b60e01b81528390fd5b9095508481813d831161181b575b61180b8183611a39565b810103126112e6575194876116f6565b503d611801565b84513d89823e3d90fd5b51630300583960e31b81529050fd5b508284346108845760203660031901126108845782359067ffffffffffffffff8211610884575060209261187191369101611aa2565b8261188483519283815193849201611ac0565b6007908201908152819003830190205490516001600160a01b039091168152f35b5090503461020b578260031936011261020b5760209250549051908152f35b505050346101805760203660031901126101805760209160ff9082906001600160a01b036118f0611994565b16815260058552205416905190611906816119af565b8152f35b843461088457602036600319011261088457611924611994565b61192c611c32565b60018060a01b03166001600160601b0360a01b600154161760015580f35b505050346101805760203660031901126101805760209160029060ff9083906001600160a01b03611979611994565b168152600586522054169161198d836119af565b5191148152f35b600435906001600160a01b03821682036119aa57565b600080fd5b600311156119b957565b634e487b7160e01b600052602160045260246000fd5b60a0810190811067ffffffffffffffff8211176119eb57604052565b634e487b7160e01b600052604160045260246000fd5b60e0810190811067ffffffffffffffff8211176119eb57604052565b6020810190811067ffffffffffffffff8211176119eb57604052565b90601f8019910116810190811067ffffffffffffffff8211176119eb57604052565b92919267ffffffffffffffff82116119eb5760405191611a85601f8201601f191660200184611a39565b8294818452818301116119aa578281602093846000960137010152565b9080601f830112156119aa57816020611abd93359101611a5b565b90565b60005b838110611ad35750506000910152565b8181015183820152602001611ac3565b67ffffffffffffffff81116119eb5760051b60200190565b90602091611b1481518092818552858086019101611ac0565b601f01601f1916010190565b90600182811c92168015611b50575b6020831014611b3a57565b634e487b7160e01b600052602260045260246000fd5b91607f1691611b2f565b9060405191826000825492611b6e84611b20565b908184526001948581169081600014611bdd5750600114611b9a575b5050611b9892500383611a39565b565b9093915060005260209081600020936000915b818310611bc5575050611b9893508201013880611b8a565b85548884018501529485019487945091830191611bad565b915050611b9894506020925060ff191682840152151560051b8201013880611b8a565b8054821015611c1c576000526007602060002091020190600090565b634e487b7160e01b600052603260045260246000fd5b6000546001600160a01b03163303611c4657565b60405163118cdaa760e01b8152336004820152602490fd5b908160209103126119aa575180151581036119aa5790565b6000198114611c855760010190565b634e487b7160e01b600052601160045260246000fdfe73c45bc901b5ea7c51c92c804a2067dd8c8b557fa2e23ff3dfc0b023297938cfa2646970667358221220f6c021187a0d214bffa7f715c3975b27e5db2f355802b9d1633c4152cf50f06064736f6c63430008140033","linkReferences":{}},"methodIdentifiers":{"DEPOSIT_AMOUNT()":"ec6925a7","addAttestation(address,uint8,uint256)":"6b335311","addAttestationWithMetadata(address,uint8,uint256,string,bool)":"68b96b46","attestationCounter()":"2c996e03","attestations(address,uint256)":"c657c6a5","authorizedCallers(address)":"536fff6c","ensToAddress(string)":"33097df6","gasSponsorAddress()":"f38fad13","getAttestationCount(address)":"633c0bbc","getAttestations(address)":"aba6466c","getPositiveAttestationCount(address)":"d0216001","getUserLevel(address)":"21923bde","getUserProfile(address)":"987ee156","isVerifiedHuman(address)":"0063fa27","linkEns(string)":"d44ab80c","makeDeposit()":"40732c89","owner()":"8da5cb5b","registerBasic()":"e1c6f442","renounceOwnership()":"715018a6","setAuthorizedCaller(address,bool)":"454bbd29","stablecoin()":"e9cbd822","transferOwnership(address)":"f2fde38b","updateGasSponsor(address)":"4266c033","updateZkVerifier(address)":"0148606c","usedProofs(bytes32)":"c30a0f25","users(address)":"a87430ba","verifyHuman(bytes,uint256[])":"5005305d","zkVerifier()":"d6df096d"},"id":43}