{"abi":[{"type":"constructor","inputs":[{"name":"_zkVerifier","type":"address","internalType":"address"},{"name":"_stablecoin","type":"address","internalType":"address"},{"name":"_gasSponsor","type":"address","internalType":"address"}],"stateMutability":"nonpayable"},{"type":"function","name":"DEPOSIT_AMOUNT","inputs":[],"outputs":[{"name":"","type":"uint256","internalType":"uint256"}],"stateMutability":"view"},{"type":"function","name":"addAttestation","inputs":[{"name":"user","type":"address","internalType":"address"},{"name":"attestationType","type":"uint8","internalType":"enum UserRegistry.AttestationType"},{"name":"referenceId","type":"uint256","internalType":"uint256"}],"outputs":[],"stateMutability":"nonpayable"},{"type":"function","name":"addAttestationWithMetadata","inputs":[{"name":"user","type":"address","internalType":"address"},{"name":"attestationType","type":"uint8","internalType":"enum UserRegistry.AttestationType"},{"name":"referenceId","type":"uint256","internalType":"uint256"},{"name":"metadata","type":"string","internalType":"string"},{"name":"isPositive","type":"bool","internalType":"bool"}],"outputs":[],"stateMutability":"nonpayable"},{"type":"function","name":"attestationCounter","inputs":[],"outputs":[{"name":"","type":"uint256","internalType":"uint256"}],"stateMutability":"view"},{"type":"function","name":"attestations","inputs":[{"name":"","type":"address","internalType":"address"},{"name":"","type":"uint256","internalType":"uint256"}],"outputs":[{"name":"attestationId","type":"uint256","internalType":"uint256"},{"name":"attestationType","type":"uint8","internalType":"enum UserRegistry.AttestationType"},{"name":"referenceId","type":"uint256","internalType":"uint256"},{"name":"timestamp","type":"uint256","internalType":"uint256"},{"name":"issuer","type":"address","internalType":"address"},{"name":"metadata","type":"string","internalType":"string"},{"name":"isPositive","type":"bool","internalType":"bool"}],"stateMutability":"view"},{"type":"function","name":"authorizedCallers","inputs":[{"name":"","type":"address","internalType":"address"}],"outputs":[{"name":"","type":"bool","internalType":"bool"}],"stateMutability":"view"},{"type":"function","name":"ensToAddress","inputs":[{"name":"","type":"string","internalType":"string"}],"outputs":[{"name":"","type":"address","internalType":"address"}],"stateMutability":"view"},{"type":"function","name":"gasSponsorAddress","inputs":[],"outputs":[{"name":"","type":"address","internalType":"address"}],"stateMutability":"view"},{"type":"function","name":"getAttestationCount","inputs":[{"name":"user","type":"address","internalType":"address"}],"outputs":[{"name":"","type":"uint256","internalType":"uint256"}],"stateMutability":"view"},{"type":"function","name":"getAttestations","inputs":[{"name":"user","type":"address","internalType":"address"}],"outputs":[{"name":"","type":"tuple[]","internalType":"struct UserRegistry.Attestation[]","components":[{"name":"attestationId","type":"uint256","internalType":"uint256"},{"name":"attestationType","type":"uint8","internalType":"enum UserRegistry.AttestationType"},{"name":"referenceId","type":"uint256","internalType":"uint256"},{"name":"timestamp","type":"uint256","internalType":"uint256"},{"name":"issuer","type":"address","internalType":"address"},{"name":"metadata","type":"string","internalType":"string"},{"name":"isPositive","type":"bool","internalType":"bool"}]}],"stateMutability":"view"},{"type":"function","name":"getPositiveAttestationCount","inputs":[{"name":"user","type":"address","internalType":"address"}],"outputs":[{"name":"","type":"uint256","internalType":"uint256"}],"stateMutability":"view"},{"type":"function","name":"getUserLevel","inputs":[{"name":"user","type":"address","internalType":"address"}],"outputs":[{"name":"","type":"uint8","internalType":"enum UserRegistry.LegitimacyLevel"}],"stateMutability":"view"},{"type":"function","name":"getUserProfile","inputs":[{"name":"user","type":"address","internalType":"address"}],"outputs":[{"name":"level","type":"uint8","internalType":"enum UserRegistry.LegitimacyLevel"},{"name":"ensName","type":"string","internalType":"string"},{"name":"hasDeposited","type":"bool","internalType":"bool"},{"name":"registrationTime","type":"uint256","internalType":"uint256"}],"stateMutability":"view"},{"type":"function","name":"isVerifiedHuman","inputs":[{"name":"user","type":"address","internalType":"address"}],"outputs":[{"name":"","type":"bool","internalType":"bool"}],"stateMutability":"view"},{"type":"function","name":"linkENS","inputs":[{"name":"ensName","type":"string","internalType":"string"}],"outputs":[],"stateMutability":"nonpayable"},{"type":"function","name":"makeDeposit","inputs":[],"outputs":[],"stateMutability":"nonpayable"},{"type":"function","name":"owner","inputs":[],"outputs":[{"name":"","type":"address","internalType":"address"}],"stateMutability":"view"},{"type":"function","name":"registerBasic","inputs":[],"outputs":[],"stateMutability":"nonpayable"},{"type":"function","name":"renounceOwnership","inputs":[],"outputs":[],"stateMutability":"nonpayable"},{"type":"function","name":"setAuthorizedCaller","inputs":[{"name":"caller","type":"address","internalType":"address"},{"name":"status","type":"bool","internalType":"bool"}],"outputs":[],"stateMutability":"nonpayable"},{"type":"function","name":"stablecoin","inputs":[],"outputs":[{"name":"","type":"address","internalType":"contract IERC20"}],"stateMutability":"view"},{"type":"function","name":"transferOwnership","inputs":[{"name":"newOwner","type":"address","internalType":"address"}],"outputs":[],"stateMutability":"nonpayable"},{"type":"function","name":"updateGasSponsor","inputs":[{"name":"_newGasSponsor","type":"address","internalType":"address"}],"outputs":[],"stateMutability":"nonpayable"},{"type":"function","name":"updateZKVerifier","inputs":[{"name":"_newVerifier","type":"address","internalType":"address"}],"outputs":[],"stateMutability":"nonpayable"},{"type":"function","name":"usedProofs","inputs":[{"name":"","type":"bytes32","internalType":"bytes32"}],"outputs":[{"name":"","type":"bool","internalType":"bool"}],"stateMutability":"view"},{"type":"function","name":"users","inputs":[{"name":"","type":"address","internalType":"address"}],"outputs":[{"name":"level","type":"uint8","internalType":"enum UserRegistry.LegitimacyLevel"},{"name":"ensName","type":"string","internalType":"string"},{"name":"hasDeposited","type":"bool","internalType":"bool"},{"name":"registrationTime","type":"uint256","internalType":"uint256"},{"name":"zkProofHash","type":"bytes32","internalType":"bytes32"}],"stateMutability":"view"},{"type":"function","name":"verifyHuman","inputs":[{"name":"zkProof","type":"bytes","internalType":"bytes"},{"name":"publicSignals","type":"uint256[]","internalType":"uint256[]"}],"outputs":[],"stateMutability":"nonpayable"},{"type":"function","name":"zkVerifier","inputs":[],"outputs":[{"name":"","type":"address","internalType":"contract IZKVerifier"}],"stateMutability":"view"},{"type":"event","name":"AttestationAdded","inputs":[{"name":"user","type":"address","indexed":true,"internalType":"address"},{"name":"attestationId","type":"uint256","indexed":false,"internalType":"uint256"},{"name":"attestationType","type":"uint8","indexed":false,"internalType":"enum UserRegistry.AttestationType"},{"name":"referenceId","type":"uint256","indexed":false,"internalType":"uint256"},{"name":"issuer","type":"address","indexed":false,"internalType":"address"},{"name":"isPositive","type":"bool","indexed":false,"internalType":"bool"}],"anonymous":false},{"type":"event","name":"AuthorizedCallerUpdated","inputs":[{"name":"caller","type":"address","indexed":true,"internalType":"address"},{"name":"status","type":"bool","indexed":false,"internalType":"bool"}],"anonymous":false},{"type":"event","name":"DepositMade","inputs":[{"name":"user","type":"address","indexed":true,"internalType":"address"},{"name":"amount","type":"uint256","indexed":false,"internalType":"uint256"}],"anonymous":false},{"type":"event","name":"ENSLinked","inputs":[{"name":"user","type":"address","indexed":true,"internalType":"address"},{"name":"ensName","type":"string","indexed":false,"internalType":"string"}],"anonymous":false},{"type":"event","name":"HumanVerified","inputs":[{"name":"user","type":"address","indexed":true,"internalType":"address"},{"name":"proofHash","type":"bytes32","indexed":false,"internalType":"bytes32"}],"anonymous":false},{"type":"event","name":"OwnershipTransferred","inputs":[{"name":"previousOwner","type":"address","indexed":true,"internalType":"address"},{"name":"newOwner","type":"address","indexed":true,"internalType":"address"}],"anonymous":false},{"type":"event","name":"UserRegistered","inputs":[{"name":"user","type":"address","indexed":true,"internalType":"address"},{"name":"level","type":"uint8","indexed":false,"internalType":"enum UserRegistry.LegitimacyLevel"}],"anonymous":false},{"type":"error","name":"AlreadyRegistered","inputs":[]},{"type":"error","name":"DepositAlreadyMade","inputs":[]},{"type":"error","name":"ENSAlreadyLinked","inputs":[]},{"type":"error","name":"InsufficientAllowance","inputs":[]},{"type":"error","name":"InvalidProof","inputs":[]},{"type":"error","name":"NotBasicUser","inputs":[]},{"type":"error","name":"OwnableInvalidOwner","inputs":[{"name":"owner","type":"address","internalType":"address"}]},{"type":"error","name":"OwnableUnauthorizedAccount","inputs":[{"name":"account","type":"address","internalType":"address"}]},{"type":"error","name":"ProofAlreadyUsed","inputs":[]},{"type":"error","name":"Unauthorized","inputs":[]}],"bytecode":{"object":"0x6080346200010757601f62001e0138819003918201601f19168301916001600160401b038311848410176200010b5780849260609460405283398101031262000107576200004d816200011f565b62000069604062000061602085016200011f565b93016200011f565b903315620000ef575f80546001600160a01b03198082163390811784556040519691956001600160a01b039590948694859391908416907f8be0079c531659141344cd1fd0a4f28419497f9722a3daafe3b4186f6b6457e09080a3168560015416176001551683600254161760025516906003541617600355611ccc9081620001358239f35b604051631e4fbdf760e01b81525f6004820152602490fd5b5f80fd5b634e487b7160e01b5f52604160045260245ffd5b51906001600160a01b0382168203620001075756fe60406080815260049081361015610014575f80fd5b5f9160e0908335821c91826263fa271461193d57826301d38886146118fd5782630af40e5a1461166957826321923bde146116235782632c996e031461160457826333097df61461159a57826340732c89146113ec5782634266c033146113ac578263454bbd29146113265782635005305d146110c1578263536fff6c14611082578263633c0bbc1461104957826368b96b4614610d545782636b33531114610a53578263715018a6146109f95782638da5cb5b146109d0578263987ee15614610907578263a87430ba14610879578263aba6466c146106d5578263c30a0f25146106a7578263c657c6a5146105e957508163d0216001146104b9578163d6df096d14610490578163e1c6f44214610253578163e9cbd8221461022a578163ec6925a71461020c578163f2fde38b14610181575063f38fad1314610156575f80fd5b3461017d578160031936011261017d5760035490516001600160a01b039091168152602090f35b5080fd5b9050346102085760203660031901126102085761019c611987565b906101a5611c11565b6001600160a01b039182169283156101f257505082546001600160a01b0319811683178455167f8be0079c531659141344cd1fd0a4f28419497f9722a3daafe3b4186f6b6457e08380a380f35b51631e4fbdf760e01b8152908101849052602490fd5b8280fd5b50503461017d578160031936011261017d5760209051629896808152f35b50503461017d578160031936011261017d5760025490516001600160a01b039091168152602090f35b83833461017d578160031936011261017d5733825260206005815260ff828420541661027e81611a8f565b6104805781519161028e836119a1565b6001928381528151956102a0876119ed565b8587528382019687528282018681526060830142815260808401918883523389526005875285892094516102d381611a8f565b6102dc81611a8f565b60ff801987541691161785558785019951998a5167ffffffffffffffff811161046d576103098254611b0b565b601f8111610427575b50889b601f821160011461039d5790808c9d61037e9594937f8e18574f8a7333e6a87112742a55853a643e2f0550f4e1a3a2c3f1bb2994441d9d9e92610392575b50505f19600383901b1c1916908c1b1790555b511515600286019060ff801983541691151516179055565b51600384015551910155519283523392a280f35b015190508e80610353565b828c52898c209c90601f1983168d5b81811061040f57509d8c9d9e92849261037e9796957f8e18574f8a7333e6a87112742a55853a643e2f0550f4e1a3a2c3f1bb2994441d9f95106103f7575b505050811b019055610366565b01515f1960f88460031b161c191690558e80806103ea565b9e8c8e81928686015181550194019f019e929e6103ac565b828c52898c20601f830160051c8101918b8410610463575b601f0160051c01908b905b828110610458575050610312565b8d8155018b9061044a565b909150819061043f565b634e487b7160e01b8b526041865260248bfd5b8151630ea075bf60e21b81528490fd5b50503461017d578160031936011261017d5760015490516001600160a01b039091168152602090f35b8284346105e6576020928360031936011261017d576104d6611987565b6001600160a01b03908116835260088552838320805484929091906104fa83611ace565b9461050788519687611a09565b838652888601928552888520918986945b86861061056e57505050505050505b81518110156105655760c0858260051b840101510151610550575b61054b90611c54565b610527565b9161055d61054b91611c54565b929050610542565b50509051908152f35b6001916007918c5161057f816119d1565b875481528d60ff9081878b01541661059681611a8f565b8584015260028a0154908301526003890154606083015286888a01541660808301526105c460058a01611b43565b60a0830152600689015416151560c08201528152019401940193928a90610518565b80fd5b83859134610208578160031936011261020857610604611987565b6001600160a01b039081168452600860205282842080549194602435928310156105e6575061069b929161063791611be4565b509081549460ff60018401541696600284015491600385015491850154169160ff600661066660058801611b43565b96015416968051998a998a5261067b81611a8f565b60208a0152880152606087015260808601528060a0860152840190611ae6565b90151560c08301520390f35b50905034610208576020366003190112610208578160209360ff923581526006855220541690519015158152f35b9291503461087557602080600319360112610871576001600160a01b0393918591856106ff611987565b1683526008815284832093845461071581611ace565b9361072288519586611a09565b81855283850190819787528487209087925b8b8585106107ee57505050505050855195828701938388525180945280870191818560051b8901019695985b858a1061076d5788880389f35b909192939495968580600192603f198c82030188528a5190815181528282015161079681611a8f565b838201528782015188820152606080830151908201526080868184015116908201526107cf60a088818501519184015288830190611ae6565b9160c08091015115159101529901950199019892919095949395610760565b876001926007928e999e9c9a9b9c5190610807826119d1565b8754825260ff9081878a01541661081d81611a8f565b8584015260028901548c840152600389015460608401528789015416608083015261084a60058901611b43565b60a0830152600688015416151560c082015281520193019301929199949997969597610734565b8480fd5b8380fd5b508284346105e65760203660031901126105e65781906001600160a01b0361089f611987565b1681526005602052209160ff835416916108bb60018501611b43565b9360ff600282015416926003820154910154916108f2815196866108df8998611a8f565b875260a0602088015260a0870190611ae6565b93151590850152606084015260808301520390f35b508284346105e65760203660031901126105e65781906001600160a01b0361092d611987565b16815260056020522090805191610943836119a1565b60ff81541661095181611a8f565b835261095f60018201611b43565b926020810193845260ff6002830154169483820195151586526003830154926060830193845201546080820152519261099784611a8f565b51935115159051906109c3835195856109b08897611a8f565b8652608060208701526080860190611ae6565b9284015260608301520390f35b5050503461017d578160031936011261017d57905490516001600160a01b039091168152602090f35b84346105e657806003193601126105e657610a12611c11565b80546001600160a01b03198116825581906001600160a01b03167f8be0079c531659141344cd1fd0a4f28419497f9722a3daafe3b4186f6b6457e08280a380f35b5090503461020857606036600319011261020857610a6f611987565b9160243590600382101561087157604435903386526020926009845260ff828820541615610d4557815193610aa3856119ed565b878552855495610ab287611c54565b815560018060a01b0380981697888a5260088352848a2096855192610ad6846119d1565b89845284840192610ae687611a8f565b8684528785019089825260608601428152608087019233845260a0880195865260c088019660019d8e8952805490600160401b821015610d2e578f82018155610b2f9190611be4565b999099610d19575189558d89019051610b4781611a8f565b610b5081611a8f565b60ff801983541691161790555160028801555160038701558286019151166001600160601b0360a01b82541617905560058401915180519167ffffffffffffffff8311610d0657508c86610ba48554611b0b565b91601f8311610cbe575b9150505085908d601f8411600114610c405793835f80516020611c778339815191529d9b99979460069460a09e9c9a9894610c129892610c35575b50505f19600383901b1c1916908b1b1790555b51151591019060ff801983541691151516179055565b8251958652610c2082611a8f565b8501528301523360608301526080820152a280f35b015190505f80610be9565b9190601f198416858452888420935b818110610ca957509b846006945f80516020611c778339815191529f9d9b99969460a09f94849e9c9a96610c129a9610610c91575b505050811b019055610bfc565b01515f1960f88460031b161c191690555f8080610c84565b828401518555938d0193928901928901610c4f565b85815220601f840160051c810191888510610cfc575b601f0160051c01908b908f5b838210610cf1579050889150610bae565b8155018b908f610ce0565b9091508190610cd4565b634e487b7160e01b8e526041905260248dfd5b50505060248f8086634e487b7160e01b825252fd5b5050505060248f604186634e487b7160e01b835252fd5b81516282b42960e81b81528590fd5b848285346102085760a036600319011261020857610d70611987565b6024359160038310156108715767ffffffffffffffff9260643584811161104557610d9e9036908701611a71565b60843593841515809503611041573388526020916009835260ff858a20541615611032578590885497610dd089611c54565b8a5560018060a01b03809416998a8c5260088652878c2090885195610df4876119d1565b8b875287870190610e048a611a8f565b8982528a88016044358152606089019042825260808a019333855260a08b0198895260c08b01998a528654600160401b81101561101b57610e4c906001988982018155611be4565b9b909b61100557518b55868b019051610e6481611a8f565b610e6d81611a8f565b60ff801983541691161790555160028a01555160038901558288019151166001600160601b0360a01b825416179055600586019351908151938411610d0657508c87610eb98654611b0b565b91601f8311610fbd575b9150505086908d601f8511600114610f58579380806006955f80516020611c778339815191529f9d9b999560a09f9d9b9895610f269a9694610f4d575b50501b915f199060031b1c191617905551151591019060ff801983541691151516179055565b8251948552610f3482611a8f565b840152604435908301523360608301526080820152a280f35b015192505f80610f00565b9190601f949394198416868452898420935b818110610fa85750935f80516020611c778339815191529d9b999793610f26979360a09e9c9a97938360069810610c9157505050811b019055610bfc565b82840151855593860193928a01928a01610f6a565b86815220601f850160051c810191898610610ffb575b601f0160051c019083908f5b838210610ff0579050899150610ec3565b81550183908f610fdf565b9091508190610fd3565b5050505060248f8085634e487b7160e01b825252fd5b5050505060248f604185634e487b7160e01b835252fd5b84516282b42960e81b81528890fd5b8780fd5b8680fd5b5050503461017d57602036600319011261017d5760209181906001600160a01b03611072611987565b1681526008845220549051908152f35b5050503461017d57602036600319011261017d5760209160ff9082906001600160a01b036110ae611987565b1681526009855220541690519015158152f35b5083833461017d576003199080823601126102085767ffffffffffffffff9184358381116108715736602382011215610871576111079036906024818901359101611a2b565b602435938411610871573660238501121561087157838601359161112a83611ace565b9061113785519283611a09565b8382526020958683016024819660051b83010191368311611322576024899101915b83831061131257505050503387526005865260ff85882054169361117c85611a8f565b60018095036113025784548651631e8e1e1360e01b81528a810188905293889385936001600160a01b03909316929185906111ba604487018a611ae6565b9286840301602487015251918281520191908b5b898282106112eb575050505082809103915afa9081156112e15786916112b4575b50156112a457838151910120908185526006845260ff83862054166112945784958291827f8e18574f8a7333e6a87112742a55853a643e2f0550f4e1a3a2c3f1bb2994441d9697526006875284882060ff19918282541617905533885260058752600285892091825416178155015581519081527fac2560685f85ea52eb1017414fed5bfa085fed52bd335577b12681ed51670f3e843392a25191600283523392a280f35b825163c9838a6560e01b81528690fd5b82516309bde33960e01b81528690fd5b6112d49150853d87116112da575b6112cc8183611a09565b810190611c3c565b876111ef565b503d6112c2565b84513d88823e3d90fd5b835185528c978997509485019490930192016111ce565b8551630cbf50dd60e01b81528990fd5b8235815291810191899101611159565b8980fd5b5050503461017d578060031936011261017d57611341611987565b9060243591821515808403610871577fad857fa38c9319cb80848f1ef2f924383b90297eb5d71755738ff037d100faa1926113a4602093611380611c11565b60018060a01b031695868852600985528288209060ff801983541691151516179055565b51908152a280f35b84346105e65760203660031901126105e6576113c6611987565b6113ce611c11565b60018060a01b03166001600160601b0360a01b600354161760035580f35b848285346102085782600319360112610208573383526020906005825260ff600282862001541661158b576002548151636eb1769f60e11b8152338186015230602482015293906001600160a01b03908116908486604481855afa958615611581578796611552575b50629896808096106115425786916064869260035416865194859384926323b872dd60e01b8452338985015260248401528a60448401525af190811561153857869161151b575b50156114e85750907fd15c9547ea5c06670c0010ce19bc32d54682a4b3801ece7f3ab0c3f17106b4bb9133855260058252600281862001600160ff19825416179055519283523392a280f35b82606492519162461bcd60e51b8352820152600f60248201526e151c985b9cd9995c8819985a5b1959608a1b6044820152fd5b6115329150843d86116112da576112cc8183611a09565b8661149c565b83513d88823e3d90fd5b83516313be252b60e01b81528390fd5b9095508481813d831161157a575b61156a8183611a09565b8101031261104557519487611455565b503d611560565b84513d89823e3d90fd5b51630300583960e31b81529050fd5b508284346105e65760203660031901126105e65782359067ffffffffffffffff82116105e657506020926115d091369101611a71565b826115e383519283815193849201611aad565b6007908201908152819003830190205490516001600160a01b039091168152f35b5090503461020857826003193601126102085760209250549051908152f35b5050503461017d57602036600319011261017d5760209160ff9082906001600160a01b0361164f611987565b1681526005855220541690519061166581611a8f565b8152f35b5083833461017d57602090816003193601126102085767ffffffffffffffff9084358281116108715761169f9036908701611a71565b913385526005845260ff82862054166116b781611a8f565b156118ed573385526005845260016116d3818488200154611b0b565b6118dd57825191845192868601936116ec818387611aad565b600790820190815281900387019020546001600160a01b03166118cd573387526005865281848820019185519182116118ba5790829161172e88959454611b0b565b601f8111611867575b508489601f84116001146117db579280806117ca99979461179d97947f413df153bebb8673717c75df0c9bd35401ad0caf0a04db4db145d544f181cb1b9c9a97936117d0575b501b915f199060031b1c19161790555b8351809381928751928391611aad565b81016007815203019020336001600160601b0360a01b825416179055519182918583523395830190611ae6565b0390a280f35b8a015192508e61177d565b50838a52858a2091929190601f1983168b5b81811061185157509261179d95927f413df153bebb8673717c75df0c9bd35401ad0caf0a04db4db145d544f181cb1b9a989592826117ca9b999610611839575b5050811b01905561178d565b8901515f1960f88460031b161c191690558c8061182d565b8a83015184558b989386019392830192016117ed565b909192809495508952878920601f840160051c8101918985106118b0575b90601f8a9796959493920160051c01905b8181106118a35750611737565b8a81558996508201611896565b9091508190611885565b634e487b7160e01b885260418952602488fd5b835163c982c49960e01b81528890fd5b825163c982c49960e01b81528790fd5b8151630cbf50dd60e01b81528690fd5b84346105e65760203660031901126105e657611917611987565b61191f611c11565b60018060a01b03166001600160601b0360a01b600154161760015580f35b5050503461017d57602036600319011261017d5760209160029060ff9083906001600160a01b0361196c611987565b168152600586522054169161198083611a8f565b5191148152f35b600435906001600160a01b038216820361199d57565b5f80fd5b60a0810190811067ffffffffffffffff8211176119bd57604052565b634e487b7160e01b5f52604160045260245ffd5b60e0810190811067ffffffffffffffff8211176119bd57604052565b6020810190811067ffffffffffffffff8211176119bd57604052565b90601f8019910116810190811067ffffffffffffffff8211176119bd57604052565b92919267ffffffffffffffff82116119bd5760405191611a55601f8201601f191660200184611a09565b82948184528183011161199d578281602093845f960137010152565b9080601f8301121561199d57816020611a8c93359101611a2b565b90565b60031115611a9957565b634e487b7160e01b5f52602160045260245ffd5b5f5b838110611abe5750505f910152565b8181015183820152602001611aaf565b67ffffffffffffffff81116119bd5760051b60200190565b90602091611aff81518092818552858086019101611aad565b601f01601f1916010190565b90600182811c92168015611b39575b6020831014611b2557565b634e487b7160e01b5f52602260045260245ffd5b91607f1691611b1a565b9060405191825f825492611b5684611b0b565b9081845260019485811690815f14611bc15750600114611b81575b5050611b7f92500383611a09565b565b909391505f52602090815f20935f915b818310611ba9575050611b7f93508201015f80611b71565b85548884018501529485019487945091830191611b91565b915050611b7f94506020925060ff191682840152151560051b8201015f80611b71565b8054821015611bfd575f52600760205f20910201905f90565b634e487b7160e01b5f52603260045260245ffd5b5f546001600160a01b03163303611c2457565b60405163118cdaa760e01b8152336004820152602490fd5b9081602091031261199d5751801515810361199d5790565b5f198114611c625760010190565b634e487b7160e01b5f52601160045260245ffdfe73c45bc901b5ea7c51c92c804a2067dd8c8b557fa2e23ff3dfc0b023297938cfa2646970667358221220987af093eb83545ff96021dcd014f2c8754fe8355aaa775d83320e0d6438257464736f6c63430008140033","linkReferences":{}},"methodIdentifiers":{"DEPOSIT_AMOUNT()":"ec6925a7","addAttestation(address,uint8,uint256)":"6b335311","addAttestationWithMetadata(address,uint8,uint256,string,bool)":"68b96b46","attestationCounter()":"2c996e03","attestations(address,uint256)":"c657c6a5","authorizedCallers(address)":"536fff6c","ensToAddress(string)":"33097df6","gasSponsorAddress()":"f38fad13","getAttestationCount(address)":"633c0bbc","getAttestations(address)":"aba6466c","getPositiveAttestationCount(address)":"d0216001","getUserLevel(address)":"21923bde","getUserProfile(address)":"987ee156","isVerifiedHuman(address)":"0063fa27","linkENS(string)":"0af40e5a","makeDeposit()":"40732c89","owner()":"8da5cb5b","registerBasic()":"e1c6f442","renounceOwnership()":"715018a6","setAuthorizedCaller(address,bool)":"454bbd29","stablecoin()":"e9cbd822","transferOwnership(address)":"f2fde38b","updateGasSponsor(address)":"4266c033","updateZKVerifier(address)":"01d38886","usedProofs(bytes32)":"c30a0f25","users(address)":"a87430ba","verifyHuman(bytes,uint256[])":"5005305d","zkVerifier()":"d6df096d"},"id":43}