{"abi":[{"type":"constructor","inputs":[{"name":"_zkVerifier","type":"address","internalType":"address"},{"name":"_stablecoin","type":"address","internalType":"address"},{"name":"_gasSponsor","type":"address","internalType":"address"}],"stateMutability":"nonpayable"},{"type":"function","name":"DEPOSIT_AMOUNT","inputs":[],"outputs":[{"name":"","type":"uint256","internalType":"uint256"}],"stateMutability":"view"},{"type":"function","name":"ensToAddress","inputs":[{"name":"","type":"string","internalType":"string"}],"outputs":[{"name":"","type":"address","internalType":"address"}],"stateMutability":"view"},{"type":"function","name":"gasSponsorAddress","inputs":[],"outputs":[{"name":"","type":"address","internalType":"address"}],"stateMutability":"view"},{"type":"function","name":"getUserLevel","inputs":[{"name":"user","type":"address","internalType":"address"}],"outputs":[{"name":"","type":"uint8","internalType":"enum UserRegistry.LegitimacyLevel"}],"stateMutability":"view"},{"type":"function","name":"getUserProfile","inputs":[{"name":"user","type":"address","internalType":"address"}],"outputs":[{"name":"level","type":"uint8","internalType":"enum UserRegistry.LegitimacyLevel"},{"name":"ensName","type":"string","internalType":"string"},{"name":"hasDeposited","type":"bool","internalType":"bool"},{"name":"registrationTime","type":"uint256","internalType":"uint256"}],"stateMutability":"view"},{"type":"function","name":"isVerifiedHuman","inputs":[{"name":"user","type":"address","internalType":"address"}],"outputs":[{"name":"","type":"bool","internalType":"bool"}],"stateMutability":"view"},{"type":"function","name":"linkENS","inputs":[{"name":"ensName","type":"string","internalType":"string"}],"outputs":[],"stateMutability":"nonpayable"},{"type":"function","name":"makeDeposit","inputs":[],"outputs":[],"stateMutability":"nonpayable"},{"type":"function","name":"owner","inputs":[],"outputs":[{"name":"","type":"address","internalType":"address"}],"stateMutability":"view"},{"type":"function","name":"registerBasic","inputs":[],"outputs":[],"stateMutability":"nonpayable"},{"type":"function","name":"renounceOwnership","inputs":[],"outputs":[],"stateMutability":"nonpayable"},{"type":"function","name":"stablecoin","inputs":[],"outputs":[{"name":"","type":"address","internalType":"contract IERC20"}],"stateMutability":"view"},{"type":"function","name":"transferOwnership","inputs":[{"name":"newOwner","type":"address","internalType":"address"}],"outputs":[],"stateMutability":"nonpayable"},{"type":"function","name":"updateGasSponsor","inputs":[{"name":"_newGasSponsor","type":"address","internalType":"address"}],"outputs":[],"stateMutability":"nonpayable"},{"type":"function","name":"updateZKVerifier","inputs":[{"name":"_newVerifier","type":"address","internalType":"address"}],"outputs":[],"stateMutability":"nonpayable"},{"type":"function","name":"usedProofs","inputs":[{"name":"","type":"bytes32","internalType":"bytes32"}],"outputs":[{"name":"","type":"bool","internalType":"bool"}],"stateMutability":"view"},{"type":"function","name":"users","inputs":[{"name":"","type":"address","internalType":"address"}],"outputs":[{"name":"level","type":"uint8","internalType":"enum UserRegistry.LegitimacyLevel"},{"name":"ensName","type":"string","internalType":"string"},{"name":"hasDeposited","type":"bool","internalType":"bool"},{"name":"registrationTime","type":"uint256","internalType":"uint256"},{"name":"zkProofHash","type":"bytes32","internalType":"bytes32"}],"stateMutability":"view"},{"type":"function","name":"verifyHuman","inputs":[{"name":"zkProof","type":"bytes","internalType":"bytes"},{"name":"publicSignals","type":"uint256[]","internalType":"uint256[]"}],"outputs":[],"stateMutability":"nonpayable"},{"type":"function","name":"zkVerifier","inputs":[],"outputs":[{"name":"","type":"address","internalType":"contract IZKVerifier"}],"stateMutability":"view"},{"type":"event","name":"DepositMade","inputs":[{"name":"user","type":"address","indexed":true,"internalType":"address"},{"name":"amount","type":"uint256","indexed":false,"internalType":"uint256"}],"anonymous":false},{"type":"event","name":"ENSLinked","inputs":[{"name":"user","type":"address","indexed":true,"internalType":"address"},{"name":"ensName","type":"string","indexed":false,"internalType":"string"}],"anonymous":false},{"type":"event","name":"HumanVerified","inputs":[{"name":"user","type":"address","indexed":true,"internalType":"address"},{"name":"proofHash","type":"bytes32","indexed":false,"internalType":"bytes32"}],"anonymous":false},{"type":"event","name":"OwnershipTransferred","inputs":[{"name":"previousOwner","type":"address","indexed":true,"internalType":"address"},{"name":"newOwner","type":"address","indexed":true,"internalType":"address"}],"anonymous":false},{"type":"event","name":"UserRegistered","inputs":[{"name":"user","type":"address","indexed":true,"internalType":"address"},{"name":"level","type":"uint8","indexed":false,"internalType":"enum UserRegistry.LegitimacyLevel"}],"anonymous":false},{"type":"error","name":"AlreadyRegistered","inputs":[]},{"type":"error","name":"DepositAlreadyMade","inputs":[]},{"type":"error","name":"ENSAlreadyLinked","inputs":[]},{"type":"error","name":"InsufficientAllowance","inputs":[]},{"type":"error","name":"InvalidProof","inputs":[]},{"type":"error","name":"NotBasicUser","inputs":[]},{"type":"error","name":"OwnableInvalidOwner","inputs":[{"name":"owner","type":"address","internalType":"address"}]},{"type":"error","name":"OwnableUnauthorizedAccount","inputs":[{"name":"account","type":"address","internalType":"address"}]},{"type":"error","name":"ProofAlreadyUsed","inputs":[]}],"bytecode":{"object":"0x6080346100fb57601f6111ac38819003918201601f19168301916001600160401b038311848410176100ff578084926060946040528339810103126100fb5761004781610113565b61005f604061005860208501610113565b9301610113565b9033156100e3575f80546001600160a01b03198082163390811784556040519691956001600160a01b039590948694859391908416907f8be0079c531659141344cd1fd0a4f28419497f9722a3daafe3b4186f6b6457e09080a316856001541617600155168360025416176002551690600354161760035561108490816101288239f35b604051631e4fbdf760e01b81525f6004820152602490fd5b5f80fd5b634e487b7160e01b5f52604160045260245ffd5b51906001600160a01b03821682036100fb5756fe6080806040526004361015610012575f80fd5b5f3560e01c90816263fa2714610dd35750806301d3888614610d8e5780630af40e5a14610b5957806321923bde14610b1357806333097df614610acd57806340732c891461092a5780634266c033146108e55780635005305d14610656578063715018a6146105ff5780638da5cb5b146105d8578063987ee15614610509578063a87430ba14610479578063c30a0f251461044a578063d6df096d14610422578063e1c6f442146101e4578063e9cbd822146101bc578063ec6925a71461019f578063f2fde38b146101185763f38fad13146100ec575f80fd5b34610114575f366003190112610114576003546040516001600160a01b039091168152602090f35b5f80fd5b34610114576020366003190112610114576004356001600160a01b03818116918290036101145761014761100b565b8115610187575f54826001600160601b0360a01b8216175f55167f8be0079c531659141344cd1fd0a4f28419497f9722a3daafe3b4186f6b6457e05f80a3005b604051631e4fbdf760e01b81525f6004820152602490fd5b34610114575f366003190112610114576020604051629896808152f35b34610114575f366003190112610114576002546040516001600160a01b039091168152602090f35b34610114575f36600319011261011457335f52600460205260ff60405f20541660038110156103fc576104105760405161021d81610e1c565b6001815260405167ffffffffffffffff919060208101838111828210176103e8576040525f815260208201908152604082015f8152606083019042825260808401925f8452335f52600460205260405f20945160038110156103fc5760ff801987541691161785555180519586116103e85761029c6001860154610f32565b601f81116103a0575b50602090601f871160011461033157958091600496975f92610326575b50508160011b915f199060031b1c19161760018601555b600285019051151560ff8019835416911617905551600384015551910155604051600181527f8e18574f8a7333e6a87112742a55853a643e2f0550f4e1a3a2c3f1bb2994441d60203392a2005b0151905087806102c2565b90600186015f5260205f20915f5b601f1989168110610388575091879160019360049899601f19811610610370575b505050811b0160018601556102d9565b01515f1960f88460031b161c19169055878080610360565b9192602060018192868501518155019401920161033f565b600186015f5260205f20601f880160051c810191602089106103de575b601f0160051c01905b8181106103d357506102a5565b5f81556001016103c6565b90915081906103bd565b634e487b7160e01b5f52604160045260245ffd5b634e487b7160e01b5f52602160045260245ffd5b604051630ea075bf60e21b8152600490fd5b34610114575f366003190112610114576001546040516001600160a01b039091168152602090f35b34610114576020366003190112610114576004355f526005602052602060ff60405f2054166040519015158152f35b34610114576020366003190112610114576004356001600160a01b03811690819003610114575f5260046020526104e260405f2060ff815416906104bf60018201610f6a565b60ff600283015416916104f3600460038301549201549260405196878097610edf565b60a0602087015260a0860190610f0d565b9215156040850152606084015260808301520390f35b34610114576020366003190112610114576004356001600160a01b03811690819003610114575f52600460205260405f2060405161054681610e1c565b60ff82541660038110156103fc57815261056260018301610f6a565b916020820192835260ff6002820154169160408101921515835260046003830154926060830193845201546080820152519160038310156103fc576105c96105b894519151151592519160405195868096610edf565b608060208601526080850190610f0d565b91604084015260608301520390f35b34610114575f366003190112610114575f546040516001600160a01b039091168152602090f35b34610114575f3660031901126101145761061761100b565b5f80546001600160a01b0319811682556001600160a01b03167f8be0079c531659141344cd1fd0a4f28419497f9722a3daafe3b4186f6b6457e08280a3005b34610114576003196040368201126101145767ffffffffffffffff9060043582811161011457366023820112156101145761069c60249136908381600401359101610e5a565b90803584811161011457366023820112156101145780600401359485116108d1578460051b604051916020966106d488840185610e38565b8352868301918101840190823683116101145785899201905b8382106108c25750505050335f526004865260ff60405f2054169460038610156108af57600180960361089d578692939160018060a01b038754169184604051968795631e8e1e1360e01b87526040600488015261074e604488018b610f0d565b93878503019087015251918281520191905f5b89828210610886575050505082809103915afa90811561087b575f9161084e575b501561083c5782815191012090815f526005835260ff60405f20541661082a5760048291825f526005855260405f2060ff199182825416179055335f52818552600260405f209182541617815501556040519081527fac2560685f85ea52eb1017414fed5bfa085fed52bd335577b12681ed51670f3e823392a27f8e18574f8a7333e6a87112742a55853a643e2f0550f4e1a3a2c3f1bb2994441d60405191600283523392a2005b60405163c9838a6560e01b8152600490fd5b6040516309bde33960e01b8152600490fd5b61086e9150843d8611610874575b6108668183610e38565b810190611036565b84610782565b503d61085c565b6040513d5f823e3d90fd5b835185528b97899750948501949093019201610761565b604051630cbf50dd60e01b8152600490fd5b83634e487b7160e01b5f5260216004525ffd5b813581529082019082016106ed565b50634e487b7160e01b5f9081526041600452fd5b34610114576020366003190112610114576004356001600160a01b038116908190036101145761091361100b565b6001600160601b0360a01b60035416176003555f80f35b34610114575f36600319011261011457335f5260206004815260ff600260405f20015416610abb57600254604051636eb1769f60e11b815233600482015230602482015291906001600160a01b03908116908284604481855afa93841561087b575f94610a8c575b5062989680809410610a7a575f91606484926003541660405194859384926323b872dd60e01b845233600485015260248401528860448401525af190811561087b575f91610a5d575b5015610a27577fd15c9547ea5c06670c0010ce19bc32d54682a4b3801ece7f3ab0c3f17106b4bb90335f5260048152600260405f2001600160ff198254161790556040519283523392a2005b6064906040519062461bcd60e51b82526004820152600f60248201526e151c985b9cd9995c8819985a5b1959608a1b6044820152fd5b610a749150823d8411610874576108668183610e38565b836109db565b6040516313be252b60e01b8152600490fd5b9093508281813d8311610ab4575b610aa48183610e38565b8101031261011457519284610992565b503d610a9a565b604051630300583960e31b8152600490fd5b34610114576020610add36610ea0565b81610af16040519283815193849201610eec565b600690820190815281900382019020546040516001600160a01b039091168152f35b34610114576020366003190112610114576004356001600160a01b03811690819003610114575f526004602052602060ff60405f205416610b576040518092610edf565bf35b3461011457610b6736610ea0565b335f5260206004815260ff60405f20541660038110156103fc571561089d57335f5260048152600191610b9f8360405f200154610f32565b610d7c5760405181519083830191610bb8818385610eec565b600690820190815281900384019020546001600160a01b0316610d7c57335f52600483528360405f2001825167ffffffffffffffff81116103e857610bfd8254610f32565b601f8111610d3a575b50939492938593846001601f841114610cb057928280610ca097947f413df153bebb8673717c75df0c9bd35401ad0caf0a04db4db145d544f181cb1b999794610c71975f93610ca5575b501b915f199060031b1c19161790555b604051809381928651928391610eec565b81016006815203019020336001600160601b0360a01b8254161790556040519182918583523395830190610f0d565b0390a2005b89015192508c610c50565b601f92919219821690845f52865f20915f5b818110610d25575092610c719592610ca0989592827f413df153bebb8673717c75df0c9bd35401ad0caf0a04db4db145d544f181cb1b9b999610610d0d575b5050811b019055610c60565b8801515f1960f88460031b161c191690558a80610d01565b89830151845592850192918801918801610cc2565b825f52855f20601f830160051c810191878410610d72575b601f0160051c01905b818110610d685750610c06565b5f81558701610d5b565b9091508190610d52565b60405163c982c49960e01b8152600490fd5b34610114576020366003190112610114576004356001600160a01b0381169081900361011457610dbc61100b565b6001600160601b0360a01b60015416176001555f80f35b34610114576020366003190112610114576004356001600160a01b03811690819003610114575f52600460205260ff60405f2054169060038210156103fc576002602092148152f35b60a0810190811067ffffffffffffffff8211176103e857604052565b90601f8019910116810190811067ffffffffffffffff8211176103e857604052565b92919267ffffffffffffffff82116103e85760405191610e84601f8201601f191660200184610e38565b829481845281830111610114578281602093845f960137010152565b6020600319820112610114576004359067ffffffffffffffff8211610114578060238301121561011457816024610edc93600401359101610e5a565b90565b9060038210156103fc5752565b5f5b838110610efd5750505f910152565b8181015183820152602001610eee565b90602091610f2681518092818552858086019101610eec565b601f01601f1916010190565b90600182811c92168015610f60575b6020831014610f4c57565b634e487b7160e01b5f52602260045260245ffd5b91607f1691610f41565b9060405191825f825492610f7d84610f32565b9081845260019485811690815f14610fe85750600114610fa8575b5050610fa692500383610e38565b565b909391505f52602090815f20935f915b818310610fd0575050610fa693508201015f80610f98565b85548884018501529485019487945091830191610fb8565b915050610fa694506020925060ff191682840152151560051b8201015f80610f98565b5f546001600160a01b0316330361101e57565b60405163118cdaa760e01b8152336004820152602490fd5b9081602091031261011457518015158103610114579056fea26469706673582212209cd51ac395e7846523931d961ad271387770272b95c3676ac06b59dad232c2d864736f6c63430008140033","linkReferences":{}},"methodIdentifiers":{"DEPOSIT_AMOUNT()":"ec6925a7","ensToAddress(string)":"33097df6","gasSponsorAddress()":"f38fad13","getUserLevel(address)":"21923bde","getUserProfile(address)":"987ee156","isVerifiedHuman(address)":"0063fa27","linkENS(string)":"0af40e5a","makeDeposit()":"40732c89","owner()":"8da5cb5b","registerBasic()":"e1c6f442","renounceOwnership()":"715018a6","stablecoin()":"e9cbd822","transferOwnership(address)":"f2fde38b","updateGasSponsor(address)":"4266c033","updateZKVerifier(address)":"01d38886","usedProofs(bytes32)":"c30a0f25","users(address)":"a87430ba","verifyHuman(bytes,uint256[])":"5005305d","zkVerifier()":"d6df096d"},"id":43}