{"abi":[{"type":"constructor","inputs":[{"name":"_stablecoin","type":"address","internalType":"address"}],"stateMutability":"nonpayable"},{"type":"function","name":"COVERAGE_PERCENTAGE","inputs":[],"outputs":[{"name":"","type":"uint256","internalType":"uint256"}],"stateMutability":"view"},{"type":"function","name":"POLICY_DURATION","inputs":[],"outputs":[{"name":"","type":"uint256","internalType":"uint256"}],"stateMutability":"view"},{"type":"function","name":"PREMIUM_PERCENTAGE","inputs":[],"outputs":[{"name":"","type":"uint256","internalType":"uint256"}],"stateMutability":"view"},{"type":"function","name":"buyInsurance","inputs":[{"name":"projectId","type":"uint256","internalType":"uint256"},{"name":"coverageAmount","type":"uint256","internalType":"uint256"}],"outputs":[{"name":"","type":"uint256","internalType":"uint256"}],"stateMutability":"nonpayable"},{"type":"function","name":"expirePolicy","inputs":[{"name":"policyId","type":"uint256","internalType":"uint256"}],"outputs":[],"stateMutability":"nonpayable"},{"type":"function","name":"fileClaim","inputs":[{"name":"policyId","type":"uint256","internalType":"uint256"},{"name":"claimAmount","type":"uint256","internalType":"uint256"}],"outputs":[],"stateMutability":"nonpayable"},{"type":"function","name":"getPolicy","inputs":[{"name":"policyId","type":"uint256","internalType":"uint256"}],"outputs":[{"name":"policyholder","type":"address","internalType":"address"},{"name":"projectId","type":"uint256","internalType":"uint256"},{"name":"coverageAmount","type":"uint256","internalType":"uint256"},{"name":"premiumPaid","type":"uint256","internalType":"uint256"},{"name":"status","type":"uint8","internalType":"enum InsurancePool.PolicyStatus"},{"name":"expiryTime","type":"uint256","internalType":"uint256"}],"stateMutability":"view"},{"type":"function","name":"getPoolBalance","inputs":[],"outputs":[{"name":"","type":"uint256","internalType":"uint256"}],"stateMutability":"view"},{"type":"function","name":"getPoolMetrics","inputs":[],"outputs":[{"name":"premiumsCollected","type":"uint256","internalType":"uint256"},{"name":"claimsPaid","type":"uint256","internalType":"uint256"},{"name":"currentBalance","type":"uint256","internalType":"uint256"},{"name":"profit","type":"uint256","internalType":"uint256"}],"stateMutability":"view"},{"type":"function","name":"getUserPolicies","inputs":[{"name":"user","type":"address","internalType":"address"}],"outputs":[{"name":"","type":"uint256[]","internalType":"uint256[]"}],"stateMutability":"view"},{"type":"function","name":"owner","inputs":[],"outputs":[{"name":"","type":"address","internalType":"address"}],"stateMutability":"view"},{"type":"function","name":"policies","inputs":[{"name":"","type":"uint256","internalType":"uint256"}],"outputs":[{"name":"policyholder","type":"address","internalType":"address"},{"name":"projectId","type":"uint256","internalType":"uint256"},{"name":"coverageAmount","type":"uint256","internalType":"uint256"},{"name":"premiumPaid","type":"uint256","internalType":"uint256"},{"name":"startTime","type":"uint256","internalType":"uint256"},{"name":"expiryTime","type":"uint256","internalType":"uint256"},{"name":"status","type":"uint8","internalType":"enum InsurancePool.PolicyStatus"}],"stateMutability":"view"},{"type":"function","name":"policyCounter","inputs":[],"outputs":[{"name":"","type":"uint256","internalType":"uint256"}],"stateMutability":"view"},{"type":"function","name":"projectToPolicy","inputs":[{"name":"","type":"uint256","internalType":"uint256"}],"outputs":[{"name":"","type":"uint256","internalType":"uint256"}],"stateMutability":"view"},{"type":"function","name":"renounceOwnership","inputs":[],"outputs":[],"stateMutability":"nonpayable"},{"type":"function","name":"stablecoin","inputs":[],"outputs":[{"name":"","type":"address","internalType":"contract IERC20"}],"stateMutability":"view"},{"type":"function","name":"totalClaimsPaid","inputs":[],"outputs":[{"name":"","type":"uint256","internalType":"uint256"}],"stateMutability":"view"},{"type":"function","name":"totalPremiumsCollected","inputs":[],"outputs":[{"name":"","type":"uint256","internalType":"uint256"}],"stateMutability":"view"},{"type":"function","name":"transferOwnership","inputs":[{"name":"newOwner","type":"address","internalType":"address"}],"outputs":[],"stateMutability":"nonpayable"},{"type":"function","name":"userPolicies","inputs":[{"name":"","type":"address","internalType":"address"},{"name":"","type":"uint256","internalType":"uint256"}],"outputs":[{"name":"","type":"uint256","internalType":"uint256"}],"stateMutability":"view"},{"type":"function","name":"withdrawPremiums","inputs":[{"name":"amount","type":"uint256","internalType":"uint256"}],"outputs":[],"stateMutability":"nonpayable"},{"type":"event","name":"ClaimFiled","inputs":[{"name":"policyId","type":"uint256","indexed":true,"internalType":"uint256"},{"name":"claimAmount","type":"uint256","indexed":false,"internalType":"uint256"}],"anonymous":false},{"type":"event","name":"ClaimPaid","inputs":[{"name":"policyId","type":"uint256","indexed":true,"internalType":"uint256"},{"name":"recipient","type":"address","indexed":true,"internalType":"address"},{"name":"amount","type":"uint256","indexed":false,"internalType":"uint256"}],"anonymous":false},{"type":"event","name":"InsurancePurchased","inputs":[{"name":"policyId","type":"uint256","indexed":true,"internalType":"uint256"},{"name":"policyholder","type":"address","indexed":true,"internalType":"address"},{"name":"projectId","type":"uint256","indexed":true,"internalType":"uint256"},{"name":"coverageAmount","type":"uint256","indexed":false,"internalType":"uint256"},{"name":"premium","type":"uint256","indexed":false,"internalType":"uint256"}],"anonymous":false},{"type":"event","name":"OwnershipTransferred","inputs":[{"name":"previousOwner","type":"address","indexed":true,"internalType":"address"},{"name":"newOwner","type":"address","indexed":true,"internalType":"address"}],"anonymous":false},{"type":"event","name":"PremiumWithdrawn","inputs":[{"name":"owner","type":"address","indexed":true,"internalType":"address"},{"name":"amount","type":"uint256","indexed":false,"internalType":"uint256"}],"anonymous":false},{"type":"error","name":"ClaimExceedsCoverage","inputs":[]},{"type":"error","name":"InsufficientPoolBalance","inputs":[]},{"type":"error","name":"InvalidCoverageAmount","inputs":[]},{"type":"error","name":"InvalidProjectId","inputs":[]},{"type":"error","name":"OwnableInvalidOwner","inputs":[{"name":"owner","type":"address","internalType":"address"}]},{"type":"error","name":"OwnableUnauthorizedAccount","inputs":[{"name":"account","type":"address","internalType":"address"}]},{"type":"error","name":"PolicyAlreadyExists","inputs":[]},{"type":"error","name":"PolicyNotActive","inputs":[]},{"type":"error","name":"ReentrancyGuardReentrantCall","inputs":[]}],"bytecode":{"object":"0x60a0346100eb57601f61111638819003918201601f19168301916001600160401b038311848410176100ef578084926020946040528339810103126100eb57516001600160a01b0390818116908190036100eb5733156100d3575f543360018060a01b03198216175f55604051923391167f8be0079c531659141344cd1fd0a4f28419497f9722a3daafe3b4186f6b6457e05f80a360018055608052611012908161010482396080518181816101a50152818161029f015281816103970152818161077e01528181610a0a0152610dc30152f35b604051631e4fbdf760e01b81525f6004820152602490fd5b5f80fd5b634e487b7160e01b5f52604160045260245ffdfe60806040818152600480361015610014575f80fd5b5f92833560e01c90816315f01a9b14610e8a575080631866509f14610d9857806319ac461414610ceb5780632b07fce314610c7a5780633037e4cd14610c0357806337e947261461098d5780633d36adc5146109375780633dadde20146109185780634e8d9c4d1461073a5780636532ccf51461071d578063715018a6146106c057806377e7f51a146106a45780638da5cb5b1461067c5780639b70e2fb1461065e578063a193b7a414610637578063a7b1b35314610322578063abd70aa214610271578063d3e89483146101f7578063d52c1bea146101d8578063e9cbd822146101905763f2fde38b14610107575f80fd5b3461018c57602036600319011261018c57610120610ea5565b90610129610f1f565b6001600160a01b0391821692831561017657505082546001600160a01b0319811683178455167f8be0079c531659141344cd1fd0a4f28419497f9722a3daafe3b4186f6b6457e08380a380f35b51631e4fbdf760e01b8152908101849052602490fd5b8280fd5b5050346101d457816003193601126101d457517f00000000000000000000000000000000000000000000000000000000000000006001600160a01b03168152602090f35b5080fd5b5050346101d457816003193601126101d4576020906002549051908152f35b503461018c57602036600319011261018c57808260e09461026f9335815260056020522060018060a01b038154169360018201549260028301546003840154918401549260ff600660058701549601541695815198895260208901528701526060860152608085015260a084015260c0830190610ebf565bf35b50903461018c578260031936011261018c5780516370a0823160e01b815230928101929092526020826024817f00000000000000000000000000000000000000000000000000000000000000006001600160a01b03165afa9182156103185783926102e1575b6020838351908152f35b9091506020813d8211610310575b816102fc60209383610f4a565b8101031261018c576020925051905f6102d7565b3d91506102ef565b81513d85823e3d90fd5b509190346101d45761033336610ee0565b61033b610fb9565b801561062757818452602094600686528385205461061957600582028281046005036106065760649004908451906323b872dd60e01b82523381830152602496308884015283604484015260018060a01b0392898160648185887f0000000000000000000000000000000000000000000000000000000000000000165af19081156105fc5782916105cf575b501561058d57600254975f1993848a1461057b5760018a016002556276a70042018042116105695789519160e0830183811067ffffffffffffffff82111761055757918c898f8d8f95868f9360059060069a8e9c9a52338a52808a01948552828a0195865260608a0196875260808a019742895260a08b01998a528c60c08c019d8e5252528b209651166bffffffffffffffffffffffff60a01b875416178655516001860155516002850155516003840155518783015551600582015501905160038110156105455760ff8019835416911617905586825260068a52888883205533825260078a52878220918254936801000000000000000085101561053557505050906104da91600182018155610ef6565b819291549060031b9188831b921b19161790556104f981600354610f98565b600355835191825285820152837f8911f316c190f1fb5d719640d1903df435c7440a3c91a4757468db3326af6209843393a46001805551908152f35b634e487b7160e01b825260419052fd5b634e487b7160e01b8452602185528284fd5b634e487b7160e01b8652604187528486fd5b634e487b7160e01b8452601185528284fd5b50634e487b7160e01b82526011909252fd5b865162461bcd60e51b81528083018a90526017818a01527f5072656d69756d207472616e73666572206661696c65640000000000000000006044820152606490fd5b6105ef91508a3d8c116105f5575b6105e78183610f4a565b810190610f80565b5f6103c7565b503d6105dd565b88513d84823e3d90fd5b634e487b7160e01b865260118252602486fd5b83516342693d1160e11b8152fd5b8251630c6b378160e41b81528590fd5b503461018c57602036600319011261018c5760209282913581526006845220549051908152f35b5050346101d457816003193601126101d457602090516276a7008152f35b5050346101d457816003193601126101d457905490516001600160a01b039091168152602090f35b5050346101d457816003193601126101d4576020905160058152f35b833461071a578060031936011261071a576106d9610f1f565b80546001600160a01b03198116825581906001600160a01b03167f8be0079c531659141344cd1fd0a4f28419497f9722a3daafe3b4186f6b6457e08280a380f35b80fd5b503461018c578260031936011261018c5760209250549051908152f35b503461018c576020908160031936011261091457803590610759610f1f565b610761610fb9565b83516370a0823160e01b815230818301526001600160a01b0391907f00000000000000000000000000000000000000000000000000000000000000008316908581602481855afa90811561090a5788916108d9575b50841161089f578654865163a9059cbb60e01b81529084166001600160a01b0316838201908152602081018690529091869183919082908b90829060400103925af1908115610895578791610878575b50156108415750907f348b7eea760f92b2347a75754bd560a3afa7ef0266d79ee7a17f114a4c9a2ce792918554169351908152a26001805580f35b845162461bcd60e51b8152908101849052601160248201527015da5d1a191c985dd85b0819985a5b1959607a1b6044820152606490fd5b61088f9150853d87116105f5576105e78183610f4a565b5f610806565b86513d89823e3d90fd5b855162461bcd60e51b81528083018690526014602482015273496e73756666696369656e742062616c616e636560601b6044820152606490fd5b90508581813d8311610903575b6108f08183610f4a565b810103126108ff57515f6107b6565b8780fd5b503d6108e6565b87513d8a823e3d90fd5b8380fd5b5050346101d457816003193601126101d4576020906003549051908152f35b5050346101d457806003193601126101d457610951610ea5565b6001600160a01b0316825260076020528082208054602435939084101561071a575060209261097f91610ef6565b91905490519160031b1c8152f35b503461018c5761099c36610ee0565b6109a7929192610fb9565b82855260056020908152848620805491936001600160a01b039283163303610bf5576006820180549060ff82166003811015610be257610bd25760058401544211610bd25760028401548611610bc25788516370a0823160e01b815230848201527f0000000000000000000000000000000000000000000000000000000000000000861692908881602481875afa8015610bb85788918d91610b83575b5010610b7357610ac59288926002899360ff1916179055610a66828654610f98565b8555897fb6878ca816e10a11f864110d8008f082d53b8220f09f89e8c40ed5d704f251c7848d51858152a2868654168c8c5180968195829463a9059cbb60e01b84528a840160209093929193604081019460018060a01b031681520152565b03925af1908115610b69578991610b4c575b5015610b125750907faf3c8fdd75d667f71d36d7840b8ef9086c516c9b047ad6a83a5a66151342123a93929154169451908152a36001805580f35b865162461bcd60e51b8152908101859052601460248201527310db185a5b481c185e5b595b9d0819985a5b195960621b6044820152606490fd5b610b639150863d88116105f5576105e78183610f4a565b5f610ad7565b88513d8b823e3d90fd5b895163bc6072f160e01b81528490fd5b8092508a8092503d8311610bb1575b610b9c8183610f4a565b81010312610bad578790515f610a44565b8b80fd5b503d610b92565b8b513d8e823e3d90fd5b885163b1adfabf60e01b81528390fd5b8851638966b51f60e01b81528390fd5b634e487b7160e01b8b526021845260248bfd5b8651638966b51f60e01b8152fd5b50903461018c57602036600319011261018c57813583526005602052822090600682019182549160ff8316906003821015610c675750159081610c59575b50610c4a578280f35b60ff191660011790555f808280f35b60059150015442115f610c41565b634e487b7160e01b865260219052602485fd5b503461018c57602036600319011261018c5760c092829135815260056020522090610ce460018060a01b03835416926001810154926002820154600383015491600560ff600686015416940154958151978852602088015286015260608501526080840190610ebf565b60a0820152f35b82843461071a576020908160031936011261071a5782906001600160a01b03610d12610ea5565b16815260078352818120908251808584549182815201908194845286842090845b818110610d845750505081610d49910382610f4a565b83519485948186019282875251809352850193925b828110610d6d57505050500390f35b835185528695509381019392810192600101610d5e565b825484529288019260019283019201610d33565b50913461071a578060031936011261071a5781516370a0823160e01b815230848201526020816024817f00000000000000000000000000000000000000000000000000000000000000006001600160a01b03165afa908115610e80578291610e4f575b50600354928454928385115f14610e455783850390858211610e32575060809550925b815194855260208501528301526060820152f35b634e487b7160e01b815260118752602490fd5b6080955092610e1e565b90506020813d8211610e78575b81610e6960209383610f4a565b810103126101d457515f610dfb565b3d9150610e5c565b83513d84823e3d90fd5b8490346101d457816003193601126101d45780606460209252f35b600435906001600160a01b0382168203610ebb57565b5f80fd5b906003821015610ecc5752565b634e487b7160e01b5f52602160045260245ffd5b6040906003190112610ebb576004359060243590565b8054821015610f0b575f5260205f2001905f90565b634e487b7160e01b5f52603260045260245ffd5b5f546001600160a01b03163303610f3257565b60405163118cdaa760e01b8152336004820152602490fd5b90601f8019910116810190811067ffffffffffffffff821117610f6c57604052565b634e487b7160e01b5f52604160045260245ffd5b90816020910312610ebb57518015158103610ebb5790565b91908201809211610fa557565b634e487b7160e01b5f52601160045260245ffd5b600260015414610fca576002600155565b604051633ee5aeb560e01b8152600490fdfea2646970667358221220e7758d700c6d675f2e06529145116ee4fe0e55a543a71a576845271557ada03064736f6c63430008140033","linkReferences":{}},"methodIdentifiers":{"COVERAGE_PERCENTAGE()":"15f01a9b","POLICY_DURATION()":"9b70e2fb","PREMIUM_PERCENTAGE()":"77e7f51a","buyInsurance(uint256,uint256)":"a7b1b353","expirePolicy(uint256)":"3037e4cd","fileClaim(uint256,uint256)":"37e94726","getPolicy(uint256)":"2b07fce3","getPoolBalance()":"abd70aa2","getPoolMetrics()":"1866509f","getUserPolicies(address)":"19ac4614","owner()":"8da5cb5b","policies(uint256)":"d3e89483","policyCounter()":"d52c1bea","projectToPolicy(uint256)":"a193b7a4","renounceOwnership()":"715018a6","stablecoin()":"e9cbd822","totalClaimsPaid()":"6532ccf5","totalPremiumsCollected()":"3dadde20","transferOwnership(address)":"f2fde38b","userPolicies(address,uint256)":"3d36adc5","withdrawPremiums(uint256)":"4e8d9c4d"},"id":40}