{"abi":[{"type":"constructor","inputs":[{"name":"_stablecoin","type":"address","internalType":"address"},{"name":"_userRegistry","type":"address","internalType":"address"}],"stateMutability":"nonpayable"},{"type":"function","name":"JURORS_PER_CASE","inputs":[],"outputs":[{"name":"","type":"uint256","internalType":"uint256"}],"stateMutability":"view"},{"type":"function","name":"MIN_STAKE","inputs":[],"outputs":[{"name":"","type":"uint256","internalType":"uint256"}],"stateMutability":"view"},{"type":"function","name":"STABLECOIN","inputs":[],"outputs":[{"name":"","type":"address","internalType":"contract IERC20"}],"stateMutability":"view"},{"type":"function","name":"USER_REGISTRY","inputs":[],"outputs":[{"name":"","type":"address","internalType":"contract UserRegistry"}],"stateMutability":"view"},{"type":"function","name":"VOTING_PERIOD","inputs":[],"outputs":[{"name":"","type":"uint256","internalType":"uint256"}],"stateMutability":"view"},{"type":"function","name":"activeJurors","inputs":[{"name":"","type":"uint256","internalType":"uint256"}],"outputs":[{"name":"","type":"address","internalType":"address"}],"stateMutability":"view"},{"type":"function","name":"castVote","inputs":[{"name":"disputeId","type":"uint256","internalType":"uint256"},{"name":"choice","type":"uint8","internalType":"enum DisputeJury.VoteChoice"}],"outputs":[],"stateMutability":"nonpayable"},{"type":"function","name":"createDispute","inputs":[{"name":"projectId","type":"uint256","internalType":"uint256"},{"name":"milestoneIndex","type":"uint256","internalType":"uint256"},{"name":"client","type":"address","internalType":"address"},{"name":"freelancer","type":"address","internalType":"address"},{"name":"amount","type":"uint256","internalType":"uint256"}],"outputs":[{"name":"","type":"uint256","internalType":"uint256"}],"stateMutability":"nonpayable"},{"type":"function","name":"disputeCounter","inputs":[],"outputs":[{"name":"","type":"uint256","internalType":"uint256"}],"stateMutability":"view"},{"type":"function","name":"disputes","inputs":[{"name":"","type":"uint256","internalType":"uint256"}],"outputs":[{"name":"projectId","type":"uint256","internalType":"uint256"},{"name":"milestoneIndex","type":"uint256","internalType":"uint256"},{"name":"client","type":"address","internalType":"address"},{"name":"freelancer","type":"address","internalType":"address"},{"name":"amount","type":"uint256","internalType":"uint256"},{"name":"votesAcceptAi","type":"uint256","internalType":"uint256"},{"name":"votesForClient","type":"uint256","internalType":"uint256"},{"name":"votesForFreelancer","type":"uint256","internalType":"uint256"},{"name":"outcome","type":"uint8","internalType":"enum DisputeJury.DisputeOutcome"},{"name":"createdAt","type":"uint256","internalType":"uint256"},{"name":"resolvedAt","type":"uint256","internalType":"uint256"},{"name":"fundsDistributed","type":"bool","internalType":"bool"},{"name":"aiReport","type":"string","internalType":"string"},{"name":"aiRecommendedSplit","type":"uint8","internalType":"uint8"}],"stateMutability":"view"},{"type":"function","name":"finalizeDispute","inputs":[{"name":"disputeId","type":"uint256","internalType":"uint256"}],"outputs":[],"stateMutability":"nonpayable"},{"type":"function","name":"getActiveJurorCount","inputs":[],"outputs":[{"name":"","type":"uint256","internalType":"uint256"}],"stateMutability":"view"},{"type":"function","name":"getDispute","inputs":[{"name":"disputeId","type":"uint256","internalType":"uint256"}],"outputs":[{"name":"projectId","type":"uint256","internalType":"uint256"},{"name":"client","type":"address","internalType":"address"},{"name":"freelancer","type":"address","internalType":"address"},{"name":"amount","type":"uint256","internalType":"uint256"},{"name":"outcome","type":"uint8","internalType":"enum DisputeJury.DisputeOutcome"},{"name":"votesAcceptAiResult","type":"uint256","internalType":"uint256"},{"name":"votesForClient","type":"uint256","internalType":"uint256"},{"name":"votesForFreelancer","type":"uint256","internalType":"uint256"},{"name":"aiReport","type":"string","internalType":"string"}],"stateMutability":"view"},{"type":"function","name":"getDisputeJurors","inputs":[{"name":"disputeId","type":"uint256","internalType":"uint256"}],"outputs":[{"name":"","type":"address[]","internalType":"address[]"}],"stateMutability":"view"},{"type":"function","name":"getJurorInfo","inputs":[{"name":"juror","type":"address","internalType":"address"}],"outputs":[{"name":"stakedAmount","type":"uint256","internalType":"uint256"},{"name":"casesJudged","type":"uint256","internalType":"uint256"},{"name":"reputationScore","type":"uint256","internalType":"uint256"},{"name":"isActive","type":"bool","internalType":"bool"}],"stateMutability":"view"},{"type":"function","name":"jurorIndices","inputs":[{"name":"","type":"address","internalType":"address"}],"outputs":[{"name":"","type":"uint256","internalType":"uint256"}],"stateMutability":"view"},{"type":"function","name":"jurors","inputs":[{"name":"","type":"address","internalType":"address"}],"outputs":[{"name":"stakedAmount","type":"uint256","internalType":"uint256"},{"name":"casesJudged","type":"uint256","internalType":"uint256"},{"name":"reputationScore","type":"uint256","internalType":"uint256"},{"name":"isActive","type":"bool","internalType":"bool"}],"stateMutability":"view"},{"type":"function","name":"owner","inputs":[],"outputs":[{"name":"","type":"address","internalType":"address"}],"stateMutability":"view"},{"type":"function","name":"projectEscrowAddress","inputs":[],"outputs":[{"name":"","type":"address","internalType":"address"}],"stateMutability":"view"},{"type":"function","name":"renounceOwnership","inputs":[],"outputs":[],"stateMutability":"nonpayable"},{"type":"function","name":"setAiReport","inputs":[{"name":"disputeId","type":"uint256","internalType":"uint256"},{"name":"report","type":"string","internalType":"string"},{"name":"recommendedSplit","type":"uint8","internalType":"uint8"}],"outputs":[],"stateMutability":"nonpayable"},{"type":"function","name":"setProjectEscrowAddress","inputs":[{"name":"_projectEscrow","type":"address","internalType":"address"}],"outputs":[],"stateMutability":"nonpayable"},{"type":"function","name":"stakeAsJuror","inputs":[{"name":"amount","type":"uint256","internalType":"uint256"}],"outputs":[],"stateMutability":"nonpayable"},{"type":"function","name":"submitEvidence","inputs":[{"name":"disputeId","type":"uint256","internalType":"uint256"},{"name":"evidence","type":"string","internalType":"string"}],"outputs":[],"stateMutability":"nonpayable"},{"type":"function","name":"transferOwnership","inputs":[{"name":"newOwner","type":"address","internalType":"address"}],"outputs":[],"stateMutability":"nonpayable"},{"type":"function","name":"unstake","inputs":[{"name":"amount","type":"uint256","internalType":"uint256"}],"outputs":[],"stateMutability":"nonpayable"},{"type":"event","name":"DisputeCreated","inputs":[{"name":"disputeId","type":"uint256","indexed":true,"internalType":"uint256"},{"name":"projectId","type":"uint256","indexed":false,"internalType":"uint256"},{"name":"milestoneIndex","type":"uint256","indexed":false,"internalType":"uint256"}],"anonymous":false},{"type":"event","name":"DisputeResolved","inputs":[{"name":"disputeId","type":"uint256","indexed":true,"internalType":"uint256"},{"name":"outcome","type":"uint8","indexed":false,"internalType":"enum DisputeJury.DisputeOutcome"}],"anonymous":false},{"type":"event","name":"EvidenceSubmitted","inputs":[{"name":"disputeId","type":"uint256","indexed":true,"internalType":"uint256"},{"name":"evidence","type":"string","indexed":false,"internalType":"string"},{"name":"aiReport","type":"string","indexed":false,"internalType":"string"}],"anonymous":false},{"type":"event","name":"JurorStaked","inputs":[{"name":"juror","type":"address","indexed":true,"internalType":"address"},{"name":"amount","type":"uint256","indexed":false,"internalType":"uint256"}],"anonymous":false},{"type":"event","name":"JurorUnstaked","inputs":[{"name":"juror","type":"address","indexed":true,"internalType":"address"},{"name":"amount","type":"uint256","indexed":false,"internalType":"uint256"}],"anonymous":false},{"type":"event","name":"OwnershipTransferred","inputs":[{"name":"previousOwner","type":"address","indexed":true,"internalType":"address"},{"name":"newOwner","type":"address","indexed":true,"internalType":"address"}],"anonymous":false},{"type":"event","name":"RewardDistributed","inputs":[{"name":"juror","type":"address","indexed":true,"internalType":"address"},{"name":"amount","type":"uint256","indexed":false,"internalType":"uint256"}],"anonymous":false},{"type":"event","name":"VoteCast","inputs":[{"name":"disputeId","type":"uint256","indexed":true,"internalType":"uint256"},{"name":"juror","type":"address","indexed":true,"internalType":"address"},{"name":"choice","type":"uint8","indexed":false,"internalType":"enum DisputeJury.VoteChoice"}],"anonymous":false},{"type":"error","name":"AlreadyVoted","inputs":[]},{"type":"error","name":"DisputeNotResolved","inputs":[]},{"type":"error","name":"FundsAlreadyDistributed","inputs":[]},{"type":"error","name":"InsufficientStake","inputs":[]},{"type":"error","name":"NotEnoughJurors","inputs":[]},{"type":"error","name":"NotJurorInCase","inputs":[]},{"type":"error","name":"NotVerifiedHuman","inputs":[]},{"type":"error","name":"OwnableInvalidOwner","inputs":[{"name":"owner","type":"address","internalType":"address"}]},{"type":"error","name":"OwnableUnauthorizedAccount","inputs":[{"name":"account","type":"address","internalType":"address"}]},{"type":"error","name":"ReentrancyGuardReentrantCall","inputs":[]},{"type":"error","name":"Unauthorized","inputs":[]},{"type":"error","name":"VotingEnded","inputs":[]},{"type":"error","name":"VotingNotEnded","inputs":[]}],"bytecode":{"object":"0x60c0346200011e57601f6200203438819003918201601f19168301916001600160401b03831184841017620001235780849260409485528339810103126200011e576200005a6020620000528362000139565b920162000139565b9060016000553315620001055760018054336001600160a01b031982168117909255604051936001600160a01b03939092849283167f8be0079c531659141344cd1fd0a4f28419497f9722a3daafe3b4186f6b6457e0600080a3166080521660a052611ee590816200014f82396080518181816106b9015281816108c4015281816113220152818161192901528181611b780152611c8a015260a05181818161064b01526109320152f35b604051631e4fbdf760e01b815260006004820152602490fd5b600080fd5b634e487b7160e01b600052604160045260246000fd5b51906001600160a01b03821682036200011e5756fe6080604052600436101561001257600080fd5b60003560e01c80632e17de78146112a457806347e2a6e6146111e9578063564a565d146110f35780635678138814610f6c57806356989a8314610ec25780635a59efb214610d1f57806370e0a9db14610cf6578063715018a614610c995780637adfe4831461097f5780637d36f4d314610961578063860a551f1461091c5780638da5cb5b146108f357806393a39776146108ae57806395152b841461060b5780639a97f2dd146105ed5780639f2b9c57146105b3578063a6a7f0eb146103f7578063b1610d7e146103d9578063cb1c2b5c146103ba578063dca5f6b014610249578063df3b8ae31461039e578063e2da844d1461035c578063e3a96cbd146102af578063eff2c3ec14610249578063f2fde38b146101bb5763f5b7e4081461013a57600080fd5b346101b65760203660031901126101b657610153611689565b61015b6116ee565b600254906001600160a01b0390818316610183576001600160a01b0319909216911617600255005b60405162461bcd60e51b815260206004820152600b60248201526a105b1c9958591e481cd95d60aa1b6044820152606490fd5b600080fd5b346101b65760203660031901126101b6576101d4611689565b6101dc6116ee565b6001600160a01b0390811690811561023057600154826bffffffffffffffffffffffff60a01b821617600155167f8be0079c531659141344cd1fd0a4f28419497f9722a3daafe3b4186f6b6457e0600080a3005b604051631e4fbdf760e01b815260006004820152602490fd5b346101b65760203660031901126101b6576001600160a01b0361026a611689565b166000908152600560209081526040918290208054600182015460028301546003909301548551928352938201529283015260ff1615156060820152608090f35b0390f35b346101b65760203660031901126101b6576004356000526004602052604060002080546102ab60018060a01b0392836002820154169360038201541690600481015460ff600b8301541661033b600884015491600985015493610319600f600a880154970161153f565b966040519a8b9a8b5260208b015260408a0152606089015260808801906115e5565b60a086015260c085015260e0840152610120806101008501528301906115f2565b346101b65760203660031901126101b6576004356006548110156101b65761038560209161169f565b905460405160039290921b1c6001600160a01b03168152f35b346101b65760003660031901126101b657602060405160058152f35b346101b65760003660031901126101b65760206040516305f5e1008152f35b346101b65760003660031901126101b657602060405162093a808152f35b346101b65760403660031901126101b65760043560243567ffffffffffffffff81116101b65761042b903690600401611632565b908060005260209160048352604060002060018060a01b038060028301541633149081156105a3575b501561056757600f0192610473604051926040845260408401906115f2565b93828503828401526000948154610489816114e3565b8083529260019180831690811561052857506001146104cc575b867f3080efd9677d7659fb3edcab836575527c217c31ea0b984b843c8852790c2e75878a0388a2005b6000908152848120949750939192915b828510610515575050500190920191807f3080efd9677d7659fb3edcab836575527c217c31ea0b984b843c8852790c2e758580806104a3565b80548486018901529387019381016104dc565b60ff19168487015250505090151560051b01019250807f3080efd9677d7659fb3edcab836575527c217c31ea0b984b843c8852790c2e758580806104a3565b60405162461bcd60e51b81526004810185905260146024820152734e6f7420706172747920746f206469737075746560601b6044820152606490fd5b9050600382015416331485610454565b346101b65760203660031901126101b6576001600160a01b036105d4611689565b1660005260076020526020604060002054604051908152f35b346101b65760003660031901126101b6576020600654604051908152f35b346101b6576020806003193601126101b6576004359061062961173f565b6040516263fa2760e01b81523360048201526001600160a01b039082816024817f000000000000000000000000000000000000000000000000000000000000000086165afa90811561086157600091610891575b501561087f576305f5e100831061086d57816000916064604051809481936323b872dd60e01b83523360048401523060248401528860448401527f0000000000000000000000000000000000000000000000000000000000000000165af190811561086157600091610834575b50156107f8573360005260058152604060002090600382019160ff8354161561074e575b7fc9626d754b3720da351a26831dc4d1481cb9f2dd7ec9ba5356f710bcf4354b59925061073c848254611732565b90556040519283523392a26001600055005b600654926007835283604060002055600160401b8410156107e2576107bb61079d8560017fc9626d754b3720da351a26831dc4d1481cb9f2dd7ec9ba5356f710bcf4354b59970160065561169f565b81546001600160a01b0360039290921b91821b19163390911b179055565b600282018054156107d8575b50805460ff1916600117905561070e565b60649055856107c7565b634e487b7160e01b600052604160045260246000fd5b6064906040519062461bcd60e51b82526004820152601560248201527414dd185ad9481d1c985b9cd9995c8819985a5b1959605a1b6044820152fd5b6108549150823d841161085a575b61084c818361151d565b81019061171a565b836106ea565b503d610842565b6040513d6000823e3d90fd5b6040516378de4a6960e11b8152600490fd5b6040516329c1fbb960e01b8152600490fd5b6108a89150833d851161085a5761084c818361151d565b8461067d565b346101b65760003660031901126101b6576040517f00000000000000000000000000000000000000000000000000000000000000006001600160a01b03168152602090f35b346101b65760003660031901126101b6576001546040516001600160a01b039091168152602090f35b346101b65760003660031901126101b6576040517f00000000000000000000000000000000000000000000000000000000000000006001600160a01b03168152602090f35b346101b65760003660031901126101b6576020600354604051908152f35b346101b65760a03660031901126101b6576044356001600160a01b038116908190036101b6576064356001600160a01b038116908190036101b6576002546001600160a01b03163303610c5f57600560065410610c4d57600354916109e38361176f565b60035582600052600460205260406000209160043583556024356001840155600283016bffffffffffffffffffffffff60a01b928382541617905560038301918254161790556084356004820155600b810160ff199081815416905542600c8301556032601083019182541617905560405160c0810181811067ffffffffffffffff8211176107e2576040526005815260a03660208301376000926040514260208201524460408201526040815280606081011067ffffffffffffffff6060830111176107e257606081016040526020815191012090610ac66006548093611e2a565b9060005b83811080610c43575b15610b8457610af3610aee85610ae98487611732565b611e2a565b61169f565b60018060a01b0391549060031b1c16806000526005602052604060002060ff6003820154169081610b74575b50610b34575b50610b2f9061176f565b610aca565b8597919751821015610b5e5781610b57916020610b2f9460051b8901015261176f565b9690610b25565b634e487b7160e01b600052603260045260246000fd5b6305f5e100915054101589610b1f565b508351600586018567ffffffffffffffff83116107e257600160401b83116107e2576020908254848455808510610c26575b500190600052602060002060005b838110610c0957602085807f8092765f946b732cf44a3a396fe2854f71320d246c46d0f03ccb563fcbcc920e60408051600435815260243586820152a2604051908152f35b82516001600160a01b031681830155602090920191600101610bc4565b610c3d90846000528584600020918201910161177e565b85610bb6565b5060058710610ad3565b60405163325d6d3960e01b8152600490fd5b60405162461bcd60e51b81526020600482015260126024820152714f6e6c792050726f6a656374457363726f7760701b6044820152606490fd5b346101b65760003660031901126101b657610cb26116ee565b600180546001600160a01b031981169091556000906001600160a01b03167f8be0079c531659141344cd1fd0a4f28419497f9722a3daafe3b4186f6b6457e08280a3005b346101b65760003660031901126101b6576002546040516001600160a01b039091168152602090f35b346101b65760603660031901126101b65767ffffffffffffffff6024358181116101b657610d51903690600401611632565b906044359060ff82168092036101b657600254336001600160a01b0391821614159081610eb3575b50610ea257600435600052602060048152604060002091600f83019185519182116107e257610da883546114e3565b601f8111610e67575b5080601f8311600114610dfb5750819060109596600092610df0575b50508160011b916000199060031b1c19161790555b01805460ff19169091179055005b015190508680610dcd565b90601f198316968460005282600020926000905b898210610e4f575050908392916001946010989910610e36575b505050811b019055610de2565b015160001960f88460031b161c19169055868080610e29565b80600185968294968601518155019501930190610e0f565b610e92908460005282600020601f850160051c810191848610610e98575b601f0160051c019061177e565b86610db1565b9091508190610e85565b6040516282b42960e81b8152600490fd5b90506001541633141584610d79565b346101b65760203660031901126101b6576004358060005260046020526040600020600c81015462093a808101809111610f5657421115610f4457600b015460ff166004811015610f2e57610f1c57610f1a90611795565b005b60405163453ee4f760e11b8152600490fd5b634e487b7160e01b600052602160045260246000fd5b604051633fc30bd160e11b8152600490fd5b634e487b7160e01b600052601160045260246000fd5b346101b65760403660031901126101b65760043560243560038110156101b657816000526004602052604060002090600c82015462093a808101809111610f565742116110e15760068201336000528060205260ff604060002054166110cf57610fd63385611e4a565b156110bd5733600052602052604060002060ff19906001828254161790556007830160205260406000209081541660ff8316179055600091811560001461108e5760088101611025815461176f565b90555b60405192610f2e578261107e9260059452847feba4866100b822f0f391e610e7edfab790b9e8766c0012733c26b2f1858e8dd760203393a3600a6110756008830154600984015490611732565b91015490611732565b1461108557005b610f1a90611795565b60009250600182036110af57600981016110a8815461176f565b9055611028565b600a81016110a8815461176f565b60405163aa17c98960e01b8152600490fd5b604051637c9a1cf960e01b8152600490fd5b604051637a19ed0560e01b8152600490fd5b346101b65760203660031901126101b657600435600052600460205260406000208054600182015491600160a01b60019003908160028201541691600382015416600482015460088301546009840154600a850154600b86015460ff1691600c87015493600d88015495600e89015460ff1697600f8a016111739061153f565b996010015460ff169a6040519d8e809e81526020015260408d015260608c015260808b015260a08a015260c089015260e088015261010087016111b5916115e5565b61012086015261014085015215156101608401526101c08061018085015283016111de916115f2565b906101a08301520390f35b346101b6576020806003193601126101b65760043560005260048152600560406000200160405190818382549182815201908192600052846000209060005b8682821061128757868661123e8288038361151d565b604051928392818401908285525180915260408401929160005b82811061126757505050500390f35b83516001600160a01b031685528695509381019392810192600101611258565b83546001600160a01b031685529093019260019283019201611228565b346101b6576020806003193601126101b657600435906112c261173f565b33600052600581526040600020805483811061086d576112e7846305f5e10092611762565b80835510806114d5575b6113ec575b5060405163a9059cbb60e01b815233600482015260248101839052818160448160006001600160a01b037f0000000000000000000000000000000000000000000000000000000000000000165af1908115610861576000916113cf575b501561138b577f610a1d949cc1ca7d4391b2530deda84f33b5f02dbd462643f21cd8a1b3cd573f906040519283523392a26001600055005b6064906040519062461bcd60e51b82526004820152601760248201527f556e7374616b65207472616e73666572206661696c65640000000000000000006044820152fd5b6113e69150823d841161085a5761084c818361151d565b83611353565b3360005260078252604060002054906006549160001992838101908111610f565780820361147a575b5050600654918215611464576003920161142e8161169f565b81546001600160a01b0391861b9190911b1916905560065533600090815260078452604081205501805460ff19169055826112f6565b634e487b7160e01b600052603160045260246000fd5b6114839061169f565b905460039190911b1c6001600160a01b03166114c1816114a28461169f565b90919082549060031b9160018060a01b03809116831b921b1916179055565b600052600784526040600020558480611415565b5060ff6003820154166112f1565b90600182811c92168015611513575b60208310146114fd57565b634e487b7160e01b600052602260045260246000fd5b91607f16916114f2565b90601f8019910116810190811067ffffffffffffffff8211176107e257604052565b9060405191826000825492611553846114e3565b9081845260019485811690816000146115c2575060011461157f575b505061157d9250038361151d565b565b9093915060005260209081600020936000915b8183106115aa57505061157d9350820101388061156f565b85548884018501529485019487945091830191611592565b91505061157d94506020925060ff191682840152151560051b820101388061156f565b906004821015610f2e5752565b919082519283825260005b84811061161e575050826000602080949584010152601f8019910116010190565b6020818301810151848301820152016115fd565b81601f820112156101b65780359067ffffffffffffffff82116107e25760405192611667601f8401601f19166020018561151d565b828452602083830101116101b657816000926020809301838601378301015290565b600435906001600160a01b03821682036101b657565b600654811015610b5e5760066000527ff652222313e28459528d920b65115c16c04f3efc82aaedc97be59f3f377c0d3f0190600090565b8054821015610b5e5760005260206000200190600090565b6001546001600160a01b0316330361170257565b60405163118cdaa760e01b8152336004820152602490fd5b908160209103126101b6575180151581036101b65790565b91908201809211610f5657565b600260005414611750576002600055565b604051633ee5aeb560e01b8152600490fd5b91908203918211610f5657565b6000198114610f565760010190565b818110611789575050565b6000815560010161177e565b806000526004602052807f2ffcfee146bc0d5ff304c6b65111a0d485af9456dc64eee7d66ebdcc90b223ea602060ff600b60406000206008810154600982015490818110159081611e1b575b5015611dec5750818101600184198254161790555b42600d82015501541661180c60405180926115e5565ba261181561173f565b6000526004602052604060002090600e8201805460ff8116611dda5760ff19166001179055600482015461184c600a820482611762565b600b84019060ff8254166004811015610f2e5760028103611c1a575060028501546001600160a01b03165b6001600160a01b038116611b45575b50505460ff166004811015610f2e5760018103611b30575060005b60005b6005850154811015611b24576118bd81600587016116d6565b91905491600360018060a01b038483831b1c166000526006880160205260ff6040600020541680611afc575b15611a695760405163a9059cbb60e01b815282821b85901c6001600160a01b031660048201526005600a88040460248201526020818060448101038160007f00000000000000000000000000000000000000000000000000000000000000006001600160a01b03165af190811561086157600091611a4a575b5015611a0e5760018060a01b038483831b1c166000526005602052600160406000200161198f815461176f565b905560018060a01b038483831b1c166000526005602052600260406000200190815490600582018211610f5657611a09957fe34918ff1c7084970068b53fd71ad6d8b04e9f15d3886cbf006443e6cdc52ea6936005602094019055604051946005600a8b0404865260018060a01b03921b1c1692a261176f565b6118a4565b60405162461bcd60e51b8152602060048201526014602482015273129d5c9bdc881c185e5b595b9d0819985a5b195960621b6044820152606490fd5b611a63915060203d60201161085a5761084c818361151d565b38611962565b81811b84901c6001600160a01b0316600090815260068901602052604090205460ff16611a9d575b5050611a09915061176f565b600560205260406000206002015493600a851115611aef5784600919810111610f5657611a099460091901925b6001600160a01b03921b1c166000908152600560205260409020600201553880611a91565b611a099450600092611aca565b506007880160205260ff6040600020541681861015610f2e5781811015610f2e5785146118e9565b50505090506001600055565b600203611b3e5760016118a1565b60026118a1565b60405163a9059cbb60e01b81526001600160a01b03909116600482015260248101919091526020818060448101038160007f00000000000000000000000000000000000000000000000000000000000000006001600160a01b03165af190811561086157600091611bfb575b5015611bbe573880611886565b60405162461bcd60e51b815260206004820152601560248201527415da5b9b995c881c185e5b595b9d0819985a5b1959605a1b6044820152606490fd5b611c14915060203d60201161085a5761084c818361151d565b38611bb1565b600303611c345760038501546001600160a01b0316611877565b60ff601086015416808202908282041482151715610f565760649004611c5a8183611762565b600387015460405163a9059cbb60e01b8082526001600160a01b03928316600483015260248201949094529091907f00000000000000000000000000000000000000000000000000000000000000008316906020816044816000865af190811561086157600091611dbb575b5015611d76576002890154604051948552929092166001600160a01b031660048401526024830152602090829060449082906000905af190811561086157600091611d57575b5015611d19576000611877565b60405162461bcd60e51b815260206004820152601660248201527510db1a595b9d081d1c985b9cd9995c8819985a5b195960521b6044820152606490fd5b611d70915060203d60201161085a5761084c818361151d565b38611d0c565b60405162461bcd60e51b815260206004820152601a60248201527f467265656c616e636572207472616e73666572206661696c65640000000000006044820152606490fd5b611dd4915060203d60201161085a5761084c818361151d565b38611cc6565b604051634805fe1160e01b8152600490fd5b600a8201541015611e0957818101600284198254161790556117f6565b818101600384198254161790556117f6565b9050600a8301541115386117e1565b8115611e34570690565b634e487b7160e01b600052601260045260246000fd5b60005260046020526040600020906005600092018054925b838110611e725750505050600090565b611e7c81836116d6565b905460039190911b1c6001600160a01b0390811690841614611ea657611ea19061176f565b611e62565b5050505060019056fea2646970667358221220f76d4aa56a70e4fb69eba04ae65bd5350e1ebde33d7586a0c4e9a155b9f4332a64736f6c63430008140033","linkReferences":{}},"methodIdentifiers":{"JURORS_PER_CASE()":"df3b8ae3","MIN_STAKE()":"cb1c2b5c","STABLECOIN()":"93a39776","USER_REGISTRY()":"860a551f","VOTING_PERIOD()":"b1610d7e","activeJurors(uint256)":"e2da844d","castVote(uint256,uint8)":"56781388","createDispute(uint256,uint256,address,address,uint256)":"7adfe483","disputeCounter()":"7d36f4d3","disputes(uint256)":"564a565d","finalizeDispute(uint256)":"56989a83","getActiveJurorCount()":"9a97f2dd","getDispute(uint256)":"e3a96cbd","getDisputeJurors(uint256)":"47e2a6e6","getJurorInfo(address)":"eff2c3ec","jurorIndices(address)":"9f2b9c57","jurors(address)":"dca5f6b0","owner()":"8da5cb5b","projectEscrowAddress()":"70e0a9db","renounceOwnership()":"715018a6","setAiReport(uint256,string,uint8)":"5a59efb2","setProjectEscrowAddress(address)":"f5b7e408","stakeAsJuror(uint256)":"95152b84","submitEvidence(uint256,string)":"a6a7f0eb","transferOwnership(address)":"f2fde38b","unstake(uint256)":"2e17de78"},"id":37}