{"abi":[{"type":"constructor","inputs":[{"name":"_stablecoin","type":"address","internalType":"address"},{"name":"_userRegistry","type":"address","internalType":"address"}],"stateMutability":"nonpayable"},{"type":"function","name":"JURORS_PER_CASE","inputs":[],"outputs":[{"name":"","type":"uint256","internalType":"uint256"}],"stateMutability":"view"},{"type":"function","name":"MIN_STAKE","inputs":[],"outputs":[{"name":"","type":"uint256","internalType":"uint256"}],"stateMutability":"view"},{"type":"function","name":"VOTING_PERIOD","inputs":[],"outputs":[{"name":"","type":"uint256","internalType":"uint256"}],"stateMutability":"view"},{"type":"function","name":"activeJurors","inputs":[{"name":"","type":"uint256","internalType":"uint256"}],"outputs":[{"name":"","type":"address","internalType":"address"}],"stateMutability":"view"},{"type":"function","name":"castVote","inputs":[{"name":"disputeId","type":"uint256","internalType":"uint256"},{"name":"voteForClient","type":"bool","internalType":"bool"}],"outputs":[],"stateMutability":"nonpayable"},{"type":"function","name":"createDispute","inputs":[{"name":"projectId","type":"uint256","internalType":"uint256"},{"name":"milestoneIndex","type":"uint256","internalType":"uint256"},{"name":"client","type":"address","internalType":"address"},{"name":"freelancer","type":"address","internalType":"address"},{"name":"amount","type":"uint256","internalType":"uint256"}],"outputs":[{"name":"","type":"uint256","internalType":"uint256"}],"stateMutability":"nonpayable"},{"type":"function","name":"disputeCounter","inputs":[],"outputs":[{"name":"","type":"uint256","internalType":"uint256"}],"stateMutability":"view"},{"type":"function","name":"disputes","inputs":[{"name":"","type":"uint256","internalType":"uint256"}],"outputs":[{"name":"projectId","type":"uint256","internalType":"uint256"},{"name":"milestoneIndex","type":"uint256","internalType":"uint256"},{"name":"client","type":"address","internalType":"address"},{"name":"freelancer","type":"address","internalType":"address"},{"name":"amount","type":"uint256","internalType":"uint256"},{"name":"votesForClient","type":"uint256","internalType":"uint256"},{"name":"votesForFreelancer","type":"uint256","internalType":"uint256"},{"name":"outcome","type":"uint8","internalType":"enum DisputeJury.DisputeOutcome"},{"name":"createdAt","type":"uint256","internalType":"uint256"},{"name":"resolvedAt","type":"uint256","internalType":"uint256"},{"name":"fundsDistributed","type":"bool","internalType":"bool"}],"stateMutability":"view"},{"type":"function","name":"finalizeDispute","inputs":[{"name":"disputeId","type":"uint256","internalType":"uint256"}],"outputs":[],"stateMutability":"nonpayable"},{"type":"function","name":"getActiveJurorCount","inputs":[],"outputs":[{"name":"","type":"uint256","internalType":"uint256"}],"stateMutability":"view"},{"type":"function","name":"getDispute","inputs":[{"name":"disputeId","type":"uint256","internalType":"uint256"}],"outputs":[{"name":"projectId","type":"uint256","internalType":"uint256"},{"name":"client","type":"address","internalType":"address"},{"name":"freelancer","type":"address","internalType":"address"},{"name":"amount","type":"uint256","internalType":"uint256"},{"name":"outcome","type":"uint8","internalType":"enum DisputeJury.DisputeOutcome"},{"name":"votesForClient","type":"uint256","internalType":"uint256"},{"name":"votesForFreelancer","type":"uint256","internalType":"uint256"}],"stateMutability":"view"},{"type":"function","name":"getJurorInfo","inputs":[{"name":"juror","type":"address","internalType":"address"}],"outputs":[{"name":"stakedAmount","type":"uint256","internalType":"uint256"},{"name":"casesJudged","type":"uint256","internalType":"uint256"},{"name":"reputationScore","type":"uint256","internalType":"uint256"},{"name":"isActive","type":"bool","internalType":"bool"}],"stateMutability":"view"},{"type":"function","name":"jurors","inputs":[{"name":"","type":"address","internalType":"address"}],"outputs":[{"name":"stakedAmount","type":"uint256","internalType":"uint256"},{"name":"casesJudged","type":"uint256","internalType":"uint256"},{"name":"reputationScore","type":"uint256","internalType":"uint256"},{"name":"isActive","type":"bool","internalType":"bool"}],"stateMutability":"view"},{"type":"function","name":"projectEscrowAddress","inputs":[],"outputs":[{"name":"","type":"address","internalType":"address"}],"stateMutability":"view"},{"type":"function","name":"setProjectEscrowAddress","inputs":[{"name":"_projectEscrow","type":"address","internalType":"address"}],"outputs":[],"stateMutability":"nonpayable"},{"type":"function","name":"stablecoin","inputs":[],"outputs":[{"name":"","type":"address","internalType":"contract IERC20"}],"stateMutability":"view"},{"type":"function","name":"stakeAsJuror","inputs":[{"name":"amount","type":"uint256","internalType":"uint256"}],"outputs":[],"stateMutability":"nonpayable"},{"type":"function","name":"unstake","inputs":[{"name":"amount","type":"uint256","internalType":"uint256"}],"outputs":[],"stateMutability":"nonpayable"},{"type":"function","name":"userRegistry","inputs":[],"outputs":[{"name":"","type":"address","internalType":"contract UserRegistry"}],"stateMutability":"view"},{"type":"event","name":"DisputeCreated","inputs":[{"name":"disputeId","type":"uint256","indexed":true,"internalType":"uint256"},{"name":"projectId","type":"uint256","indexed":false,"internalType":"uint256"},{"name":"milestoneIndex","type":"uint256","indexed":false,"internalType":"uint256"},{"name":"amount","type":"uint256","indexed":false,"internalType":"uint256"}],"anonymous":false},{"type":"event","name":"DisputeResolved","inputs":[{"name":"disputeId","type":"uint256","indexed":true,"internalType":"uint256"},{"name":"outcome","type":"uint8","indexed":false,"internalType":"enum DisputeJury.DisputeOutcome"}],"anonymous":false},{"type":"event","name":"JurorStaked","inputs":[{"name":"juror","type":"address","indexed":true,"internalType":"address"},{"name":"amount","type":"uint256","indexed":false,"internalType":"uint256"}],"anonymous":false},{"type":"event","name":"JurorUnstaked","inputs":[{"name":"juror","type":"address","indexed":true,"internalType":"address"},{"name":"amount","type":"uint256","indexed":false,"internalType":"uint256"}],"anonymous":false},{"type":"event","name":"RewardDistributed","inputs":[{"name":"juror","type":"address","indexed":true,"internalType":"address"},{"name":"amount","type":"uint256","indexed":false,"internalType":"uint256"}],"anonymous":false},{"type":"event","name":"VoteCast","inputs":[{"name":"disputeId","type":"uint256","indexed":true,"internalType":"uint256"},{"name":"juror","type":"address","indexed":true,"internalType":"address"},{"name":"votedForClient","type":"bool","indexed":false,"internalType":"bool"}],"anonymous":false},{"type":"error","name":"AlreadyVoted","inputs":[]},{"type":"error","name":"DisputeNotResolved","inputs":[]},{"type":"error","name":"FundsAlreadyDistributed","inputs":[]},{"type":"error","name":"InsufficientStake","inputs":[]},{"type":"error","name":"NotEnoughJurors","inputs":[]},{"type":"error","name":"NotJurorInCase","inputs":[]},{"type":"error","name":"NotVerifiedHuman","inputs":[]},{"type":"error","name":"ReentrancyGuardReentrantCall","inputs":[]},{"type":"error","name":"VotingEnded","inputs":[]}],"bytecode":{"object":"0x60c0346100ac57601f61147338819003918201601f19168301916001600160401b038311848410176100b05780849260409485528339810103126100ac57610052602061004b836100c4565b92016100c4565b60015f556001600160a01b039182166080521660a05260405161139a90816100d982396080518181816101db0152818161044b01528181610b8301528181610f95015261105d015260a0518181816103e101526109870152f35b5f80fd5b634e487b7160e01b5f52604160045260245ffd5b51906001600160a01b03821682036100ac5756fe6080806040526004361015610012575f80fd5b5f3560e01c90816315373e3d14610c5c575080632e17de7814610b0e578063564a565d14610a5a57806356989a83146109b65780635c7460d61461097257806370e0a9db1461094a5780637adfe4831461062e5780637d36f4d31461061157806395152b84146103a05780639a97f2dd14610323578063b1610d7e14610306578063cb1c2b5c146102e8578063dca5f6b014610165578063df3b8ae3146102cd578063e2da844d1461028b578063e3a96cbd1461020a578063e9cbd822146101c6578063eff2c3ec146101655763f5b7e408146100ed575f80fd5b3461016157602036600319011261016157610106610da2565b600154906001600160a01b039081831661012e576001600160a01b0319909216911617600155005b60405162461bcd60e51b815260206004820152600b60248201526a105b1c9958591e481cd95d60aa1b6044820152606490fd5b5f80fd5b34610161576020366003190112610161576001600160a01b03610186610da2565b165f908152600460209081526040918290208054600182015460028301546003909301548551928352938201529283015260ff1615156060820152608090f35b34610161575f366003190112610161576040517f00000000000000000000000000000000000000000000000000000000000000006001600160a01b03168152602090f35b34610161576020366003190112610161576004355f52600360205260e060405f2080549060018060a01b039061027f8260028301541692600383015416600483015460ff6009850154169160086007860154950154956040519788526020880152604087015260608601526080850190610d95565b60a083015260c0820152f35b3461016157602036600319011261016157600435600554811015610161576102b4602091610db8565b905460405160039290921b1c6001600160a01b03168152f35b34610161575f36600319011261016157602060405160058152f35b34610161575f3660031901126101615760206040516305f5e1008152f35b34610161575f36600319011261016157602060405162093a808152f35b34610161575f366003190112610161575f80600554905b81811061034c57602083604051908152f35b60ff61035782610db8565b9054600391821b1c6001600160a01b03165f90815260046020526040902001541661038b575b61038690610e77565b61033a565b9161039861038691610e77565b92905061037d565b346101615760208060031936011261016157600435906103be610e49565b6040516263fa2760e01b81523360048201526001600160a01b03919081816024817f000000000000000000000000000000000000000000000000000000000000000087165afa9081156105c5575f916105f4575b50156105e2576305f5e10083106105d0576040516323b872dd60e01b81523360048201523060248201526044810184905281816064815f7f000000000000000000000000000000000000000000000000000000000000000088165af19081156105c5575f91610598575b501561055c57335f526004815260405f20918254156104e3575b506003826104c6857fc9626d754b3720da351a26831dc4d1481cb9f2dd7ec9ba5356f710bcf4354b599554610e3c565b815501805460ff191660011790556040519283523392a260015f55005b9160055490600160401b821015610548577fc9626d754b3720da351a26831dc4d1481cb9f2dd7ec9ba5356f710bcf4354b599361052883600160039501600555610db8565b8192915490851b9133831b921b1916179055606460028201559250610496565b634e487b7160e01b5f52604160045260245ffd5b6064906040519062461bcd60e51b82526004820152601560248201527414dd185ad9481d1c985b9cd9995c8819985a5b1959605a1b6044820152fd5b6105b89150823d84116105be575b6105b08183610e02565b810190610e24565b8461047c565b503d6105a6565b6040513d5f823e3d90fd5b6040516378de4a6960e11b8152600490fd5b6040516329c1fbb960e01b8152600490fd5b61060b9150823d84116105be576105b08183610e02565b84610412565b34610161575f366003190112610161576020600254604051908152f35b346101615760a0366003190112610161576044356001600160a01b03811690819003610161576064356001600160a01b03811690819003610161576001546001600160a01b031633036109105760058054106108fe576002549161069183610e77565b600255825f52600360205260405f209160043583556024356001840155600283016bffffffffffffffffffffffff60a01b9283825416179055600383019182541617905560843560048201556009810160ff199081815416905542600a830155600c820190815416905560405160c0810181811067ffffffffffffffff821117610548576040526005815260a03660208301375f926040514260208201524460408201526040815280606081011067ffffffffffffffff6060830111176105485760608101604052602081519101209061076e60055480936112e4565b905f5b838110806108f4575b156108275761079a610795856107908487610e3c565b6112e4565b610db8565b60018060a01b0391549060031b1c16805f52600460205260405f2060ff6003820154169081610817575b506107d9575b506107d490610e77565b610771565b859791975182101561080357816107fc9160206107d49460051b89010152610e77565b96906107ca565b634e487b7160e01b5f52603260045260245ffd5b6305f5e1009150541015896107c4565b508351600586018567ffffffffffffffff831161054857600160401b83116105485781548383558084106108ce575b50602001905f5260205f205f5b8381106108b157602085807f962aa2bf0a7d4f23610f023615f2176cce2d934eec76bc84194d5aeb70a9370260606040516004358152602435868201526084356040820152a2604051908152f35b82516001600160a01b031681830155602090920191600101610863565b825f528360205f2091820191015b8181106108e95750610856565b5f81556001016108dc565b506005871061077a565b60405163325d6d3960e01b8152600490fd5b60405162461bcd60e51b81526020600482015260126024820152714f6e6c792050726f6a656374457363726f7760701b6044820152606490fd5b34610161575f366003190112610161576001546040516001600160a01b039091168152602090f35b34610161575f366003190112610161576040517f00000000000000000000000000000000000000000000000000000000000000006001600160a01b03168152602090f35b3461016157602036600319011261016157600435805f52600360205260405f20600a81015462093a808101809111610a4657421115610a34576009015460ff166003811015610a2057610a0e57610a0c90610e85565b005b60405163453ee4f760e11b8152600490fd5b634e487b7160e01b5f52602160045260245ffd5b604051637a19ed0560e01b8152600490fd5b634e487b7160e01b5f52601160045260245ffd5b34610161576020366003190112610161576004355f52600360205261016060405f2080549060018101549060018060a01b03610af881600284015416916003840154166004840154600785015460088601549160ff60098801541693600a8801549660ff600c600b8b01549a015416996040519b8c5260208c015260408b015260608a0152608089015260a088015260c087015260e0860190610d95565b6101008401526101208301521515610140820152f35b34610161576020806003193601126101615760043590610b2c610e49565b335f526004815260405f2080548381106105d057610b4f846305f5e10092610e6a565b80835510610c4b575b5060405163a9059cbb60e01b81523360048201526024810183905281816044815f6001600160a01b037f0000000000000000000000000000000000000000000000000000000000000000165af19081156105c5575f91610c2e575b5015610bea577f610a1d949cc1ca7d4391b2530deda84f33b5f02dbd462643f21cd8a1b3cd573f906040519283523392a260015f55005b6064906040519062461bcd60e51b82526004820152601760248201527f556e7374616b65207472616e73666572206661696c65640000000000000000006044820152fd5b610c459150823d84116105be576105b08183610e02565b83610bb3565b600301805460ff1916905582610b58565b346101615760403660031901126101615760043590602435908115159081830361016157835f52600360205260405f2090600a82015462093a808101809111610a46574211610d8657506006810191335f528260205260ff60405f205416610d7457610cc83386611302565b15610d6257600593610d3d93335f5260205260405f20600160ff198254161790555f14610d4d5760078201610cfd8154610e77565b90555b604051908152847fe71fcdac32df1877c1700e7bda2a03157e20993363a28fc35ac495cefc76e4d460203393a36008600782015491015490610e3c565b14610d4457005b610a0c90610e85565b60088201610d5b8154610e77565b9055610d00565b60405163aa17c98960e01b8152600490fd5b604051637c9a1cf960e01b8152600490fd5b637a19ed0560e01b8152600490fd5b906003821015610a205752565b600435906001600160a01b038216820361016157565b6005548110156108035760055f527f036b6384b5eca791c62761152d0c79bb0604c104a5fb6f4eb0703f3154bb3db001905f90565b8054821015610803575f5260205f2001905f90565b90601f8019910116810190811067ffffffffffffffff82111761054857604052565b90816020910312610161575180151581036101615790565b91908201809211610a4657565b60025f5414610e585760025f55565b604051633ee5aeb560e01b8152600490fd5b91908203918211610a4657565b5f198114610a465760010190565b90815f526003602052817f2ffcfee146bc0d5ff304c6b65111a0d485af9456dc64eee7d66ebdcc90b223ea602060ff600960405f2060078101546008820154105f146112d257818101600184198254161790555b42600b820155015416610eef6040518092610d95565ba2610ef8610e49565b815f52600360205260405f2091600c8301805460ff81166112c05760ff19166001179055600483015492610f2f600a850485610e6a565b600982019060ff8254166003811015610a2057610f90916020916001036112ad5760028501546001600160a01b03165b60405163a9059cbb60e01b81526001600160a01b039091166004820152602481019190915291829081906044820190565b03815f7f00000000000000000000000000000000000000000000000000000000000000006001600160a01b03165af19081156105c5575f9161128e575b5015611251575460ff166003811015610a20575f5b600583015481101561124557610ffb8160058501610ded565b60018060a01b0391549060031b1c1690815f526006840160205260ff60405f205416806111de575b156111715760405163a9059cbb60e01b81526001600160a01b03831660048201526005600a8904046024820152602081806044810103815f7f00000000000000000000000000000000000000000000000000000000000000006001600160a01b03165af19081156105c5575f91611152575b501561111657815f526004602052600160405f20016110b48154610e77565b9055815f526004602052600260405f200191825492600584018411610a46576005611111940190557fe34918ff1c7084970068b53fd71ad6d8b04e9f15d3886cbf006443e6cdc52ea660206040516005600a8c04048152a2610e77565b610fe2565b60405162461bcd60e51b8152602060048201526014602482015273129d5c9bdc881c185e5b595b9d0819985a5b195960621b6044820152606490fd5b61116b915060203d6020116105be576105b08183610e02565b5f611095565b815f526006840160205260ff60405f205416611192575b6111119150610e77565b600460205260405f206002015491600a8311156111d25782600919810111610a46576111119260091901905b5f526004602052600260405f200155611188565b61111192505f906111be565b50600183148080611225575b81156111f7575b50611023565b90501580611206575b5f6111f1565b5061121f855f526003602052600760405f200154151590565b15611200565b905061123f865f526003602052600760405f200154151590565b906111ea565b50505050905060015f55565b60405162461bcd60e51b815260206004820152601560248201527415da5b9b995c881c185e5b595b9d0819985a5b1959605a1b6044820152606490fd5b6112a7915060203d6020116105be576105b08183610e02565b5f610fcd565b60038501546001600160a01b0316610f5f565b604051634805fe1160e01b8152600490fd5b81810160028419825416179055610ed9565b81156112ee570690565b634e487b7160e01b5f52601260045260245ffd5b5f526003908160205260405f209160055f93018054935b8481106113295750505050505f90565b6113338183610ded565b905490841b1c6001600160a01b039081169085161461135a5761135590610e77565b611319565b505050505060019056fea2646970667358221220e5deeb513a79178c4e2f7852d8fd7d24144648ce50e75c922112900da1a442c864736f6c63430008140033","linkReferences":{}},"methodIdentifiers":{"JURORS_PER_CASE()":"df3b8ae3","MIN_STAKE()":"cb1c2b5c","VOTING_PERIOD()":"b1610d7e","activeJurors(uint256)":"e2da844d","castVote(uint256,bool)":"15373e3d","createDispute(uint256,uint256,address,address,uint256)":"7adfe483","disputeCounter()":"7d36f4d3","disputes(uint256)":"564a565d","finalizeDispute(uint256)":"56989a83","getActiveJurorCount()":"9a97f2dd","getDispute(uint256)":"e3a96cbd","getJurorInfo(address)":"eff2c3ec","jurors(address)":"dca5f6b0","projectEscrowAddress()":"70e0a9db","setProjectEscrowAddress(address)":"f5b7e408","stablecoin()":"e9cbd822","stakeAsJuror(uint256)":"95152b84","unstake(uint256)":"2e17de78","userRegistry()":"5c7460d6"},"id":37}