{"abi":[{"type":"constructor","inputs":[{"name":"_stablecoin","type":"address","internalType":"address"},{"name":"_userRegistry","type":"address","internalType":"address"}],"stateMutability":"nonpayable"},{"type":"function","name":"JURORS_PER_CASE","inputs":[],"outputs":[{"name":"","type":"uint256","internalType":"uint256"}],"stateMutability":"view"},{"type":"function","name":"MIN_STAKE","inputs":[],"outputs":[{"name":"","type":"uint256","internalType":"uint256"}],"stateMutability":"view"},{"type":"function","name":"VOTING_PERIOD","inputs":[],"outputs":[{"name":"","type":"uint256","internalType":"uint256"}],"stateMutability":"view"},{"type":"function","name":"activeJurors","inputs":[{"name":"","type":"uint256","internalType":"uint256"}],"outputs":[{"name":"","type":"address","internalType":"address"}],"stateMutability":"view"},{"type":"function","name":"castVote","inputs":[{"name":"disputeId","type":"uint256","internalType":"uint256"},{"name":"choice","type":"uint8","internalType":"enum DisputeJury.VoteChoice"}],"outputs":[],"stateMutability":"nonpayable"},{"type":"function","name":"createDispute","inputs":[{"name":"projectId","type":"uint256","internalType":"uint256"},{"name":"milestoneIndex","type":"uint256","internalType":"uint256"},{"name":"client","type":"address","internalType":"address"},{"name":"freelancer","type":"address","internalType":"address"},{"name":"amount","type":"uint256","internalType":"uint256"}],"outputs":[{"name":"","type":"uint256","internalType":"uint256"}],"stateMutability":"nonpayable"},{"type":"function","name":"disputeCounter","inputs":[],"outputs":[{"name":"","type":"uint256","internalType":"uint256"}],"stateMutability":"view"},{"type":"function","name":"disputes","inputs":[{"name":"","type":"uint256","internalType":"uint256"}],"outputs":[{"name":"projectId","type":"uint256","internalType":"uint256"},{"name":"milestoneIndex","type":"uint256","internalType":"uint256"},{"name":"client","type":"address","internalType":"address"},{"name":"freelancer","type":"address","internalType":"address"},{"name":"amount","type":"uint256","internalType":"uint256"},{"name":"votesAcceptAI","type":"uint256","internalType":"uint256"},{"name":"votesForClient","type":"uint256","internalType":"uint256"},{"name":"votesForFreelancer","type":"uint256","internalType":"uint256"},{"name":"outcome","type":"uint8","internalType":"enum DisputeJury.DisputeOutcome"},{"name":"createdAt","type":"uint256","internalType":"uint256"},{"name":"resolvedAt","type":"uint256","internalType":"uint256"},{"name":"fundsDistributed","type":"bool","internalType":"bool"},{"name":"aiReport","type":"string","internalType":"string"},{"name":"aiRecommendedSplit","type":"uint8","internalType":"uint8"}],"stateMutability":"view"},{"type":"function","name":"finalizeDispute","inputs":[{"name":"disputeId","type":"uint256","internalType":"uint256"}],"outputs":[],"stateMutability":"nonpayable"},{"type":"function","name":"getActiveJurorCount","inputs":[],"outputs":[{"name":"","type":"uint256","internalType":"uint256"}],"stateMutability":"view"},{"type":"function","name":"getDispute","inputs":[{"name":"disputeId","type":"uint256","internalType":"uint256"}],"outputs":[{"name":"projectId","type":"uint256","internalType":"uint256"},{"name":"client","type":"address","internalType":"address"},{"name":"freelancer","type":"address","internalType":"address"},{"name":"amount","type":"uint256","internalType":"uint256"},{"name":"outcome","type":"uint8","internalType":"enum DisputeJury.DisputeOutcome"},{"name":"votesAcceptAI","type":"uint256","internalType":"uint256"},{"name":"votesForClient","type":"uint256","internalType":"uint256"},{"name":"votesForFreelancer","type":"uint256","internalType":"uint256"},{"name":"aiReport","type":"string","internalType":"string"}],"stateMutability":"view"},{"type":"function","name":"getDisputeJurors","inputs":[{"name":"disputeId","type":"uint256","internalType":"uint256"}],"outputs":[{"name":"","type":"address[]","internalType":"address[]"}],"stateMutability":"view"},{"type":"function","name":"getJurorInfo","inputs":[{"name":"juror","type":"address","internalType":"address"}],"outputs":[{"name":"stakedAmount","type":"uint256","internalType":"uint256"},{"name":"casesJudged","type":"uint256","internalType":"uint256"},{"name":"reputationScore","type":"uint256","internalType":"uint256"},{"name":"isActive","type":"bool","internalType":"bool"}],"stateMutability":"view"},{"type":"function","name":"jurors","inputs":[{"name":"","type":"address","internalType":"address"}],"outputs":[{"name":"stakedAmount","type":"uint256","internalType":"uint256"},{"name":"casesJudged","type":"uint256","internalType":"uint256"},{"name":"reputationScore","type":"uint256","internalType":"uint256"},{"name":"isActive","type":"bool","internalType":"bool"}],"stateMutability":"view"},{"type":"function","name":"projectEscrowAddress","inputs":[],"outputs":[{"name":"","type":"address","internalType":"address"}],"stateMutability":"view"},{"type":"function","name":"setAIReport","inputs":[{"name":"disputeId","type":"uint256","internalType":"uint256"},{"name":"report","type":"string","internalType":"string"},{"name":"recommendedSplit","type":"uint8","internalType":"uint8"}],"outputs":[],"stateMutability":"nonpayable"},{"type":"function","name":"setProjectEscrowAddress","inputs":[{"name":"_projectEscrow","type":"address","internalType":"address"}],"outputs":[],"stateMutability":"nonpayable"},{"type":"function","name":"stablecoin","inputs":[],"outputs":[{"name":"","type":"address","internalType":"contract IERC20"}],"stateMutability":"view"},{"type":"function","name":"stakeAsJuror","inputs":[{"name":"amount","type":"uint256","internalType":"uint256"}],"outputs":[],"stateMutability":"nonpayable"},{"type":"function","name":"submitEvidence","inputs":[{"name":"disputeId","type":"uint256","internalType":"uint256"},{"name":"evidence","type":"string","internalType":"string"}],"outputs":[],"stateMutability":"nonpayable"},{"type":"function","name":"unstake","inputs":[{"name":"amount","type":"uint256","internalType":"uint256"}],"outputs":[],"stateMutability":"nonpayable"},{"type":"function","name":"userRegistry","inputs":[],"outputs":[{"name":"","type":"address","internalType":"contract UserRegistry"}],"stateMutability":"view"},{"type":"event","name":"DisputeCreated","inputs":[{"name":"disputeId","type":"uint256","indexed":true,"internalType":"uint256"},{"name":"projectId","type":"uint256","indexed":false,"internalType":"uint256"},{"name":"milestoneIndex","type":"uint256","indexed":false,"internalType":"uint256"}],"anonymous":false},{"type":"event","name":"DisputeResolved","inputs":[{"name":"disputeId","type":"uint256","indexed":true,"internalType":"uint256"},{"name":"outcome","type":"uint8","indexed":false,"internalType":"enum DisputeJury.DisputeOutcome"}],"anonymous":false},{"type":"event","name":"EvidenceSubmitted","inputs":[{"name":"disputeId","type":"uint256","indexed":true,"internalType":"uint256"},{"name":"evidence","type":"string","indexed":false,"internalType":"string"},{"name":"aiReport","type":"string","indexed":false,"internalType":"string"}],"anonymous":false},{"type":"event","name":"JurorStaked","inputs":[{"name":"juror","type":"address","indexed":true,"internalType":"address"},{"name":"amount","type":"uint256","indexed":false,"internalType":"uint256"}],"anonymous":false},{"type":"event","name":"JurorUnstaked","inputs":[{"name":"juror","type":"address","indexed":true,"internalType":"address"},{"name":"amount","type":"uint256","indexed":false,"internalType":"uint256"}],"anonymous":false},{"type":"event","name":"RewardDistributed","inputs":[{"name":"juror","type":"address","indexed":true,"internalType":"address"},{"name":"amount","type":"uint256","indexed":false,"internalType":"uint256"}],"anonymous":false},{"type":"event","name":"VoteCast","inputs":[{"name":"disputeId","type":"uint256","indexed":true,"internalType":"uint256"},{"name":"juror","type":"address","indexed":true,"internalType":"address"},{"name":"choice","type":"uint8","indexed":false,"internalType":"enum DisputeJury.VoteChoice"}],"anonymous":false},{"type":"error","name":"AlreadyVoted","inputs":[]},{"type":"error","name":"DisputeNotResolved","inputs":[]},{"type":"error","name":"FundsAlreadyDistributed","inputs":[]},{"type":"error","name":"InsufficientStake","inputs":[]},{"type":"error","name":"NotEnoughJurors","inputs":[]},{"type":"error","name":"NotJurorInCase","inputs":[]},{"type":"error","name":"NotVerifiedHuman","inputs":[]},{"type":"error","name":"ReentrancyGuardReentrantCall","inputs":[]},{"type":"error","name":"VotingEnded","inputs":[]},{"type":"error","name":"VotingNotEnded","inputs":[]}],"bytecode":{"object":"0x60c0346100b557601f62001c7f38819003918201601f19168301916001600160401b038311848410176100b95780849260409485528339810103126100b557610053602061004c836100cd565b92016100cd565b60015f556001600160a01b039182166080521660a052604051611b9d9081620000e282396080518181816101fd0152818161064f0152818161112a0152818161163d0152818161183b015261194c015260a0518181816105e50152610b4e0152f35b5f80fd5b634e487b7160e01b5f52604160045260245ffd5b51906001600160a01b03821682036100b55756fe60806040526004361015610011575f80fd5b5f3560e01c80632e17de78146110b557806334b18f8d14610f4757806347e2a6e614610e92578063564a565d14610d9e5780635678138814610c2157806356989a8314610b7d5780635c7460d614610b3957806370e0a9db14610b115780637adfe483146108325780637d36f4d31461081557806395152b84146105a45780639a97f2dd14610527578063a6a7f0eb1461036f578063b1610d7e14610352578063cb1c2b5c14610334578063dca5f6b014610183578063df3b8ae314610319578063e2da844d146102d7578063e3a96cbd1461022c578063e9cbd822146101e8578063eff2c3ec146101835763f5b7e4081461010b575f80fd5b3461017f57602036600319011261017f5761012461139f565b600154906001600160a01b039081831661014c576001600160a01b0319909216911617600155005b60405162461bcd60e51b815260206004820152600b60248201526a105b1c9958591e481cd95d60aa1b6044820152606490fd5b5f80fd5b3461017f57602036600319011261017f576001600160a01b036101a461139f565b165f908152600460209081526040918290208054600182015460028301546003909301548551928352938201529283015260ff1615156060820152608090f35b0390f35b3461017f575f36600319011261017f576040517f00000000000000000000000000000000000000000000000000000000000000006001600160a01b03168152602090f35b3461017f57602036600319011261017f576004355f52600360205260405f2080546101e460018060a01b0392836002820154169360038201541690600481015460ff600b830154166102b6600884015491600985015493610294600f600a88015497016112b3565b966040519a8b9a8b5260208b015260408a015260608901526080880190611354565b60a086015260c085015260e084015261012080610100850152830190611361565b3461017f57602036600319011261017f5760043560055481101561017f576103006020916113b5565b905460405160039290921b1c6001600160a01b03168152f35b3461017f575f36600319011261017f57602060405160058152f35b3461017f575f36600319011261017f5760206040516305f5e1008152f35b3461017f575f36600319011261017f57602060405162093a808152f35b3461017f57604036600319011261017f5760043560243567ffffffffffffffff811161017f576103a3903690600401611225565b90805f526020916003835260405f2060018060a01b03806002830154163314908115610517575b50156104db57600f01926103e960405192604084526040840190611361565b93828503828401525f9481546103fe8161127b565b8083529260019180831690811561049c5750600114610441575b867f3080efd9677d7659fb3edcab836575527c217c31ea0b984b843c8852790c2e75878a0388a2005b5f908152848120949750939192915b828510610489575050500190920191807f3080efd9677d7659fb3edcab836575527c217c31ea0b984b843c8852790c2e75858080610418565b8054848601890152938701938101610450565b60ff19168487015250505090151560051b01019250807f3080efd9677d7659fb3edcab836575527c217c31ea0b984b843c8852790c2e75858080610418565b60405162461bcd60e51b81526004810185905260146024820152734e6f7420706172747920746f206469737075746560601b6044820152606490fd5b90506003820154163314856103ca565b3461017f575f36600319011261017f575f80600554905b81811061055057602083604051908152f35b60ff61055b826113b5565b9054600391821b1c6001600160a01b03165f90815260046020526040902001541661058f575b61058a90611493565b61053e565b9161059c61058a91611493565b929050610581565b3461017f5760208060031936011261017f57600435906105c2611424565b6040516263fa2760e01b81523360048201526001600160a01b03919081816024817f000000000000000000000000000000000000000000000000000000000000000087165afa9081156107c9575f916107f8575b50156107e6576305f5e10083106107d4576040516323b872dd60e01b81523360048201523060248201526044810184905281816064815f7f000000000000000000000000000000000000000000000000000000000000000088165af19081156107c9575f9161079c575b501561076057335f526004815260405f20918254156106e7575b506003826106ca857fc9626d754b3720da351a26831dc4d1481cb9f2dd7ec9ba5356f710bcf4354b599554611417565b815501805460ff191660011790556040519283523392a260015f55005b9160055490600160401b82101561074c577fc9626d754b3720da351a26831dc4d1481cb9f2dd7ec9ba5356f710bcf4354b599361072c836001600395016005556113b5565b8192915490851b9133831b921b191617905560646002820155925061069a565b634e487b7160e01b5f52604160045260245ffd5b6064906040519062461bcd60e51b82526004820152601560248201527414dd185ad9481d1c985b9cd9995c8819985a5b1959605a1b6044820152fd5b6107bc9150823d84116107c2575b6107b48183611203565b8101906113ff565b84610680565b503d6107aa565b6040513d5f823e3d90fd5b6040516378de4a6960e11b8152600490fd5b6040516329c1fbb960e01b8152600490fd5b61080f9150823d84116107c2576107b48183611203565b84610616565b3461017f575f36600319011261017f576020600254604051908152f35b3461017f5760a036600319011261017f576044356001600160a01b0381169081900361017f576064356001600160a01b0381169081900361017f5761088260018060a01b03600154163314611452565b6005805410610aff576002549161089883611493565b600255825f52600360205260405f209160043583556024356001840155600283016bffffffffffffffffffffffff60a01b928382541617905560038301918254161790556084356004820155600b810160ff199081815416905542600c830155600e82018181541690556032601083019182541617905560405160c0810181811067ffffffffffffffff82111761074c576040526005815260a03660208301375f926040514260208201524460408201526040815280606081011067ffffffffffffffff60608301111761074c576060810160405260208151910120906109826005548093611ae7565b905f5b83811080610af5575b15610a3b576109ae6109a9856109a48487611417565b611ae7565b6113b5565b60018060a01b0391549060031b1c16805f52600460205260405f2060ff6003820154169081610a2b575b506109ed575b506109e890611493565b610985565b8597919751821015610a175781610a109160206109e89460051b89010152611493565b96906109de565b634e487b7160e01b5f52603260045260245ffd5b6305f5e1009150541015896109d8565b508351600586018567ffffffffffffffff831161074c57600160401b831161074c576020908254848455808510610ada575b5001905f5260205f205f5b838110610abd57602085807f8092765f946b732cf44a3a396fe2854f71320d246c46d0f03ccb563fcbcc920e60408051600435815260243586820152a2604051908152f35b82516001600160a01b031681830155602090920191600101610a78565b610aef90845f5285845f2091820191016114a1565b85610a6d565b506005871061098e565b60405163325d6d3960e01b8152600490fd5b3461017f575f36600319011261017f576001546040516001600160a01b039091168152602090f35b3461017f575f36600319011261017f576040517f00000000000000000000000000000000000000000000000000000000000000006001600160a01b03168152602090f35b3461017f57602036600319011261017f57600435805f52600360205260405f20600c81015462093a808101809111610c0d57421115610bfb57600b015460ff166004811015610be757610bd557610bd3906114b7565b005b60405163453ee4f760e11b8152600490fd5b634e487b7160e01b5f52602160045260245ffd5b604051633fc30bd160e11b8152600490fd5b634e487b7160e01b5f52601160045260245ffd5b3461017f57604036600319011261017f57600435602435600381101561017f57815f52600360205260405f2090600c82015462093a808101809111610c0d574211610d8c5760068201335f528060205260ff60405f205416610d7a57610c873385611b05565b15610d6857335f5260205260405f2060ff19906001828254161790556007830160205260405f209081541660ff83161790555f9181155f14610d3a5760088101610cd18154611493565b90555b60405192610be75782610d2a9260059452847feba4866100b822f0f391e610e7edfab790b9e8766c0012733c26b2f1858e8dd760203393a3600a610d216008830154600984015490611417565b91015490611417565b14610d3157005b610bd3906114b7565b5f925060018203610d5a5760098101610d538154611493565b9055610cd4565b600a8101610d538154611493565b60405163aa17c98960e01b8152600490fd5b604051637c9a1cf960e01b8152600490fd5b604051637a19ed0560e01b8152600490fd5b3461017f57602036600319011261017f576004355f52600360205260405f208054600182015491600160a01b60019003908160028201541691600382015416600482015460088301546009840154600a850154600b86015460ff1691600c87015493600d88015495600e89015460ff1697600f8a01610e1c906112b3565b996010015460ff169a6040519d8e809e81526020015260408d015260608c015260808b015260a08a015260c089015260e08801526101008701610e5e91611354565b61012086015261014085015215156101608401526101c0806101808501528301610e8791611361565b906101a08301520390f35b3461017f5760208060031936011261017f576004355f5260038152600560405f2001604051908183825491828152019081925f52845f20905f5b86828210610f2a578686610ee282880383611203565b60405192839281840190828552518091526040840192915f5b828110610f0a57505050500390f35b83516001600160a01b031685528695509381019392810192600101610efb565b83546001600160a01b031685529093019260019283019201610ecc565b3461017f57606036600319011261017f5767ffffffffffffffff60243581811161017f57610f79903690600401611225565b6044359060ff821680920361017f57600190610f9f60018060a01b038354163314611452565b6004355f526020916003835260405f2092600f840192805196871161074c57610fc8845461127b565b601f811161107c575b5081601f881160011461101957509580928192601097985f9461100e575b50501b915f199060031b1c19161790555b01805460ff19169091179055005b015192508880610fef565b909691601f19831697855f52825f20925f905b8a821061106557505083601098991061104d575b505050811b019055611000565b01515f1960f88460031b161c19169055868080611040565b80878596829496860151815501950193019061102c565b6110a590855f52835f20601f8a0160051c810191858b106110ab575b601f0160051c01906114a1565b87610fd1565b9091508190611098565b3461017f5760208060031936011261017f57600435906110d3611424565b335f526004815260405f2080548381106107d4576110f6846305f5e10092611445565b808355106111f2575b5060405163a9059cbb60e01b81523360048201526024810183905281816044815f6001600160a01b037f0000000000000000000000000000000000000000000000000000000000000000165af19081156107c9575f916111d5575b5015611191577f610a1d949cc1ca7d4391b2530deda84f33b5f02dbd462643f21cd8a1b3cd573f906040519283523392a260015f55005b6064906040519062461bcd60e51b82526004820152601760248201527f556e7374616b65207472616e73666572206661696c65640000000000000000006044820152fd5b6111ec9150823d84116107c2576107b48183611203565b8361115a565b600301805460ff19169055826110ff565b90601f8019910116810190811067ffffffffffffffff82111761074c57604052565b81601f8201121561017f5780359067ffffffffffffffff821161074c576040519261125a601f8401601f191660200185611203565b8284526020838301011161017f57815f926020809301838601378301015290565b90600182811c921680156112a9575b602083101461129557565b634e487b7160e01b5f52602260045260245ffd5b91607f169161128a565b9060405191825f8254926112c68461127b565b9081845260019485811690815f1461133157506001146112f1575b50506112ef92500383611203565b565b909391505f52602090815f20935f915b8183106113195750506112ef93508201015f806112e1565b85548884018501529485019487945091830191611301565b9150506112ef94506020925060ff191682840152151560051b8201015f806112e1565b906004821015610be75752565b91908251928382525f5b84811061138b575050825f602080949584010152601f8019910116010190565b60208183018101518483018201520161136b565b600435906001600160a01b038216820361017f57565b600554811015610a175760055f527f036b6384b5eca791c62761152d0c79bb0604c104a5fb6f4eb0703f3154bb3db001905f90565b8054821015610a17575f5260205f2001905f90565b9081602091031261017f5751801515810361017f5790565b91908201809211610c0d57565b60025f54146114335760025f55565b604051633ee5aeb560e01b8152600490fd5b91908203918211610c0d57565b1561145957565b60405162461bcd60e51b81526020600482015260126024820152714f6e6c792050726f6a656374457363726f7760701b6044820152606490fd5b5f198114610c0d5760010190565b8181106114ac575050565b5f81556001016114a1565b805f526003602052807f2ffcfee146bc0d5ff304c6b65111a0d485af9456dc64eee7d66ebdcc90b223ea602060ff600b60405f206008810154600982015490818110159081611ad8575b5015611aa95750818101600184198254161790555b42600d82015501541661152c6040518092611354565ba2611535611424565b5f52600360205260405f2090600e8201805460ff8116611a975760ff1916600117905560048201549161156b600a840484611445565b600b82019060ff8254166004811015610be757600281036118dc575060028301546001600160a01b03165b6001600160a01b038116611809575b50505460ff166004811015610be757600181036117f257505f905b5f5b60058201548110156117e7576115db81600584016113ea565b60018060a01b0391549060031b1c1690815f526006830160205260ff60405f205416806117be575b156117515760405163a9059cbb60e01b81526001600160a01b03831660048201526005600a8804046024820152602081806044810103815f7f00000000000000000000000000000000000000000000000000000000000000006001600160a01b03165af19081156107c9575f91611732575b50156116f657815f526004602052600160405f20016116948154611493565b9055815f526004602052600260405f200191825492600584018411610c0d5760056116f1940190557fe34918ff1c7084970068b53fd71ad6d8b04e9f15d3886cbf006443e6cdc52ea660206040516005600a8b04048152a2611493565b6115c2565b60405162461bcd60e51b8152602060048201526014602482015273129d5c9bdc881c185e5b595b9d0819985a5b195960621b6044820152606490fd5b61174b915060203d6020116107c2576107b48183611203565b5f611675565b815f526006830160205260ff60405f205416611772575b6116f19150611493565b600460205260405f206002015491600a8311156117b25782600919810111610c0d576116f19260091901905b5f526004602052600260405f200155611768565b6116f192505f9061179e565b506007830160205260ff60405f2054166003851015610be7576003811015610be7578414611603565b505050905060015f55565b6002036118025760015b906115c0565b60026117fc565b60405163a9059cbb60e01b81526001600160a01b0390911660048201526024810191909152602081806044810103815f7f00000000000000000000000000000000000000000000000000000000000000006001600160a01b03165af19081156107c9575f916118bd575b5015611880575f806115a5565b60405162461bcd60e51b815260206004820152601560248201527415da5b9b995c881c185e5b595b9d0819985a5b1959605a1b6044820152606490fd5b6118d6915060203d6020116107c2576107b48183611203565b5f611873565b6003036118f65760038301546001600160a01b0316611596565b60ff601084015416808202908282041482151715610c0d576064900461191c8183611445565b600385015460405163a9059cbb60e01b8082526001600160a01b03928316600483015260248201949094529091907f00000000000000000000000000000000000000000000000000000000000000008316906020816044815f865af19081156107c9575f91611a78575b5015611a33576002870154604051948552929092166001600160a01b031660048401526024830152602090829060449082905f905af19081156107c9575f91611a14575b50156119d6575f611596565b60405162461bcd60e51b815260206004820152601660248201527510db1a595b9d081d1c985b9cd9995c8819985a5b195960521b6044820152606490fd5b611a2d915060203d6020116107c2576107b48183611203565b5f6119ca565b60405162461bcd60e51b815260206004820152601a60248201527f467265656c616e636572207472616e73666572206661696c65640000000000006044820152606490fd5b611a91915060203d6020116107c2576107b48183611203565b5f611986565b604051634805fe1160e01b8152600490fd5b600a8201541015611ac65781810160028419825416179055611516565b81810160038419825416179055611516565b9050600a83015411155f611501565b8115611af1570690565b634e487b7160e01b5f52601260045260245ffd5b5f526003908160205260405f209160055f93018054935b848110611b2c5750505050505f90565b611b3681836113ea565b905490841b1c6001600160a01b0390811690851614611b5d57611b5890611493565b611b1c565b505050505060019056fea2646970667358221220d7e336f8a32960b3c4e1550813f66b5594ba27c37cedc418287ea2f97f152cde64736f6c63430008140033","linkReferences":{}},"methodIdentifiers":{"JURORS_PER_CASE()":"df3b8ae3","MIN_STAKE()":"cb1c2b5c","VOTING_PERIOD()":"b1610d7e","activeJurors(uint256)":"e2da844d","castVote(uint256,uint8)":"56781388","createDispute(uint256,uint256,address,address,uint256)":"7adfe483","disputeCounter()":"7d36f4d3","disputes(uint256)":"564a565d","finalizeDispute(uint256)":"56989a83","getActiveJurorCount()":"9a97f2dd","getDispute(uint256)":"e3a96cbd","getDisputeJurors(uint256)":"47e2a6e6","getJurorInfo(address)":"eff2c3ec","jurors(address)":"dca5f6b0","projectEscrowAddress()":"70e0a9db","setAIReport(uint256,string,uint8)":"34b18f8d","setProjectEscrowAddress(address)":"f5b7e408","stablecoin()":"e9cbd822","stakeAsJuror(uint256)":"95152b84","submitEvidence(uint256,string)":"a6a7f0eb","unstake(uint256)":"2e17de78","userRegistry()":"5c7460d6"},"id":37}