{"abi":[{"type":"constructor","inputs":[{"name":"_stablecoin","type":"address","internalType":"address"},{"name":"_userRegistry","type":"address","internalType":"address"},{"name":"_agencyRegistry","type":"address","internalType":"address"},{"name":"_enterpriseAccess","type":"address","internalType":"address"}],"stateMutability":"nonpayable"},{"type":"function","name":"STABLECOIN","inputs":[],"outputs":[{"name":"","type":"address","internalType":"contract IERC20"}],"stateMutability":"view"},{"type":"function","name":"addMilestone","inputs":[{"name":"projectId","type":"uint256","internalType":"uint256"},{"name":"amount","type":"uint256","internalType":"uint256"},{"name":"description","type":"string","internalType":"string"}],"outputs":[],"stateMutability":"nonpayable"},{"type":"function","name":"agencyRegistry","inputs":[],"outputs":[{"name":"","type":"address","internalType":"contract AgencyRegistry"}],"stateMutability":"view"},{"type":"function","name":"approveMilestone","inputs":[{"name":"projectId","type":"uint256","internalType":"uint256"},{"name":"milestoneId","type":"uint256","internalType":"uint256"}],"outputs":[],"stateMutability":"nonpayable"},{"type":"function","name":"clientCancel","inputs":[{"name":"projectId","type":"uint256","internalType":"uint256"}],"outputs":[],"stateMutability":"nonpayable"},{"type":"function","name":"completeMilestone","inputs":[{"name":"projectId","type":"uint256","internalType":"uint256"},{"name":"milestoneId","type":"uint256","internalType":"uint256"}],"outputs":[],"stateMutability":"nonpayable"},{"type":"function","name":"createDispute","inputs":[{"name":"projectId","type":"uint256","internalType":"uint256"},{"name":"milestoneId","type":"uint256","internalType":"uint256"}],"outputs":[],"stateMutability":"nonpayable"},{"type":"function","name":"createProject","inputs":[{"name":"freelancer","type":"address","internalType":"address"},{"name":"milestoneAmounts","type":"uint256[]","internalType":"uint256[]"},{"name":"milestoneDescriptions","type":"string[]","internalType":"string[]"}],"outputs":[{"name":"","type":"uint256","internalType":"uint256"}],"stateMutability":"nonpayable"},{"type":"function","name":"disputeJuryAddress","inputs":[],"outputs":[{"name":"","type":"address","internalType":"address"}],"stateMutability":"view"},{"type":"function","name":"enterpriseAccess","inputs":[],"outputs":[{"name":"","type":"address","internalType":"contract EnterpriseAccess"}],"stateMutability":"view"},{"type":"function","name":"freelancerCancel","inputs":[{"name":"projectId","type":"uint256","internalType":"uint256"}],"outputs":[],"stateMutability":"nonpayable"},{"type":"function","name":"getMilestone","inputs":[{"name":"projectId","type":"uint256","internalType":"uint256"},{"name":"milestoneId","type":"uint256","internalType":"uint256"}],"outputs":[{"name":"","type":"tuple","internalType":"struct ProjectEscrow.Milestone","components":[{"name":"description","type":"string","internalType":"string"},{"name":"amount","type":"uint256","internalType":"uint256"},{"name":"status","type":"uint8","internalType":"enum ProjectEscrow.MilestoneStatus"},{"name":"completionTime","type":"uint256","internalType":"uint256"}]}],"stateMutability":"view"},{"type":"function","name":"getProject","inputs":[{"name":"projectId","type":"uint256","internalType":"uint256"}],"outputs":[{"name":"","type":"tuple","internalType":"struct ProjectEscrow.Project","components":[{"name":"projectId","type":"uint256","internalType":"uint256"},{"name":"client","type":"address","internalType":"address"},{"name":"freelancer","type":"address","internalType":"address"},{"name":"agencyId","type":"uint256","internalType":"uint256"},{"name":"totalAmount","type":"uint256","internalType":"uint256"},{"name":"amountPaid","type":"uint256","internalType":"uint256"},{"name":"status","type":"uint8","internalType":"enum ProjectEscrow.ProjectStatus"},{"name":"milestones","type":"tuple[]","internalType":"struct ProjectEscrow.Milestone[]","components":[{"name":"description","type":"string","internalType":"string"},{"name":"amount","type":"uint256","internalType":"uint256"},{"name":"status","type":"uint8","internalType":"enum ProjectEscrow.MilestoneStatus"},{"name":"completionTime","type":"uint256","internalType":"uint256"}]},{"name":"isEnterpriseProject","type":"bool","internalType":"bool"}]}],"stateMutability":"view"},{"type":"function","name":"projectCounter","inputs":[],"outputs":[{"name":"","type":"uint256","internalType":"uint256"}],"stateMutability":"view"},{"type":"function","name":"projects","inputs":[{"name":"","type":"uint256","internalType":"uint256"}],"outputs":[{"name":"projectId","type":"uint256","internalType":"uint256"},{"name":"client","type":"address","internalType":"address"},{"name":"freelancer","type":"address","internalType":"address"},{"name":"agencyId","type":"uint256","internalType":"uint256"},{"name":"totalAmount","type":"uint256","internalType":"uint256"},{"name":"amountPaid","type":"uint256","internalType":"uint256"},{"name":"status","type":"uint8","internalType":"enum ProjectEscrow.ProjectStatus"},{"name":"isEnterpriseProject","type":"bool","internalType":"bool"}],"stateMutability":"view"},{"type":"function","name":"setDisputeJuryAddress","inputs":[{"name":"_juryAddress","type":"address","internalType":"address"}],"outputs":[],"stateMutability":"nonpayable"},{"type":"function","name":"userRegistry","inputs":[],"outputs":[{"name":"","type":"address","internalType":"contract UserRegistry"}],"stateMutability":"view"},{"type":"event","name":"DisputeCreated","inputs":[{"name":"projectId","type":"uint256","indexed":true,"internalType":"uint256"},{"name":"milestoneId","type":"uint256","indexed":true,"internalType":"uint256"}],"anonymous":false},{"type":"event","name":"MilestoneAdded","inputs":[{"name":"projectId","type":"uint256","indexed":true,"internalType":"uint256"},{"name":"milestoneId","type":"uint256","indexed":true,"internalType":"uint256"},{"name":"amount","type":"uint256","indexed":false,"internalType":"uint256"}],"anonymous":false},{"type":"event","name":"MilestoneApproved","inputs":[{"name":"projectId","type":"uint256","indexed":true,"internalType":"uint256"},{"name":"milestoneId","type":"uint256","indexed":true,"internalType":"uint256"},{"name":"amount","type":"uint256","indexed":false,"internalType":"uint256"}],"anonymous":false},{"type":"event","name":"MilestoneCompleted","inputs":[{"name":"projectId","type":"uint256","indexed":true,"internalType":"uint256"},{"name":"milestoneId","type":"uint256","indexed":true,"internalType":"uint256"}],"anonymous":false},{"type":"event","name":"ProjectCancelled","inputs":[{"name":"projectId","type":"uint256","indexed":true,"internalType":"uint256"},{"name":"cancelledBy","type":"address","indexed":true,"internalType":"address"},{"name":"reason","type":"string","indexed":false,"internalType":"string"}],"anonymous":false},{"type":"event","name":"ProjectCreated","inputs":[{"name":"projectId","type":"uint256","indexed":true,"internalType":"uint256"},{"name":"client","type":"address","indexed":true,"internalType":"address"},{"name":"freelancer","type":"address","indexed":true,"internalType":"address"},{"name":"totalAmount","type":"uint256","indexed":false,"internalType":"uint256"}],"anonymous":false},{"type":"error","name":"InvalidAmount","inputs":[]},{"type":"error","name":"MilestoneNotCompleted","inputs":[]},{"type":"error","name":"MilestoneNotPending","inputs":[]},{"type":"error","name":"NotClient","inputs":[]},{"type":"error","name":"NotClientOrFreelancer","inputs":[]},{"type":"error","name":"NotFreelancer","inputs":[]},{"type":"error","name":"ProjectNotActive","inputs":[]},{"type":"error","name":"ReentrancyGuardReentrantCall","inputs":[]},{"type":"error","name":"Unauthorized","inputs":[]}],"bytecode":{"object":"0x60e0346200010757601f62001bbb38819003918201601f19168301916001600160401b038311848410176200010c5780849260809460405283398101031262000107576200004d8162000122565b906200005c6020820162000122565b91620000796060620000716040850162000122565b930162000122565b600160008190556001600160a01b0392831660805293821660a05291811660c05282546001600160a01b0319169116179055604051611a83908162000138823960805181818161078d015281816108d601528181610ab801528181610ec00152818161113b0152611415015260a051818181610649015281816109ad0152610f49015260c051816112450152f35b600080fd5b634e487b7160e01b600052604160045260246000fd5b51906001600160a01b0382168203620001075756fe6080604052600436101561001257600080fd5b6000803560e01c80630b397f7514611307578063107046bd14611274578063141bd4e01461122f5780631dbde11f1461107e57806320913da514610de15780635bb6b421146109dc5780635c7460d6146109975780637f0e5a791461096e5780638ed9895c1461090557806393a39776146108c05780639ae9b90014610882578063ad0deb0f146105b3578063f0f3f2c814610383578063f17010f51461035a578063f26999cd146101ef578063f326206b146100f85763f8a518ed146100d857600080fd5b346100f557806003193601126100f5576020600354604051908152f35b80fd5b50346100f557610107366115bf565b90610110611916565b80835260046020526040832060028101546001600160a01b031633036101dd5760ff600682015416610141816114ce565b6101cb5782600761015292016116b2565b5060028101805460ff811660048110156101b7576101a55760019060ff19161790556003429101557f1b7218c0ac23ea9cbe4df603d2b340fbf469a115b73ea3d11460727f445d6be18380a36001815580f35b6040516323a244ef60e11b8152600490fd5b634e487b7160e01b87526021600452602487fd5b604051637701967760e01b8152600490fd5b604051633832386960e11b8152600490fd5b50346100f5576101fe366115bf565b90610207611916565b808352600460205260408320600181019060018060a01b03808354163314158061034a575b6103385760ff600683015416610241816114ce565b6101cb578060025416156103275760a482876001610264896007602098016116b2565b509460028601600360ff198254161790556002818082541699541694015416940154956040519687958694637adfe48360e01b86528a60048701528b60248701526044860152606485015260848401525af1801561031c576102ed575b507ffa71779ecc1dd1ef48196a5af1776f8a748036653ce2b5b310ab5e31b61ca32b8380a36001815580f35b602090813d8111610315575b6103038183611551565b8101031261031157386102c1565b8280fd5b503d6102f9565b6040513d86823e3d90fd5b6040516282b42960e81b8152600490fd5b60405163114230c760e21b8152600490fd5b508060028301541633141561022c565b50346100f557806003193601126100f5576002546040516001600160a01b039091168152602090f35b50346100f55760203660031901126100f557806101006040516103a581611534565b8281528260208201528260408201528260608201528260808201528260a08201528260c0820152606060e0820152015260043581526004602052604081206040516103ef81611534565b8154815260018201546001600160a01b03908116602083015260028301541660408201526003820154606082015260048201546080820152600582015460a0820152600682015460ff16610442816114ce565b60c08201526007820191825467ffffffffffffffff811161059f576040949294519361047460208360051b0186611551565b81855283526020808420849186015b83831061057b5750505050600860ff9160e086019485520154169261010081019315158452604051926020845260c06101408501928051602087015260018060a01b03602082015116604087015260018060a01b03604082015116606087015260608101516080870152608081015160a087015260a081015182870152015161050b816114ce565b60e08501525191610120918261010086015283518091526101606020818701918360051b880101950192905b82821061054f57505050508293511515908301520390f35b9091929460208061056d60019361015f198b8203018652895161161c565b970192019201909291610537565b6004602060019261058e859b999b611975565b815201920192019190969496610483565b634e487b7160e01b85526041600452602485fd5b50346100f55760208060031936011261087e576004356105d1611916565b8083526004825260408320600280820180549091906001600160a01b0390811633036101dd57600684019384549460ff9081871661060e816114ce565b6101cb576007830180548b9a99988b9490929082865b106108085750505060ff1916851790558794939291908790838161075d575b925050507f00000000000000000000000000000000000000000000000000000000000000001692541690823b156107595760e4849283604051958694859363345cb5a360e11b85526004850152602484015288604484015260a06064840152601c60a48401527f467265656c616e6365722063616e63656c6c65642070726f6a6563740000000060c48401528160848401525af1801561074e5761073a575b505060146040519280845283015273119c99595b185b98d95c8818d85b98d95b1b195960621b60408301527f7b85b842ce22a6765659f11fecb5608ebfc550368f7367c640b644a27dc9809760603393a36001815580f35b61074390611520565b6103115782846106e2565b6040513d84823e3d90fd5b8380fd5b6001939093015460405163a9059cbb60e01b815293166001600160a01b03166004840152602483015281604481887f000000000000000000000000000000000000000000000000000000000000000087165af180156107fd576107c79186916107d0575b50611939565b87868183610643565b6107f09150883d8a116107f6575b6107e88183611551565b8101906118ba565b896107c1565b503d6107de565b6040513d87823e3d90fd5b60049d818a61081783866116b2565b500154169e8f101561086a578d9e9d9b9c9d15610845575b6108389061168d565b9d50828e9d9c9b9d610624565b956108626108389160016108598a876116b2565b500154906118ad565b96905061082f565b634e487b7160e01b8e52602160045260248efd5b5080fd5b50346100f55760203660031901126100f5576001600160a01b036108a46115d5565b166bffffffffffffffffffffffff60a01b600254161760025580f35b50346100f557806003193601126100f5576040517f00000000000000000000000000000000000000000000000000000000000000006001600160a01b03168152602090f35b50346100f55761095661095061096a9260076040610922366115bf565b93908160608451610932816114ee565b818152826020820152828682015201528152600460205220016116b2565b50611975565b60405191829160208352602083019061161c565b0390f35b50346100f557806003193601126100f5576001546040516001600160a01b039091168152602090f35b50346100f557806003193601126100f5576040517f00000000000000000000000000000000000000000000000000000000000000006001600160a01b03168152602090f35b50346100f55760603660031901126100f5576109f66115d5565b60243567ffffffffffffffff811161031157610a169036906004016115eb565b60449291923567ffffffffffffffff8111610c0e57610a399036906004016115eb565b939091610a44611916565b8015610dac57848103610d7357939091610a5f60035461168d565b948560035585875260046020526040872092879488935b838510610c6b5750506040516323b872dd60e01b8152336004820152306024820152604481018690526001600160a01b0394909350915060209050826064818a7f000000000000000000000000000000000000000000000000000000000000000088165af1918215610c6057602492610af6918991610c41575b506118d2565b85815560018101946bffffffffffffffffffffffff60a01b953387825416179055836002830191168096825416179055836004820155600681019060ff1991828154169055602084600154166040519485809263336033af60e11b82523360048301525afa928315610c36578893610c12575b506008019081541660ff83151516179055610bbc575b5092600191602094604051908152847ff03bc2e49a83d942284cb30e1c2935d4b542e1e1e6456d28b5365ddb110a52a2873393a455604051908152f35b60015416803b15610c0e5760405163328ae72760e21b8152336004820152602481018390529085908290604490829084905af180156107fd5715610b7f57610c048591611520565b6107595738610b7f565b8480fd5b6008919350610c2f9060203d6020116107f6576107e88183611551565b9290610b69565b6040513d8a823e3d90fd5b610c5a915060203d6020116107f6576107e88183611551565b38610af0565b6040513d89823e3d90fd5b90919293958660051b908184013515610d2e5784881015610d1a57908a9181840135601e19853603018112156107595784019167ffffffffffffffff8335116107595782353603602084011361075957610d02610d0b93610d1195610ce360405192610cd6846114ee565b3690602081359101611573565b8252838901356020830152806040830152606082015260078b0161171e565b850135906118ad565b9661168d565b93929190610a76565b634e487b7160e01b8b52603260045260248bfd5b60405162461bcd60e51b815260206004820152601c60248201527f4d696c6573746f6e6520616d6f756e74206d757374206265203e2030000000006044820152606490fd5b60405162461bcd60e51b81526020600482015260116024820152704d69736d6174636865642061727261797360781b6044820152606490fd5b60405162461bcd60e51b815260206004820152600d60248201526c4e6f206d696c6573746f6e657360981b6044820152606490fd5b50346100f557610df0366115bf565b610df8611916565b8183526004602090815260408420600180820154909492916001600160a01b03918216330361106c57600681019160ff835416610e34816114ce565b6101cb57610e4586600784016116b2565b50926002840180549460ff86166004811015611058578a03611046578991600260ff198098161790550193845493610e82600582019586546118ad565b8555600281018054875460405163a9059cbb60e01b81529187166001600160a01b03166004830152602482015290959088818e81806044810103918a7f0000000000000000000000000000000000000000000000000000000000000000165af190811561103b578d9161101e575b5015610fe857918a9160048d979695945491015414610f40575b505050505050907f6e3fd8bb18eed6833ae758e07c361bf145ce27c88bdf6d5029ddabf188d72ca69154604051908152a3815580f35b825416179055807f00000000000000000000000000000000000000000000000000000000000000001691541690803b1561031157606483926040519485938492636b33531160e01b845260048401528b60248401528960448401525af18015610c6057610fb3575b808080888a94610f0a565b95610fe07f6e3fd8bb18eed6833ae758e07c361bf145ce27c88bdf6d5029ddabf188d72ca6939297611520565b959091610fa8565b60405162461bcd60e51b815260048101899052600e60248201526d14185e5b595b9d0819985a5b195960921b6044820152606490fd5b6110359150893d8b116107f6576107e88183611551565b38610ef0565b6040513d8f823e3d90fd5b604051631ce7df1360e01b8152600490fd5b634e487b7160e01b8c52602160045260248cfd5b604051630836f21d60e21b8152600490fd5b50346100f55760603660031901126100f55760243560043560443567ffffffffffffffff81116107595736602382011215610759576110c7903690602481600401359101611573565b6110cf611916565b818452602090600482526040852060018060a01b039081600182015416330361106c5760ff600682015416611103816114ce565b6101cb57851561121d576040516323b872dd60e01b815233600482015230602482015260448101879052918490839060649082908b907f0000000000000000000000000000000000000000000000000000000000000000165af1918215610c605760049261117791899161120657506118d2565b6111a560078201936040519061118c826114ee565b815287868201528860408201528860608201528461171e565b016111b18582546118ad565b9055546000198101939084116111f257907f99c090ea4e24c09baf74da49bf4100be7de555b972b1e6e4f495989738093d7991604051908152a36001815580f35b634e487b7160e01b85526011600452602485fd5b610c5a9150863d88116107f6576107e88183611551565b60405163162908e360e11b8152600490fd5b50346100f557806003193601126100f5576040517f00000000000000000000000000000000000000000000000000000000000000006001600160a01b03168152602090f35b50346100f55760203660031901126100f557604061010091600435815260046020522080549060018060a01b03908160018201541691600282015416600382015460048301549060058401549260ff6008816006880154169601541695604051978852602088015260408701526060860152608085015260a08401526112f9816114ce565b60c0830152151560e0820152f35b50346100f55760208060031936011261087e5760043590611326611916565b81835260048152604083206001808201549093916001600160a01b03918216913383900361106c5760068201805460ff93848216611363816114ce565b6101cb57600701805488958b9594939290865b838110611473575050505060ff19166002179055816113e4575b505050506010604051928084528301526f10db1a595b9d0818d85b98d95b1b195960821b60408301527f7b85b842ce22a6765659f11fecb5608ebfc550368f7367c640b644a27dc9809760603393a3815580f35b60405163a9059cbb60e01b81526001600160a01b0394909416600485015260248401919091528290604490829089907f0000000000000000000000000000000000000000000000000000000000000000165af180156107fd5761144d9186916114565750611939565b38828180611390565b61146d9150843d86116107f6576107e88183611551565b386107c1565b90829394959697985060026114898383956116b2565b50015416600481101561086a57156114b3575b6114a59061168d565b908a97969594939291611376565b966114c66114a5918d6108598b876116b2565b97905061149c565b600311156114d857565b634e487b7160e01b600052602160045260246000fd5b6080810190811067ffffffffffffffff82111761150a57604052565b634e487b7160e01b600052604160045260246000fd5b67ffffffffffffffff811161150a57604052565b610120810190811067ffffffffffffffff82111761150a57604052565b90601f8019910116810190811067ffffffffffffffff82111761150a57604052565b92919267ffffffffffffffff821161150a576040519161159d601f8201601f191660200184611551565b8294818452818301116115ba578281602093846000960137010152565b600080fd5b60409060031901126115ba576004359060243590565b600435906001600160a01b03821682036115ba57565b9181601f840112156115ba5782359167ffffffffffffffff83116115ba576020808501948460051b0101116115ba57565b9081516080825280519081608084015260005b828110611677575050600060a0828401015260208301516020830152604083015160048110156114d85760a093606091604085015201516060830152601f8019910116010190565b80602080928401015160a082870101520161162f565b600019811461169c5760010190565b634e487b7160e01b600052601160045260246000fd5b80548210156116ce5760005260206000209060021b0190600090565b634e487b7160e01b600052603260045260246000fd5b90600182811c92168015611714575b60208310146116fe57565b634e487b7160e01b600052602260045260246000fd5b91607f16916116f3565b9081546801000000000000000081101561150a576117439060019384820181556116b2565b92909261189757815180519067ffffffffffffffff821161150a57819061176a86546116e4565b601f8111611841575b50602090601f83116001146117de576000926117d3575b5050600019600383901b1c191690821b1783555b6020820151908301556040810151600283019160048210156114d85760039260609260ff801983541691161790550151910155565b01519050388061178a565b90849350601f1983169187600052816000209260005b81811061182957508411611810575b505050811b01835561179e565b015160001960f88460031b161c19169055388080611803565b828401518555879690940193602093840193016117f4565b909150600086815260208120601f850160051c8101926020861061188d575b8594939291601f88920160051c01925b83811061187f57505050611773565b828155869550879101611870565b9092508290611860565b634e487b7160e01b600052600060045260246000fd5b9190820180921161169c57565b908160209103126115ba575180151581036115ba5790565b156118d957565b60405162461bcd60e51b8152602060048201526015602482015274151bdad95b881d1c985b9cd9995c8819985a5b1959605a1b6044820152606490fd5b600260005414611927576002600055565b604051633ee5aeb560e01b8152600490fd5b1561194057565b60405162461bcd60e51b815260206004820152600d60248201526c1499599d5b990819985a5b1959609a1b6044820152606490fd5b90604051611982816114ee565b809260405160009082549181611997846116e4565b918282526001948581169081600014611a2e57506001146119ec575b6119bf92500382611551565b8352810154602083015260ff60028201541660048110156114d85760609160039160408501520154910152565b505083600052816020918260002090856000925b828410611a1757505050916119bf928201016119b3565b805487850187015286945092850192879101611a00565b602092506119bf94915060ff191682840152151560051b8201016119b356fea26469706673582212201269a87f3fdcc889a5b2be310268e8c487a8a3660587139bdd0078ff3cec67de64736f6c63430008140033","linkReferences":{}},"methodIdentifiers":{"STABLECOIN()":"93a39776","addMilestone(uint256,uint256,string)":"1dbde11f","agencyRegistry()":"141bd4e0","approveMilestone(uint256,uint256)":"20913da5","clientCancel(uint256)":"0b397f75","completeMilestone(uint256,uint256)":"f326206b","createDispute(uint256,uint256)":"f26999cd","createProject(address,uint256[],string[])":"5bb6b421","disputeJuryAddress()":"f17010f5","enterpriseAccess()":"7f0e5a79","freelancerCancel(uint256)":"ad0deb0f","getMilestone(uint256,uint256)":"8ed9895c","getProject(uint256)":"f0f3f2c8","projectCounter()":"f8a518ed","projects(uint256)":"107046bd","setDisputeJuryAddress(address)":"9ae9b900","userRegistry()":"5c7460d6"},"id":41}