{"abi":[{"type":"constructor","inputs":[{"name":"_stablecoin","type":"address","internalType":"address"},{"name":"_userRegistry","type":"address","internalType":"address"},{"name":"_agencyRegistry","type":"address","internalType":"address"},{"name":"_enterpriseAccess","type":"address","internalType":"address"}],"stateMutability":"nonpayable"},{"type":"function","name":"addMilestone","inputs":[{"name":"projectId","type":"uint256","internalType":"uint256"},{"name":"amount","type":"uint256","internalType":"uint256"},{"name":"description","type":"string","internalType":"string"}],"outputs":[],"stateMutability":"nonpayable"},{"type":"function","name":"agencyRegistry","inputs":[],"outputs":[{"name":"","type":"address","internalType":"contract AgencyRegistry"}],"stateMutability":"view"},{"type":"function","name":"approveMilestone","inputs":[{"name":"projectId","type":"uint256","internalType":"uint256"},{"name":"milestoneId","type":"uint256","internalType":"uint256"}],"outputs":[],"stateMutability":"nonpayable"},{"type":"function","name":"clientCancel","inputs":[{"name":"projectId","type":"uint256","internalType":"uint256"}],"outputs":[],"stateMutability":"nonpayable"},{"type":"function","name":"completeMilestone","inputs":[{"name":"projectId","type":"uint256","internalType":"uint256"},{"name":"milestoneId","type":"uint256","internalType":"uint256"}],"outputs":[],"stateMutability":"nonpayable"},{"type":"function","name":"createDispute","inputs":[{"name":"projectId","type":"uint256","internalType":"uint256"},{"name":"milestoneId","type":"uint256","internalType":"uint256"}],"outputs":[],"stateMutability":"nonpayable"},{"type":"function","name":"createProject","inputs":[{"name":"freelancer","type":"address","internalType":"address"},{"name":"milestoneAmounts","type":"uint256[]","internalType":"uint256[]"},{"name":"milestoneDescriptions","type":"string[]","internalType":"string[]"}],"outputs":[{"name":"","type":"uint256","internalType":"uint256"}],"stateMutability":"nonpayable"},{"type":"function","name":"disputeJuryAddress","inputs":[],"outputs":[{"name":"","type":"address","internalType":"address"}],"stateMutability":"view"},{"type":"function","name":"enterpriseAccess","inputs":[],"outputs":[{"name":"","type":"address","internalType":"contract EnterpriseAccess"}],"stateMutability":"view"},{"type":"function","name":"freelancerCancel","inputs":[{"name":"projectId","type":"uint256","internalType":"uint256"}],"outputs":[],"stateMutability":"nonpayable"},{"type":"function","name":"getMilestone","inputs":[{"name":"projectId","type":"uint256","internalType":"uint256"},{"name":"milestoneId","type":"uint256","internalType":"uint256"}],"outputs":[{"name":"","type":"tuple","internalType":"struct ProjectEscrow.Milestone","components":[{"name":"description","type":"string","internalType":"string"},{"name":"amount","type":"uint256","internalType":"uint256"},{"name":"status","type":"uint8","internalType":"enum ProjectEscrow.MilestoneStatus"},{"name":"completionTime","type":"uint256","internalType":"uint256"}]}],"stateMutability":"view"},{"type":"function","name":"getProject","inputs":[{"name":"projectId","type":"uint256","internalType":"uint256"}],"outputs":[{"name":"","type":"tuple","internalType":"struct ProjectEscrow.Project","components":[{"name":"projectId","type":"uint256","internalType":"uint256"},{"name":"client","type":"address","internalType":"address"},{"name":"freelancer","type":"address","internalType":"address"},{"name":"agencyId","type":"uint256","internalType":"uint256"},{"name":"totalAmount","type":"uint256","internalType":"uint256"},{"name":"amountPaid","type":"uint256","internalType":"uint256"},{"name":"status","type":"uint8","internalType":"enum ProjectEscrow.ProjectStatus"},{"name":"milestones","type":"tuple[]","internalType":"struct ProjectEscrow.Milestone[]","components":[{"name":"description","type":"string","internalType":"string"},{"name":"amount","type":"uint256","internalType":"uint256"},{"name":"status","type":"uint8","internalType":"enum ProjectEscrow.MilestoneStatus"},{"name":"completionTime","type":"uint256","internalType":"uint256"}]},{"name":"isEnterpriseProject","type":"bool","internalType":"bool"}]}],"stateMutability":"view"},{"type":"function","name":"projectCounter","inputs":[],"outputs":[{"name":"","type":"uint256","internalType":"uint256"}],"stateMutability":"view"},{"type":"function","name":"projects","inputs":[{"name":"","type":"uint256","internalType":"uint256"}],"outputs":[{"name":"projectId","type":"uint256","internalType":"uint256"},{"name":"client","type":"address","internalType":"address"},{"name":"freelancer","type":"address","internalType":"address"},{"name":"agencyId","type":"uint256","internalType":"uint256"},{"name":"totalAmount","type":"uint256","internalType":"uint256"},{"name":"amountPaid","type":"uint256","internalType":"uint256"},{"name":"status","type":"uint8","internalType":"enum ProjectEscrow.ProjectStatus"},{"name":"isEnterpriseProject","type":"bool","internalType":"bool"}],"stateMutability":"view"},{"type":"function","name":"setDisputeJuryAddress","inputs":[{"name":"_juryAddress","type":"address","internalType":"address"}],"outputs":[],"stateMutability":"nonpayable"},{"type":"function","name":"stablecoin","inputs":[],"outputs":[{"name":"","type":"address","internalType":"contract IERC20"}],"stateMutability":"view"},{"type":"function","name":"userRegistry","inputs":[],"outputs":[{"name":"","type":"address","internalType":"contract UserRegistry"}],"stateMutability":"view"},{"type":"event","name":"DisputeCreated","inputs":[{"name":"projectId","type":"uint256","indexed":true,"internalType":"uint256"},{"name":"milestoneId","type":"uint256","indexed":true,"internalType":"uint256"}],"anonymous":false},{"type":"event","name":"MilestoneAdded","inputs":[{"name":"projectId","type":"uint256","indexed":true,"internalType":"uint256"},{"name":"milestoneId","type":"uint256","indexed":true,"internalType":"uint256"},{"name":"amount","type":"uint256","indexed":false,"internalType":"uint256"}],"anonymous":false},{"type":"event","name":"MilestoneApproved","inputs":[{"name":"projectId","type":"uint256","indexed":true,"internalType":"uint256"},{"name":"milestoneId","type":"uint256","indexed":true,"internalType":"uint256"},{"name":"amount","type":"uint256","indexed":false,"internalType":"uint256"}],"anonymous":false},{"type":"event","name":"MilestoneCompleted","inputs":[{"name":"projectId","type":"uint256","indexed":true,"internalType":"uint256"},{"name":"milestoneId","type":"uint256","indexed":true,"internalType":"uint256"}],"anonymous":false},{"type":"event","name":"ProjectCancelled","inputs":[{"name":"projectId","type":"uint256","indexed":true,"internalType":"uint256"},{"name":"cancelledBy","type":"address","indexed":true,"internalType":"address"},{"name":"reason","type":"string","indexed":false,"internalType":"string"}],"anonymous":false},{"type":"event","name":"ProjectCreated","inputs":[{"name":"projectId","type":"uint256","indexed":true,"internalType":"uint256"},{"name":"client","type":"address","indexed":true,"internalType":"address"},{"name":"freelancer","type":"address","indexed":true,"internalType":"address"},{"name":"totalAmount","type":"uint256","indexed":false,"internalType":"uint256"}],"anonymous":false},{"type":"error","name":"InvalidAmount","inputs":[]},{"type":"error","name":"MilestoneNotCompleted","inputs":[]},{"type":"error","name":"MilestoneNotPending","inputs":[]},{"type":"error","name":"NotClient","inputs":[]},{"type":"error","name":"NotClientOrFreelancer","inputs":[]},{"type":"error","name":"NotFreelancer","inputs":[]},{"type":"error","name":"ProjectNotActive","inputs":[]},{"type":"error","name":"ReentrancyGuardReentrantCall","inputs":[]},{"type":"error","name":"Unauthorized","inputs":[]}],"bytecode":{"object":"0x60e0346200010657601f62001b9038819003918201601f19168301916001600160401b038311848410176200010a5780849260809460405283398101031262000106576200004d816200011e565b906200005c602082016200011e565b9162000079606062000071604085016200011e565b93016200011e565b60015f8190556001600160a01b0392831660805293821660a05291811660c05282546001600160a01b0319169116179055604051611a5c90816200013482396080518181816105c6015281816107cf01528181610ab501528181610ebd015281816111380152611411015260a05181818161068b015281816109aa0152610f46015260c051816112410152f35b5f80fd5b634e487b7160e01b5f52604160045260245ffd5b51906001600160a01b0382168203620001065756fe60806040526004361015610011575f80fd5b5f803560e01c80630b397f7514611303578063107046bd14611270578063141bd4e01461122b5780631dbde11f1461107b57806320913da514610dde5780635bb6b421146109d95780635c7460d6146109945780637f0e5a791461096b5780638ed9895c146109025780639ae9b900146108c4578063ad0deb0f146105f5578063e9cbd822146105b0578063f0f3f2c814610380578063f17010f514610357578063f26999cd146101ec578063f326206b146100f55763f8a518ed146100d5575f80fd5b346100f257806003193601126100f2576020600354604051908152f35b80fd5b50346100f257610104366115b5565b9061010d6118f6565b80835260046020526040832060028101546001600160a01b031633036101da5760ff60068201541661013e816114ca565b6101c85782600761014f92016116a3565b5060028101805460ff811660048110156101b4576101a25760019060ff19161790556003429101557f1b7218c0ac23ea9cbe4df603d2b340fbf469a115b73ea3d11460727f445d6be18380a36001815580f35b6040516323a244ef60e11b8152600490fd5b634e487b7160e01b87526021600452602487fd5b604051637701967760e01b8152600490fd5b604051633832386960e11b8152600490fd5b50346100f2576101fb366115b5565b906102046118f6565b808352600460205260408320600181019060018060a01b038083541633141580610347575b6103355760ff60068301541661023e816114ca565b6101c8578060025416156103245760a482876001610261896007602098016116a3565b509460028601600360ff198254161790556002818082541699541694015416940154956040519687958694637adfe48360e01b86528a60048701528b60248701526044860152606485015260848401525af18015610319576102ea575b507ffa71779ecc1dd1ef48196a5af1776f8a748036653ce2b5b310ab5e31b61ca32b8380a36001815580f35b602090813d8111610312575b6103008183611549565b8101031261030e575f6102be565b8280fd5b503d6102f6565b6040513d86823e3d90fd5b6040516282b42960e81b8152600490fd5b60405163114230c760e21b8152600490fd5b5080600283015416331415610229565b50346100f257806003193601126100f2576002546040516001600160a01b039091168152602090f35b50346100f25760203660031901126100f257806101006040516103a28161152c565b8281528260208201528260408201528260608201528260808201528260a08201528260c0820152606060e0820152015260043581526004602052604081206040516103ec8161152c565b8154815260018201546001600160a01b03908116602083015260028301541660408201526003820154606082015260048201546080820152600582015460a0820152600682015460ff1661043f816114ca565b60c08201526007820191825467ffffffffffffffff811161059c576040949294519361047160208360051b0186611549565b81855283526020808420849186015b8383106105785750505050600860ff9160e086019485520154169261010081019315158452604051926020845260c06101408501928051602087015260018060a01b03602082015116604087015260018060a01b03604082015116606087015260608101516080870152608081015160a087015260a0810151828701520151610508816114ca565b60e08501525191610120918261010086015283518091526101606020818701918360051b880101950192905b82821061054c57505050508293511515908301520390f35b9091929460208061056a60019361015f198b82030186528951611612565b970192019201909291610534565b6004602060019261058b859b999b611953565b815201920192019190969496610480565b634e487b7160e01b85526041600452602485fd5b50346100f257806003193601126100f2576040517f00000000000000000000000000000000000000000000000000000000000000006001600160a01b03168152602090f35b50346100f2576020806003193601126108c0576004356106136118f6565b8083526004825260408320600280820180549091906001600160a01b0390811633036101da57600684019384549460ff90818716610650816114ca565b6101c8576007830180548b9a99988b9490929082865b1061084a5750505060ff1916851790558794939291908790838161079f575b925050507f00000000000000000000000000000000000000000000000000000000000000001692541690823b1561079b5760e4849283604051958694859363345cb5a360e11b85526004850152602484015288604484015260a06064840152601c60a48401527f467265656c616e6365722063616e63656c6c65642070726f6a6563740000000060c48401528160848401525af180156107905761077c575b505060146040519280845283015273119c99595b185b98d95c8818d85b98d95b1b195960621b60408301527f7b85b842ce22a6765659f11fecb5608ebfc550368f7367c640b644a27dc9809760603393a36001815580f35b61078590611518565b61030e578284610724565b6040513d84823e3d90fd5b8380fd5b6001939093015460405163a9059cbb60e01b815293166001600160a01b03166004840152602483015281604481887f000000000000000000000000000000000000000000000000000000000000000087165af1801561083f57610809918691610812575b50611917565b87868183610685565b6108329150883d8a11610838575b61082a8183611549565b81019061189a565b89610803565b503d610820565b6040513d87823e3d90fd5b60049d818a61085983866116a3565b500154169e8f10156108ac578d9e9d9b9c9d15610887575b61087a90611681565b9d50828e9d9c9b9d610666565b956108a461087a91600161089b8a876116a3565b5001549061188d565b969050610871565b634e487b7160e01b8e52602160045260248efd5b5080fd5b50346100f25760203660031901126100f2576001600160a01b036108e66115cb565b166bffffffffffffffffffffffff60a01b600254161760025580f35b50346100f25761095361094d610967926007604061091f366115b5565b9390816060845161092f816114e8565b818152826020820152828682015201528152600460205220016116a3565b50611953565b604051918291602083526020830190611612565b0390f35b50346100f257806003193601126100f2576001546040516001600160a01b039091168152602090f35b50346100f257806003193601126100f2576040517f00000000000000000000000000000000000000000000000000000000000000006001600160a01b03168152602090f35b50346100f25760603660031901126100f2576109f36115cb565b60243567ffffffffffffffff811161030e57610a139036906004016115e1565b60449291923567ffffffffffffffff8111610c0b57610a369036906004016115e1565b939091610a416118f6565b8015610da957848103610d7057939091610a5c600354611681565b948560035585875260046020526040872092879488935b838510610c685750506040516323b872dd60e01b8152336004820152306024820152604481018690526001600160a01b0394909350915060209050826064818a7f000000000000000000000000000000000000000000000000000000000000000088165af1918215610c5d57602492610af3918991610c3e575b506118b2565b85815560018101946bffffffffffffffffffffffff60a01b953387825416179055836002830191168096825416179055836004820155600681019060ff1991828154169055602084600154166040519485809263336033af60e11b82523360048301525afa928315610c33578893610c0f575b506008019081541660ff83151516179055610bb9575b5092600191602094604051908152847ff03bc2e49a83d942284cb30e1c2935d4b542e1e1e6456d28b5365ddb110a52a2873393a455604051908152f35b60015416803b15610c0b5760405163328ae72760e21b8152336004820152602481018390529085908290604490829084905af1801561083f5715610b7c57610c018591611518565b61079b575f610b7c565b8480fd5b6008919350610c2c9060203d6020116108385761082a8183611549565b9290610b66565b6040513d8a823e3d90fd5b610c57915060203d6020116108385761082a8183611549565b5f610aed565b6040513d89823e3d90fd5b90919293958660051b908184013515610d2b5784881015610d1757908a9181840135601e198536030181121561079b5784019167ffffffffffffffff83351161079b5782353603602084011361079b57610cff610d0893610d0e95610ce060405192610cd3846114e8565b369060208135910161156b565b8252838901356020830152806040830152606082015260078b01611708565b8501359061188d565b96611681565b93929190610a73565b634e487b7160e01b8b52603260045260248bfd5b60405162461bcd60e51b815260206004820152601c60248201527f4d696c6573746f6e6520616d6f756e74206d757374206265203e2030000000006044820152606490fd5b60405162461bcd60e51b81526020600482015260116024820152704d69736d6174636865642061727261797360781b6044820152606490fd5b60405162461bcd60e51b815260206004820152600d60248201526c4e6f206d696c6573746f6e657360981b6044820152606490fd5b50346100f257610ded366115b5565b610df56118f6565b8183526004602090815260408420600180820154909492916001600160a01b03918216330361106957600681019160ff835416610e31816114ca565b6101c857610e4286600784016116a3565b50926002840180549460ff86166004811015611055578a03611043578991600260ff198098161790550193845493610e7f6005820195865461188d565b8555600281018054875460405163a9059cbb60e01b81529187166001600160a01b03166004830152602482015290959088818e81806044810103918a7f0000000000000000000000000000000000000000000000000000000000000000165af1908115611038578d9161101b575b5015610fe557918a9160048d979695945491015414610f3d575b505050505050907f6e3fd8bb18eed6833ae758e07c361bf145ce27c88bdf6d5029ddabf188d72ca69154604051908152a3815580f35b825416179055807f00000000000000000000000000000000000000000000000000000000000000001691541690803b1561030e57606483926040519485938492636b33531160e01b845260048401528b60248401528960448401525af18015610c5d57610fb0575b808080888a94610f07565b95610fdd7f6e3fd8bb18eed6833ae758e07c361bf145ce27c88bdf6d5029ddabf188d72ca6939297611518565b959091610fa5565b60405162461bcd60e51b815260048101899052600e60248201526d14185e5b595b9d0819985a5b195960921b6044820152606490fd5b6110329150893d8b116108385761082a8183611549565b5f610eed565b6040513d8f823e3d90fd5b604051631ce7df1360e01b8152600490fd5b634e487b7160e01b8c52602160045260248cfd5b604051630836f21d60e21b8152600490fd5b50346100f25760603660031901126100f25760243560043560443567ffffffffffffffff811161079b573660238201121561079b576110c490369060248160040135910161156b565b6110cc6118f6565b818452602090600482526040852060018060a01b03908160018201541633036110695760ff600682015416611100816114ca565b6101c8578515611219576040516323b872dd60e01b815233600482015230602482015260448101879052918490839060649082908b907f0000000000000000000000000000000000000000000000000000000000000000165af1918215610c5d5760049261117491899161120257506118b2565b6111a2600782019360405190611189826114e8565b8152878682015288604082015288606082015284611708565b016111ae85825461188d565b9055545f198101939084116111ee57907f99c090ea4e24c09baf74da49bf4100be7de555b972b1e6e4f495989738093d7991604051908152a36001815580f35b634e487b7160e01b85526011600452602485fd5b610c579150863d88116108385761082a8183611549565b60405163162908e360e11b8152600490fd5b50346100f257806003193601126100f2576040517f00000000000000000000000000000000000000000000000000000000000000006001600160a01b03168152602090f35b50346100f25760203660031901126100f257604061010091600435815260046020522080549060018060a01b03908160018201541691600282015416600382015460048301549060058401549260ff6008816006880154169601541695604051978852602088015260408701526060860152608085015260a08401526112f5816114ca565b60c0830152151560e0820152f35b50346100f2576020806003193601126108c057600435906113226118f6565b81835260048152604083206001808201549093916001600160a01b0391821691338390036110695760068201805460ff9384821661135f816114ca565b6101c857600701805488958b9594939290865b83811061146f575050505060ff19166002179055816113e0575b505050506010604051928084528301526f10db1a595b9d0818d85b98d95b1b195960821b60408301527f7b85b842ce22a6765659f11fecb5608ebfc550368f7367c640b644a27dc9809760603393a3815580f35b60405163a9059cbb60e01b81526001600160a01b0394909416600485015260248401919091528290604490829089907f0000000000000000000000000000000000000000000000000000000000000000165af1801561083f576114499186916114525750611917565b5f82818061138c565b6114699150843d86116108385761082a8183611549565b5f610803565b90829394959697985060026114858383956116a3565b5001541660048110156108ac57156114af575b6114a190611681565b908a97969594939291611372565b966114c26114a1918d61089b8b876116a3565b979050611498565b600311156114d457565b634e487b7160e01b5f52602160045260245ffd5b6080810190811067ffffffffffffffff82111761150457604052565b634e487b7160e01b5f52604160045260245ffd5b67ffffffffffffffff811161150457604052565b610120810190811067ffffffffffffffff82111761150457604052565b90601f8019910116810190811067ffffffffffffffff82111761150457604052565b92919267ffffffffffffffff82116115045760405191611595601f8201601f191660200184611549565b8294818452818301116115b1578281602093845f960137010152565b5f80fd5b60409060031901126115b1576004359060243590565b600435906001600160a01b03821682036115b157565b9181601f840112156115b15782359167ffffffffffffffff83116115b1576020808501948460051b0101116115b157565b908151608082528051908160808401525f5b82811061166b5750505f60a0828401015260208301516020830152604083015160048110156114d45760a093606091604085015201516060830152601f8019910116010190565b80602080928401015160a0828701015201611624565b5f19811461168f5760010190565b634e487b7160e01b5f52601160045260245ffd5b80548210156116bc575f5260205f209060021b01905f90565b634e487b7160e01b5f52603260045260245ffd5b90600182811c921680156116fe575b60208310146116ea57565b634e487b7160e01b5f52602260045260245ffd5b91607f16916116df565b908154680100000000000000008110156115045761172d9060019384820181556116a3565b92909261187a57815180519067ffffffffffffffff821161150457819061175486546116d0565b601f8111611825575b50602090601f83116001146117c6575f926117bb575b50505f19600383901b1c191690821b1783555b6020820151908301556040810151600283019160048210156114d45760039260609260ff801983541691161790550151910155565b015190505f80611773565b90849350601f19831691875f52815f20925f5b81811061180d575084116117f5575b505050811b018355611786565b01515f1960f88460031b161c191690555f80806117e8565b828401518555879690940193602093840193016117d9565b9091505f86815260208120601f850160051c81019260208610611870575b8594939291601f88920160051c01925b8381106118625750505061175d565b828155869550879101611853565b9092508290611843565b634e487b7160e01b5f525f60045260245ffd5b9190820180921161168f57565b908160209103126115b1575180151581036115b15790565b156118b957565b60405162461bcd60e51b8152602060048201526015602482015274151bdad95b881d1c985b9cd9995c8819985a5b1959605a1b6044820152606490fd5b60025f54146119055760025f55565b604051633ee5aeb560e01b8152600490fd5b1561191e57565b60405162461bcd60e51b815260206004820152600d60248201526c1499599d5b990819985a5b1959609a1b6044820152606490fd5b90604051611960816114e8565b80926040515f9082549181611974846116d0565b9182825260019485811690815f14611a0757506001146119c8575b61199b92500382611549565b8352810154602083015260ff60028201541660048110156114d45760609160039160408501520154910152565b5050835f5281602091825f2090855f925b8284106119f0575050509161199b9282010161198f565b8054878501870152869450928501928791016119d9565b6020925061199b94915060ff191682840152151560051b82010161198f56fea26469706673582212207af6da78784a8be7cf3acfd31fc74c248877472aa50aa36959b832963f90f1a164736f6c63430008140033","linkReferences":{}},"methodIdentifiers":{"addMilestone(uint256,uint256,string)":"1dbde11f","agencyRegistry()":"141bd4e0","approveMilestone(uint256,uint256)":"20913da5","clientCancel(uint256)":"0b397f75","completeMilestone(uint256,uint256)":"f326206b","createDispute(uint256,uint256)":"f26999cd","createProject(address,uint256[],string[])":"5bb6b421","disputeJuryAddress()":"f17010f5","enterpriseAccess()":"7f0e5a79","freelancerCancel(uint256)":"ad0deb0f","getMilestone(uint256,uint256)":"8ed9895c","getProject(uint256)":"f0f3f2c8","projectCounter()":"f8a518ed","projects(uint256)":"107046bd","setDisputeJuryAddress(address)":"9ae9b900","stablecoin()":"e9cbd822","userRegistry()":"5c7460d6"},"id":41}