{"abi":[{"type":"constructor","inputs":[{"name":"_stablecoin","type":"address","internalType":"address"},{"name":"_userRegistry","type":"address","internalType":"address"}],"stateMutability":"nonpayable"},{"type":"function","name":"MIN_MILESTONES","inputs":[],"outputs":[{"name":"","type":"uint256","internalType":"uint256"}],"stateMutability":"view"},{"type":"function","name":"approveMilestone","inputs":[{"name":"projectId","type":"uint256","internalType":"uint256"},{"name":"milestoneIndex","type":"uint256","internalType":"uint256"}],"outputs":[],"stateMutability":"nonpayable"},{"type":"function","name":"cancelProject","inputs":[{"name":"projectId","type":"uint256","internalType":"uint256"}],"outputs":[],"stateMutability":"nonpayable"},{"type":"function","name":"completeMilestone","inputs":[{"name":"projectId","type":"uint256","internalType":"uint256"},{"name":"milestoneIndex","type":"uint256","internalType":"uint256"}],"outputs":[],"stateMutability":"nonpayable"},{"type":"function","name":"createProject","inputs":[{"name":"freelancer","type":"address","internalType":"address"},{"name":"milestoneAmounts","type":"uint256[]","internalType":"uint256[]"},{"name":"milestoneDescriptions","type":"string[]","internalType":"string[]"}],"outputs":[{"name":"","type":"uint256","internalType":"uint256"}],"stateMutability":"nonpayable"},{"type":"function","name":"disputeJuryAddress","inputs":[],"outputs":[{"name":"","type":"address","internalType":"address"}],"stateMutability":"view"},{"type":"function","name":"disputeMilestone","inputs":[{"name":"projectId","type":"uint256","internalType":"uint256"},{"name":"milestoneIndex","type":"uint256","internalType":"uint256"}],"outputs":[],"stateMutability":"nonpayable"},{"type":"function","name":"getMilestone","inputs":[{"name":"projectId","type":"uint256","internalType":"uint256"},{"name":"milestoneIndex","type":"uint256","internalType":"uint256"}],"outputs":[{"name":"amount","type":"uint256","internalType":"uint256"},{"name":"description","type":"string","internalType":"string"},{"name":"status","type":"uint8","internalType":"enum ProjectEscrow.MilestoneStatus"},{"name":"completedAt","type":"uint256","internalType":"uint256"}],"stateMutability":"view"},{"type":"function","name":"getProject","inputs":[{"name":"projectId","type":"uint256","internalType":"uint256"}],"outputs":[{"name":"client","type":"address","internalType":"address"},{"name":"freelancer","type":"address","internalType":"address"},{"name":"totalAmount","type":"uint256","internalType":"uint256"},{"name":"releasedAmount","type":"uint256","internalType":"uint256"},{"name":"isActive","type":"bool","internalType":"bool"},{"name":"milestoneCount","type":"uint256","internalType":"uint256"}],"stateMutability":"view"},{"type":"function","name":"projectCounter","inputs":[],"outputs":[{"name":"","type":"uint256","internalType":"uint256"}],"stateMutability":"view"},{"type":"function","name":"projects","inputs":[{"name":"","type":"uint256","internalType":"uint256"}],"outputs":[{"name":"client","type":"address","internalType":"address"},{"name":"freelancer","type":"address","internalType":"address"},{"name":"totalAmount","type":"uint256","internalType":"uint256"},{"name":"releasedAmount","type":"uint256","internalType":"uint256"},{"name":"isActive","type":"bool","internalType":"bool"},{"name":"createdAt","type":"uint256","internalType":"uint256"}],"stateMutability":"view"},{"type":"function","name":"setDisputeJuryAddress","inputs":[{"name":"_disputeJury","type":"address","internalType":"address"}],"outputs":[],"stateMutability":"nonpayable"},{"type":"function","name":"stablecoin","inputs":[],"outputs":[{"name":"","type":"address","internalType":"contract IERC20"}],"stateMutability":"view"},{"type":"function","name":"userRegistry","inputs":[],"outputs":[{"name":"","type":"address","internalType":"contract UserRegistry"}],"stateMutability":"view"},{"type":"event","name":"DisputeResolved","inputs":[{"name":"projectId","type":"uint256","indexed":true,"internalType":"uint256"},{"name":"milestoneIndex","type":"uint256","indexed":false,"internalType":"uint256"},{"name":"freelancerAmount","type":"uint256","indexed":false,"internalType":"uint256"},{"name":"juryAmount","type":"uint256","indexed":false,"internalType":"uint256"}],"anonymous":false},{"type":"event","name":"FundsReleased","inputs":[{"name":"projectId","type":"uint256","indexed":true,"internalType":"uint256"},{"name":"recipient","type":"address","indexed":true,"internalType":"address"},{"name":"amount","type":"uint256","indexed":false,"internalType":"uint256"}],"anonymous":false},{"type":"event","name":"MilestoneApproved","inputs":[{"name":"projectId","type":"uint256","indexed":true,"internalType":"uint256"},{"name":"milestoneIndex","type":"uint256","indexed":false,"internalType":"uint256"},{"name":"amount","type":"uint256","indexed":false,"internalType":"uint256"}],"anonymous":false},{"type":"event","name":"MilestoneCompleted","inputs":[{"name":"projectId","type":"uint256","indexed":true,"internalType":"uint256"},{"name":"milestoneIndex","type":"uint256","indexed":false,"internalType":"uint256"}],"anonymous":false},{"type":"event","name":"MilestoneDisputed","inputs":[{"name":"projectId","type":"uint256","indexed":true,"internalType":"uint256"},{"name":"milestoneIndex","type":"uint256","indexed":false,"internalType":"uint256"}],"anonymous":false},{"type":"event","name":"ProjectCreated","inputs":[{"name":"projectId","type":"uint256","indexed":true,"internalType":"uint256"},{"name":"client","type":"address","indexed":true,"internalType":"address"},{"name":"freelancer","type":"address","indexed":true,"internalType":"address"},{"name":"totalAmount","type":"uint256","indexed":false,"internalType":"uint256"},{"name":"milestoneCount","type":"uint256","indexed":false,"internalType":"uint256"}],"anonymous":false},{"type":"error","name":"DisputeJuryNotSet","inputs":[]},{"type":"error","name":"InvalidAmount","inputs":[]},{"type":"error","name":"InvalidMilestoneCount","inputs":[]},{"type":"error","name":"InvalidStatus","inputs":[]},{"type":"error","name":"ProjectNotActive","inputs":[]},{"type":"error","name":"ReentrancyGuardReentrantCall","inputs":[]},{"type":"error","name":"TransferFailed","inputs":[]},{"type":"error","name":"UnauthorizedAccess","inputs":[]}],"bytecode":{"object":"0x60c0346100a557601f61124c38819003918201601f19168301916001600160401b038311848410176100a95780849260409485528339810103126100a557610052602061004b836100bd565b92016100bd565b60015f556001600160a01b039182166080521660a05260405161117a90816100d28239608051818181610286015281816103a40152818161082501528181610cfc0152610e8b015260a0518161074b0152f35b5f80fd5b634e487b7160e01b5f52604160045260245ffd5b51906001600160a01b03821682036100a55756fe6080806040526004361015610012575f80fd5b5f3560e01c908163107046bd14610f4d5750806320913da514610dbd5780632494114714610c5c5780634a6a49f414610c415780635bb6b4211461077a5780635c7460d6146107365780638ed9895c146105fa5780639ae9b90014610586578063d47ffcd7146102b5578063e9cbd82214610271578063f0f3f2c8146101f1578063f17010f5146101c9578063f326206b146100d75763f8a518ed146100b6575f80fd5b346100d3575f3660031901126100d3576020600254604051908152f35b5f80fd5b346100d3576100e536610fc5565b815f52600360205260405f2060ff600582015416156101b75760018101546001600160a01b031633036101a557600401805482101561017f5781610128916110c5565b50600281019182549160ff831660058110156101915761017f577f1b7218c0ac23ea9cbe4df603d2b340fbf469a115b73ea3d11460727f445d6be193600160209460ff1916179055600342910155604051908152a2005b6040516307a92f1960e51b8152600490fd5b634e487b7160e01b5f52602160045260245ffd5b604051631a27eac360e11b8152600490fd5b604051637701967760e01b8152600490fd5b346100d3575f3660031901126100d3576001546040516001600160a01b039091168152602090f35b346100d35760203660031901126100d357600480355f90815260036020818152604092839020805460018201546002830154948301546005840154939097015486516001600160a01b039384168152929091169382019390935293840192909252606083019390935260ff161515608082015260a081019190915260c090f35b346100d3575f3660031901126100d3576040517f00000000000000000000000000000000000000000000000000000000000000006001600160a01b03168152602090f35b346100d3576102c336610fc5565b6102cb611116565b6001546001600160a01b039081161561057457825f526020906003825260405f209160ff600584015416156101b7578183541633036101a55760048301805485101561017f578461031b916110c5565b5060028101805460ff811660058110156101915760010361017f5760039060ff19161790555492601e8402848104601e14851517156105605760649004926103638486611137565b9461037360038401918254611040565b90556001919091015460405163a9059cbb60e01b8082529183166001600160a01b03166004820152602481018590527f00000000000000000000000000000000000000000000000000000000000000008316929084816044815f885af19081156104f3575f91610543575b50156104fe57600154604051928352166001600160a01b0316600482015260248101859052908290829060449082905f905af19081156104f3575f916104c6575b501561048b57917f43c6fe16c1e88a9b3bceaf30a2ae3d7e9ad9533f87698ebb2b628263771ae0e6939183867fce3ad71f0982ff0d056c2b9383d8b2f2c20e9cbc2df1d92df1a39ff70d1ff26f606096604051878152a26040519384528301526040820152a260015f55005b6064906040519062461bcd60e51b825260048201526014602482015273129d5c9e481d1c985b9cd9995c8819985a5b195960621b6044820152fd5b6104e69150823d84116104ec575b6104de818361104d565b81019061106f565b8661041f565b503d6104d4565b6040513d5f823e3d90fd5b60405162461bcd60e51b815260048101859052601a60248201527f467265656c616e636572207472616e73666572206661696c65640000000000006044820152606490fd5b61055a9150853d87116104ec576104de818361104d565b896103de565b634e487b7160e01b5f52601160045260245ffd5b604051630248af8360e41b8152600490fd5b346100d35760203660031901126100d35761059f610fdb565b600154906001600160a01b03908183166105c7576001600160a01b0319909216911617600155005b60405162461bcd60e51b815260206004820152600b60248201526a105b1c9958591e481cd95d60aa1b6044820152606490fd5b346100d35761060836610fc5565b905f5261062160209160038352600460405f20016110c5565b5090815491600180820192600360ff6002850154169301549360405180935f9083549361064d856110de565b948585528683821691825f146107145750506001146106d8575b50506106759250038361104d565b6040519485526080818601528151918260808701525f5b8381106106c4575050505f60a0828601015260058210156101915760a092849260408401526060830152601f80199101168101030190f35b81810183015187820160a00152820161068c565b8592505f52815f20905f915b8583106106fc57505061067593508201018880610667565b805483890185015287945086939092019181016106e4565b925093505061067594915060ff191682840152151560051b8201018880610667565b346100d3575f3660031901126100d3576040517f00000000000000000000000000000000000000000000000000000000000000006001600160a01b03168152602090f35b346100d35760603660031901126100d357610793610fdb565b60243567ffffffffffffffff81116100d3576107b3903690600401610ff1565b60449291923567ffffffffffffffff81116100d3576107d6903690600401610ff1565b9290916107e1611116565b60038110610c2f57838103610c2f575f925f5b828110610be757506040516323b872dd60e01b8152336004820152306024820152604481018590526020816064815f7f00000000000000000000000000000000000000000000000000000000000000006001600160a01b03165af180156104f357610866915f91610bc8575b50611087565b6002549461087386611022565b600255855f52600360205260405f20336bffffffffffffffffffffffff60a01b8254161781556001810160018060a01b0386166bffffffffffffffffffffffff60a01b8254161790558560028201555f600382015560058101600160ff198254161790554260068201555f5b848110610932576020888888886040519283528483015260018060a01b031690827f022cbdd9511184d551c50ef4eb9f6cb10fd9d48ed05447898fc9aef4b50a005360403393a460015f55604051908152f35b61093d81868b611030565b359083811015610bb4578060051b850135601e19863603018112156100d35767ffffffffffffffff81870135116100d357808601353603602082880101136100d3576040519283608081011067ffffffffffffffff608086011117610b8d57608084016040528352604051906109c06020601f19601f848b01350116018361104d565b8681018035808452369101602001116100d3576020815f9289013582828b0101838601378801358301015260208301525f60408301525f6060830152600483015468010000000000000000811015610b8d57806001610a2892016004860155600485016110c5565b610ba15782518155602083015180519067ffffffffffffffff8211610b8d578190610a5660018501546110de565b601f8111610b3d575b50602090601f8311600114610acf575f92610ac4575b50508160011b915f199060031b1c19161760018201555b6040830151926005841015610191576060600391610abf95600285019060ff801983541691161790550151910155611022565b6108df565b015190508d80610a75565b9250600184015f5260205f20905f935b601f1984168510610b22576001945083601f19811610610b0a575b505050811b016001820155610a8c565b01515f1960f88460031b161c191690558d8080610afa565b81810151835560209485019460019093019290910190610adf565b909150600184015f5260205f20601f840160051c810160208510610b86575b90849392915b601f830160051c82018110610b78575050610a5f565b5f8155859450600101610b62565b5080610b5c565b634e487b7160e01b5f52604160045260245ffd5b634e487b7160e01b5f525f60045260245ffd5b634e487b7160e01b5f52603260045260245ffd5b610be1915060203d6020116104ec576104de818361104d565b88610860565b93610bf3858489611030565b3515610c1d57610c12610c1891610c0b87868b611030565b3590611040565b94611022565b6107f4565b60405163162908e360e11b8152600490fd5b604051633e4932f960e21b8152600490fd5b346100d3575f3660031901126100d357602060405160038152f35b346100d3576020806003193601126100d357600435610c79611116565b805f526003825260405f20916005830180549360ff8516156101b75760018060a01b039182825416958633036101a55760ff1916905560028101546003820154610cc291611137565b9485610ccf575b60015f55005b60405163a9059cbb60e01b81526001600160a01b039190911660048201526024810186905283816044815f7f000000000000000000000000000000000000000000000000000000000000000088165af19081156104f3575f91610da0575b5015610d6b575460405194855216927f6e3c6096795c8298a218b2cfb8bde42726ff7c9a3d27b4d3ba41ab7f74feb5fb9190a3808080808080610cc9565b60405162461bcd60e51b815260048101849052600d60248201526c1499599d5b990819985a5b1959609a1b6044820152606490fd5b610db79150843d86116104ec576104de818361104d565b86610d2d565b346100d357610dcb36610fc5565b90610dd4611116565b805f526020916003835260405f209260ff600585015416156101b75783546001600160a01b0390811633036101a55760048501805484101561017f5783610e1a916110c5565b50600281019384549160ff831660058110156101915760010361017f57600190600260ff19809516178755549760038101610e568a8254611040565b905501805460405163a9059cbb60e01b81529085166001600160a01b031660048201526024810189905290929085816044815f7f00000000000000000000000000000000000000000000000000000000000000008a165af19283156104f3577f6e3c6096795c8298a218b2cfb8bde42726ff7c9a3d27b4d3ba41ab7f74feb5fb9760047f6e3fd8bb18eed6833ae758e07c361bf145ce27c88bdf6d5029ddabf188d72ca694610f0f8c976040965f91610f305750611087565b82541617905581519081528987820152a2541693604051908152a360015f55005b610f4791508c8d3d106104ec576104de818361104d565b8f610860565b346100d35760203660031901126100d3576004355f908152600360208181526040928390208054600182015460028301549483015460058401546006909401546001600160a01b039384168952929091169387019390935293850192909252606084015260ff161515608083015260a082015260c090f35b60409060031901126100d3576004359060243590565b600435906001600160a01b03821682036100d357565b9181601f840112156100d35782359167ffffffffffffffff83116100d3576020808501948460051b0101116100d357565b5f1981146105605760010190565b9190811015610bb45760051b0190565b9190820180921161056057565b90601f8019910116810190811067ffffffffffffffff821117610b8d57604052565b908160209103126100d3575180151581036100d35790565b1561108e57565b60405162461bcd60e51b815260206004820152600f60248201526e151c985b9cd9995c8819985a5b1959608a1b6044820152606490fd5b8054821015610bb4575f5260205f209060021b01905f90565b90600182811c9216801561110c575b60208310146110f857565b634e487b7160e01b5f52602260045260245ffd5b91607f16916110ed565b60025f54146111255760025f55565b604051633ee5aeb560e01b8152600490fd5b919082039182116105605756fea26469706673582212207f2074d39c3fd21cc516b20a8c2d4685e09481a8d0aed79b22ef33e409dbe9f864736f6c63430008140033","linkReferences":{}},"methodIdentifiers":{"MIN_MILESTONES()":"4a6a49f4","approveMilestone(uint256,uint256)":"20913da5","cancelProject(uint256)":"24941147","completeMilestone(uint256,uint256)":"f326206b","createProject(address,uint256[],string[])":"5bb6b421","disputeJuryAddress()":"f17010f5","disputeMilestone(uint256,uint256)":"d47ffcd7","getMilestone(uint256,uint256)":"8ed9895c","getProject(uint256)":"f0f3f2c8","projectCounter()":"f8a518ed","projects(uint256)":"107046bd","setDisputeJuryAddress(address)":"9ae9b900","stablecoin()":"e9cbd822","userRegistry()":"5c7460d6"},"id":41}