{"abi":[{"type":"constructor","inputs":[{"name":"_stablecoin","type":"address","internalType":"address"}],"stateMutability":"nonpayable"},{"type":"function","name":"ANNUAL_FEE","inputs":[],"outputs":[{"name":"","type":"uint256","internalType":"uint256"}],"stateMutability":"view"},{"type":"function","name":"MONTHLY_FEE","inputs":[],"outputs":[{"name":"","type":"uint256","internalType":"uint256"}],"stateMutability":"view"},{"type":"function","name":"addManager","inputs":[{"name":"manager","type":"address","internalType":"address"}],"outputs":[],"stateMutability":"nonpayable"},{"type":"function","name":"adminToSubscription","inputs":[{"name":"","type":"address","internalType":"address"}],"outputs":[{"name":"","type":"uint256","internalType":"uint256"}],"stateMutability":"view"},{"type":"function","name":"approve","inputs":[{"name":"to","type":"address","internalType":"address"},{"name":"tokenId","type":"uint256","internalType":"uint256"}],"outputs":[],"stateMutability":"nonpayable"},{"type":"function","name":"balanceOf","inputs":[{"name":"owner","type":"address","internalType":"address"}],"outputs":[{"name":"","type":"uint256","internalType":"uint256"}],"stateMutability":"view"},{"type":"function","name":"cancelSubscription","inputs":[{"name":"subscriptionId","type":"uint256","internalType":"uint256"}],"outputs":[],"stateMutability":"nonpayable"},{"type":"function","name":"getApproved","inputs":[{"name":"tokenId","type":"uint256","internalType":"uint256"}],"outputs":[{"name":"","type":"address","internalType":"address"}],"stateMutability":"view"},{"type":"function","name":"getManagers","inputs":[{"name":"subscriptionId","type":"uint256","internalType":"uint256"}],"outputs":[{"name":"","type":"address[]","internalType":"address[]"}],"stateMutability":"view"},{"type":"function","name":"getSubscription","inputs":[{"name":"subscriptionId","type":"uint256","internalType":"uint256"}],"outputs":[{"name":"admin","type":"address","internalType":"address"},{"name":"tier","type":"uint8","internalType":"enum EnterpriseAccess.SubscriptionTier"},{"name":"expiryTime","type":"uint256","internalType":"uint256"},{"name":"isActive","type":"bool","internalType":"bool"},{"name":"managerCount","type":"uint256","internalType":"uint256"},{"name":"totalSpent","type":"uint256","internalType":"uint256"},{"name":"projectsCreated","type":"uint256","internalType":"uint256"}],"stateMutability":"view"},{"type":"function","name":"getTotalRevenue","inputs":[],"outputs":[{"name":"","type":"uint256","internalType":"uint256"}],"stateMutability":"view"},{"type":"function","name":"getUserSubscriptionId","inputs":[{"name":"user","type":"address","internalType":"address"}],"outputs":[{"name":"","type":"uint256","internalType":"uint256"}],"stateMutability":"view"},{"type":"function","name":"isApprovedForAll","inputs":[{"name":"owner","type":"address","internalType":"address"},{"name":"operator","type":"address","internalType":"address"}],"outputs":[{"name":"","type":"bool","internalType":"bool"}],"stateMutability":"view"},{"type":"function","name":"isEnterpriseUser","inputs":[{"name":"user","type":"address","internalType":"address"}],"outputs":[{"name":"","type":"bool","internalType":"bool"}],"stateMutability":"view"},{"type":"function","name":"isManager","inputs":[{"name":"subscriptionId","type":"uint256","internalType":"uint256"},{"name":"user","type":"address","internalType":"address"}],"outputs":[{"name":"","type":"bool","internalType":"bool"}],"stateMutability":"view"},{"type":"function","name":"name","inputs":[],"outputs":[{"name":"","type":"string","internalType":"string"}],"stateMutability":"view"},{"type":"function","name":"owner","inputs":[],"outputs":[{"name":"","type":"address","internalType":"address"}],"stateMutability":"view"},{"type":"function","name":"ownerOf","inputs":[{"name":"tokenId","type":"uint256","internalType":"uint256"}],"outputs":[{"name":"","type":"address","internalType":"address"}],"stateMutability":"view"},{"type":"function","name":"recordProjectCreated","inputs":[{"name":"user","type":"address","internalType":"address"}],"outputs":[],"stateMutability":"nonpayable"},{"type":"function","name":"removeManager","inputs":[{"name":"manager","type":"address","internalType":"address"}],"outputs":[],"stateMutability":"nonpayable"},{"type":"function","name":"renewSubscription","inputs":[{"name":"subscriptionId","type":"uint256","internalType":"uint256"}],"outputs":[],"stateMutability":"nonpayable"},{"type":"function","name":"renounceOwnership","inputs":[],"outputs":[],"stateMutability":"nonpayable"},{"type":"function","name":"safeTransferFrom","inputs":[{"name":"from","type":"address","internalType":"address"},{"name":"to","type":"address","internalType":"address"},{"name":"tokenId","type":"uint256","internalType":"uint256"}],"outputs":[],"stateMutability":"nonpayable"},{"type":"function","name":"safeTransferFrom","inputs":[{"name":"from","type":"address","internalType":"address"},{"name":"to","type":"address","internalType":"address"},{"name":"tokenId","type":"uint256","internalType":"uint256"},{"name":"data","type":"bytes","internalType":"bytes"}],"outputs":[],"stateMutability":"nonpayable"},{"type":"function","name":"setApprovalForAll","inputs":[{"name":"operator","type":"address","internalType":"address"},{"name":"approved","type":"bool","internalType":"bool"}],"outputs":[],"stateMutability":"nonpayable"},{"type":"function","name":"stablecoin","inputs":[],"outputs":[{"name":"","type":"address","internalType":"contract IERC20"}],"stateMutability":"view"},{"type":"function","name":"subscribe","inputs":[{"name":"tier","type":"uint8","internalType":"enum EnterpriseAccess.SubscriptionTier"}],"outputs":[{"name":"","type":"uint256","internalType":"uint256"}],"stateMutability":"nonpayable"},{"type":"function","name":"subscriptionCounter","inputs":[],"outputs":[{"name":"","type":"uint256","internalType":"uint256"}],"stateMutability":"view"},{"type":"function","name":"subscriptions","inputs":[{"name":"","type":"uint256","internalType":"uint256"}],"outputs":[{"name":"admin","type":"address","internalType":"address"},{"name":"tier","type":"uint8","internalType":"enum EnterpriseAccess.SubscriptionTier"},{"name":"startTime","type":"uint256","internalType":"uint256"},{"name":"expiryTime","type":"uint256","internalType":"uint256"},{"name":"isActive","type":"bool","internalType":"bool"},{"name":"totalSpent","type":"uint256","internalType":"uint256"},{"name":"projectsCreated","type":"uint256","internalType":"uint256"}],"stateMutability":"view"},{"type":"function","name":"supportsInterface","inputs":[{"name":"interfaceId","type":"bytes4","internalType":"bytes4"}],"outputs":[{"name":"","type":"bool","internalType":"bool"}],"stateMutability":"view"},{"type":"function","name":"symbol","inputs":[],"outputs":[{"name":"","type":"string","internalType":"string"}],"stateMutability":"view"},{"type":"function","name":"tokenURI","inputs":[{"name":"tokenId","type":"uint256","internalType":"uint256"}],"outputs":[{"name":"","type":"string","internalType":"string"}],"stateMutability":"view"},{"type":"function","name":"totalRevenue","inputs":[],"outputs":[{"name":"","type":"uint256","internalType":"uint256"}],"stateMutability":"view"},{"type":"function","name":"transferFrom","inputs":[{"name":"from","type":"address","internalType":"address"},{"name":"to","type":"address","internalType":"address"},{"name":"tokenId","type":"uint256","internalType":"uint256"}],"outputs":[],"stateMutability":"nonpayable"},{"type":"function","name":"transferOwnership","inputs":[{"name":"newOwner","type":"address","internalType":"address"}],"outputs":[],"stateMutability":"nonpayable"},{"type":"function","name":"userSubscriptions","inputs":[{"name":"","type":"address","internalType":"address"},{"name":"","type":"uint256","internalType":"uint256"}],"outputs":[{"name":"","type":"uint256","internalType":"uint256"}],"stateMutability":"view"},{"type":"function","name":"withdrawRevenue","inputs":[{"name":"amount","type":"uint256","internalType":"uint256"}],"outputs":[],"stateMutability":"nonpayable"},{"type":"event","name":"Approval","inputs":[{"name":"owner","type":"address","indexed":true,"internalType":"address"},{"name":"approved","type":"address","indexed":true,"internalType":"address"},{"name":"tokenId","type":"uint256","indexed":true,"internalType":"uint256"}],"anonymous":false},{"type":"event","name":"ApprovalForAll","inputs":[{"name":"owner","type":"address","indexed":true,"internalType":"address"},{"name":"operator","type":"address","indexed":true,"internalType":"address"},{"name":"approved","type":"bool","indexed":false,"internalType":"bool"}],"anonymous":false},{"type":"event","name":"ManagerAdded","inputs":[{"name":"subscriptionId","type":"uint256","indexed":true,"internalType":"uint256"},{"name":"manager","type":"address","indexed":true,"internalType":"address"}],"anonymous":false},{"type":"event","name":"ManagerRemoved","inputs":[{"name":"subscriptionId","type":"uint256","indexed":true,"internalType":"uint256"},{"name":"manager","type":"address","indexed":true,"internalType":"address"}],"anonymous":false},{"type":"event","name":"OwnershipTransferred","inputs":[{"name":"previousOwner","type":"address","indexed":true,"internalType":"address"},{"name":"newOwner","type":"address","indexed":true,"internalType":"address"}],"anonymous":false},{"type":"event","name":"SubscriptionCancelled","inputs":[{"name":"subscriptionId","type":"uint256","indexed":true,"internalType":"uint256"}],"anonymous":false},{"type":"event","name":"SubscriptionCreated","inputs":[{"name":"subscriptionId","type":"uint256","indexed":true,"internalType":"uint256"},{"name":"admin","type":"address","indexed":true,"internalType":"address"},{"name":"tier","type":"uint8","indexed":false,"internalType":"enum EnterpriseAccess.SubscriptionTier"},{"name":"expiryTime","type":"uint256","indexed":false,"internalType":"uint256"}],"anonymous":false},{"type":"event","name":"SubscriptionRenewed","inputs":[{"name":"subscriptionId","type":"uint256","indexed":true,"internalType":"uint256"},{"name":"newExpiryTime","type":"uint256","indexed":false,"internalType":"uint256"}],"anonymous":false},{"type":"event","name":"Transfer","inputs":[{"name":"from","type":"address","indexed":true,"internalType":"address"},{"name":"to","type":"address","indexed":true,"internalType":"address"},{"name":"tokenId","type":"uint256","indexed":true,"internalType":"uint256"}],"anonymous":false},{"type":"error","name":"AlreadyHasSubscription","inputs":[]},{"type":"error","name":"ERC721IncorrectOwner","inputs":[{"name":"sender","type":"address","internalType":"address"},{"name":"tokenId","type":"uint256","internalType":"uint256"},{"name":"owner","type":"address","internalType":"address"}]},{"type":"error","name":"ERC721InsufficientApproval","inputs":[{"name":"operator","type":"address","internalType":"address"},{"name":"tokenId","type":"uint256","internalType":"uint256"}]},{"type":"error","name":"ERC721InvalidApprover","inputs":[{"name":"approver","type":"address","internalType":"address"}]},{"type":"error","name":"ERC721InvalidOperator","inputs":[{"name":"operator","type":"address","internalType":"address"}]},{"type":"error","name":"ERC721InvalidOwner","inputs":[{"name":"owner","type":"address","internalType":"address"}]},{"type":"error","name":"ERC721InvalidReceiver","inputs":[{"name":"receiver","type":"address","internalType":"address"}]},{"type":"error","name":"ERC721InvalidSender","inputs":[{"name":"sender","type":"address","internalType":"address"}]},{"type":"error","name":"ERC721NonexistentToken","inputs":[{"name":"tokenId","type":"uint256","internalType":"uint256"}]},{"type":"error","name":"InvalidTier","inputs":[]},{"type":"error","name":"ManagerAlreadyExists","inputs":[]},{"type":"error","name":"ManagerNotFound","inputs":[]},{"type":"error","name":"NotAdmin","inputs":[]},{"type":"error","name":"NotEnterpriseUser","inputs":[]},{"type":"error","name":"OwnableInvalidOwner","inputs":[{"name":"owner","type":"address","internalType":"address"}]},{"type":"error","name":"OwnableUnauthorizedAccount","inputs":[{"name":"account","type":"address","internalType":"address"}]},{"type":"error","name":"ReentrancyGuardReentrantCall","inputs":[]},{"type":"error","name":"SubscriptionExpired","inputs":[]}],"bytecode":{"object":"0x60a0346200040257601f906001600160401b0390601f196200246b388190038086018316840192919084841086851117620003ee57808592604095865283396020948591810103126200040257516001600160a01b0395868216959186900362000402578351946060860186811084821117620003ee578552602186527f48756d616e576f726b20456e746572707269736520537562736372697074696f81870152603760f91b8587015284519085820182811085821117620003ee57865260058252641215d1539560da1b81830152865194848611620003ee575f958654986001998a81811c91168015620003e3575b85821014620003cf579081878493116200037c575b5084908783116001146200031c57899262000310575b50505f19600383901b1c191690891b1786555b8251948511620002fc5787548881811c91168015620002f1575b83821014620002dd5790818587969594931162000284575b508193851160011462000220575050849262000214575b50505f19600383901b1c191690841b1783555b3315620001fe577f8be0079c531659141344cd1fd0a4f28419497f9722a3daafe3b4186f6b6457e0600654923360018060a01b031985161760065551953393169180a36007556080526120649081620004078239608051818181610291015281816104ec01528181610f1d015261158b0152f35b6024915190631e4fbdf760e01b82526004820152fd5b015190505f8062000177565b889593929193168587528387209387905b8282106200026a575050841162000251575b505050811b0183556200018a565b01515f1960f88460031b161c191690555f808062000243565b8484015186558a9790950194938401939081019062000231565b9091929394508887528287208580880160051c820192858910620002d3575b9188978c9297969594930160051c01915b828110620002c457505062000160565b8981558897508b9101620002b4565b92508192620002a3565b634e487b7160e01b87526022600452602487fd5b90607f169062000148565b634e487b7160e01b86526041600452602486fd5b015190505f806200011b565b90848c9416918a8052868b20928b5b888282106200036557505084116200034c575b505050811b0186556200012e565b01515f1960f88460031b161c191690555f80806200033e565b8385015186558f979095019493840193016200032b565b9091508880528489208780850160051c820192878610620003c5575b918d91869594930160051c01915b828110620003b657505062000105565b8b81558594508d9101620003a6565b9250819262000398565b634e487b7160e01b89526022600452602489fd5b90607f1690620000f0565b634e487b7160e01b5f52604160045260245ffd5b5f80fdfe6080604081815260049182361015610015575f80fd5b5f92833560e01c91826301ffc9a71461182c5750816306fdde0314611762578163081812fc14611726578163095ea7b3146116495781630ab7ebcb146116295781630ceff2041461152b5781630fa085ea146114f3578163212350831461147f57816323b872dd146114675781632d06177a1461134d5781632d5bbf60146112ce57816342842e0e1461129f57816349c7e63914610e895781636352211e14610e5857816366c0675e14610e2957816370a0823114610dd4578163715018a614610d77578163773ed13c14610d2d5781638da5cb5b14610d04578163903a829814610ce5578163957fae961461088c57816395d89b4114610bdf578163a22cb46514610b3d578163a69faae114610af6578163ac18de431461095f578163b88d4fde146108ca578163bb124365146108ab578163bf2d9e0b1461088c578163c87b56dd14610685578163c95d6edc1461062f578163d71bb37b14610443578163dc311dd3146103c4578163e3be9da01461030e578163e985e9c5146102c0578163e9cbd8221461027c578163f2fde38b146101e8575063fc37001d146101b9575f80fd5b346101e45760203660031901126101e4576020906101dd6101d86118dd565b611f5c565b9051908152f35b5080fd5b905034610278576020366003190112610278576102036118dd565b9061020c6119fa565b6001600160a01b03918216928315610262575050600654826bffffffffffffffffffffffff60a01b821617600655167f8be0079c531659141344cd1fd0a4f28419497f9722a3daafe3b4186f6b6457e08380a380f35b51631e4fbdf760e01b8152908101849052602490fd5b8280fd5b5050346101e457816003193601126101e457517f00000000000000000000000000000000000000000000000000000000000000006001600160a01b03168152602090f35b5050346101e457806003193601126101e45760ff816020936102e06118dd565b6102e86118f7565b6001600160a01b0391821683526005875283832091168252855220549151911615158152f35b905082346103c157602091826003193601126101e457809392933582526009845282822001908251808584549182815201908194845286842090845b8181106103a45750505081610360910382611993565b83519485948186019282875251809352850193925b82811061038457505050500390f35b83516001600160a01b031685528695509381019392810192600101610375565b82546001600160a01b03168452928801926001928301920161034a565b80fd5b91905034610278576020366003190112610278578060e0938335815260096020522080549260028201549060ff6003840154169083015491600760068501549401549461042881519760018060a01b038116895260ff60208a019160a01c16611942565b86015215156060850152608084015260a083015260c0820152f35b919050346102785760208060031936011261062b57823591610463611df8565b8285526009825280852080546001600160a01b03959190868116330361061b5760a01c60ff166003811015610608578460016104e89214805f146105fa57631dcd65009889915b156105ef5762278d00955b87516323b872dd60e01b81523391810191825230602083015260408201939093529193849283918d918391606090910190565b03927f0000000000000000000000000000000000000000000000000000000000000000165af19081156105e55761059a926105507f328f4610a15d0e6c197e13cb1b184720c7e4e7dcf6e07423b7625da3128358b19899936006938c916105b8575b50611d58565b610573600282019586548042115f146105ac575063ffffffff42915b1690611db7565b855560038101600160ff1982541617905501610590828254611db7565b9055600c54611db7565b600c55549051908152a2600160075580f35b63ffffffff909161056c565b6105d89150893d8b116105de575b6105d08183611993565b810190611d40565b5f61054a565b503d6105c6565b84513d8a823e3d90fd5b6301e13380956104b5565b64012a05f2009889916104aa565b634e487b7160e01b885260218352602488fd5b8351637bfa4b9f60e01b81528390fd5b8380fd5b5050346101e457806003193601126101e4576106496118dd565b6001600160a01b03168252600b602052808220805460243593908410156103c15750602092610677916119d1565b91905490519160031b1c8152f35b8383346101e457602091826003193601126103c1578335936106a685611bc4565b5084859183967a184f03e93ff9f4daa797ed6e38ed64bf6a1f010000000000000000908181101561087d575b50506d04ee2d6d415b85acef81000000008084101561086f575b50662386f26fc1000080841015610860575b506305f5e10080841015610851575b5061271080841015610843575b50506064821015610833575b600a80921015610829575b6001908160218189019861075c6107478b6119b5565b9a6107548a519c8d611993565b808c526119b5565b8a8a019790601f190136893750890101905b6107f4575b6107d1876107f0886107e160518d8b84519788927f68747470733a2f2f6170692e68756d616e776f726b2e696f2f656e746572707289850152706973652f737562736372697074696f6e2f60781b8785015251809285850190611897565b8101036031810187520185611993565b519282849384528301906118b8565b0390f35b5f19019083906f181899199a1a9b1b9c1cb0b131b232b360811b8282061a8353049182156108245791908261076e565b610773565b9460010194610731565b9490606460029104910194610726565b96019590910490868061071a565b6008919793049201958761070d565b601091979304920195876106fe565b8691979304920195876106ec565b959750879504925087806106d2565b5050346101e457816003193601126101e457602090600c549051908152f35b5050346101e457816003193601126101e45760209051631dcd65008152f35b91905034610278576080366003190112610278576108e66118dd565b6108ee6118f7565b60443591856064359567ffffffffffffffff87116101e457366023880112156101e4578601359561092a610921886119b5565b96519687611993565b86865236602488830101116101e4578661095c976024602093018389013786010152610957838383611a26565b611bfe565b80f35b919050346102785760203660031901126102785761097b6118dd565b338452600a60205281842054908115610ae757818552600960205282852093600585019360018060a01b03809316948588528060205260ff828920541615610ad9578588526020528620805460ff19169055938401855b815480821015610acd578390866109e984866119d1565b939054600394851b1c1614610a08575050610a0390611d95565b6109d2565b915f97919596979493941992838101908111610aba5790610a3e85610a30610a5d94896119d1565b9054908a1b1c1691876119d1565b90919082549060031b9160018060a01b03809116831b921b1916179055565b8354908115610aa757500192610a7384846119d1565b81939154921b1b19169055555b7f34b9c93db94a7145dadac0eb3b84f734a325fe8cdb7988b2e560739125bf0ddb8380a380f35b634e487b7160e01b895260319052602488fd5b634e487b7160e01b8a526011835260248afd5b50505050909150610a80565b50516322a5e34b60e01b8152fd5b505051637bfa4b9f60e01b8152fd5b5050346101e45760203660031901126101e457610b146101d86118dd565b9081610b1e578280f35b60079183526009602052822001610b358154611d95565b90555f808280f35b91905034610278578060031936011261027857610b586118dd565b9060243591821515809303610bdb576001600160a01b0316928315610bc65750338452600560205280842083855260205280842060ff1981541660ff8416179055519081527f17307eab39ab6107e8899845ad3d59bd9653f200f220920489ca2b5937696c3160203392a380f35b836024925191630b61174360e31b8352820152fd5b8480fd5b8284346103c157806003193601126103c1578151918160019283549384811c91818616958615610cdb575b6020968785108114610cc8578899509688969785829a5291825f14610ca1575050600114610c46575b5050506107f092916107e1910385611993565b91908693508083527fb10e2d527612073b26eecdfd717e6a320cf44b4afac2b0732d9fcbe2b7fa0cf65b828410610c8957505050820101816107e16107f0610c33565b8054848a018601528895508794909301928101610c70565b60ff19168782015293151560051b860190930193508492506107e191506107f09050610c33565b634e487b7160e01b835260228a52602483fd5b92607f1692610c0a565b5050346101e457816003193601126101e4576020906008549051908152f35b5050346101e457816003193601126101e45760065490516001600160a01b039091168152602090f35b9050346102785781600319360112610278578160209360ff92610d4e6118f7565b90358252600986528282206001600160a01b039091168252600501855220549151911615158152f35b83346103c157806003193601126103c157610d906119fa565b600680546001600160a01b0319811690915581906001600160a01b03167f8be0079c531659141344cd1fd0a4f28419497f9722a3daafe3b4186f6b6457e08280a380f35b8284346103c15760203660031901126103c1576001600160a01b03610df76118dd565b16928315610e145750806020938392526003845220549051908152f35b91516322718ad960e21b815291820152602490fd5b5050346101e45760203660031901126101e457602090610e4f610e4a6118dd565b611e2f565b90519015158152f35b8284346103c15760203660031901126103c15750610e7860209235611bc4565b90516001600160a01b039091168152f35b9190503461027857602092836003193601126103c15782359060038210156103c157610eb3611df8565b338152600a8552828120546112905781156112815760018214801561127557631dcd6500905b1561126a5762278d00915b84516323b872dd60e01b815233878201908152306020820152604081018490526001600160a01b039791908990829081900360600181867f00000000000000000000000000000000000000000000000000000000000000008d165af19081156112605790610f589184916112495750611d58565b610f63600854611d95565b9687600855865190610f7482611963565b83825233156112325788845260028a528784205416888115159182611201575b3380875260038d528a87208054600101905582875260028d528a872080546001600160a01b03191682179055907fddf252ad1be2c89b69c2b068fc378daa952ba7f163c4a11628f55a4df523b3ef8780a46111eb57333b6110c6575b50509061107986868482611081965260098b5284600661104a63ffffffff8585209a8b548d60ff60a01b9060a01b169060ff60a01b193316906affffffffffffffffffffff60a81b1617178c554260018d01551642611db7565b9860028101998a5560038101600160ff198254161790550155338152600a8b528282822055600b8b5220611dc4565b600c54611db7565b600c555461109183518093611942565b84820152827f4484de992636499b9d3269817cc12591b2c8318dbcc72b9dd954829a537aff14833393a3600160075551908152f35b869794929593919751898180611104630a85bd0160e11b958683528d33908401528b60248401528a60448401526080606484015260848301906118b8565b03818a335af18791816111a7575b50611171575050505050503d5f14611169573d61112e816119b5565b9061113b84519283611993565b81528091853d92013e5b80519384611163578251633250574960e11b81523381860152602490fd5b84925001fd5b506060611145565b63ffffffff60e0999395979496991b1603611190575061107986610ff0565b602490865190633250574960e11b82523390820152fd5b9091508a81813d83116111e4575b6111bf8183611993565b810103126111e057516001600160e01b0319811681036111e057905f611112565b8780fd5b503d6111b5565b506024918651916339e3563760e11b8352820152fd5b5f82815260046020526040902080546001600160a01b031916905580865260038c5289862080545f19019055610f94565b8751633250574960e11b8152808401859052602490fd5b6105d891508a3d8c116105de576105d08183611993565b87513d85823e3d90fd5b6301e1338091610ee4565b64012a05f20090610ed9565b50505163e142361760e01b8152fd5b505051630c0168d760e01b8152fd5b5050346101e45761095c906112b33661190d565b919251926112c084611963565b858452610957838383611a26565b9050346102785760203660031901126102785760e0928291358152600960205220908154916001810154600282015460ff60038401541691600760068501549401549461133281519760018060a01b038116895260ff60208a019160a01c16611942565b86015260608501521515608084015260a083015260c0820152f35b905034610278576020918260031936011261062b5761136a6118dd565b92338552600a8152818520549283156114595783865260098252828620946002860154421161144a576001600160a01b0381168088526005870180855285892054919790939160ff1661143b578101805491600160401b8310156114285750926113e6600b93610a3e84611401999760018c9a970181556119d1565b8789528152828820805460ff19166001179055528520611dc4565b7f4ac17ddaaaaa8696605bc54646eaddba6bdd91646bda08f6f11da6dd2a4812b38380a380f35b634e487b7160e01b8a5260419052602489fd5b508451636c0b3b8160e11b8152fd5b50825163893dcecf60e01b8152fd5b8251637bfa4b9f60e01b8152fd5b83346103c15761095c6114793661190d565b91611a26565b919050346102785760203660031901126102785781359182845260096020528184209160018060a01b0383541633036114e6575050600301805460ff191690557fbd2bcea75d16a85f005cd83447e0de57341bf926fe7419e6d553663e91ab4da78280a280f35b51637bfa4b9f60e01b8152fd5b5050346101e45760203660031901126101e45760209181906001600160a01b0361151b6118dd565b168152600a845220549051908152f35b91905034610278576020366003190112610278576115476119fa565b61154f611df8565b600654815163a9059cbb60e01b81526001600160a01b0391821684820190815284356020828101919091529192839182908890829060400103927f0000000000000000000000000000000000000000000000000000000000000000165af190811561161f578491611601575b50156115ca5782600160075580f35b906020606492519162461bcd60e51b8352820152601160248201527015da5d1a191c985dd85b0819985a5b1959607a1b6044820152fd5b611619915060203d81116105de576105d08183611993565b5f6115bb565b82513d86823e3d90fd5b5050346101e457816003193601126101e4576020905164012a05f2008152f35b919050346102785780600319360112610278576116646118dd565b9160243561167181611bc4565b33151580611713575b806116ea575b6116d4576001600160a01b039485169482918691167f8c5be1e5ebec7d5bd14f71427d1e84f3dd0314c0f7b2291e5b200ac8c7c3b9258880a48452602052822080546001600160a01b031916909117905580f35b835163a9fbf51f60e01b81523381850152602490fd5b506001600160a01b03811686526005602090815284872033885290528386205460ff1615611680565b506001600160a01b03811633141561167a565b9050346102785760203660031901126102785791826020933561174881611bc4565b50825283528190205490516001600160a01b039091168152f35b8284346103c157806003193601126103c15781519181825492600184811c91818616958615611822575b6020968785108114610cc8578899509688969785829a5291825f14610ca15750506001146117c7575050506107f092916107e1910385611993565b91908693508280527f290decd9548b62a8d60345a988386fc84ba6bc95484008f6362f93160ef3e5635b82841061180a57505050820101816107e16107f0610c33565b8054848a0186015288955087949093019281016117f1565b92607f169261178c565b849134610278576020366003190112610278573563ffffffff60e01b811680910361027857602092506380ac58cd60e01b8114908115611886575b8115611875575b5015158152f35b6301ffc9a760e01b1490508361186e565b635b5e139f60e01b81149150611867565b5f5b8381106118a85750505f910152565b8181015183820152602001611899565b906020916118d181518092818552858086019101611897565b601f01601f1916010190565b600435906001600160a01b03821682036118f357565b5f80fd5b602435906001600160a01b03821682036118f357565b60609060031901126118f3576001600160a01b039060043582811681036118f3579160243590811681036118f3579060443590565b90600382101561194f5752565b634e487b7160e01b5f52602160045260245ffd5b6020810190811067ffffffffffffffff82111761197f57604052565b634e487b7160e01b5f52604160045260245ffd5b90601f8019910116810190811067ffffffffffffffff82111761197f57604052565b67ffffffffffffffff811161197f57601f01601f191660200190565b80548210156119e6575f5260205f2001905f90565b634e487b7160e01b5f52603260045260245ffd5b6006546001600160a01b03163303611a0e57565b60405163118cdaa760e01b8152336004820152602490fd5b6001600160a01b039182169290918315611bac575f92828452826020956002875260409684888820541696879133151580611b13575b509060027fddf252ad1be2c89b69c2b068fc378daa952ba7f163c4a11628f55a4df523b3ef9284611ae2575b858352600381528b8320805460010190558683525289812080546001600160a01b0319168517905580a41692838303611ac15750505050565b6064945051926364283d7b60e01b8452600484015260248301526044820152fd5b5f87815260046020526040902080546001600160a01b0319169055848352600381528b832080545f19019055611a88565b91939450915080611b6b575b15611b2f5785929187915f611a5c565b878688611b4c576024915190637e27328960e01b82526004820152fd5b905163177e802f60e01b81523360048201526024810191909152604490fd5b503387148015611b90575b80611b1f5750858252600481523385898420541614611b1f565b5086825260058152878220338352815260ff8883205416611b76565b604051633250574960e11b81525f6004820152602490fd5b5f818152600260205260409020546001600160a01b0316908115611be6575090565b60249060405190637e27328960e01b82526004820152fd5b813b611c0b575b50505050565b604051630a85bd0160e11b8082523360048301526001600160a01b03928316602483015260448201949094526080606482015260209592909116939092908390611c599060848301906118b8565b039285815f958187895af1849181611d00575b50611ccb575050503d5f14611cc3573d611c85816119b5565b90611c936040519283611993565b81528091843d92013e5b80519283611cbe57604051633250574960e11b815260048101849052602490fd5b019050fd5b506060611c9d565b919450915063ffffffff60e01b1603611ce857505f808080611c05565b60249060405190633250574960e11b82526004820152fd5b9091508681813d8311611d39575b611d188183611993565b81010312610bdb57516001600160e01b031981168103610bdb57905f611c6c565b503d611d0e565b908160209103126118f3575180151581036118f35790565b15611d5f57565b60405162461bcd60e51b815260206004820152600e60248201526d14185e5b595b9d0819985a5b195960921b6044820152606490fd5b5f198114611da35760010190565b634e487b7160e01b5f52601160045260245ffd5b91908201809211611da357565b8054600160401b81101561197f57611de1916001820181556119d1565b819291549060031b91821b915f19901b1916179055565b600260075414611e09576002600755565b604051633ee5aeb560e01b8152600490fd5b80518210156119e65760209160051b010190565b60018060a01b03165f818152602091600a83526040918281205480611f21575b50818152600b8452828120938351808683829854938481520190855283852092855b85828210611f0b57505050611e8892500386611993565b815b8551811015611f0257611e9d8187611e1b565b5183526009825284832084845260058101835260ff908187862054169182611ef4575b5081611ee5575b50611eda57611ed590611d95565b611e8a565b505050505050600190565b6002915001544211155f611ec7565b60038201541691505f611ec0565b50509250505090565b855484526001958601958b955093019201611e71565b81526009845282812060ff6003820154169081611f4d575b50611f44575f611e4f565b50505050600190565b6002915001544211155f611f39565b6001600160a01b03165f818152600a602090815260408083205491939291806120265750600b8452808220918151808487829654938481520190845287842092845b8982821061201057505050611fb592500384611993565b805b835181101561200757611fca8185611e1b565b51825260098652600583832001858352865260ff8383205416611ff557611ff090611d95565b611fb7565b935050506120039250611e1b565b5190565b50935050505090565b8554845260019586019589955093019201611f9e565b93505050509056fea264697066735822122010ff94faa4ec2605e5400478a856acaac7d30ac5d9ab0e9ece77e608cb28dbca64736f6c63430008140033","linkReferences":{}},"methodIdentifiers":{"ANNUAL_FEE()":"0ab7ebcb","MONTHLY_FEE()":"bb124365","addManager(address)":"2d06177a","adminToSubscription(address)":"0fa085ea","approve(address,uint256)":"095ea7b3","balanceOf(address)":"70a08231","cancelSubscription(uint256)":"21235083","getApproved(uint256)":"081812fc","getManagers(uint256)":"e3be9da0","getSubscription(uint256)":"dc311dd3","getTotalRevenue()":"957fae96","getUserSubscriptionId(address)":"fc37001d","isApprovedForAll(address,address)":"e985e9c5","isEnterpriseUser(address)":"66c0675e","isManager(uint256,address)":"773ed13c","name()":"06fdde03","owner()":"8da5cb5b","ownerOf(uint256)":"6352211e","recordProjectCreated(address)":"a69faae1","removeManager(address)":"ac18de43","renewSubscription(uint256)":"d71bb37b","renounceOwnership()":"715018a6","safeTransferFrom(address,address,uint256)":"42842e0e","safeTransferFrom(address,address,uint256,bytes)":"b88d4fde","setApprovalForAll(address,bool)":"a22cb465","stablecoin()":"e9cbd822","subscribe(uint8)":"49c7e639","subscriptionCounter()":"903a8298","subscriptions(uint256)":"2d5bbf60","supportsInterface(bytes4)":"01ffc9a7","symbol()":"95d89b41","tokenURI(uint256)":"c87b56dd","totalRevenue()":"bf2d9e0b","transferFrom(address,address,uint256)":"23b872dd","transferOwnership(address)":"f2fde38b","userSubscriptions(address,uint256)":"c95d6edc","withdrawRevenue(uint256)":"0ceff204"},"id":35}