{"abi":[{"type":"constructor","inputs":[{"name":"_stablecoin","type":"address","internalType":"address"},{"name":"_agencyRegistry","type":"address","internalType":"address"}],"stateMutability":"nonpayable"},{"type":"function","name":"AGENCY_ANNUAL_FEE","inputs":[],"outputs":[{"name":"","type":"uint256","internalType":"uint256"}],"stateMutability":"view"},{"type":"function","name":"AGENCY_MONTHLY_FEE","inputs":[],"outputs":[{"name":"","type":"uint256","internalType":"uint256"}],"stateMutability":"view"},{"type":"function","name":"CLIENT_ANNUAL_FEE","inputs":[],"outputs":[{"name":"","type":"uint256","internalType":"uint256"}],"stateMutability":"view"},{"type":"function","name":"CLIENT_MONTHLY_FEE","inputs":[],"outputs":[{"name":"","type":"uint256","internalType":"uint256"}],"stateMutability":"view"},{"type":"function","name":"addManager","inputs":[{"name":"manager","type":"address","internalType":"address"}],"outputs":[],"stateMutability":"nonpayable"},{"type":"function","name":"adminToSubscription","inputs":[{"name":"","type":"address","internalType":"address"}],"outputs":[{"name":"","type":"uint256","internalType":"uint256"}],"stateMutability":"view"},{"type":"function","name":"agencyRegistry","inputs":[],"outputs":[{"name":"","type":"address","internalType":"contract AgencyRegistry"}],"stateMutability":"view"},{"type":"function","name":"approve","inputs":[{"name":"to","type":"address","internalType":"address"},{"name":"tokenId","type":"uint256","internalType":"uint256"}],"outputs":[],"stateMutability":"nonpayable"},{"type":"function","name":"balanceOf","inputs":[{"name":"owner","type":"address","internalType":"address"}],"outputs":[{"name":"","type":"uint256","internalType":"uint256"}],"stateMutability":"view"},{"type":"function","name":"enterpriseUsers","inputs":[{"name":"","type":"address","internalType":"address"}],"outputs":[{"name":"","type":"bool","internalType":"bool"}],"stateMutability":"view"},{"type":"function","name":"getApproved","inputs":[{"name":"tokenId","type":"uint256","internalType":"uint256"}],"outputs":[{"name":"","type":"address","internalType":"address"}],"stateMutability":"view"},{"type":"function","name":"getSubscription","inputs":[{"name":"subscriptionId","type":"uint256","internalType":"uint256"}],"outputs":[{"name":"admin","type":"address","internalType":"address"},{"name":"companyName","type":"string","internalType":"string"},{"name":"tier","type":"uint8","internalType":"enum EnterpriseAccess.Tier"},{"name":"status","type":"uint8","internalType":"enum EnterpriseAccess.SubscriptionStatus"},{"name":"startTime","type":"uint256","internalType":"uint256"},{"name":"expiryTime","type":"uint256","internalType":"uint256"},{"name":"managerCount","type":"uint256","internalType":"uint256"}],"stateMutability":"view"},{"type":"function","name":"isAgencySubscriber","inputs":[{"name":"user","type":"address","internalType":"address"}],"outputs":[{"name":"","type":"bool","internalType":"bool"}],"stateMutability":"view"},{"type":"function","name":"isApprovedForAll","inputs":[{"name":"owner","type":"address","internalType":"address"},{"name":"operator","type":"address","internalType":"address"}],"outputs":[{"name":"","type":"bool","internalType":"bool"}],"stateMutability":"view"},{"type":"function","name":"isEnterpriseUser","inputs":[{"name":"user","type":"address","internalType":"address"}],"outputs":[{"name":"","type":"bool","internalType":"bool"}],"stateMutability":"view"},{"type":"function","name":"name","inputs":[],"outputs":[{"name":"","type":"string","internalType":"string"}],"stateMutability":"view"},{"type":"function","name":"owner","inputs":[],"outputs":[{"name":"","type":"address","internalType":"address"}],"stateMutability":"view"},{"type":"function","name":"ownerOf","inputs":[{"name":"tokenId","type":"uint256","internalType":"uint256"}],"outputs":[{"name":"","type":"address","internalType":"address"}],"stateMutability":"view"},{"type":"function","name":"recordProjectCreated","inputs":[{"name":"user","type":"address","internalType":"address"},{"name":"projectValue","type":"uint256","internalType":"uint256"}],"outputs":[],"stateMutability":"nonpayable"},{"type":"function","name":"removeManager","inputs":[{"name":"manager","type":"address","internalType":"address"}],"outputs":[],"stateMutability":"nonpayable"},{"type":"function","name":"renounceOwnership","inputs":[],"outputs":[],"stateMutability":"nonpayable"},{"type":"function","name":"safeTransferFrom","inputs":[{"name":"from","type":"address","internalType":"address"},{"name":"to","type":"address","internalType":"address"},{"name":"tokenId","type":"uint256","internalType":"uint256"}],"outputs":[],"stateMutability":"nonpayable"},{"type":"function","name":"safeTransferFrom","inputs":[{"name":"from","type":"address","internalType":"address"},{"name":"to","type":"address","internalType":"address"},{"name":"tokenId","type":"uint256","internalType":"uint256"},{"name":"data","type":"bytes","internalType":"bytes"}],"outputs":[],"stateMutability":"nonpayable"},{"type":"function","name":"setApprovalForAll","inputs":[{"name":"operator","type":"address","internalType":"address"},{"name":"approved","type":"bool","internalType":"bool"}],"outputs":[],"stateMutability":"nonpayable"},{"type":"function","name":"stablecoin","inputs":[],"outputs":[{"name":"","type":"address","internalType":"contract IERC20"}],"stateMutability":"view"},{"type":"function","name":"subscribe","inputs":[{"name":"tier","type":"uint8","internalType":"enum EnterpriseAccess.Tier"},{"name":"companyName","type":"string","internalType":"string"}],"outputs":[{"name":"","type":"uint256","internalType":"uint256"}],"stateMutability":"nonpayable"},{"type":"function","name":"subscriptionCounter","inputs":[],"outputs":[{"name":"","type":"uint256","internalType":"uint256"}],"stateMutability":"view"},{"type":"function","name":"subscriptions","inputs":[{"name":"","type":"uint256","internalType":"uint256"}],"outputs":[{"name":"admin","type":"address","internalType":"address"},{"name":"companyName","type":"string","internalType":"string"},{"name":"tier","type":"uint8","internalType":"enum EnterpriseAccess.Tier"},{"name":"status","type":"uint8","internalType":"enum EnterpriseAccess.SubscriptionStatus"},{"name":"startTime","type":"uint256","internalType":"uint256"},{"name":"expiryTime","type":"uint256","internalType":"uint256"}],"stateMutability":"view"},{"type":"function","name":"supportsInterface","inputs":[{"name":"interfaceId","type":"bytes4","internalType":"bytes4"}],"outputs":[{"name":"","type":"bool","internalType":"bool"}],"stateMutability":"view"},{"type":"function","name":"symbol","inputs":[],"outputs":[{"name":"","type":"string","internalType":"string"}],"stateMutability":"view"},{"type":"function","name":"tokenURI","inputs":[{"name":"tokenId","type":"uint256","internalType":"uint256"}],"outputs":[{"name":"","type":"string","internalType":"string"}],"stateMutability":"view"},{"type":"function","name":"transferFrom","inputs":[{"name":"from","type":"address","internalType":"address"},{"name":"to","type":"address","internalType":"address"},{"name":"tokenId","type":"uint256","internalType":"uint256"}],"outputs":[],"stateMutability":"nonpayable"},{"type":"function","name":"transferOwnership","inputs":[{"name":"newOwner","type":"address","internalType":"address"}],"outputs":[],"stateMutability":"nonpayable"},{"type":"event","name":"Approval","inputs":[{"name":"owner","type":"address","indexed":true,"internalType":"address"},{"name":"approved","type":"address","indexed":true,"internalType":"address"},{"name":"tokenId","type":"uint256","indexed":true,"internalType":"uint256"}],"anonymous":false},{"type":"event","name":"ApprovalForAll","inputs":[{"name":"owner","type":"address","indexed":true,"internalType":"address"},{"name":"operator","type":"address","indexed":true,"internalType":"address"},{"name":"approved","type":"bool","indexed":false,"internalType":"bool"}],"anonymous":false},{"type":"event","name":"ManagerAdded","inputs":[{"name":"subscriptionId","type":"uint256","indexed":true,"internalType":"uint256"},{"name":"manager","type":"address","indexed":true,"internalType":"address"}],"anonymous":false},{"type":"event","name":"ManagerRemoved","inputs":[{"name":"subscriptionId","type":"uint256","indexed":true,"internalType":"uint256"},{"name":"manager","type":"address","indexed":true,"internalType":"address"}],"anonymous":false},{"type":"event","name":"OwnershipTransferred","inputs":[{"name":"previousOwner","type":"address","indexed":true,"internalType":"address"},{"name":"newOwner","type":"address","indexed":true,"internalType":"address"}],"anonymous":false},{"type":"event","name":"SubscriptionCreated","inputs":[{"name":"subscriptionId","type":"uint256","indexed":true,"internalType":"uint256"},{"name":"admin","type":"address","indexed":true,"internalType":"address"},{"name":"tier","type":"uint8","indexed":false,"internalType":"enum EnterpriseAccess.Tier"}],"anonymous":false},{"type":"event","name":"Transfer","inputs":[{"name":"from","type":"address","indexed":true,"internalType":"address"},{"name":"to","type":"address","indexed":true,"internalType":"address"},{"name":"tokenId","type":"uint256","indexed":true,"internalType":"uint256"}],"anonymous":false},{"type":"error","name":"AlreadyHasSubscription","inputs":[]},{"type":"error","name":"ERC721IncorrectOwner","inputs":[{"name":"sender","type":"address","internalType":"address"},{"name":"tokenId","type":"uint256","internalType":"uint256"},{"name":"owner","type":"address","internalType":"address"}]},{"type":"error","name":"ERC721InsufficientApproval","inputs":[{"name":"operator","type":"address","internalType":"address"},{"name":"tokenId","type":"uint256","internalType":"uint256"}]},{"type":"error","name":"ERC721InvalidApprover","inputs":[{"name":"approver","type":"address","internalType":"address"}]},{"type":"error","name":"ERC721InvalidOperator","inputs":[{"name":"operator","type":"address","internalType":"address"}]},{"type":"error","name":"ERC721InvalidOwner","inputs":[{"name":"owner","type":"address","internalType":"address"}]},{"type":"error","name":"ERC721InvalidReceiver","inputs":[{"name":"receiver","type":"address","internalType":"address"}]},{"type":"error","name":"ERC721InvalidSender","inputs":[{"name":"sender","type":"address","internalType":"address"}]},{"type":"error","name":"ERC721NonexistentToken","inputs":[{"name":"tokenId","type":"uint256","internalType":"uint256"}]},{"type":"error","name":"InvalidTier","inputs":[]},{"type":"error","name":"ManagerAlreadyExists","inputs":[]},{"type":"error","name":"ManagerNotFound","inputs":[]},{"type":"error","name":"NotAdmin","inputs":[]},{"type":"error","name":"OwnableInvalidOwner","inputs":[{"name":"owner","type":"address","internalType":"address"}]},{"type":"error","name":"OwnableUnauthorizedAccount","inputs":[{"name":"account","type":"address","internalType":"address"}]},{"type":"error","name":"ReentrancyGuardReentrantCall","inputs":[]},{"type":"error","name":"SubscriptionExpired","inputs":[]}],"bytecode":{"object":"0x60c034620003f457601f90601f19906001600160401b0362001f453881900385810185168401919083831185841017620003e0578085926040948552833981010312620003f457620000518262000418565b9162000061602080920162000418565b916200006c620003f8565b95601487527f48756d616e576f726b20456e746572707269736500000000000000000000000083880152620000a0620003f8565b60058152641215d1539560da1b84820152875193838511620003e0575f9485549960019a8b81811c91168015620003d5575b84821014620003c1579081868493116200036e575b50839086831160011462000305578892620002f9575b50505f19600383901b1c1916908a1b1785555b8151938411620002e5578854978989811c99168015620002da575b828a1014620002c6578389116200027d575b8585969798995050819385116001146200021957505084926200020d575b50505f19600383901b1c191690851b1784555b3315620001f55760068054336001600160a01b031982168117909255604051956001600160a01b03958694909391928516907f8be0079c531659141344cd1fd0a4f28419497f9722a3daafe3b4186f6b6457e09080a3600755166080521660a052611b1790816200042e823960805181818161023201526108e1015260a051816111ab0152f35b60249060405190631e4fbdf760e01b82526004820152fd5b015190505f806200015b565b899593929193168587528387209387905b8282106200026357505084116200024a575b505050811b0184556200016e565b01515f1960f88460031b161c191690555f80806200023c565b8484015186558b979095019493840193908101906200022a565b89865281862084860160051c810199838710620002bb575b850160051c01988a905b8a8110620002af5750506200013d565b878155018a906200029f565b909950899062000295565b634e487b7160e01b86526022600452602486fd5b98607f16986200012b565b634e487b7160e01b85526041600452602485fd5b015190505f80620000fd565b908b8d941691898052858a20928a5b878282106200034e575050841162000335575b505050811b01855562000110565b01515f1960f88460031b161c191690555f808062000327565b91929395968291958786015181550195019301908e959493929162000314565b9091508780528388208680850160051c820192868610620003b7575b918e91869594930160051c01915b828110620003a8575050620000e7565b8a81558594508e910162000398565b925081926200038a565b634e487b7160e01b88526022600452602488fd5b90607f1690620000d2565b634e487b7160e01b5f52604160045260245ffd5b5f80fd5b60408051919082016001600160401b03811183821017620003e057604052565b51906001600160a01b0382168203620003f45756fe60806040818152600480361015610014575f80fd5b5f92833560e01c90816301ffc9a7146113d15750806306fdde0314611329578063081812fc146112ee578063095ea7b3146112125780630fa085ea146111da578063141bd4e01461119657806323b872dd1461117e5780632b08dd9714610ec35780632ce137f81461115f5780632d06177a146110225780632d5bbf6014610f9057806342842e0e14610f61578063476a8d4314610f325780636352211e14610f0157806366c0675e14610ec357806370a0823114610e6e578063715018a614610e115780637f7d007714610df25780638a36525614610dd25780638da5cb5b14610da95780638fd32f431461081f578063903a82981461080057806395d89b411461071d578063a22cb4651461067c578063ac18de43146104cc578063b660df6a146104ad578063b88d4fde14610419578063c87b56dd146103c6578063ca2b9c9c14610353578063dc311dd3146102b3578063e985e9c514610265578063e9cbd8221461021d5763f2fde38b1461018b575f80fd5b34610219576020366003190112610219576101a461147b565b906101ad611655565b6001600160a01b03918216928315610203575050600654826bffffffffffffffffffffffff60a01b821617600655167f8be0079c531659141344cd1fd0a4f28419497f9722a3daafe3b4186f6b6457e08380a380f35b51631e4fbdf760e01b8152908101849052602490fd5b8280fd5b505034610261578160031936011261026157517f00000000000000000000000000000000000000000000000000000000000000006001600160a01b03168152602090f35b5080fd5b50503461026157806003193601126102615760ff8160209361028561147b565b61028d611495565b6001600160a01b0391821683526005875283832091168252855220549151911615158152f35b509134610350576020366003190112610350578190833581526009602052209060018060a01b03825416916002810154936003820154908201549061033d61030260016005860154950161156a565b9661032d6103218751998a998a5260e060208b015260e08a019061143d565b96880160ff831661160b565b60ff606088019160081c1661162c565b608085015260a084015260c08301520390f35b80fd5b5090346102195780600319360112610219576001600160a01b0361037561147b565b168352600b60205260ff81842054161561038d578280f35b906020606492519162461bcd60e51b835282015260136024820152722737ba1032b73a32b9383934b9b2903ab9b2b960691b6044820152fd5b50919034610261576020366003190112610261576103e7610415933561181c565b508181516103f481611518565b5280519161040183611518565b82525191829160208352602083019061143d565b0390f35b5090346102195760803660031901126102195761043461147b565b61043c611495565b60443591856064359567ffffffffffffffff87116102615736602388011215610261578601359561047861046f88611639565b96519687611548565b868652366024888301011161026157866104aa9760246020930183890137860101526104a5838383611681565b611856565b80f35b50503461026157816003193601126102615760209051631dcd65008152f35b5090346102195760209182600319360112610678576104e961147b565b338552600a84528285205491821561066a57828652600985528386206001600160a01b03928316808852600682018088528689205492979196919260ff161561065a578689528252808820805460ff19908116909155600b90925287208054909116905593600501855b81548082101561064e5783908661056a84866119ba565b939054600394851b1c161461058957505061058490611998565b610553565b915f9791959697949394199283810190811161063b57906105bf856105b16105de94896119ba565b9054908a1b1c1691876119ba565b90919082549060031b9160018060a01b03809116831b921b1916179055565b8354908115610628575001926105f484846119ba565b81939154921b1b19169055555b7f34b9c93db94a7145dadac0eb3b84f734a325fe8cdb7988b2e560739125bf0ddb8380a380f35b634e487b7160e01b895260319052602488fd5b634e487b7160e01b8a526011835260248afd5b50505050909150610601565b81516322a5e34b60e01b81528490fd5b8351637bfa4b9f60e01b8152fd5b8380fd5b50903461021957806003193601126102195761069661147b565b9060243591821515809303610719576001600160a01b03169283156107045750338452600560205280842083855260205280842060ff1981541660ff8416179055519081527f17307eab39ab6107e8899845ad3d59bd9653f200f220920489ca2b5937696c3160203392a380f35b836024925191630b61174360e31b8352820152fd5b8480fd5b505034610261578160031936011261026157805190826001805491610741836114e0565b808652928281169081156107d8575060011461077c575b50505061076a82610415940383611548565b5191829160208352602083019061143d565b94508085527fb10e2d527612073b26eecdfd717e6a320cf44b4afac2b0732d9fcbe2b7fa0cf65b8286106107c05750505061076a8260206104159582010194610758565b805460208787018101919091529095019481016107a3565b61041597508693506020925061076a94915060ff191682840152151560051b82010194610758565b5050346102615781600319360112610261576020906008549051908152f35b50903461021957806003193601126102195781359060058210156106785760249182359267ffffffffffffffff94858511610da55736602386011215610da55784810135958611610da55736828787010111610da557600260075414610d97576002600755338752602095600a875284882054610d885761089f84611a4c565b6108a885611a9c565b908015610d78579089949392918751906323b872dd60e01b8252338583015230868301526044820152898160648160018060a01b039e8f7f0000000000000000000000000000000000000000000000000000000000000000165af1908115610d6e578691610d34575b5015610d0157610922600854611998565b978860085587519261093384611518565b8684523315610ceb57899a9b8a889b9a9b5260028d528a88205416938c60028615159182610cba575b338b52600381528d8b209c60019d8e81540190558b52528c8c8a20966bffffffffffffffffffffffff60a01b97338982541617905533907fddf252ad1be2c89b69c2b068fc378daa952ba7f163c4a11628f55a4df523b3ef8c80a4610ca457333b610b85575b508a875260098c5289872093339085541617845580868d8b8701946109e786546114e0565b601f8111610b26575b508a91601f8511600114610ab957508a93610aac575b5050505f19600383901b1c191690891b1790555b60028201805460ff88169061ffff1916179055426003830155420192834211610a9b57500155338152600a8652838120859055600b8652839020805460ff191683179055825190610a6c90829061160b565b837ff90a2f2ee288427baeb4aa88768a971bcd66b5fbadef57c2ee7534aeeb5d7dba863393a360075551908152f35b634e487b7160e01b85526011835284fd5b0101359050865f80610a06565b9290918d9550601f198516878d52848d20948d905b828210610b075750508511610aec575b50505050811b019055610a1a565b5f1960f88660031b161c19920101351690555f808881610ade565b8584019094013586558f9795909501948c939283019290810190610ace565b9192509250848a52818a2090601f850160051c8201928510610b7b575b928f91928d8b94601f88970160051c01915b828110610b635750506109f0565b929550925092508a81550183928f91928d8b94610b55565b9091508190610b43565b948798958d829d99899f9c99610bc68f519485938493630a85bd0160e11b9889865233908601528401528d604484015260806064840152608483019061143d565b03818d335af18a9181610c60575b50610c2e578d8d8d8d8d3d15610c26573d610bee81611639565b90610bfb85519283611548565b81528091833d92013e5b80519182610c23575050505190633250574960e11b82523390820152fd5b01fd5b506060610c05565b63ffffffff60e09e989b9e9d979a999d1b1603610c4b575f6109c2565b8951633250574960e11b815233818701528690fd5b9091508b81813d8311610c9d575b610c788183611548565b81010312610c9957516001600160e01b031981168103610c9957905f610bd4565b8a80fd5b503d610c6e565b8a516339e3563760e11b81528087018990528790fd5b5f8d815260046020526040902080546001600160a01b0319169055878b52600381528d8b2080545f1901905561095c565b8851633250574960e11b81528086018890528690fd5b865162461bcd60e51b81528084018a9052600e818601526d14185e5b595b9d0819985a5b195960921b6044820152606490fd5b90508981813d8311610d67575b610d4b8183611548565b81010312610d6357518015158103610d63575f610911565b8580fd5b503d610d41565b88513d88823e3d90fd5b865163e142361760e01b81528490fd5b508351630c0168d760e01b8152fd5b8351633ee5aeb560e01b8152fd5b8680fd5b50503461026157816003193601126102615760065490516001600160a01b039091168152602090f35b5050346102615781600319360112610261576020905164012a05f2008152f35b505034610261578160031936011261026157602090516305f5e1008152f35b8334610350578060031936011261035057610e2a611655565b600680546001600160a01b0319811690915581906001600160a01b03167f8be0079c531659141344cd1fd0a4f28419497f9722a3daafe3b4186f6b6457e08280a380f35b509134610350576020366003190112610350576001600160a01b03610e9161147b565b16928315610eae5750806020938392526003845220549051908152f35b91516322718ad960e21b815291820152602490fd5b5050346102615760203660031901126102615760209160ff9082906001600160a01b03610eee61147b565b168152600b855220541690519015158152f35b5091346103505760203660031901126103505750610f216020923561181c565b90516001600160a01b039091168152f35b50503461026157602036600319011261026157602090610f58610f5361147b565b6119e3565b90519015158152f35b505034610261576104aa90610f75366114ab565b91925192610f8284611518565b8584526104a5838383611681565b508234610350576020366003190112610350578290823581526009602052209160018060a01b0383541691610fc76001850161156a565b93611014600282015492600383015492015492611004610ff88651988998895260c060208a015260c089019061143d565b95870160ff831661160b565b60ff606087019160081c1661162c565b608084015260a08301520390f35b5034610219576020806003193601126106785761103d61147b565b92338552600a82528085205492831561115157838652600983528186209460ff600287015460081c168281101561113e5761112f576001600160a01b0381168088526006870180865284892054919790939160ff16611120576005018054916801000000000000000083101561110d5750916105bf826001969594876110c5950181556119ba565b8587528352600b8187209360ff19948486825416179055528520918254161790557f4ac17ddaaaaa8696605bc54646eaddba6bdd91646bda08f6f11da6dd2a4812b38380a380f35b634e487b7160e01b8a5260419052602489fd5b508351636c0b3b8160e11b8152fd5b50905163893dcecf60e01b8152fd5b634e487b7160e01b885260218352602488fd5b9051637bfa4b9f60e01b8152fd5b50503461026157816003193601126102615760209051633b9aca008152f35b8334610350576104aa611190366114ab565b91611681565b505034610261578160031936011261026157517f00000000000000000000000000000000000000000000000000000000000000006001600160a01b03168152602090f35b5050346102615760203660031901126102615760209181906001600160a01b0361120261147b565b168152600a845220549051908152f35b50903461021957806003193601126102195761122c61147b565b916024356112398161181c565b331515806112db575b806112b2575b61129c576001600160a01b039485169482918691167f8c5be1e5ebec7d5bd14f71427d1e84f3dd0314c0f7b2291e5b200ac8c7c3b9258880a48452602052822080546001600160a01b031916909117905580f35b835163a9fbf51f60e01b81523381850152602490fd5b506001600160a01b03811686526005602090815284872033885290528386205460ff1615611248565b506001600160a01b038116331415611242565b50346102195760203660031901126102195791826020933561130f8161181c565b50825283528190205490516001600160a01b039091168152f35b50503461026157816003193601126102615780519082805461134a816114e0565b808552916001918083169081156107d857506001146113755750505061076a82610415940383611548565b80809650527f290decd9548b62a8d60345a988386fc84ba6bc95484008f6362f93160ef3e5635b8286106113b95750505061076a8260206104159582010194610758565b8054602087870181019190915290950194810161139c565b92505034610219576020366003190112610219573563ffffffff60e01b811680910361021957602092506380ac58cd60e01b811490811561142c575b811561141b575b5015158152f35b6301ffc9a760e01b1490505f611414565b635b5e139f60e01b8114915061140d565b91908251928382525f5b848110611467575050825f602080949584010152601f8019910116010190565b602081830181015184830182015201611447565b600435906001600160a01b038216820361149157565b5f80fd5b602435906001600160a01b038216820361149157565b6060906003190112611491576001600160a01b0390600435828116810361149157916024359081168103611491579060443590565b90600182811c9216801561150e575b60208310146114fa57565b634e487b7160e01b5f52602260045260245ffd5b91607f16916114ef565b6020810190811067ffffffffffffffff82111761153457604052565b634e487b7160e01b5f52604160045260245ffd5b90601f8019910116810190811067ffffffffffffffff82111761153457604052565b9060405191825f82549261157d846114e0565b9081845260019485811690815f146115e857506001146115a8575b50506115a692500383611548565b565b909391505f52602090815f20935f915b8183106115d05750506115a693508201015f80611598565b855488840185015294850194879450918301916115b8565b9150506115a694506020925060ff191682840152151560051b8201015f80611598565b9060058210156116185752565b634e487b7160e01b5f52602160045260245ffd5b9060048210156116185752565b67ffffffffffffffff811161153457601f01601f191660200190565b6006546001600160a01b0316330361166957565b60405163118cdaa760e01b8152336004820152602490fd5b6001600160a01b039182169290918315611804575f9282845282602095600287526040968488882054169687913315158061176e575b509060027fddf252ad1be2c89b69c2b068fc378daa952ba7f163c4a11628f55a4df523b3ef928461173d575b858352600381528b8320805460010190558683525289812080546001600160a01b0319168517905580a4169283830361171c5750505050565b6064945051926364283d7b60e01b8452600484015260248301526044820152fd5b5f87815260046020526040902080546001600160a01b0319169055848352600381528b832080545f190190556116e3565b919394509150806117c3575b1561178a5785929187915f6116b7565b8786886117a7576024915190637e27328960e01b82526004820152fd5b604491519063177e802f60e01b82523360048301526024820152fd5b5033871480156117e8575b8061177a575085825260048152338589842054161461177a565b5086825260058152878220338352815260ff88832054166117ce565b604051633250574960e11b81525f6004820152602490fd5b5f818152600260205260409020546001600160a01b031690811561183e575090565b60249060405190637e27328960e01b82526004820152fd5b813b611863575b50505050565b604051630a85bd0160e11b8082523360048301526001600160a01b039283166024830152604482019490945260806064820152602095929091169390929083906118b190608483019061143d565b039285815f958187895af1849181611958575b50611923575050503d5f1461191b573d6118dd81611639565b906118eb6040519283611548565b81528091843d92013e5b8051928361191657604051633250574960e11b815260048101849052602490fd5b019050fd5b5060606118f5565b919450915063ffffffff60e01b160361194057505f80808061185d565b60249060405190633250574960e11b82526004820152fd5b9091508681813d8311611991575b6119708183611548565b8101031261071957516001600160e01b03198116810361071957905f6118c4565b503d611966565b5f1981146119a65760010190565b634e487b7160e01b5f52601160045260245ffd5b80548210156119cf575f5260205f2001905f90565b634e487b7160e01b5f52603260045260245ffd5b6001600160a01b03165f908152600a60205260408120548015611a48578152600960205260ff600260408320015416906005821015611a34575060038114908115611a2c575090565b600491501490565b634e487b7160e01b81526021600452602490fd5b5090565b60058110156116185760018114611a935760028114611a895760038114611a8057600414611a78575f90565b633b9aca0090565b506305f5e10090565b5064012a05f20090565b50631dcd650090565b60058110156116185760018114611ad05760028114611ad85760038114611ad057600414611ac8575f90565b6301e1338090565b5062278d0090565b506301e133809056fea2646970667358221220759ca4f8e1100c5779fdd81673b2905d71ce25fcd39a566beea2efb542c2230c64736f6c63430008140033","linkReferences":{}},"methodIdentifiers":{"AGENCY_ANNUAL_FEE()":"2ce137f8","AGENCY_MONTHLY_FEE()":"7f7d0077","CLIENT_ANNUAL_FEE()":"8a365256","CLIENT_MONTHLY_FEE()":"b660df6a","addManager(address)":"2d06177a","adminToSubscription(address)":"0fa085ea","agencyRegistry()":"141bd4e0","approve(address,uint256)":"095ea7b3","balanceOf(address)":"70a08231","enterpriseUsers(address)":"2b08dd97","getApproved(uint256)":"081812fc","getSubscription(uint256)":"dc311dd3","isAgencySubscriber(address)":"476a8d43","isApprovedForAll(address,address)":"e985e9c5","isEnterpriseUser(address)":"66c0675e","name()":"06fdde03","owner()":"8da5cb5b","ownerOf(uint256)":"6352211e","recordProjectCreated(address,uint256)":"ca2b9c9c","removeManager(address)":"ac18de43","renounceOwnership()":"715018a6","safeTransferFrom(address,address,uint256)":"42842e0e","safeTransferFrom(address,address,uint256,bytes)":"b88d4fde","setApprovalForAll(address,bool)":"a22cb465","stablecoin()":"e9cbd822","subscribe(uint8,string)":"8fd32f43","subscriptionCounter()":"903a8298","subscriptions(uint256)":"2d5bbf60","supportsInterface(bytes4)":"01ffc9a7","symbol()":"95d89b41","tokenURI(uint256)":"c87b56dd","transferFrom(address,address,uint256)":"23b872dd","transferOwnership(address)":"f2fde38b"},"id":38}