{"abi":[{"type":"constructor","inputs":[{"name":"_stablecoin","type":"address","internalType":"address"},{"name":"_agencyRegistry","type":"address","internalType":"address"}],"stateMutability":"nonpayable"},{"type":"function","name":"AGENCY_ANNUAL_FEE","inputs":[],"outputs":[{"name":"","type":"uint256","internalType":"uint256"}],"stateMutability":"view"},{"type":"function","name":"AGENCY_MONTHLY_FEE","inputs":[],"outputs":[{"name":"","type":"uint256","internalType":"uint256"}],"stateMutability":"view"},{"type":"function","name":"CLIENT_ANNUAL_FEE","inputs":[],"outputs":[{"name":"","type":"uint256","internalType":"uint256"}],"stateMutability":"view"},{"type":"function","name":"CLIENT_MONTHLY_FEE","inputs":[],"outputs":[{"name":"","type":"uint256","internalType":"uint256"}],"stateMutability":"view"},{"type":"function","name":"addManager","inputs":[{"name":"manager","type":"address","internalType":"address"}],"outputs":[],"stateMutability":"nonpayable"},{"type":"function","name":"adminToSubscription","inputs":[{"name":"","type":"address","internalType":"address"}],"outputs":[{"name":"","type":"uint256","internalType":"uint256"}],"stateMutability":"view"},{"type":"function","name":"agencyRegistry","inputs":[],"outputs":[{"name":"","type":"address","internalType":"contract AgencyRegistry"}],"stateMutability":"view"},{"type":"function","name":"approve","inputs":[{"name":"to","type":"address","internalType":"address"},{"name":"tokenId","type":"uint256","internalType":"uint256"}],"outputs":[],"stateMutability":"nonpayable"},{"type":"function","name":"balanceOf","inputs":[{"name":"owner","type":"address","internalType":"address"}],"outputs":[{"name":"","type":"uint256","internalType":"uint256"}],"stateMutability":"view"},{"type":"function","name":"enterpriseUsers","inputs":[{"name":"","type":"address","internalType":"address"}],"outputs":[{"name":"","type":"bool","internalType":"bool"}],"stateMutability":"view"},{"type":"function","name":"getApproved","inputs":[{"name":"tokenId","type":"uint256","internalType":"uint256"}],"outputs":[{"name":"","type":"address","internalType":"address"}],"stateMutability":"view"},{"type":"function","name":"getSubscription","inputs":[{"name":"subscriptionId","type":"uint256","internalType":"uint256"}],"outputs":[{"name":"admin","type":"address","internalType":"address"},{"name":"companyName","type":"string","internalType":"string"},{"name":"tier","type":"uint8","internalType":"enum EnterpriseAccess.Tier"},{"name":"status","type":"uint8","internalType":"enum EnterpriseAccess.SubscriptionStatus"},{"name":"startTime","type":"uint256","internalType":"uint256"},{"name":"expiryTime","type":"uint256","internalType":"uint256"},{"name":"managerCount","type":"uint256","internalType":"uint256"}],"stateMutability":"view"},{"type":"function","name":"isAgencySubscriber","inputs":[{"name":"user","type":"address","internalType":"address"}],"outputs":[{"name":"","type":"bool","internalType":"bool"}],"stateMutability":"view"},{"type":"function","name":"isApprovedForAll","inputs":[{"name":"owner","type":"address","internalType":"address"},{"name":"operator","type":"address","internalType":"address"}],"outputs":[{"name":"","type":"bool","internalType":"bool"}],"stateMutability":"view"},{"type":"function","name":"isEnterpriseUser","inputs":[{"name":"user","type":"address","internalType":"address"}],"outputs":[{"name":"","type":"bool","internalType":"bool"}],"stateMutability":"view"},{"type":"function","name":"name","inputs":[],"outputs":[{"name":"","type":"string","internalType":"string"}],"stateMutability":"view"},{"type":"function","name":"owner","inputs":[],"outputs":[{"name":"","type":"address","internalType":"address"}],"stateMutability":"view"},{"type":"function","name":"ownerOf","inputs":[{"name":"tokenId","type":"uint256","internalType":"uint256"}],"outputs":[{"name":"","type":"address","internalType":"address"}],"stateMutability":"view"},{"type":"function","name":"recordProjectCreated","inputs":[{"name":"user","type":"address","internalType":"address"},{"name":"projectValue","type":"uint256","internalType":"uint256"}],"outputs":[],"stateMutability":"nonpayable"},{"type":"function","name":"removeManager","inputs":[{"name":"manager","type":"address","internalType":"address"}],"outputs":[],"stateMutability":"nonpayable"},{"type":"function","name":"renounceOwnership","inputs":[],"outputs":[],"stateMutability":"nonpayable"},{"type":"function","name":"safeTransferFrom","inputs":[{"name":"from","type":"address","internalType":"address"},{"name":"to","type":"address","internalType":"address"},{"name":"tokenId","type":"uint256","internalType":"uint256"}],"outputs":[],"stateMutability":"nonpayable"},{"type":"function","name":"safeTransferFrom","inputs":[{"name":"from","type":"address","internalType":"address"},{"name":"to","type":"address","internalType":"address"},{"name":"tokenId","type":"uint256","internalType":"uint256"},{"name":"data","type":"bytes","internalType":"bytes"}],"outputs":[],"stateMutability":"nonpayable"},{"type":"function","name":"setApprovalForAll","inputs":[{"name":"operator","type":"address","internalType":"address"},{"name":"approved","type":"bool","internalType":"bool"}],"outputs":[],"stateMutability":"nonpayable"},{"type":"function","name":"stablecoin","inputs":[],"outputs":[{"name":"","type":"address","internalType":"contract IERC20"}],"stateMutability":"view"},{"type":"function","name":"subscribe","inputs":[{"name":"tier","type":"uint8","internalType":"enum EnterpriseAccess.Tier"},{"name":"companyName","type":"string","internalType":"string"}],"outputs":[{"name":"","type":"uint256","internalType":"uint256"}],"stateMutability":"nonpayable"},{"type":"function","name":"subscriptionCounter","inputs":[],"outputs":[{"name":"","type":"uint256","internalType":"uint256"}],"stateMutability":"view"},{"type":"function","name":"subscriptions","inputs":[{"name":"","type":"uint256","internalType":"uint256"}],"outputs":[{"name":"admin","type":"address","internalType":"address"},{"name":"companyName","type":"string","internalType":"string"},{"name":"tier","type":"uint8","internalType":"enum EnterpriseAccess.Tier"},{"name":"status","type":"uint8","internalType":"enum EnterpriseAccess.SubscriptionStatus"},{"name":"startTime","type":"uint256","internalType":"uint256"},{"name":"expiryTime","type":"uint256","internalType":"uint256"}],"stateMutability":"view"},{"type":"function","name":"supportsInterface","inputs":[{"name":"interfaceId","type":"bytes4","internalType":"bytes4"}],"outputs":[{"name":"","type":"bool","internalType":"bool"}],"stateMutability":"view"},{"type":"function","name":"symbol","inputs":[],"outputs":[{"name":"","type":"string","internalType":"string"}],"stateMutability":"view"},{"type":"function","name":"tokenURI","inputs":[{"name":"tokenId","type":"uint256","internalType":"uint256"}],"outputs":[{"name":"","type":"string","internalType":"string"}],"stateMutability":"view"},{"type":"function","name":"transferFrom","inputs":[{"name":"from","type":"address","internalType":"address"},{"name":"to","type":"address","internalType":"address"},{"name":"tokenId","type":"uint256","internalType":"uint256"}],"outputs":[],"stateMutability":"nonpayable"},{"type":"function","name":"transferOwnership","inputs":[{"name":"newOwner","type":"address","internalType":"address"}],"outputs":[],"stateMutability":"nonpayable"},{"type":"event","name":"Approval","inputs":[{"name":"owner","type":"address","indexed":true,"internalType":"address"},{"name":"approved","type":"address","indexed":true,"internalType":"address"},{"name":"tokenId","type":"uint256","indexed":true,"internalType":"uint256"}],"anonymous":false},{"type":"event","name":"ApprovalForAll","inputs":[{"name":"owner","type":"address","indexed":true,"internalType":"address"},{"name":"operator","type":"address","indexed":true,"internalType":"address"},{"name":"approved","type":"bool","indexed":false,"internalType":"bool"}],"anonymous":false},{"type":"event","name":"ManagerAdded","inputs":[{"name":"subscriptionId","type":"uint256","indexed":true,"internalType":"uint256"},{"name":"manager","type":"address","indexed":true,"internalType":"address"}],"anonymous":false},{"type":"event","name":"ManagerRemoved","inputs":[{"name":"subscriptionId","type":"uint256","indexed":true,"internalType":"uint256"},{"name":"manager","type":"address","indexed":true,"internalType":"address"}],"anonymous":false},{"type":"event","name":"OwnershipTransferred","inputs":[{"name":"previousOwner","type":"address","indexed":true,"internalType":"address"},{"name":"newOwner","type":"address","indexed":true,"internalType":"address"}],"anonymous":false},{"type":"event","name":"SubscriptionCreated","inputs":[{"name":"subscriptionId","type":"uint256","indexed":true,"internalType":"uint256"},{"name":"admin","type":"address","indexed":true,"internalType":"address"},{"name":"tier","type":"uint8","indexed":false,"internalType":"enum EnterpriseAccess.Tier"}],"anonymous":false},{"type":"event","name":"Transfer","inputs":[{"name":"from","type":"address","indexed":true,"internalType":"address"},{"name":"to","type":"address","indexed":true,"internalType":"address"},{"name":"tokenId","type":"uint256","indexed":true,"internalType":"uint256"}],"anonymous":false},{"type":"error","name":"AlreadyHasSubscription","inputs":[]},{"type":"error","name":"ERC721IncorrectOwner","inputs":[{"name":"sender","type":"address","internalType":"address"},{"name":"tokenId","type":"uint256","internalType":"uint256"},{"name":"owner","type":"address","internalType":"address"}]},{"type":"error","name":"ERC721InsufficientApproval","inputs":[{"name":"operator","type":"address","internalType":"address"},{"name":"tokenId","type":"uint256","internalType":"uint256"}]},{"type":"error","name":"ERC721InvalidApprover","inputs":[{"name":"approver","type":"address","internalType":"address"}]},{"type":"error","name":"ERC721InvalidOperator","inputs":[{"name":"operator","type":"address","internalType":"address"}]},{"type":"error","name":"ERC721InvalidOwner","inputs":[{"name":"owner","type":"address","internalType":"address"}]},{"type":"error","name":"ERC721InvalidReceiver","inputs":[{"name":"receiver","type":"address","internalType":"address"}]},{"type":"error","name":"ERC721InvalidSender","inputs":[{"name":"sender","type":"address","internalType":"address"}]},{"type":"error","name":"ERC721NonexistentToken","inputs":[{"name":"tokenId","type":"uint256","internalType":"uint256"}]},{"type":"error","name":"InvalidTier","inputs":[]},{"type":"error","name":"ManagerAlreadyExists","inputs":[]},{"type":"error","name":"ManagerNotFound","inputs":[]},{"type":"error","name":"NotAdmin","inputs":[]},{"type":"error","name":"OwnableInvalidOwner","inputs":[{"name":"owner","type":"address","internalType":"address"}]},{"type":"error","name":"OwnableUnauthorizedAccount","inputs":[{"name":"account","type":"address","internalType":"address"}]},{"type":"error","name":"ReentrancyGuardReentrantCall","inputs":[]},{"type":"error","name":"SubscriptionExpired","inputs":[]}],"bytecode":{"object":"0x60c034620003fb57601f90601f19906001600160401b0362001f753881900385810185168401919083831185841017620003e5578085926040948552833981010312620003fb57620000518262000420565b9162000061602080920162000420565b916200006c62000400565b95601487527f48756d616e576f726b20456e746572707269736500000000000000000000000083880152620000a062000400565b60058152641215d1539560da1b84820152875193838511620003e55760009485549960019a8b81811c91168015620003da575b84821014620003c65790818684931162000373575b50839086831160011462000309578892620002fd575b5050600019600383901b1c1916908a1b1785555b8151938411620002e9578854978989811c99168015620002de575b828a1014620002ca5783891162000281575b8585969798995050819385116001146200021c575050849262000210575b5050600019600383901b1c191690851b1784555b3315620001f85760068054336001600160a01b031982168117909255604051956001600160a01b03958694909391928516907f8be0079c531659141344cd1fd0a4f28419497f9722a3daafe3b4186f6b6457e09080a3600755166080521660a052611b3f908162000436823960805181818161023501526108e5015260a051816111b30152f35b60249060405190631e4fbdf760e01b82526004820152fd5b0151905038806200015d565b899593929193168587528387209387905b8282106200026757505084116200024d575b505050811b01845562000171565b015160001960f88460031b161c191690553880806200023f565b8484015186558b979095019493840193908101906200022d565b89865281862084860160051c810199838710620002bf575b850160051c01988a905b8a8110620002b35750506200013f565b878155018a90620002a3565b909950899062000299565b634e487b7160e01b86526022600452602486fd5b98607f16986200012d565b634e487b7160e01b85526041600452602485fd5b015190503880620000fe565b908b8d941691898052858a20928a5b8782821062000353575050841162000339575b505050811b01855562000112565b015160001960f88460031b161c191690553880806200032b565b91929395968291958786015181550195019301908e959493929162000318565b9091508780528388208680850160051c820192868610620003bc575b918e91869594930160051c01915b828110620003ad575050620000e8565b8a81558594508e91016200039d565b925081926200038f565b634e487b7160e01b88526022600452602488fd5b90607f1690620000d3565b634e487b7160e01b600052604160045260246000fd5b600080fd5b60408051919082016001600160401b03811183821017620003e557604052565b51906001600160a01b0382168203620003fb5756fe6080604081815260048036101561001557600080fd5b600092833560e01c90816301ffc9a7146113d95750806306fdde0314611331578063081812fc146112f6578063095ea7b31461121a5780630fa085ea146111e2578063141bd4e01461119e57806323b872dd146111865780632b08dd9714610ecb5780632ce137f8146111675780632d06177a1461102a5780632d5bbf6014610f9857806342842e0e14610f69578063476a8d4314610f3a5780636352211e14610f0957806366c0675e14610ecb57806370a0823114610e76578063715018a614610e195780637f7d007714610dfa5780638a36525614610dda5780638da5cb5b14610db15780638fd32f4314610823578063903a82981461080457806395d89b4114610721578063a22cb46514610680578063ac18de43146104cf578063b660df6a146104b0578063b88d4fde1461041c578063c87b56dd146103c9578063ca2b9c9c14610356578063dc311dd3146102b6578063e985e9c514610268578063e9cbd822146102205763f2fde38b1461018e57600080fd5b3461021c57602036600319011261021c576101a7611485565b906101b061166b565b6001600160a01b03918216928315610206575050600654826bffffffffffffffffffffffff60a01b821617600655167f8be0079c531659141344cd1fd0a4f28419497f9722a3daafe3b4186f6b6457e08380a380f35b51631e4fbdf760e01b8152908101849052602490fd5b8280fd5b505034610264578160031936011261026457517f00000000000000000000000000000000000000000000000000000000000000006001600160a01b03168152602090f35b5080fd5b50503461026457806003193601126102645760ff81602093610288611485565b6102906114a0565b6001600160a01b0391821683526005875283832091168252855220549151911615158152f35b509134610353576020366003190112610353578190833581526009602052209060018060a01b038254169160028101549360038201549082015490610340610305600160058601549501611579565b966103306103248751998a998a5260e060208b015260e08a0190611445565b96880160ff831661161f565b60ff606088019160081c16611642565b608085015260a084015260c08301520390f35b80fd5b50903461021c578060031936011261021c576001600160a01b03610378611485565b168352600b60205260ff818420541615610390578280f35b906020606492519162461bcd60e51b835282015260136024820152722737ba1032b73a32b9383934b9b2903ab9b2b960691b6044820152fd5b50919034610264576020366003190112610264576103ea6104189335611836565b508181516103f781611525565b5280519161040483611525565b825251918291602083526020830190611445565b0390f35b50903461021c57608036600319011261021c57610437611485565b61043f6114a0565b60443591856064359567ffffffffffffffff87116102645736602388011215610264578601359561047b6104728861164f565b96519687611557565b868652366024888301011161026457866104ad9760246020930183890137860101526104a8838383611697565b611871565b80f35b50503461026457816003193601126102645760209051631dcd65008152f35b50903461021c576020918260031936011261067c576104ec611485565b338552600a84528285205491821561066e57828652600985528386206001600160a01b03928316808852600682018088528689205492979196919260ff161561065e578689528252808820805460ff19908116909155600b90925287208054909116905593600501855b8154808210156106525783908661056d84866119da565b939054600394851b1c161461058c575050610587906119b5565b610556565b9160009791959697949394199283810190811161063f57906105c3856105b56105e294896119da565b9054908a1b1c1691876119da565b90919082549060031b9160018060a01b03809116831b921b1916179055565b835490811561062c575001926105f884846119da565b81939154921b1b19169055555b7f34b9c93db94a7145dadac0eb3b84f734a325fe8cdb7988b2e560739125bf0ddb8380a380f35b634e487b7160e01b895260319052602488fd5b634e487b7160e01b8a526011835260248afd5b50505050909150610605565b81516322a5e34b60e01b81528490fd5b8351637bfa4b9f60e01b8152fd5b8380fd5b50903461021c578060031936011261021c5761069a611485565b906024359182151580930361071d576001600160a01b03169283156107085750338452600560205280842083855260205280842060ff1981541660ff8416179055519081527f17307eab39ab6107e8899845ad3d59bd9653f200f220920489ca2b5937696c3160203392a380f35b836024925191630b61174360e31b8352820152fd5b8480fd5b505034610264578160031936011261026457805190826001805491610745836114eb565b808652928281169081156107dc5750600114610780575b50505061076e82610418940383611557565b51918291602083526020830190611445565b94508085527fb10e2d527612073b26eecdfd717e6a320cf44b4afac2b0732d9fcbe2b7fa0cf65b8286106107c45750505061076e826020610418958201019461075c565b805460208787018101919091529095019481016107a7565b61041897508693506020925061076e94915060ff191682840152151560051b8201019461075c565b5050346102645781600319360112610264576020906008549051908152f35b50903461021c578060031936011261021c57813590600582101561067c5760249182359267ffffffffffffffff94858511610dad5736602386011215610dad5784810135958611610dad5736828787010111610dad57600260075414610d9f576002600755338752602095600a875284882054610d90576108a384611a72565b6108ac85611ac3565b908015610d80579089949392918751906323b872dd60e01b8252338583015230868301526044820152898160648160018060a01b039e8f7f0000000000000000000000000000000000000000000000000000000000000000165af1908115610d76578691610d3c575b5015610d09576109266008546119b5565b978860085587519261093784611525565b8684523315610cf357899a9b8a889b9a9b5260028d528a88205416938c60028615159182610cc0575b338b52600381528d8b209c60019d8e81540190558b52528c8c8a20966bffffffffffffffffffffffff60a01b97338982541617905533907fddf252ad1be2c89b69c2b068fc378daa952ba7f163c4a11628f55a4df523b3ef8c80a4610caa57333b610b8b575b508a875260098c5289872093339085541617845580868d8b8701946109eb86546114eb565b601f8111610b2c575b508a91601f8511600114610abe57508a93610ab1575b505050600019600383901b1c191690891b1790555b60028201805460ff88169061ffff1916179055426003830155420192834211610aa057500155338152600a8652838120859055600b8652839020805460ff191683179055825190610a7190829061161f565b837ff90a2f2ee288427baeb4aa88768a971bcd66b5fbadef57c2ee7534aeeb5d7dba863393a360075551908152f35b634e487b7160e01b85526011835284fd5b0101359050863880610a0a565b9290918d9550601f198516878d52848d20948d905b828210610b0d5750508511610af1575b50505050811b019055610a1f565b60001960f88660031b161c199201013516905538808881610ae3565b8584019094013586558f9795909501948c939283019290810190610ad3565b9192509250848a52818a2090601f850160051c8201928510610b81575b928f91928d8b94601f88970160051c01915b828110610b695750506109f4565b929550925092508a81550183928f91928d8b94610b5b565b9091508190610b49565b948798958d829d99899f9c99610bcc8f519485938493630a85bd0160e11b9889865233908601528401528d6044840152608060648401526084830190611445565b03818d335af18a9181610c66575b50610c34578d8d8d8d8d3d15610c2c573d610bf48161164f565b90610c0185519283611557565b81528091833d92013e5b80519182610c29575050505190633250574960e11b82523390820152fd5b01fd5b506060610c0b565b63ffffffff60e09e989b9e9d979a999d1b1603610c5157386109c6565b8951633250574960e11b815233818701528690fd5b9091508b81813d8311610ca3575b610c7e8183611557565b81010312610c9f57516001600160e01b031981168103610c9f579038610bda565b8a80fd5b503d610c74565b8a516339e3563760e11b81528087018990528790fd5b60008d815260046020526040902080546001600160a01b0319169055878b52600381528d8b208054600019019055610960565b8851633250574960e11b81528086018890528690fd5b865162461bcd60e51b81528084018a9052600e818601526d14185e5b595b9d0819985a5b195960921b6044820152606490fd5b90508981813d8311610d6f575b610d538183611557565b81010312610d6b57518015158103610d6b5738610915565b8580fd5b503d610d49565b88513d88823e3d90fd5b865163e142361760e01b81528490fd5b508351630c0168d760e01b8152fd5b8351633ee5aeb560e01b8152fd5b8680fd5b50503461026457816003193601126102645760065490516001600160a01b039091168152602090f35b5050346102645781600319360112610264576020905164012a05f2008152f35b505034610264578160031936011261026457602090516305f5e1008152f35b8334610353578060031936011261035357610e3261166b565b600680546001600160a01b0319811690915581906001600160a01b03167f8be0079c531659141344cd1fd0a4f28419497f9722a3daafe3b4186f6b6457e08280a380f35b509134610353576020366003190112610353576001600160a01b03610e99611485565b16928315610eb65750806020938392526003845220549051908152f35b91516322718ad960e21b815291820152602490fd5b5050346102645760203660031901126102645760209160ff9082906001600160a01b03610ef6611485565b168152600b855220541690519015158152f35b5091346103535760203660031901126103535750610f2960209235611836565b90516001600160a01b039091168152f35b50503461026457602036600319011261026457602090610f60610f5b611485565b611a08565b90519015158152f35b505034610264576104ad90610f7d366114b6565b91925192610f8a84611525565b8584526104a8838383611697565b508234610353576020366003190112610353578290823581526009602052209160018060a01b0383541691610fcf60018501611579565b9361101c60028201549260038301549201549261100c6110008651988998895260c060208a015260c0890190611445565b95870160ff831661161f565b60ff606087019160081c16611642565b608084015260a08301520390f35b503461021c5760208060031936011261067c57611045611485565b92338552600a82528085205492831561115957838652600983528186209460ff600287015460081c168281101561114657611137576001600160a01b0381168088526006870180865284892054919790939160ff1661112857600501805491680100000000000000008310156111155750916105c3826001969594876110cd950181556119da565b8587528352600b8187209360ff19948486825416179055528520918254161790557f4ac17ddaaaaa8696605bc54646eaddba6bdd91646bda08f6f11da6dd2a4812b38380a380f35b634e487b7160e01b8a5260419052602489fd5b508351636c0b3b8160e11b8152fd5b50905163893dcecf60e01b8152fd5b634e487b7160e01b885260218352602488fd5b9051637bfa4b9f60e01b8152fd5b50503461026457816003193601126102645760209051633b9aca008152f35b8334610353576104ad611198366114b6565b91611697565b505034610264578160031936011261026457517f00000000000000000000000000000000000000000000000000000000000000006001600160a01b03168152602090f35b5050346102645760203660031901126102645760209181906001600160a01b0361120a611485565b168152600a845220549051908152f35b50903461021c578060031936011261021c57611234611485565b9160243561124181611836565b331515806112e3575b806112ba575b6112a4576001600160a01b039485169482918691167f8c5be1e5ebec7d5bd14f71427d1e84f3dd0314c0f7b2291e5b200ac8c7c3b9258880a48452602052822080546001600160a01b031916909117905580f35b835163a9fbf51f60e01b81523381850152602490fd5b506001600160a01b03811686526005602090815284872033885290528386205460ff1615611250565b506001600160a01b03811633141561124a565b503461021c57602036600319011261021c5791826020933561131781611836565b50825283528190205490516001600160a01b039091168152f35b505034610264578160031936011261026457805190828054611352816114eb565b808552916001918083169081156107dc575060011461137d5750505061076e82610418940383611557565b80809650527f290decd9548b62a8d60345a988386fc84ba6bc95484008f6362f93160ef3e5635b8286106113c15750505061076e826020610418958201019461075c565b805460208787018101919091529095019481016113a4565b9250503461021c57602036600319011261021c573563ffffffff60e01b811680910361021c57602092506380ac58cd60e01b8114908115611434575b8115611423575b5015158152f35b6301ffc9a760e01b1490503861141c565b635b5e139f60e01b81149150611415565b919082519283825260005b848110611471575050826000602080949584010152601f8019910116010190565b602081830181015184830182015201611450565b600435906001600160a01b038216820361149b57565b600080fd5b602435906001600160a01b038216820361149b57565b606090600319011261149b576001600160a01b0390600435828116810361149b5791602435908116810361149b579060443590565b90600182811c9216801561151b575b602083101461150557565b634e487b7160e01b600052602260045260246000fd5b91607f16916114fa565b6020810190811067ffffffffffffffff82111761154157604052565b634e487b7160e01b600052604160045260246000fd5b90601f8019910116810190811067ffffffffffffffff82111761154157604052565b906040519182600082549261158d846114eb565b9081845260019485811690816000146115fc57506001146115b9575b50506115b792500383611557565b565b9093915060005260209081600020936000915b8183106115e45750506115b7935082010138806115a9565b855488840185015294850194879450918301916115cc565b9150506115b794506020925060ff191682840152151560051b82010138806115a9565b90600582101561162c5752565b634e487b7160e01b600052602160045260246000fd5b90600482101561162c5752565b67ffffffffffffffff811161154157601f01601f191660200190565b6006546001600160a01b0316330361167f57565b60405163118cdaa760e01b8152336004820152602490fd5b6001600160a01b03918216929091831561181d57600092828452826020956002875260409684888820541696879133151580611787575b509060027fddf252ad1be2c89b69c2b068fc378daa952ba7f163c4a11628f55a4df523b3ef9284611754575b858352600381528b8320805460010190558683525289812080546001600160a01b0319168517905580a416928383036117335750505050565b6064945051926364283d7b60e01b8452600484015260248301526044820152fd5b600087815260046020526040902080546001600160a01b0319169055848352600381528b832080546000190190556116fa565b919394509150806117dc575b156117a3578592918791386116ce565b8786886117c0576024915190637e27328960e01b82526004820152fd5b604491519063177e802f60e01b82523360048301526024820152fd5b503387148015611801575b806117935750858252600481523385898420541614611793565b5086825260058152878220338352815260ff88832054166117e7565b604051633250574960e11b815260006004820152602490fd5b6000818152600260205260409020546001600160a01b0316908115611859575090565b60249060405190637e27328960e01b82526004820152fd5b813b61187e575b50505050565b604051630a85bd0160e11b8082523360048301526001600160a01b039283166024830152604482019490945260806064820152602095929091169390929083906118cc906084830190611445565b039285816000958187895af1849181611975575b50611940575050503d600014611938573d6118fa8161164f565b906119086040519283611557565b81528091843d92013e5b8051928361193357604051633250574960e11b815260048101849052602490fd5b019050fd5b506060611912565b919450915063ffffffff60e01b160361195d575038808080611878565b60249060405190633250574960e11b82526004820152fd5b9091508681813d83116119ae575b61198d8183611557565b8101031261071d57516001600160e01b03198116810361071d5790386118e0565b503d611983565b60001981146119c45760010190565b634e487b7160e01b600052601160045260246000fd5b80548210156119f25760005260206000200190600090565b634e487b7160e01b600052603260045260246000fd5b6001600160a01b03166000908152600a60205260408120548015611a6e578152600960205260ff600260408320015416906005821015611a5a575060038114908115611a52575090565b600491501490565b634e487b7160e01b81526021600452602490fd5b5090565b600581101561162c5760018114611aba5760028114611ab05760038114611aa757600414611a9f57600090565b633b9aca0090565b506305f5e10090565b5064012a05f20090565b50631dcd650090565b600581101561162c5760018114611af85760028114611b005760038114611af857600414611af057600090565b6301e1338090565b5062278d0090565b506301e133809056fea26469706673582212206560895556201f6e778c47478f5c9003b172590cf1b7d59851d5d3bfceed3c5f64736f6c63430008140033","linkReferences":{}},"methodIdentifiers":{"AGENCY_ANNUAL_FEE()":"2ce137f8","AGENCY_MONTHLY_FEE()":"7f7d0077","CLIENT_ANNUAL_FEE()":"8a365256","CLIENT_MONTHLY_FEE()":"b660df6a","addManager(address)":"2d06177a","adminToSubscription(address)":"0fa085ea","agencyRegistry()":"141bd4e0","approve(address,uint256)":"095ea7b3","balanceOf(address)":"70a08231","enterpriseUsers(address)":"2b08dd97","getApproved(uint256)":"081812fc","getSubscription(uint256)":"dc311dd3","isAgencySubscriber(address)":"476a8d43","isApprovedForAll(address,address)":"e985e9c5","isEnterpriseUser(address)":"66c0675e","name()":"06fdde03","owner()":"8da5cb5b","ownerOf(uint256)":"6352211e","recordProjectCreated(address,uint256)":"ca2b9c9c","removeManager(address)":"ac18de43","renounceOwnership()":"715018a6","safeTransferFrom(address,address,uint256)":"42842e0e","safeTransferFrom(address,address,uint256,bytes)":"b88d4fde","setApprovalForAll(address,bool)":"a22cb465","stablecoin()":"e9cbd822","subscribe(uint8,string)":"8fd32f43","subscriptionCounter()":"903a8298","subscriptions(uint256)":"2d5bbf60","supportsInterface(bytes4)":"01ffc9a7","symbol()":"95d89b41","tokenURI(uint256)":"c87b56dd","transferFrom(address,address,uint256)":"23b872dd","transferOwnership(address)":"f2fde38b"},"id":38}