{"abi":[{"type":"constructor","inputs":[{"name":"_stablecoin","type":"address","internalType":"address"}],"stateMutability":"nonpayable"},{"type":"function","name":"authorizeContract","inputs":[{"name":"contract_","type":"address","internalType":"address"},{"name":"status","type":"bool","internalType":"bool"}],"outputs":[],"stateMutability":"nonpayable"},{"type":"function","name":"authorizedContracts","inputs":[{"name":"","type":"address","internalType":"address"}],"outputs":[{"name":"","type":"bool","internalType":"bool"}],"stateMutability":"view"},{"type":"function","name":"getTreasuryMetrics","inputs":[],"outputs":[{"name":"deposits","type":"uint256","internalType":"uint256"},{"name":"sponsored","type":"uint256","internalType":"uint256"},{"name":"remaining","type":"uint256","internalType":"uint256"}],"stateMutability":"view"},{"type":"function","name":"getUserBalance","inputs":[{"name":"user","type":"address","internalType":"address"}],"outputs":[{"name":"","type":"uint256","internalType":"uint256"}],"stateMutability":"view"},{"type":"function","name":"getUserSpentGas","inputs":[{"name":"user","type":"address","internalType":"address"}],"outputs":[{"name":"","type":"uint256","internalType":"uint256"}],"stateMutability":"view"},{"type":"function","name":"owner","inputs":[],"outputs":[{"name":"","type":"address","internalType":"address"}],"stateMutability":"view"},{"type":"function","name":"receiveDeposit","inputs":[{"name":"user","type":"address","internalType":"address"},{"name":"amount","type":"uint256","internalType":"uint256"}],"outputs":[],"stateMutability":"nonpayable"},{"type":"function","name":"renounceOwnership","inputs":[],"outputs":[],"stateMutability":"nonpayable"},{"type":"function","name":"sponsorGas","inputs":[{"name":"user","type":"address","internalType":"address"},{"name":"gasAmount","type":"uint256","internalType":"uint256"}],"outputs":[],"stateMutability":"nonpayable"},{"type":"function","name":"stablecoin","inputs":[],"outputs":[{"name":"","type":"address","internalType":"contract IERC20"}],"stateMutability":"view"},{"type":"function","name":"totalDeposits","inputs":[],"outputs":[{"name":"","type":"uint256","internalType":"uint256"}],"stateMutability":"view"},{"type":"function","name":"totalSponsored","inputs":[],"outputs":[{"name":"","type":"uint256","internalType":"uint256"}],"stateMutability":"view"},{"type":"function","name":"transferOwnership","inputs":[{"name":"newOwner","type":"address","internalType":"address"}],"outputs":[],"stateMutability":"nonpayable"},{"type":"function","name":"userDeposits","inputs":[{"name":"","type":"address","internalType":"address"}],"outputs":[{"name":"","type":"uint256","internalType":"uint256"}],"stateMutability":"view"},{"type":"function","name":"userSpentGas","inputs":[{"name":"","type":"address","internalType":"address"}],"outputs":[{"name":"","type":"uint256","internalType":"uint256"}],"stateMutability":"view"},{"type":"function","name":"withdrawTreasury","inputs":[{"name":"amount","type":"uint256","internalType":"uint256"}],"outputs":[],"stateMutability":"nonpayable"},{"type":"event","name":"ContractAuthorized","inputs":[{"name":"contract_","type":"address","indexed":true,"internalType":"address"},{"name":"status","type":"bool","indexed":false,"internalType":"bool"}],"anonymous":false},{"type":"event","name":"DepositReceived","inputs":[{"name":"user","type":"address","indexed":true,"internalType":"address"},{"name":"amount","type":"uint256","indexed":false,"internalType":"uint256"}],"anonymous":false},{"type":"event","name":"GasSponsored","inputs":[{"name":"user","type":"address","indexed":true,"internalType":"address"},{"name":"contract_","type":"address","indexed":true,"internalType":"address"},{"name":"amount","type":"uint256","indexed":false,"internalType":"uint256"}],"anonymous":false},{"type":"event","name":"OwnershipTransferred","inputs":[{"name":"previousOwner","type":"address","indexed":true,"internalType":"address"},{"name":"newOwner","type":"address","indexed":true,"internalType":"address"}],"anonymous":false},{"type":"event","name":"Withdrawal","inputs":[{"name":"owner","type":"address","indexed":true,"internalType":"address"},{"name":"amount","type":"uint256","indexed":false,"internalType":"uint256"}],"anonymous":false},{"type":"error","name":"InsufficientUserBalance","inputs":[]},{"type":"error","name":"OwnableInvalidOwner","inputs":[{"name":"owner","type":"address","internalType":"address"}]},{"type":"error","name":"OwnableUnauthorizedAccount","inputs":[{"name":"account","type":"address","internalType":"address"}]},{"type":"error","name":"UnauthorizedContract","inputs":[]}],"bytecode":{"object":"0x60a0346100d657601f61092638819003918201601f19168301916001600160401b038311848410176100db578084926020946040528339810103126100d657516001600160a01b0390818116908190036100d65733156100bd576000543360018060a01b0319821617600055604051923391167f8be0079c531659141344cd1fd0a4f28419497f9722a3daafe3b4186f6b6457e0600080a360805261083490816100f2823960805181818161019401528181610434015261063d0152f35b604051631e4fbdf760e01b815260006004820152602490fd5b600080fd5b634e487b7160e01b600052604160045260246000fdfe6080604081815260048036101561001557600080fd5b600092833560e01c9081630ba36dcd146107035750806311f1fc99146105ef5780631bf01c801461030857806347734892146105ba5780635cbeb13f146105385780636c98249d146103e4578063715018a6146103875780637d882097146103685780638da5cb5b14610340578063d2f3460414610308578063d2f4071814610236578063d5b9221b146101f8578063dc387942146101c3578063e9cbd8221461017f578063eb0ebfbc1461015c5763f2fde38b146100d357600080fd5b34610158576020366003190112610158576100ec610737565b906100f5610752565b6001600160a01b0391821692831561014257505082546001600160a01b0319811683178455167f8be0079c531659141344cd1fd0a4f28419497f9722a3daafe3b4186f6b6457e08380a380f35b51631e4fbdf760e01b8152908101849052602490fd5b8280fd5b50503461017b578160031936011261017b576020906002549051908152f35b5080fd5b50503461017b578160031936011261017b57517f00000000000000000000000000000000000000000000000000000000000000006001600160a01b03168152602090f35b50503461017b578160031936011261017b576001546002546060926101e882846107f1565b9181519384526020840152820152f35b50503461017b57602036600319011261017b5760209160ff9082906001600160a01b03610223610737565b1681526003855220541690519015158152f35b503461015857816003193601126101585761024f610737565b9160243592338552600360205260ff8286205416156102fa5760018060a01b031691828552806020528382862054106102ec578285526020528084206102968482546107f1565b905581845260056020528084206102ae8482546107ce565b90556102bc836002546107ce565b600255519182527fc9991e76367ebf3387530c533ae59ea7535aa764f043134baaf8b3dd3ad7062660203393a380f35b90516324aa779360e21b8152fd5b50516372312d7960e01b8152fd5b50503461017b57602036600319011261017b5760209181906001600160a01b03610330610737565b1681526005845220549051908152f35b50503461017b578160031936011261017b57905490516001600160a01b039091168152602090f35b50503461017b578160031936011261017b576020906001549051908152f35b83346103e157806003193601126103e1576103a0610752565b80546001600160a01b03198116825581906001600160a01b03167f8be0079c531659141344cd1fd0a4f28419497f9722a3daafe3b4186f6b6457e08280a380f35b80fd5b5090346101585780600319360112610158576103fe610737565b906024359080516323b872dd60e01b8152338582015230602482015282604482015260209360018060a01b039185816064818b877f0000000000000000000000000000000000000000000000000000000000000000165af190811561052e578891610501575b50156104be57907f9936746a4565f9766fa768f88f56a7487c78780ac179562773d1c75c5269537e94939291169485875283528086206104a58382546107ce565b90556104b3826001546107ce565b60015551908152a280f35b825162461bcd60e51b8152808701869052601760248201527f4465706f736974207472616e73666572206661696c65640000000000000000006044820152606490fd5b6105219150863d8811610527575b610519818361077e565b8101906107b6565b38610464565b503d61050f565b84513d8a823e3d90fd5b50503461017b578060031936011261017b57610552610737565b602435908115158092036105b6577f3213ab8ec2ed122402f038736b41878b69ae9f61f49a7edd0666bce891d29fc99160209161058d610752565b6001600160a01b031680865260038352848620805460ff191660ff84161790559351908152a280f35b8380fd5b50346101585760203660031901126101585760209282916001600160a01b036105e1610737565b168252845220549051908152f35b503461015857602090816003193601126105b65780359061060e610752565b8454845163a9059cbb60e01b81526001600160a01b03918216818401526024810184905290919084816044818a7f000000000000000000000000000000000000000000000000000000000000000088165af19081156106f95787916106dc575b50156106a55750907f7fcf532c15f0a6db0bd6d0e038bea71d30d808c7d98cb3bf7268a95bf5081b6592918554169351908152a280f35b845162461bcd60e51b8152908101849052601160248201527015da5d1a191c985dd85b0819985a5b1959607a1b6044820152606490fd5b6106f39150853d871161052757610519818361077e565b3861066e565b86513d89823e3d90fd5b92919050346105b65760203660031901126105b657602093906001600160a01b0361072c610737565b168252845220548152f35b600435906001600160a01b038216820361074d57565b600080fd5b6000546001600160a01b0316330361076657565b60405163118cdaa760e01b8152336004820152602490fd5b90601f8019910116810190811067ffffffffffffffff8211176107a057604052565b634e487b7160e01b600052604160045260246000fd5b9081602091031261074d5751801515810361074d5790565b919082018092116107db57565b634e487b7160e01b600052601160045260246000fd5b919082039182116107db5756fea26469706673582212208e2effaade659ff9b0b2ebbe719fe9894af57188fb17c51718f6c5992402404c64736f6c63430008140033","linkReferences":{}},"methodIdentifiers":{"authorizeContract(address,bool)":"5cbeb13f","authorizedContracts(address)":"d5b9221b","getTreasuryMetrics()":"dc387942","getUserBalance(address)":"47734892","getUserSpentGas(address)":"d2f34604","owner()":"8da5cb5b","receiveDeposit(address,uint256)":"6c98249d","renounceOwnership()":"715018a6","sponsorGas(address,uint256)":"d2f40718","stablecoin()":"e9cbd822","totalDeposits()":"7d882097","totalSponsored()":"eb0ebfbc","transferOwnership(address)":"f2fde38b","userDeposits(address)":"0ba36dcd","userSpentGas(address)":"1bf01c80","withdrawTreasury(uint256)":"11f1fc99"},"id":39}